:10000000287300207575000067CF0100617500003E
:100010006175000061750000617500006175000088
:10002000000000000000000000000000D176000089
:10003000617500000000000071760000617500002D
:10004000617800006178000061780000617800004C
:10005000617800006178000061780000617800003C
:10006000617800006178000061780000617800002C
:10007000617800006178000061780000617800001C
:10008000617800006178000061780000617800000C
:1000900061780000617800006178000061780000FC
:1000A00061780000617800006178000061780000EC
:1000B00061780000617800006178000061780000DC
:1000C00061780000617800006178000061780000CC
:1000D00061780000617800006178000061780000BC
:1000E00061780000617800006178000061780000AC
:1000F000617800006178000061780000617800009C
:10010000617800006178000061780000617800008B
:10011000617800006178000061780000617800007B
:10012000617800006178000061780000617800006B
:10013000617800006178000061780000617800005B
:10014000617800006178000061780000617800004B
:0401500061780000D2
:1001580080EA101404F0F01480EA0410604081EA88
:10016800111404F0F01481EA0411614082EA1214B7
:1001780004F0F01482EA0412624083EA131404F0D3
:10018800F01483EA0413634080EA102404F47F44E3
:1001980080EA0420604081EA112404F47F4481EA63
:1001A8000421614082EA122404F47F4482EA042292
:1001B800624083EA132404F47F4483EA04236340FF
:1001C80081EA500404F0553480EA4400614083EA2F
:1001D800520404F0553482EA4402634082EA9004EF
:1001E80004F0333480EA8400624083EA910404F026
:1001F800333481EA84016340704700BF82EA900487
:1002080004F0333480EA8400624083EA910404F005
:10021800333481EA8401634081EA500404F05534A0
:1002280080EA4400614083EA520404F0553482EACB
:100238004402634080EA102404F47F4480EA0420E6
:10024800604081EA112404F47F4481EA042161407A
:1002580082EA122404F47F4482EA0422624083EA98
:10026800132404F47F4483EA0423634080EA1014CF
:1002780004F0F01480EA0410604081EA111404F0DC
:10028800F01481EA0411614082EA121404F0F014B7
:1002980082EA0412624083EA131404F0F01483EA39
:1002A80004136340704700BF2DE9F14F94464FEAAD
:1002B800930B8A68CB6808684968FFF749FF0BF118
:1002C800060E33E083EA134480EA134582EA1347B3
:1002D80046BA96EA3444604000F00F1684EA0634C1
:1002E80020F00F1684EA161054BA94EA01067240F8
:1002F80002F00F1486EA043622F00F1486EA14126C
:100308004CBA6540694001F00F1485EA043521F0C4
:100318000F1485EA14115CBA67407B4003F00F1490
:1003280087EA043723F00F1487EA1413BCE8F000B7
:100338006040694072407B4000F0E03400F01035C6
:1003480000F00F3040EA540040EAC50080EA90040B
:1003580004F0332480EA8400604001F0E03401F0C6
:10036800103501F00F3141EA540141EAC50181EA33
:10037800910404F0332481EA8401614002F0E034FE
:1003880002F0103502F00F3242EA540242EAC50286
:1003980082EA920404F0332482EA8402624003F081
:1003A800E03403F0103503F00F3343EA540343EA13
:1003B800C50383EA930404F0332483EA8403634087
:1003C80081EA324787EA134581EA354690EA06040E
:1003D80084EA034B82EA1B4280EA044484EA054427
:1003E80083EA144A85EA14448BEA044B84EA3744C6
:1003F80081EA0B4181EA164104EA0A00454082EA93
:1004080004082BEA080041408AEA0B0602EA0600C3
:1004180084EA34438AEA3A4603EA060778404540C4
:10042800414088EA38478BEA3B4007EA000985EAF9
:10043800090583EA0709464006EA0906714085EA84
:10044800010005EA3546464006EA314181EA304175
:1004580081EA364606EA304686EA3546344008EAF6
:10046800010886EA01052A4086EA364003405A40D8
:1004780081EA31431F407C4080EA030709EA070903
:1004880088EA0908544088EA020806EA0A0601EAE6
:100498000B018AEA0B0215408AEA3A4210404540AD
:1004A8008BEA3B4003405E404240174079404D4054
:1004B8004E40E443F64386EA18435D4085EA05402A
:1004C80083EA134386EA034183EA384284EA114304
:1004D80083EA04435FEA3343BEF1010E3FF6F2AE0E
:1004E8001ED4BCE8F0006040694072407B4020BCEC
:1004F800FFF784FE28606960AA60EB60BDE8F08FB2
:100508002DE9E0414FF2F00280EA1031114080EA13
:100518000130484041088208C3084FF0000E4FE7F9
:1005280000F0113001F0113102F0113203F01133F3
:1005380040EA410040EA820040EAC3004FF2F0027C
:1005480080EA1031114080EA01304840BDE8E0817E
:100558002DE9F04F02F11C050646074600EB850819
:1005680051F8040B043A46F8040BF9D14FF0010C8A
:10057800FFF7C6FF5FEA302080EA0C001ECF41403B
:100588004A4053405C401EC62000464517D04FEAFB
:100598004C0C1CF4807F18BFACF1E50C2C2DE7D077
:1005A8003C2D06D1FFF7ACFF06CF41404A4006C6B6
:1005B800100006CF41404A4006C61000D8E736E989
:1005C8000F00FFF7C5FD043D86E80F00F7D1BDE831
:1005D800F08F00BF2DE9F14F03F11C0402EB840CEE
:1005E8004FEA930B8A68CB6808684968FFF7B0FD43
:1005F8003CE9F0006040694072407B400BF1060E18
:100608004EE083EA134480EA134582EA134746BA68
:1006180096EA3444604000F00F1684EA063420F06D
:100628000F1684EA161054BA94EA0106724002F0D2
:100638000F1486EA043622F00F1486EA14124CBA14
:100648006540694001F00F1485EA043521F00F1464
:1006580085EA14115CBA67407B4003F00F1487EAFF
:10066800043723F00F1487EA141344BA44404DBAF0
:100678004D4056BA56405FBA5F4087EA174886EA47
:10068800174B84EA17464FEA38488BEA1B4485EA39
:100698001B4788EA1B4580EA3440694072407B402A
:1006A80000F0703400F0803500F00F3040EA44006C
:1006B80040EAD50080EA900404F0332480EA8400FC
:1006C800604001F0703401F0803501F00F3141EAEB
:1006D800440141EAD50181EA910404F0332481EA16
:1006E8008401614002F0703402F0803502F00F326C
:1006F80042EA440242EAD50282EA920404F0332430
:1007080082EA8402624003F0703403F0803503F01B
:100718000F3343EA440343EAD50383EA930404F01E
:10072800332483EA84036340C943DB4381EA00043A
:1007380083EA044686EA020183EA014382EA3345F2
:1007480083EA14435C4084EA00077FEA040A8AEAE1
:10075800024A8AEA010B87EA11488AEA374A80EA9C
:10076800060181EA1A418AEA030A04EA0A004540B6
:1007780088EA040707EA0B0041408AEA0B0608EA00
:10078800060084EA34428AEA3A4602EA06035840F6
:100798004540414087EA37438BEA3B4003EA00097A
:1007A80085EA090582EA0309464006EA0906714016
:1007B80085EA010005EA3546464006EA314181EA04
:1007C800304181EA364606EA304686EA3546344004
:1007D8000F4086EA010508EA050886EA3640024025
:1007E80088EA020881EA314213405C4080EA020349
:1007F80009EA030987EA0907674088EA040806EA5C
:100808000A0601EA0B018AEA0B0425408AEA3A44FF
:10081800204045408BEA3B4B02EA0B02564084EAF3
:100828000B04234059406E40694087EA364080EA0D
:10083800384080EA060380EA104481EA134585EAD5
:10084800344585EA17427D4082EA354180EA054011
:100858003CE9F0006040694072407B40BEF1010E07
:100868003FF6CFAE20BCFFF7C9FC28606960AA60DC
:10087800EB60BDE8F08F00BFFFF76ABE30B44FF001
:10088800000310F8014B11F8015B013A84EA0504F2
:1008980043EA0403F5D1A3F101034FEAD37030BC56
:1008A800704700BF4FF0000310F8012B013943EAED
:1008B8000203F9D1A3F101034FEAD370704700BFD7
:1008C80030B411F8014B12F8015B6C4000F8014B91
:1008D800013BF6D130BC70472DE9F04F90E8F00F9E
:1008E80000F140004FF0040E59E0F0B4826BC36B86
:1008F80004680525242687593C444FEA724787EA4D
:10090800F24787EA92273C4442684FEAF21787EA9F
:10091800B24787EAD2073C4440F8044B032D08BF8E
:100928006FF01B0687593A444FEA734787EAF34743
:1009380087EA93273A4443684FEAF31787EAB347AD
:1009480087EAD3073A4440F8042B87593B444FEAD7
:10095800744787EAF44787EA94273B4444684FEA98
:10096800F41787EAB44787EAD4073B4440F8043BC6
:10097800013DC0D1A0F13C00076A3C444FEA7247F0
:1009880087EAF24787EA92273C4402684FEAF2175F
:1009980087EAB24787EAD2073C44C463F0BC4FF009
:1009A800020288EA781C8CEAF84C0BEBBC1C8AEA39
:1009B800090303EA080383EA0A039C4450F8043B4A
:1009C8009C4451F8043B9C44674444EA050B0BEAF9
:1009D800060B04EA05034BEA030BE34484EAF42319
:1009E80083EA34530BEBB30B87EA771C8CEAF74C9A
:1009F8000AEBBC1C89EA080303EA070383EA090334
:100A08009C4450F8043B9C4451F8043B9C44664485
:100A18004BEA040A0AEA050A0BEA04034AEA030A4B
:100A2800E2448BEAFB2383EA3B530AEBB30A86EAE8
:100A3800761C8CEAF64C09EBBC1C88EA070303EA2F
:100A4800060383EA08039C4450F8043B9C4451F88D
:100A5800043B9C4465444AEA0B0909EA04090AEA8A
:100A68000B0349EA0309E1448AEAFA2383EA3A5381
:100A780009EBB30985EA751C8CEAF54C08EBBC1C3C
:100A880087EA060303EA050383EA07039C4450F850
:100A9800043B9C4451F8043B9C44644449EA0A08DA
:100AA80008EA0B0809EA0A0348EA0308E04489EA65
:100AB800F92383EA395308EBB30884EA741C8CEAF7
:100AC800F44C07EBBC1C86EA050303EA040383EA3B
:100AD80006039C4450F8043B9C4451F8043B9C4456
:100AE800E34448EA090707EA0A0708EA090347EA64
:100AF8000307674488EAF82383EA385307EBB30708
:100B08008BEA7B1C8CEAFB4C06EBBC1C85EA0403D5
:100B180003EA0B0383EA05039C4450F8043B9C4416
:100B280051F8043B9C44E24447EA080606EA0906F1
:100B380007EA080346EA0306664487EAF72383EAD6
:100B4800375306EBB3068AEA7A1C8CEAFA4C05EBB3
:100B5800BC1C84EA0B0303EA0A0383EA04039C44EB
:100B680050F8043B9C4451F8043B9C44E14446EA59
:100B7800070505EA080506EA070345EA030565448B
:100B880086EAF62383EA365305EBB30589EA791C2E
:100B98008CEAF94C04EBBC1C8BEA0A0303EA090350
:100BA80083EA0B039C4450F8043B9C4451F8043BF3
:100BB8009C44E04445EA060404EA070405EA0603FF
:100BC80044EA0304644485EAF52383EA355304EBD5
:100BD800B304013A7FF4E5AEA0F14000BEF1010E86
:100BE8007FF483AEA0F1400C9CE80F00001949196E
:100BF8009219DB19ACE80F009CE80F004044494407
:100C080052445B44ACE80F00BDE8F08F81F000412E
:100C180002E000BF83F0004330B54FEA41044FEAD9
:100C2800430594EA050F08BF90EA020F1FBF54EA74
:100C3800000C55EA020C7FEA645C7FEA655C00F010
:100C4800E2804FEA5454D4EB5555B8BF6D420CDDE1
:100C58002C4480EA020281EA030382EA000083EA64
:100C6800010180EA020281EA0303362D88BF30BD04
:100C780011F0004F4FEA01314FF4801C4CEA11315A
:100C880002D0404261EB410113F0004F4FEA0333B9
:100C98004CEA133302D0524263EB430394EA050F44
:100CA80000F0A780A4F10104D5F1200E0DDB02FAB3
:100CB8000EFC22FA05F2801841F1000103FA0EF247
:100CC800801843FA05F359410EE0A5F120050EF10D
:100CD800200E012A03FA0EFC28BF4CF0020C43FA3E
:100CE80005F3C01851EBE37101F0004507D54FF04B
:100CF800000EDCF1000C7EEB00006EEB0101B1F59B
:100D0800801F1BD3B1F5001F0CD349085FEA3000E0
:100D18004FEA3C0C04F101044FEA445212F5800FEB
:100D280080F09A80BCF1004F08BF5FEA500C50F188
:100D3800000041EB045141EA050130BD5FEA4C0C6B
:100D4800404141EB0101013C28BFB1F5801FE9D2C8
:100D580091F0000F04BF01460020B1FA81F308BFEB
:100D68002033A3F10B03B3F120020CDA0C3208DDB7
:100D780002F1140CC2F10C0201FA0CF021FA02F192
:100D88000CE002F11402D8BFC2F1200C01FA02F102
:100D980020FA0CFCDCBF41EA0C019040E41AA2BF27
:100DA80001EB0451294330BD6FEA04041F3C1CDAEF
:100DB8000C340EDC04F11404C4F1200220FA04F00F
:100DC80001FA02F340EA030021FA04F345EA0301B9
:100DD80030BDC4F10C04C4F1200220FA02F001FA7B
:100DE80004F340EA0300294630BD21FA04F02946FD
:100DF80030BD94F0000F83F4801306BF81F4801196
:100E08000134013D4EE77FEA645C18BF7FEA655C08
:100E180029D094EA050F08BF90EA020F05D054EADA
:100E2800000C04BF1946104630BD91EA030F1EBFDF
:100E38000021002030BD5FEA545C05D140004941E3
:100E480028BF41F0004130BD14F580043CBF01F5D6
:100E5800801130BD01F0004545F0FE4141F47001BC
:100E68004FF0000030BD7FEA645C1ABF1946104697
:100E78007FEA655C1CBF0B46024650EA013406BF98
:100E880052EA033591EA030F41F4002130BD00BF57
:100E980090F0000F04BF0021704730B54FF4806414
:100EA80004F132044FF000054FF0000150E700BF95
:100EB80090F0000F04BF0021704730B54FF48064F4
:100EC80004F1320410F0004548BF40424FF00001E1
:100ED8003EE700BF42004FEAE2014FEA31014FEA24
:100EE80002701FBF12F07F4393F07F4F81F0605173
:100EF800704732F07F4208BF704793F07F4F04BFBE
:100F080041F40021704730B54FF4607401F000459A
:100F180021F000411CE700BF50EA010208BF7047FA
:100F280030B54FF000050AE050EA010208BF7047EB
:100F380030B511F0004502D5404261EB41014FF454
:100F4800806404F132045FEA915C3FF4D8AE4FF05C
:100F580003025FEADC0C18BF03325FEADC0C18BF3F
:100F6800033202EBDC02C2F1200300FA03FC20FA90
:100F780002F001FA03FE40EA0E0021FA02F11444DD
:100F8800BDE600BF70B54FF0FF0C4CF4E06C1CEAF6
:100F980011541DBF1CEA135594EA0C0F95EA0C0F67
:100FA80000F0DEF82C4481EA030621EA4C5123EADA
:100FB8004C5350EA013518BF52EA033541F4801109
:100FC80043F4801338D0A0FB02CE4FF00005E1FBBC
:100FD80002E506F00042E0FB03E54FF00006E1FB06
:100FE80003569CF0000F18BF4EF0010EA4F1FF0449
:100FF800B6F5007F64F5407404D25FEA4E0E6D4189
:1010080046EB060642EAC62141EA55514FEAC52099
:1010180040EA5E504FEACE2EB4F1FD0C88BFBCF515
:10102800E06F1ED8BEF1004F08BF5FEA500E50F1C6
:10103800000041EB045170BD06F0004646EA01018C
:1010480040EA020081EA0301B4EB5C04C2BFD4EBBE
:101058000C0541EA045170BD41F480114FF0000EB7
:10106800013C00F3AB8014F1360FDEBF002001F025
:10107800004170BDC4F10004203C35DA0C341BDC9F
:1010880004F11404C4F1200500FA05F320FA04F071
:1010980001FA05F240EA020001F0004221F00041A5
:1010A80010EBD37021FA04F642EB06015EEA430E18
:1010B80008BF20EAD37070BDC4F10C04C4F1200548
:1010C80000FA04F320FA05F001FA04F240EA0200FB
:1010D80001F0004110EBD37041F100015EEA430ECC
:1010E80008BF20EAD37070BDC4F1200500FA05F2EC
:1010F8004EEA020E20FA04F301FA05F243EA02036B
:1011080021FA04F001F0004121FA04F220EA020079
:1011180000EBD3705EEA430E08BF20EAD37070BDBF
:1011280094F0000F0FD101F00046400041EB01019F
:1011380011F4801F08BF013CF7D041EA060195F081
:10114800000F18BF704703F00046520043EB03033B
:1011580013F4801F08BF013DF7D043EA0603704728
:1011680094EA0C0F0CEA135518BF95EA0C0F0CD033
:1011780050EA410618BF52EA4306D1D181EA030179
:1011880001F000414FF0000070BD50EA410606BF73
:101198001046194652EA430619D094EA0C0F02D1B8
:1011A80050EA013613D195EA0C0F05D152EA0336FD
:1011B8001CBF104619460AD181EA030101F000411B
:1011C80041F0FE4141F470014FF0000070BD41F064
:1011D800FE4141F4780170BD70B54FF0FF0C4CF43E
:1011E800E06C1CEA11541DBF1CEA135594EA0C0F5D
:1011F80095EA0C0F00F0A7F8A4EB050481EA030EAA
:1012080052EA03354FEA013100F088804FEA033390
:101218004FF0805545EA131343EA12634FEA02225E
:1012280045EA111545EA10654FEA00260EF000411F
:101238009D4208BF964244F1FD0404F5407402D271
:101248005B084FEA3202B61A65EB03055B084FEA02
:1012580032024FF480104FF4002CB6EB020E75EBFF
:10126800030E22BFB61A754640EA0C005B084FEA27
:101278003202B6EB020E75EB030E22BFB61A7546A4
:1012880040EA5C005B084FEA3202B6EB020E75EBEF
:10129800030E22BFB61A754640EA9C005B084FEA67
:1012A8003202B6EB020E75EB030E22BFB61A754674
:1012B80040EADC0055EA060E18D04FEA051545EA63
:1012C80016754FEA06164FEAC30343EA52734FEA0C
:1012D800C2025FEA1C1CC0D111F4801F0BD141EA85
:1012E80000014FF000004FF0004CB6E711F4801FEA
:1012F80004BF01430020B4F1FD0C88BFBCF5E06FCA
:101308003FF6AFAEB5EB030C04BFB6EB020C5FEAD9
:10131800500C50F1000041EB045170BD0EF0004E2E
:101328004EEA113114EB5C04C2BFD4EB0C0541EA60
:10133800045170BD41F480114FF0000E013C90E65D
:1013480045EA060E8DE60CEA135594EA0C0F08BF21
:1013580095EA0C0F3FF43BAF94EA0C0F0AD150EA20
:1013680001347FF434AF95EA0C0F7FF425AF1046B3
:1013780019462CE795EA0C0F06D152EA03353FF4DB
:10138800FDAE1046194622E750EA410618BF52EA58
:1013980043067FF4C5AE50EA41047FF40DAF52EA2C
:1013A80043057FF4EBAE12E74FF0FF3C06E000BFC9
:1013B8004FF0010C02E000BF4FF0010C4DF804CDD6
:1013C8004FEA410C7FEA6C5C4FEA430C18BF7FEA96
:1013D8006C5C1BD001B050EA410C0CBF52EA430CC4
:1013E80091EA030F02BF90EA020F0020704710F144
:1013F800000F91EA030F58BF994208BF90422CBFD3
:10140800D8176FEAE37040F0010070474FEA410CCB
:101418007FEA6C5C02D150EA013C07D14FEA430CE9
:101428007FEA6C5CD6D152EA033CD3D05DF8040B5A
:10143800704700BF8446104662468C46194663468C
:1014480000E000BF01B5FFF7B7FF002848BF10F163
:10145800000F01BD4DF808EDFFF7F4FF0CBF0120A8
:1014680000205DF808FB00BF4DF808EDFFF7EAFF24
:1014780034BF012000205DF808FB00BF4DF808EDDF
:10148800FFF7E0FF94BF012000205DF808FB00BFD4
:101498004DF808EDFFF7CEFF94BF012000205DF85E
:1014A80008FB00BF4DF808EDFFF7C4FF34BF01206B
:1014B80000205DF808FB00BF4FEA410212F5001258
:1014C80015D211D56FF47873B3EB625212D94FEA83
:1014D800C12343F0004343EA505311F0004F23FA6D
:1014E80002F018BF404270474FF00000704750EAC2
:1014F800013005D111F0004008BF6FF0004070477F
:101508004FF00000704700BF4A0011D212F50012D8
:1015180011D20DD56FF47873B3EB62520ED44FEA43
:10152800C12343F0004343EA505323FA02F07047C3
:101538004FF00000704750EA013002D14FF0FF3001
:1015480070474FF0000070474FEA4102B2F1E043A4
:1015580024BFB3F5001CDCF1FE5C0DD901F0004C92
:101568004FEAC0024CEA5070B2F1004F40EB8300E2
:1015780008BF20F00100704711F0804F21D113F10E
:101588003872BCBF01F00040704741F480114FEA47
:101598005252C2F11802C2F1200C10FA0CF320FAD0
:1015A80002F018BF40F001004FEAC1234FEAD323ED
:1015B80003FA0CFC40EA0C0023FA02F34FEA430357
:1015C800CCE77FEA625307D150EA01331EBF4FF0E0
:1015D800FE4040F44000704701F0004040F0FE40FB
:1015E80040F40000704700BF80F0004002E000BFF8
:1015F80081F0004142001FBF5FEA410392EA030FF6
:101608007FEA226C7FEA236C6AD04FEA1262D2EB3F
:101618001363C1BFD218414048404140B8BF5B4244
:10162800192B88BF704710F0004F40F4000020F0DD
:101638007F4018BF404211F0004F41F4000121F0F3
:101648007F4118BF494292EA030F3FD0A2F101023D
:1016580041FA03FC10EB0C00C3F1200301FA03F17B
:1016680000F0004302D5494260EB4000B0F5000F9E
:1016780013D3B0F1807F06D340084FEA310102F15D
:101688000102FE2A51D2B1F1004F40EBC25008BF0F
:1016980020F0010040EA03007047490040EB0000D9
:1016A800013A28BFB0F5000FEDD2B0FA80FCACF1DA
:1016B800080CB2EB0C0200FA0CF0AABF00EBC25007
:1016C80052421843BCBFD0401843704792F0000FF5
:1016D80081F4000106BF80F400000132013BB5E748
:1016E8004FEA41037FEA226C18BF7FEA236C21D0BE
:1016F80092EA030F04D092F0000F08BF0846704723
:1017080090EA010F1CBF0020704712F07F4F04D1F0
:10171800400028BF40F00040704712F100723CBF03
:1017280000F50000704700F0004343F0FE4040F42D
:10173800000070477FEA226216BF08467FEA2363EB
:101748000146420206BF5FEA412390EA010F40F4D6
:10175800800070474FF0000304E000BF10F0004322
:1017680048BF40425FEA000C08BF704743F0964309
:1017780001464FF000001CE050EA010208BF704724
:101788004FF000030AE000BF50EA010208BF7047AB
:1017980011F0004302D5404261EB41015FEA010CC0
:1017A80002BF84460146002043F0B64308BFA3F1B8
:1017B8008053A3F50003BCFA8CF2083AA3EBC2539A
:1017C80010DB01FA02FC634400FA02FCC2F12002B9
:1017D800BCF1004F20FA02F243EB020008BF20F0F0
:1017E8000100704702F1200201FA02FCC2F1200256
:1017F80050EA4C0021FA02F243EB020008BF20EA4B
:10180800DC7070474FF0FF0C1CEAD0521EBF1CEA78
:10181800D15392EA0C0F93EA0C0F6FD01A4480EA66
:10182800010C400218BF5FEA41211ED04FF000634F
:1018380043EA501043EA5111A0FB01310CF000407B
:10184800B1F5000F3EBF490041EAD3715B0040EAA1
:10185800010062F17F02FD2A1DD8B3F1004F40EB71
:10186800C25008BF20F00100704790F0000F0CF044
:10187800004C08BF49024CEA502040EA51207F3A08
:10188800C2BFD2F1FF0340EAC250704740F40000E3
:101898004FF00003013A5DDC12F1190FDCBF00F0D4
:1018A80000407047C2F10002410021FA02F1C2F182
:1018B800200200FA02FC5FEA310040F1000053EA1E
:1018C8004C0308BF20EADC70704792F0000F00F06C
:1018D800004C02BF400010F4000F013AF9D040EA72
:1018E8000C0093F0000F01F0004C02BF490011F406
:1018F800000F013BF9D041EA0C018FE70CEAD15304
:1019080092EA0C0F18BF93EA0C0F0AD030F0004C83
:1019180018BF31F0004CD8D180EA010000F0004037
:10192800704790F0000F17BF90F0004F084691F0F5
:10193800000F91F0004F14D092EA0C0F01D142022F
:101948000FD193EA0C0F03D14B0218BF084608D1F8
:1019580080EA010000F0004040F0FE4040F4000042
:10196800704740F0FE4040F4400070474FF0FF0CD5
:101978001CEAD0521EBF1CEAD15392EA0C0F93EA1C
:101988000C0F69D0A2EB030280EA010C49024FEA6E
:10199800402037D04FF0805343EA111143EA101327
:1019A8000CF000408B4238BF5B0042F17D024FF4DF
:1019B800000C8B4224BF5B1A40EA0C00B3EB510FBA
:1019C80024BFA3EB510340EA5C00B3EB910F24BFA3
:1019D800A3EB910340EA9C00B3EBD10F24BFA3EB28
:1019E800D10340EADC001B0118BF5FEA1C1CE0D1F0
:1019F800FD2A3FF650AF8B4240EBC25008BF20F0A3
:101A0800010070470CF0004C4CEA50207F32C2BFF6
:101A1800D2F1FF0340EAC250704740F400004FF093
:101A28000003013A37E792F0000F00F0004C02BFC4
:101A3800400010F4000F013AF9D040EA0C0093F08E
:101A4800000F01F0004C02BF490011F4000F013BE8
:101A5800F9D041EA0C0195E70CEAD15392EA0C0F50
:101A680008D142027FF47DAF93EA0C0F7FF470AF88
:101A7800084676E793EA0C0F04D14B023FF44CAFCB
:101A880008466EE730F0004C18BF31F0004CCAD160
:101A980030F000427FF45CAF31F000437FF43CAF9C
:101AA8005FE700BF4FF0FF3C06E000BF4FF0010CBE
:101AB80002E000BF4FF0010C4DF804CD4FEA4002A0
:101AC8004FEA41037FEA226C18BF7FEA236C11D0EA
:101AD80001B052EA530C18BF90EA010F58BFB2EB9D
:101AE800030088BFC81738BF6FEAE17018BF40F01D
:101AF800010070477FEA226C02D15FEA402C05D1D1
:101B08007FEA236CE4D15FEA412CE1D05DF8040B55
:101B1800704700BF844608466146FFE70FB5FFF7E8
:101B2800C9FF002848BF10F1000F0FBD4DF808EDA0
:101B3800FFF7F4FF0CBF012000205DF808FB00BF91
:101B48004DF808EDFFF7EAFF34BF012000205DF8EB
:101B580008FB00BF4DF808EDFFF7E0FF94BF012038
:101B680000205DF808FB00BF4DF808EDFFF7D2FF35
:101B780094BF012000205DF808FB00BF4DF808ED78
:101B8800FFF7C8FF34BF012000205DF808FB00BF45
:101B98007BB972B90029BEBF00204FF0004106E0B2
:101BA80008BF00281CBF6FF000414FF0FF3000F065
:101BB80095B8ADF1080C6DE904CE002909DB002BBE
:101BC8001ADB00F0D1F8DDF804E0DDE9022304B007
:101BD8007047404261EB4101002B1BDB00F0C4F869
:101BE800DDF804E0DDE9022304B0404261EB410185
:101BF800524263EB43037047524263EB430300F0E6
:101C0800B3F8DDF804E0DDE9022304B0404261EBFB
:101C180041017047524263EB430300F0A5F8DDF839
:101C280004E0DDE9022304B0524263EB430370474A
:101C380053B94AB9002908BF00281CBF4FF0FF312B
:101C48004FF0FF3000F04AB8ADF1080C6DE904CE52
:101C580000F08AF8DDF804E0DDE9022304B07047FB
:101C6800D0B5FFF737F900220B4B06460F46FFF7B2
:101C780089F9FFF749FC0446FFF70AF90022074BE8
:101C8800FFF780F902460B4630463946FEF7C2FF99
:101C9800FFF73AFC2146D0BD0000F03D0000F041BE
:101CA800D0B500220B4B06460F46FFF76BF9FFF73E
:101CB8002BFC0446FFF7ECF80022074BFFF762F90C
:101CC80002460B4630463946FEF7A4FFFFF71CFCD8
:101CD8002146D0BD0000F03D0000F041704700BF34
:101CE80010F8012B11F8013B012A28BF9A42F7D0BE
:101CF800D01A7047034611F8012B03F8012B002A6C
:101D0800F9D17047034613F8012B002AFBD1181AA2
:101D18000138704710B500210446FFF711FF20B9BC
:101D28002046BDE81040FFF79BBF04F10040FFF7D5
:101D380097FF404261EB410110BD38B500220023F6
:101D480004460D46FFF790FB28B920462946BDE812
:101D58003840FFF7A5BF204605F10041FFF7A0FF77
:101D6800404261EB410138BD2DE9F04786468C467B
:101D78000846089E154674461946002B40F0C18057
:101D88008542B2FA82F245D94AB1C2F1200300FA7B
:101D980002FC954094402EFA03F343EA0C0C4FEAF8
:101DA800154EA8B2230CBCFBFEF80EFB18CC08FBA2
:101DB80000F943EA0C43994528D9EB1808F1FF3795
:101DC80004D2994502D9A8F102072B44A3EB0903D1
:101DD800A4B2B3FBFEFC0EFB1C330CFB00F044EA80
:101DE8000344A04214D92C190CF1FF3304D2A042A9
:101DF80002D9ACF102032C44241A43EA07401EB16D
:101E0800D440002334607360BDE8F0874746DDE7BF
:101E18006346F1E792BB431B01214FEA154EAFB26F
:101E2800200CB3FBFEFC0EFB1C330CFB07F840EA4E
:101E38000343984561D9EB180CF1FF3004D298455B
:101E480002D9ACF102002B44A3EB0803A4B2B3FB04
:101E5800FEFC0EFB1C330CFB07F744EA0344A742C5
:101E68004DD92C190CF1FF3304D2A74202D9ACF199
:101E780002032C44E41B43EA0040C0E7C2F12003FC
:101E88009540944020FA03F12EFA03F34FEA154ED9
:101E98009040AFB20343B1FBFEFC0EFB1C10190CC3
:101EA8000CFB07F841EA0041884522D969180CF172
:101EB800FF3004D2884502D9ACF102002944A1EBD5
:101EC80008019BB2B1FBFEFC0EFB1C110CFB07F7D3
:101ED80043EA01439F420ED9EB180CF1FF3104D2BB
:101EE8009F4202D9ACF102012B44DB1B41EA0041BD
:101EF80093E76046E3E76146F7E76046A4E7634691
:101F0800B8E7834206D916B9002108467CE7C6E936
:101F180000E0F9E7B3FA83F78FB9834201D372453A
:101F280008D8BEEB020460EB030301209C461EB9EF
:101F3800002169E73846FAE7C6E9004CF8E7C7F137
:101F4800200CBB400EFA07F522FA0CF42EFA0CF11D
:101F5800BA401C4320FA0CF3B8404FEA1449014335
:101F68001FFA84FEB3FBF9F809FB18300B0C08FBC9
:101F78000EFA43EA00439A4540D9E31808F1FF30C6
:101F880004D29A4502D9A8F102002344A3EB0A031C
:101F980089B2B3FBF9F809FB183308FB0EFE41EAD6
:101FA80003418E452CD9611808F1FF3304D28E45C0
:101FB80002D9A8F10203214443EA0040A1EB0E0133
:101FC800A0FB02984145CE46434602D306D14D4573
:101FD80004D20138B9EB020E68EB0403002EA7D037
:101FE800B5EB0E0261EB030101FA0CFC22FA07F3D0
:101FF800F9404CEA0303C6E9003199E74046C5E7D2
:102008004346D9E7000000002DE9F04782464068C2
:10201800FEF74EFF40A3D3E90023FFF7DDF804469F
:10202800DAF800000D46FEF743FF02460B4620464D
:102038002946FEF7F1FD0646DAF80C000F46FEF7D2
:1020480037FF35A3D3E90023FFF7C6F80446DAF8CB
:1020580008000D46FEF72CFF02460B46204629468F
:10206800FEF7DAFD0446DAF814000D46FEF720FF05
:1020780029A3D3E90023FFF7AFF88046DAF8100068
:102088008946FEF715FF02460B4640464946FEF7CD
:10209800C3FD3246804689463B4630463946FEF700
:1020A80071FF22462B4606460F4620462946FEF774
:1020B80069FF02460B4630463946FEF7ADFD4246FB
:1020C80004460D464B4640464946FEF75BFF02462E
:1020D8000B4620462946FEF79FFD18F047F810A347
:1020E800D3E90023FFF778F80FA3D3E900230446C8
:1020F8000D46FFF7B9F958B90022204629460C4B7E
:10210800FFF7B2F9002814BF02200320BDE8F087CA
:102118000120FBE7AFF300800000000080842E411F
:102128001F85EB51B89E23409A9999999999F13F47
:10213800000008400000000000220023C0E900233E
:1021480003A3D3E90023C0E90223002303747047E3
:102158000000000000AA8F4010B50446194610463A
:10216800174B0022FEF70EFF237CBBB90EA3D3E961
:102178000023FFF731F80EA3D3E9002301F0F8FE9E
:1021880002460B4600200F49FEF744FD0AA3D3E997
:102198000023FEF7F7FEC4E9000110BDD4E90223CD
:1021A800E7E700BFAFF300800000000000AA8F40FF
:1021B8006C45D9CC955BC83F0000000040A5E540C0
:1021C800000024400000F03F2DE9F84F044648681D
:1021D8000D46FEF76DFE38A3D3E90023FEF7FCFF9A
:1021E800064628680F46FEF763FE02460B46304651
:1021F8003946FEF711FDD4E90823FEF70BFD8046AA
:10220800E8688946FEF754FE2BA3D3E90023FEF7BE
:10221800E3FF0646A8680F46FEF74AFE02460B464D
:1022280030463946FEF7F8FCD4E90A23FEF7F2FCFB
:10223800064668690F46FEF73BFE1FA3D3E9002355
:10224800FEF7CAFF824628698B46FEF731FE024632
:102258000B4650465946FEF7DFFCD4E90C23FEF73F
:10226800D9FCC4E90467C4E9060142464B46304636
:102278003946C4E9028901F07BFD0022124BFEF7C2
:1022880081FE0FA3D3E90023FEF7A6FF0022002357
:1022980006460F46FFF7E8F838B1304639460022BF
:1022A8000A4BFEF7B9FC06460F46C4E90067BDE8CD
:1022B800F88F00BFAFF300800000000080842E413B
:1022C800182D4454FB210940008066400080764068
:1022D8002DE9F04F9BB00B90486816461C460D46FA
:1022E800FEF7E6FDAAA3D3E90023FEF775FF8046B3
:1022F80028688946FEF7DCFD02460B4640464946FB
:10230800FEF78AFCFFF720F90790E868FEF7D0FD92
:102318009FA3D3E90023FEF75FFF8046A86889469C
:10232800FEF7C6FD02460B4640464946FEF774FCDA
:10233800FFF70AF908906869FEF7BAFD94A3D3E994
:102348000023FEF749FF804628698946FEF7B0FD5D
:1023580002460B4640464946FEF75EFCFFF7F4F896
:1023680009907068FEF7A4FD89A3D3E90023FEF75E
:1023780033FF804630688946FEF79AFD02460B46D1
:1023880040464946FEF748FCFFF7DEF80746F06886
:10239800FEF78EFD7EA3D3E90023FEF71DFF8046DE
:1023A800B0688946FEF784FD02460B46404649461A
:1023B800FEF732FCFFF7C8F805467069FEF778FDAE
:1023C80073A3D3E90023FEF707FF804630698946E7
:1023D800FEF76EFD02460B4640464946FEF71CFCDA
:1023E800FFF7B2F806466068FEF762FD68A3D3E916
:1023F8000023FEF7F1FE804620688946FEF758FD67
:1024080002460B4640464946FEF706FCFFF79CF895
:102418000190E068FEF74CFD5DA3D3E90023FEF7C9
:10242800DBFE8046A0688946FEF742FD02460B4661
:1024380040464946FEF7F0FBFFF786F802906069D0
:10244800FEF736FD52A3D3E90023FEF7C5FE80460A
:1024580020698946FEF72CFD02460B464046494650
:10246800FEF7DAFBFFF770F804462498FFF772F9D5
:102478004949FFF77BFA494B3946D3F800B0484B36
:102488000A90D3F800A0474B0BF10040D3F8009016
:10249800FFF7B8F9514680462846FFF7B3F90146D9
:1024A8004046FFF7A5F8494680463046FFF7AAF9A7
:1024B80001464046FFF79CF84FF07C51FFF7A2F920
:1024C800394B0F901B68384619460093FFF79AF965
:1024D800514680463046FFF795F901464046FFF7DA
:1024E80089F8494680462846FFF78CF90146404658
:1024F800FFF77EF84FF07C51FFF784F900991090B0
:102508002846FFF77FF9594680463046FFF77AF9A3
:1025180001464046FFF76CF8494680463846FFF7C3
:1025280071F901464046FFF765F84FF07C51FFF717
:1025380069F9009911903046FFF764F95946064643
:102548002846FFF75FF901463046FFF753F8514632
:1025580005463846FFF756F901462846FFF748F87A
:102568004FF07C51FFF74EF9002112900798FFF7C2
:10257800DDFAD8B100210898FFF7D8FAB0B10021E8
:102588000998FFF7D3FA002840F0A7830EE000BFB0
:102598000000000080842E4100007A44742400204A
:1025A800702400206C240020780200200799084637
:1025B800FFF728F9089905460846FFF723F9014669
:1025C8002846FFF717F8099905460846FFF71AF94C
:1025D80001462846FFF70EF81EF03BFF01464FF074
:1025E8007E50FFF7C3F9019913900846FFF70AF9DF
:1025F800029905460846FFF705F901462846FEF701
:10260800F9FF214605462046FFF7FCF80146284613
:10261800FEF7F0FF1EF01DFF01464FF07E50FFF75A
:10262800A5F9054601460198FFF7ECF829468046CA
:102638000298FFF7E7F8294607462046FFF7E2F831
:10264800009901900846FEF7D5FF014602904046E2
:10265800FFF7D8F8029914903846FFF7D3F8029993
:1026680015900198FFF7CEF8594605465846FEF7EB
:10267800C1FF014604904046FFF7C4F85146169042
:102688005046FEF7B7FF494605904846FEF7B2FFA9
:10269800009917900846FFF7B5F800990446584680
:1026A800FFF7B0F800990E905046FFF7ABF859467F
:1026B80018905846FFF7A6F8494606905846FFF77F
:1026C800A1F851460C905046FFF79CF849460390F4
:1026D8004846FFF797F821460D904046FFF792F8D5
:1026E800159906464846FFF78DF801463046FEF72D
:1026F8007FFF294606465046FFF784F801463046D4
:10270800FEF778FF069906464046FFF77BF8014634
:102718003046FEF76FFF049906463846FFF772F811
:102728005146FFF76FF801463046FEF763FF0499FC
:1027380006460198FFF766F84946FFF763F8014631
:102748003046FEF757FF039906464046FFF75AF80A
:1027580001463046FEF74CFF0D9906464046FFF706
:1027680051F801463046FEF743FF1499064648469D
:10277800FFF748F8214619903846FFF743F8014615
:102788001998FEF737FF294619905846FFF73AF887
:1027980001461998FEF72CFF169905465046FFF793
:1027A80031F801462846FEF725FF069905463846C2
:1027B800FFF728F801462846FEF71AFF0399054651
:1027C8003846FFF71FF801462846FEF713FF05991C
:1027D80005460198FFF716F84946FFF713F8014632
:1027E8002846FEF707FF0D9905463846FFF70AF811
:1027F80001462846FEF7FCFE314605463046FFF7FF
:1028080001F8294606462846FEF7FCFF01463046F1
:10281800FEF7F0FE1EF01DFE149B0646514603F11E
:102828000040FEF7EFFF159905465846FEF7EAFF08
:1028380001462846FEF7DEFE214605460198FEF7CA
:10284800E1FF01462846FEF7D5FE1699044648469C
:10285800FEF7D8FF01462046FEF7CCFE069904464F
:102868000198FEF7CFFF01462046FEF7C1FE059905
:1028780004463846FEF7C6FF4946FEF7C3FF014641
:102888002046FEF7B7FE039904460198FEF7BAFF03
:1028980001462046FEF7ACFE0D9904460198FEF766
:1028A800B1FF01462046FEF7A5FE01460546FEF7A4
:1028B800A1FE0C9914900846FEF79CFE0299044666
:1028C8005046FEF79FFF01462046FEF791FE1399FA
:1028D80004460798FEF796FF01462046FEF788FE55
:1028E800059907904846FEF78DFF0E99044608465D
:1028F800FEF780FE01462046FEF77CFE139904464B
:102908000898FEF77FFF01462046FEF771FE29462C
:1029180008905046FEF776FF039915904FF07C50CB
:10292800FEF766FE0D99FEF763FE3146FEF76AFF75
:10293800189904460C98FEF75BFE2946FEF762FFDD
:1029480001462046FEF756FE4146FEF751FE49462F
:102958000D9006F10040FEF755FF2946804658467F
:10296800FEF750FF514616905846FEF74BFF009968
:1029780004464846FEF746FF01462046FEF738FE65
:102988003146FEF73FFF494604465046FEF73AFFF8
:102998000E99FEF72FFE2946FEF734FF0146204622
:1029A800FEF728FE3946FEF723FE31460E905046C4
:1029B800FEF728FF069904464FF07C50FEF718FEF4
:1029C8000399FEF715FE2946FEF71CFF0C990746EA
:1029D8001898FEF70FFE3146FEF714FF01463846F9
:1029E800FEF708FE0199FEF703FE059B0799019083
:1029F80003F10040FEF706FF089907460498FEF722
:102A080001FF01463846FEF7F5FD0D990746159872
:102A1800FEF7F8FE01463846FEF7EAFD1699074626
:102A28004046FEF7E7FD0E99FEF7ECFE01463846F4
:102A3800FEF7E0FD019907462046FEF7E3FE014652
:102A48003846FEF7D7FD06990C900846FEF7D2FDEA
:102A580001464FF07E50FEF7CBFD03990746084626
:102A6800FEF7C8FD01463846FEF7C2FD1399074632
:102A78000998FEF7C7FE01463846FEF7B9FD294614
:102A880003904846FEF7BEFE294606900098FEF7DA
:102A9800B9FE079909901798FEF7B4FE08990546FC
:102AA8000298FEF7AFFE01462846FEF7A3FD4FF059
:102AB800814105465846FEF7A5FE0399FEF7A2FE9A
:102AC80001462846FEF794FD069905460D98FEF73F
:102AD80099FE01462846FEF78DFD099905462046D0
:102AE800FEF788FD0E99FEF78DFE01462846FEF793
:102AF80081FD149905465846FEF784FE08F1004406
:102B080001462046FEF774FD0199FEF77BFE01465B
:102B18002846FEF76FFD314604463046FEF76AFD4B
:102B2800314600F100475846FEF76CFE314605462F
:102B38000098FEF767FE029B0646079903F10040DE
:102B4800FEF760FE089980461798FEF75BFE01467F
:102B58004046FEF74FFD4FF0814180465046FEF754
:102B680051FE0399FEF74EFE01464046FEF740FD32
:102B7800394680465046FEF745FE0999FEF738FD6E
:102B88000D99FEF73FFE01464046FEF733FD294604
:102B980080460698FEF72EFD0E99FEF733FE014695
:102BA8004046FEF727FD149980465046FEF72AFE58
:102BB80001463046FEF71CFD0199FEF723FE01464B
:102BC8004046FEF717FD079980460498FEF71AFE5F
:102BD800089902900598FEF715FE01460298FEF73F
:102BE80009FD394602904846FEF70CFE1699FEF795
:102BF80001FD0D99FEF706FE01460298FEF7FAFC64
:102C0800314607461598FEF7F3FC0E99FEF7FAFDD4
:102C180001463846FEF7EEFC294606460198FEF7BF
:102C2800F1FD01463046FEF7E5FC0C9906460846DC
:102C3800FEF7E8FD214605462046FEF7E3FD01467E
:102C48002846FEF7D7FC414605464046FEF7DAFD22
:102C580001462846FEF7CEFC314605463046FEF7CB
:102C6800D1FD01462846FEF7C5FC1EF0F2FB0146E1
:102C78004FF07E50FEF77AFE054601460C98FEF7A7
:102C8800C1FD8B49FEF7BEFD01460F98FEF7B0FC6B
:102C980029460F902046FEF7B5FD8549FEF7B2FD9F
:102CA80001461098FEF7A4FC294610904046FEF70E
:102CB800A9FD7F49FEF7A6FD01461198FEF798FC8D
:102CC800294611903046FEF79DFD7949FEF79AFD99
:102CD80001461298FEF78CFC12900F990A98FEF79D
:102CE80091FD0099FEF786FC109904460A98FEF7B4
:102CF80089FD5946FEF77EFC119905460A98FEF7AC
:102D080081FD5146FEF776FC129906460A98FEF7B1
:102D180079FD4946FEF76EFC214680462046FEF7BF
:102D280071FD294607462846FEF76CFD01463846E0
:102D3800FEF760FC314607463046FEF763FD014664
:102D48003846FEF757FC414607464046FEF75AFD0F
:102D580001463846FEF74EFC1EF07BFB01464FF05D
:102D68007E50FEF703FE074601462046FEF74AFD61
:102D7800504B8146394618602846FEF743FD4E4BB6
:102D88000446394618603046FEF73CFD4B4B054675
:102D9800394618604046FEF735FD494B064618602F
:102DA80029462846FEF72EFD074621462046FEF70F
:102DB80029FD3946FEF71EFC0146FEF71BFC0146BD
:102DC8004FF07E50FEF714FC214680464846FEF739
:102DD80019FD314682462846FEF714FD0146504645
:102DE800FEF708FC0146FEF705FC414617F0B6FB66
:102DF800294682464846FEF705FD3146804620466C
:102E0800FEF700FD01464046FEF7F2FB0146FEF7DD
:102E1800F1FB17F065FA314680463046FEF7F2FCC2
:102E28003946FEF7E7FB0146FEF7E4FB01464FF0A3
:102E38007E50FEF7DDFB314607464846FEF7E2FCCA
:102E4800294606462046FEF7DDFC01463046FEF7D9
:102E5800D1FB0146FEF7CEFB394617F07FFB194937
:102E680004465046FEF7CEFC1749FEF77FFDFEF7F5
:102E780031F80B9BC3E9000140461249FEF7C2FC3A
:102E88001149FEF773FDFEF725F80B9BC3E9020114
:102E980020460C49FEF7B6FC0B49FEF767FDFEF726
:102EA80019F80B9BC3E9040118461BB0BDE8F08F65
:102EB800CDCCCC3D78020020742400207024002062
:102EC8006C24002000003443DB0F49400000000060
:102ED800D0B504464068FDF7EBFF09A3D3E900230A
:102EE800FEF77AF9064620680F46FDF7E1FF02462D
:102EF8000B4630463946FDF78FFED0BDAFF3008054
:102F08000000000080842E412DE9F047C4B036A8A7
:102F180017F0B4FD0CA8FFF70FF902F04FF802F014
:102F280095F829A802F078F8002840F0578118A8E9
:102F380002F058F8002840F051811FA802F01AF852
:102F4800002840F04B8106A817F00FFE01F06EFF35
:102F580010B1A94815F0CEFF4FF000080024DFF8A3
:102F68009CA2DFF89C92A74DA74815F0B1FFA7488F
:102F780015F0C0FF1FA817F098FD29A817F0D9FD74
:102F880018A817F0C1FD25A8FFF7A2FF02460B46B7
:102F98000CA8FFF7E1F821A8FFF79AFF064623A837
:102FA8000F46FFF795FF32463B46CDE900019848AA
:102FB80015F08EFF25A8FFF78BFF064627A80F46BA
:102FC800FFF786FF32463B46CDE90001914815F0F0
:102FD8007FFF0CA817F04FFD02460B468E4815F0F0
:102FE80077FF2AA8FFF774FF02460B462CA8CDE905
:102FF8000423FFF76DFF06462EA80F46FFF768FF6C
:10300800DDE90423CDE90201CDE90067834815F025
:103018005FFF19A8FFF75CFF02460B461BA8CDE926
:103028000423FFF755FF06461DA80F46FFF750FF7C
:10303800DDE90423CDE90201CDE90067784815F000
:1030480047FF19A936A8FFF7BFF836A817F027FDDC
:1030580002460B46734815F03BFF1DF0C1FB4FF4C9
:103068007A72A0FB020302FB0133C00B40EA43461D
:10307800DAF80030ABB1F31A13D0009330AA19ABC9
:1030880012A82AA9FFF724F9DDE916236648CDE935
:103098000223DDE91423CDE90023DDE9122315F02D
:1030A80017FF2AA8CAF80060FEF7AEFF01F0EEFC91
:1030B80001465E4815F00CFF25A8FFF709FF01F04F
:1030C800D7FF02F05FF80146594815F001FF2AA919
:1030D80006A800F0B9F806A817F053FDDDE90A23A1
:1030E8000146544815F0F4FE21A8FFF7F1FE4246C8
:1030F8004B46FDF747FFFEF7DFF9ADF8480023A878
:10310800FFF7E6FE42464B46FDF73CFFFEF7FCF9AB
:10311800ADF84A0025A8FFF7DBFE35A3D3E9002365
:10312800FDF730FFFEF7F0F913902AA8FFF7D0FE5D
:1031380022462B46FDF726FFFEF7BEF9ADF85000F4
:103148002CA8FFF7C5FE22462B46FDF71BFFFEF70E
:10315800B3F9ADF852002EA8FFF7BAFE22462B4667
:10316800FDF710FFFEF7A8F9ADF8540019A8FFF70E
:10317800AFFE22462B46FDF705FFFEF79DF9ADF899
:1031880056001BA8FFF7A4FE22462B46FDF7FAFEC1
:10319800FEF792F9ADF858001DA8FFF799FE2246F0
:1031A8002B46FDF7EFFEFEF787F9ADF85A0006A8A3
:1031B80017F0E7FC179012A801F07EFE01F074FEEC
:1031C8001D4A1E49002808BF11461D4815F080FEFB
:1031D800002141F69A101DF077FAC5E6194815F056
:1031E80089FE4FF0FF3044B0BDE8F087AFF30080B0
:1031F800000000000088C3406433020078240020E7
:103208000000594000408F4081330200883302009B
:10321800A8330200CD330200F6330200093402005D
:1032280031340200593402006B340200A534020024
:10323800B4340200CB3402003033020027330200DA
:10324800ED3402003E3302002DE9F84F0446486889
:103258000D46FDF72DFE52A3D3E90023FDF7BCFF71
:10326800064628680F46FDF723FE02460B46304601
:103278003946FDF7D1FC0646E8680F46FDF718FE0B
:1032880047A3D3E90023FDF7A7FF8046A86889462E
:10329800FDF70EFE02460B4640464946FDF7BCFCCC
:1032A800824668698B46FDF703FE3DA3D3E90023F8
:1032B800FDF792FF804628698946FDF7F9FD024629
:1032C8000B4640464946FDF7A7FC324680468946EC
:1032D8003B4630463946FDF755FE524606460F46F0
:1032E8005B4650465946FDF74DFE02460B463046B2
:1032F8003946FDF791FC424606460F464B46404686
:103308004946FDF73FFE02460B4630463946FDF773
:1033180083FC16F02BFF24A3D3E90023FDF75CFF01
:1033280006460F46C4E904671DF05AFA2379054694
:1033380088461BB1012B0DD0BDE8F88F4FF0333212
:10334800304639461C4BFEF7ADF80028F4D001236F
:103358002371F1E7304616A3D3E900233946FEF777
:1033680083F80028E8D04FF47A72A5FB023102FBFB
:103378000811D4E90202DB0B43EA4143181A4FEA69
:10338800D13161EB0202FA2872F10002A2BF226871
:10339800C4E9023101324FF00003A8BF2260D7E729
:1033A8000000000080842E411F85EB51B89E234009
:1033B8009A9999999999E93F3333F33F00000000AE
:1033C8000B1EB8BFFF3310B504461812A0FB02014C
:1033D800DB1702FB0311FDF7A7FD07A3D3E90023C1
:1033E800FDF7D0FDFEF7A9FC0023054AFEF7D0FB48
:1033F800C4E9000210BD00BF05A3923A019D234015
:1034080040420F00000000000329F8B505460C46AD
:1034180061D1002A3ED0072A54D15A681E68134643
:103428003148D117C6FB0031012B71F1000244DB92
:1034380000F56E1000F65D70181841F1000128A320
:10344800D3E90023FEF7A4FB02282E6914D0042830
:1034580014D0082814D010282FD1E7B2394668684C
:1034680018F0E9FD00280DDB204B777403EBC4034B
:103478005B68F3600020F8BD0024EEE70124ECE768
:103488000224EAE71A4A1B48012118F030FC6FF0C1
:103498000400F0E71988184B33F8020B814209D869
:1034A800D4B2214668682E6918F0AAFD002807DA08
:1034B800124AE8E701320A2AEED16FF01500DAE77E
:1034C8003474D7E70B48134602210D4A18F018FC4C
:1034D8006FF08500CFE70846BDE8F8400BF050BC18
:1034E8003AA395000000000040420F00A02A020005
:1034F800396202006C1D0200BC30020064620200E6
:103508007C59020000000000B0B50329044600AF52
:1035180042D852B3072A2CD15A681D681346284846
:10352800D117C5FB0031012B71F1000215DB00F545
:103538006E1000F65D70181841F100011EA3D3E962
:103548000023FEF725FBB0FA80F0C0F11E01C9B2D6
:1035580020461BF0CDFBBD46B0BD1A48181861F1D6
:10356800000115A3D3E90023EBE719880BF01AFE35
:10357800F1E76C4688B06A46134B4FF4C851536163
:10358800124B9361032342F8103F11481BF0C2FB12
:103598006FF08500A546DEE76C4688B06A460D4B9D
:1035A80053610D4BC2E9063104234FF4045142F82C
:1035B800103FEAE7AFF300803AA39500000000004F
:1035C80040420F00632EB5FF025B0200EE5C020072
:1035D800741D0200225B0200FE5C02000000000075
:1035E80070B514460646CD17A1FB0201002304FB63
:1035F80005110A22FEF7CCFA0FA3D3E900230C4DDC
:1036080080FB054520462946FEF7C2FA06A3D3E902
:103618000023306029462046FEF7BAFA0023054AFF
:10362800FEF7B6FA726070BD80A8120100000000B3
:10363800D8EF2F0040420F0000209BF35E100000DF
:103648002DE9F84305460C4600AF00296CD0072940
:1036580040F08980536810684F4AD917C0FB02317F
:10366800012B71F1000277DBD5F804804B4898F8FC
:103678001A4018184FEAD41445A3D3E9002341F19E
:10368800000164B2FEF784FA002C14BF042302235D
:10369800834298F91A6028D0002C14BF20231023E5
:1036A800984224D0002C14BF08230423984220D029
:1036B800002C14BF1023082398424DD103245FFA2D
:1036C80084F9494640462D6919F001F9002812DBB2
:1036D800334B002E4FF03D0233F8143085F81E901E
:1036E8001EDBA3FB02325B081BE00024E7E7012492
:1036F800E5E70224E3E76C4688B06A46294B536144
:10370800294B9361032329484FF4C85142F8103FCD
:103718001BF092FB6FF00400A546BD46BDE8F88398
:103728005343EB600020F8E7214B1288984633F8A2
:10373800021B8A420DD86868E1B22E6919F059FA5D
:1037480000280CDA6C4688B06A461A4B53611A4B4B
:10375800D7E701340B2CEAD16FF01500DDE738F814
:103768001430B383DEE76C4688B06A46134B0F48C3
:103778005361134B4FF4C8519361032342F8103F30
:103788001BF05AFB6FF08500A546C6E7AFF3008033
:103798003AA395000000000040420F009DD14A0066
:1037A800FC30020035620200276502008C1D020011
:1037B8000431020060620200116502008E6202009C
:1037C8003F65020000000000F8B50D46032D1146C4
:1037D80004461A4600AF07D0072D09D00221464AF1
:1037E800464818F084FA7EE0FFF72AFFBD46F8BD88
:1037F800002951D0072966D159681D680A46404BEF
:10380800C817C5FB0320B425A2FB0531012A05FB17
:10381800001170F1000028DB3A48181841F1000146
:1038280033A3D3E900230025FEF7B2F9364B33F86A
:10383800022B904221D16068E9B2266919F05EF83E
:10384800002820DA6C4688B06A46304B5361304B0A
:103858009361032329484FF4C85142F8103F1BF0E5
:10386800EBFA6FF00400A546C0E72A48181861F182
:1038780000011FA3D3E90023D5E70135072DD6D1D1
:103888006FF01500B2E741F21712234B33F81530E9
:103898005343B3610020A9E71A88204B33F8020B81
:1038A80082420CD86068C9B219F011FA0028F1DA1E
:1038B8006C4688B06A461A4B53611A4BC8E7013107
:1038C8000B29EBD1DCE76C4688B06A46164B4FF4FF
:1038D800C8515361154B09489361032342F8103FBF
:1038E8001BF0AAFAA5466FF085007FE7AFF30080CA
:1038F800D8EF2F0000000000076102008C1D0200B5
:1039080040420F00ECF71700EE300200B1620200EF
:10391800E66402001408E8FFE03002000431020007
:10392800D8620200D164020002630200FD64020052
:103938002DE9F74F03291446066905D90B1F032BF8
:1039480053D96FF0850023E00229F7683A4D22D059
:10395800032923D0012914BFB6F90460B6F906601B
:10396800A6FB076732A3D3E9002386FB056530462B
:103978002946FEF70DF90023304A206029463046D3
:10398800FEF706F900232D4AFEF702F962600020CF
:1039980003B0BDE8F08FB6F90860E1E74FF0000B1F
:1039A80002F11803DFF894A00236019336F9028F6A
:1039B800A8FB07831EA3D3E9002388FB0598484684
:1039C8004146FEF7E5F8524644F8080B5B46484680
:1039D8004146FEF7DDF852465B46FEF7D9F8019BF3
:1039E80044F8042C9C42E1D1D1E70629B5690CD0F2
:1039F80007290ED02A46052914BFB6F91010B6F9C2
:103A080012102046FFF7ECFDC1E72A46B6F914105C
:103A1800F7E70E3602F1180720462A4636F9021F44
:103A28000834FFF7DDFDA742F6D1B0E7AFF3008019
:103A38000010A5D4E80000003AA3950040420F000A
:103A48002DE9F84FC04A21F0004304460D46934241
:103A58008B4620D9BD4A934201D80CD158B1224691
:103A68002B4620462946FDF7D7F804460D46204642
:103A78002946BDE8F88FBBF1000F95A3D3E90023D1
:103A880003DD95A1D1E90001EDE795A1D1E9000198
:103A9800FDF7C0F8E9E7AE4A934211D8A2F1DE7209
:103AA80093420AD890A3D3E90023FDF7B5F8002282
:103AB800A84BFDF7F7FC0028D9D14FF0FF3A27E0D3
:103AC800A54A064621F00047934200F2B880A2F5C5
:103AD8005022934200F29B8002463B4639464FF003
:103AE800000AFDF799F800229A4BFDF793F804466F
:103AF8000D4600224FF0804330463946FDF78CF8DA
:103B080002460B4620462946FDF766FB04460D464D
:103B180022462B4620462946FDF734FA02460B4634
:103B280080468946FDF72EFA06460F4670A3D3E96C
:103B38000023FDF727FA70A3D3E90023FDF76CF8FB
:103B480032463B46FDF71EFA6DA3D3E90023FDF785
:103B580063F832463B46FDF715FA6BA3D3E9002319
:103B6800FDF75AF832463B46FDF70CFA68A3D3E94D
:103B78000023FDF751F832463B46FDF703FA66A3EA
:103B8800D3E90023FDF748F842464B46FDF7FAF91A
:103B9800804689463046394661A3D3E90023FDF7BC
:103BA800F1F961A3D3E90023FDF734F832463B4627
:103BB800FDF7E8F95EA3D3E90023FDF72BF83246B9
:103BC8003B46FDF7DFF95CA3D3E90023FDF722F8B4
:103BD80032463B46FDF7D6F959A3D3E90023FDF752
:103BE80019F832463B46FDF7CDF902460B464046EA
:103BF8004946FDF711F822462B46FDF7C3F9BAF1FD
:103C0800FF3F02460B4644D12046294640E70022A2
:103C1800504B39464FF0010AFCF7FCFF04460D46AD
:103C280000224C4B30463946FCF7F6FF02460B465D
:103C380020462946FDF7D0FA04460D4668E7474A6C
:103C480093421BD20022464B39464FF0020AFCF73A
:103C5800E1FF002204460D46414B30463946FDF748
:103C680091F900223B4BFCF7D7FF02460B46204652
:103C78002946FDF7B1FA04460D4649E702463B4698
:103C880000203849FDF7A8FA4FF0030A04460D460C
:103C98003EE7354B354E03EBCA0306EBCA06D3E9BC
:103CA8000023FCF7B7FF22462B46FCF7B3FF02467A
:103CB8000B46D6E90001FCF7ADFFBBF1000F044647
:103CC8000D46BFBF024601F1004314461D46CEE62D
:103CD800075C143326A6913C182D4454FB21F93F68
:103CE800182D4454FB21F9BF9C7500883CE4377EAD
:103CF80011DA22E33AAD903FEB0D76244B7BA93FD6
:103D0800513DD0A0660DB13F6E204CC5CD45B73FA3
:103D1800FF8300922449C23F0D5555555555D53F4F
:103D28002F6C6A2C44B4A2BF9AFDDE522DDEAD3F43
:103D38006D9A74AFF2B0B33F711623FEC671BC3FE3
:103D4800C4EB98999999C93FFFFF0F440000F07F91
:103D5800FFFFDB3F0000F03FFFFFF23F0080034022
:103D68000000F83F0000F0BFB8210200D82102008F
:103D78002DE9F84F17469046994623F000427B42BA
:103D8800DFF8E4A104460D463B4342EAD3735345AA
:103D980009D8464221F000438E468346064343EA4B
:103DA800D676564508D942464B4620462946FCF762
:103DB80033FF04460D4616E009F1404606F5801625
:103DC8003E4303D1BDE8F84FFFF73ABE4FEAA97664
:103DD80053EA0B0B06F0020646EAD17617D1022EFB
:103DE80005D0032E0AD020462946BDE8F88F48A3FF
:103DF800D3E9002348A1D1E90001D8E744A3D3E9D6
:103E0800002347A1D1E90001FCF704FFD1E71743DC
:103E18000DD1BEF1000F3EA3D3E9002303DA42A17E
:103E2800D1E90001F0E742A1D1E90001BFE752451D
:103E380024D1934218D1022E35A3D3E900230BD005
:103E4800032E0DD0012E03D03BA1D1E90001AEE72E
:103E58003BA1D1E90001D7E73BA1D1E90001A6E7E1
:103E68003BA1D1E90001CFE7022EC0D0032EC5D077
:103E7800012E4FF0000448D00025B4E75345C8D0C0
:103E88009B1AB3F1747F4FEA23521ADB32A3D3E9AA
:103E9800002327A1D1E90001FCF7BEFE04460D4628
:103EA800012E21D0022E23D0002E9CD02046294658
:103EB8002BA3D3E90023FCF7ADFE17A3D3E9002316
:103EC800A2E7B9F1000F01DA3C320ADB42464B4661
:103ED80020462946FDF780F921F00041FFF7B0FDA3
:103EE800DCE700240025DBE705F100431D467AE7FF
:103EF8001BA3D3E9002320462946FCF78BFE024684
:103F08000B4605A1D1E900017EE74FF000456AE7BD
:103F180059F3F8C21F6EA501182D4454FB2109401E
:103F2800182D4454FB2109C0182D4454FB21F9BF16
:103F3800182D4454FB21F93F182D4454FB21E93F27
:103F4800182D4454FB21E9BFD221337F7CD902408C
:103F5800D221337F7CD902C0075C143326A6913C5A
:103F6800075C143326A6A13C0000F07F0000000087
:103F78002DE9F04F91B00D460446CDE90023DDE967
:103F8800007B2BF0004252EA070111D1031885F497
:103F9800002252419942864B934180F0D1802046BD
:103FA8002946DDE90023FCF737FE04460D4618E0F4
:103FB80025F000487F4BA946844698451DD815D161
:103FC8000028ECD14245EAD826D1002FE7D17A4B18
:103FD800984540F2B880BBF1000FC0F21E85DDE9BC
:103FE80000452046294611B0BDE8F08F9A4204D812
:103FF800C64612D1002F00F09C8009F1404909F50E
:10400800801959EA0C09CAD1FA198BF400235B41CB
:104018009145674A9A41C0E7C646B9F1000F2BDAC5
:10402800664B9A422DD9002F00F0BA80022620460E
:1040380025F00041BCF1000F00F0A9824FEAD973C6
:1040480003F1FF3A5AEA060C00F0BB82B2F1844F42
:1040580040F2CF805A4CA242574A40F2D68290454D
:1040680000F2C982BBF1000F80F2C982002011B0B2
:10407800BDE8F04F16F096BB002F00F081800026B7
:10408800D5E74D4B9A421AD8002FF8D1BBF1804F93
:104098007DD04C4B3E469B45C9D1204625F000417A
:1040A800BCF1000F40F09D80424B984540F0B98428
:1040B800012E04460D4694D101F1004591E71315F0
:1040C800A3F2FF33142B1DDDC3F1340327FA03F6E3
:1040D80006FA03F3BB4228D106F00106C6F1020630
:1040E800002FA4D1BBF1804FA1D1374B98459ED862
:1040F800364B98456ED922462B4620462946FCF772
:1041080041FF52E7002F40F03B82C3F1140342FA0B
:1041180003F606FA03F393422D4B1DD19A421DD0A4
:1041280006F00106C6F10206DCE7002FA7D13E46DD
:10413800D8E708F1404303F5801303437FF447AF02
:104148000024234D4DE7BBF1000F80F26684DDE9C2
:10415800004303F1004544E79A42E8D1BBF1000F60
:10416800BFF63FAF0022002320462946FDF772F92B
:1041780078B14FEAD97011B0BDE8F04F16F01EBB08
:10418800134B9A42EAD0BBF1804F40F0EF813E4694
:10419800ABE722462B4600200D49FDF71DF804E742
:1041A800BBF1804F02D0074B022674E702269CE73A
:1041B8000000F0FF0000F07FFFFFEF3FFFFF3F43ED
:1041C8000000F0430000E03FFFFFEF5F0000501EDB
:1041D8000000F03F5CEA080C204625F0004100F0A2
:1041E80028844FEAD97303F1FF3A56EA0A0300F02C
:1041F800E881C74B002209EA03032BB9C54BFCF73A
:10420800C1FE6FF034028E464FEA2E53CEF3130EE2
:10421800A3F2FF334EF07F55134445F440150C9339
:10422800BD4B9E4508DDBD4B9E4540F3A8820C9BC7
:10423800A5F5801501330C930024E30029466D1081
:104248000D93B74B45F0005503EBC40305F5002566
:10425800D3E90023CDE90A01CDE90823FCF7DAFC0C
:1042680080468946DDE90A23DDE90801FCF7D4FC2C
:1042780002460B460020AB49FCF7AEFF02460B4650
:10428800CDE90E0140464946FCF77CFECDE9060122
:10429800DDE90623CDE9042300230493DDE90423A3
:1042A800CDE9022305EB844300221D461446294626
:1042B8002046DDE90223FCF765FE02460B46404630
:1042C8004946FCF7A7FC8046894620462946DDE991
:1042D8000823FCF79FFC02460B46DDE90A01FCF7C0
:1042E80099FCDDE90223FCF74DFE02460B464046E9
:1042F8004946FCF78FFCDDE90E23FCF743FEDDE9B8
:104308000623CDE9080110461946FCF73BFE804616
:1043180089466DA3D3E90023FCF734FE6CA3D3E9E7
:104328000023FCF779FC42464B46FCF72BFE6AA3B8
:10433800D3E90023FCF770FC42464B46FCF722FE0B
:1043480067A3D3E90023FCF767FC42464B46FCF71A
:1043580019FE65A3D3E90023FCF75EFC42464B46F1
:10436800FCF710FE62A3D3E90023FCF755FC0446D2
:104378000D4642464B4640464946FCF703FE024678
:104388000B4620462946FCF7FDFD04460D46DDE9AF
:104398000223DDE90601FCF73FFCDDE90823FCF711
:1043A800F1FD22462B46FCF737FC04460D46DDE9B5
:1043B800022310461946FCF7E5FD02460B46CDE9F7
:1043C8000A230022584BFCF727FC22462B46FCF711
:1043D80023FC002089468046DDE90223FCF7D2FD54
:1043E8000022514BCDE9020140464946FCF712FC38
:1043F800DDE90A23FCF70EFC02460B462046294657
:10440800FCF708FCDDE90623FCF7BCFD04460D4675
:1044180040464946DDE90823FCF7B4FD02460B4651
:1044280020462946FCF7F8FB04460D4602460B4693
:10443800DDE90201FCF7F0FB0020894680462EA347
:10444800D3E90023FCF79EFDDDE90223CDE906014F
:1044580040464946FCF7DEFB02460B462046294605
:10446800FCF7D8FB26A3D3E90023FCF78BFD044611
:104478000D464046494624A3D3E90023FCF782FDB4
:1044880002460B4620462946FCF7C6FB0D9A274BE9
:104498001344D3E90023FCF7BFFBCDE908010C98CE
:1044A800FCF706FD0D9A224B04460D461344D3E94A
:1044B8000023DDE90601CDE90223DDE90823FCF745
:1044C800ABFB37E0AFF30080EF4E454A287ECA3F8A
:1044D80065DBC9934A86CD3F01411DA96074D13F70
:1044E8004D268F515555D53FFFAB6FDBB66DDB3F82
:1044F800033333333333E33F000000E009C7EE3FB3
:10450800FD033ADC09C7EE3FF5015B14E02F3EBE20
:104518000000F07F000040438E98030079B60B003E
:10452800182202000000F03F00000840F8210200B5
:1045380008220200DDE90223FCF76EFB22462B4627
:10454800FCF76AFB002022462B4680468946FCF78A
:1045580061FBDDE90223FCF75DFBDDE90623FCF7DF
:1045680059FB02460B46DDE90801B9E0B04B9B4513
:104578002ED12046294611B0BDE8F04F15F0F6BD02
:10458800BCF1000F1DD1204625F00041664629F0F8
:10459800404CA84B9C451DD1BBF1000F05DA0246E3
:1045A8000B460020A349FCF717FEB9F1000FBFF630
:1045B800FCAC08F1404808F5801858EA06087FF472
:1045C80077AD2046294611B0BDE8F04F16F002B984
:1045D8003E462CE5B8F1000F7FF430ADBBF1000F7B
:1045E80080F22782B9F1000F03DA731E584258414E
:1045F800C1E54046BFE5BBF1000F3FF737AD0020EE
:1046080011B0BDE8F04F1CF077BF904505D2BBF163
:10461800000F03EA0600F3DA29E5864A904506D931
:10462800BBF1000F03EA06003FF721ADE8E70022DF
:10463800804BFCF7EFFA04460D4673A3D3E9002339
:10464800FCF7A0FC72A3D3E90023CDE902012046C0
:104658002946FCF797FC0022774BCDE90401204658
:104668002946FCF78FFC02460B466BA1D1E90001F5
:10467800FCF7D0FA22462B46FCF784FC02460B4690
:1046880000206B49FCF7C6FA8046894622462B462D
:1046980020462946FCF776FC02460B46404649462A
:1046A800FCF770FC5EA3D3E90023FCF76BFC024621
:1046B8000B46DDE90401FCF7ADFA02460B46044659
:1046C8000D46DDE90201FCF7A7FA0020894680467D
:1046D800DDE90223FCF79EFA02460B4620462946EE
:1046E800013EFCF797FA0022044656EA0A064FF004
:1046F80000060D4618BF4F4BB24608BF4F4BDDE9C9
:104708000001CDE902235B463246FCF783FA4246B4
:104718004B46FCF737FCDDE90023CDE904012046D0
:104728002946FCF72FFC02460B46DDE90401FCF79D
:1047380073FA5B463246CDE9000140464946FCF72C
:1047480021FC0B46024680468946DDE90001FCF75C
:1047580063FA3B4B04460D4699428B4631DD01F125
:104768003F4303F5E00303430BD000220023DDE9B8
:104778000201FCF779FE801B18BF012077E40124B1
:104788005BE529A3D3E90023DDE90001FCF744FA3E
:1047980006460F4642464B4620462946FCF73AFA5B
:1047A80002460B4630463946FCF77CFE30B3002201
:1047B8000023DDE90201FCF757FE003818BF01208D
:1047C80055E421F000431F4CA3423FD91E4B0B4434
:1047D800034309D000220023DDE90201FCF744FE6F
:1047E800003818BF01200BE742464B46FCF712FA87
:1047F800DDE90023FCF74CFE0028EBD140F2094329
:1048080028E000BFAFF30080000000604715F73FC5
:1048180044DF5DF80BAE543E555555555555D53FBB
:10482800FE822B654715F73FFE822B654715973C9F
:104838000000E03F0000F03F0000D03F0000F0BF64
:10484800FFFF8F40FFCB904000346F3F8C4A93426C
:1048580025D91B15A3F2FE334FF4801A8948BBF102
:10486800000F4AFA03FA4FF00002DA44CAF30A5179
:10487800A1F2FF3140FA01F0C1F1140100EA0A0384
:10488800CAF3130A40464AF4801A4AFA01FA49461A
:10489800B8BFCAF1000AFCF7BDF980468946002472
:1048A80040464946DDE90023FCF7B6F90D462046A7
:1048B80063A3D3E90023FCF765FB424606460F468F
:1048C8004B4620462946FCF7A5F902460B46DDE98A
:1048D8000001FCF79FF95CA3D3E90023FCF752FB26
:1048E800804689462046294659A3D3E90023FCF788
:1048F80049FB02460B4640464946FCF78DF90446FB
:104908000D4602460B4630463946FCF785F93246D5
:10491800804689463B46FCF77DF902460B46204611
:104928002946FCF777F9424606460F464B4640466D
:104938004946FCF727FB04460D4647A3D3E9002365
:10494800FCF720FB46A3D3E90023FCF763F92246D2
:104958002B46FCF717FB44A3D3E90023FCF75CF9CB
:1049680022462B46FCF70EFB41A3D3E90023FCF7B4
:1049780051F922462B46FCF705FB3FA3D3E9002358
:10498800FCF74AF922462B46FCF7FCFA02460B468E
:1049980040464946FCF73EF904460D4602460B469A
:1049A80040464946FCF7EEFA00224FF08043CDE935
:1049B800000120462946FCF72DF902460B46DDE9A1
:1049C8000001FCF709FC324604460D463B464046CA
:1049D8004946FCF7D7FA32463B46FCF71DF9024632
:1049E8000B4620462946FCF715F942464B46FCF78C
:1049F80011F902460B4600202349FCF70BF901EB9D
:104A08000A54B4F5801F06DA524615F04DFEDDE96A
:104A18000223FFF774BB2146F9E700240025FFF7BE
:104A2800E0BA194B98453FF4C4ADB8F1000F7FF4D4
:104A3800D8AB012E7FF4B9AAFFF7D3BAAFF3008041
:104A480000000000432EE63FEF39FAFE422EE63F13
:104A5800396CA80C615C20BED0A4BE726937663E72
:104A6800F16BD2C541BDBB3E2CDE25AF6A56113F66
:104A780093BDBE166CC1663F3E5555555555C53F4D
:104A88000000E03F0000F0FF0000F03F0138C0B236
:104A980002289ABF024B53F820000248704700BF13
:104AA800282202002A3102001FB504240294044C73
:104AB8000194BDF81840009419F0BBFD04B010BD76
:104AC800582400201FB502240294044C0194BDF818
:104AD8001840009419F0ADFD04B010BD5624002014
:104AE8001FB502240294044C0194BDF818400094A8
:104AF80019F09FFD04B010BD542400201FB50424F4
:104B08000294044C0194BDF81840009419F091FDEA
:104B180004B010BD682400201FB506240294044C7C
:104B28000194BDF81840009419F083FD04B010BD3D
:104B3800622400201FB506240294044C0194BDF899
:104B48001840009419F075FD04B010BD5C240020D5
:104B58000B4610B5064C07480321074A17F0D0F852
:104B6800206818B106F062F80023236010BD00BF6A
:104B780050240020A41D02004631020001290CBF68
:104B88000122002280B50D4B00AF1A700C4A88B084
:104B98000C4B08BF13466A460B49C2E905134FF48C
:104BA80000739383094B42F8103F00234FF4E651FA
:104BB800074801F005FEBD4680BD00BF70400020DB
:104BC80063310200663102006A310200030000010D
:104BD800A41D020001290CBF0122002280B50D4B43
:104BE80000AF1A700C4A88B00C4B08BF13466A46CF
:104BF8000B49C2E905134FF400739383094B42F83C
:104C0800103F00234FF4E651074801F0D9FDBD4697
:104C180080BD00BF71400020633102006631020090
:104C28008131020003000001A41D020001290CBF0C
:104C38000122002280B50D4B00AF1A700C4A88B0D3
:104C48000C4B08BF13466A460B49C2E905134FF4DB
:104C580000739383094B42F8103F00234FF4E65149
:104C6800074801F0ADFDBD4680BD00BF7240002081
:104C780063310200663102009B310200030000012B
:104C8800A41D020001290CBF0122002280B50D4B92
:104C980000AF1A700C4A88B00C4B08BF13466A461E
:104CA8000B49C2E905134FF400739383094B42F88B
:104CB800103F00234FF4E651074801F081FDBD463F
:104CC80080BD00BF734000206331020066310200DE
:104CD800B531020003000001A41D020001290CBF28
:104CE8000122002280B50D4B00AF1A700C4A88B023
:104CF8000C4B08BF13466A460B49C2E905134FF42B
:104D080000739383094B42F8103F00234FF4E65198
:104D1800074801F055FDBD4680BD00BF6E4000202C
:104D28006331020066310200CB310200030000014A
:104D3800A41D020001290CBF0122002280B50D4BE1
:104D480000AF1A700C4A88B00C4B08BF13466A466D
:104D58000B49C2E905134FF400739383094B42F8DA
:104D6800103F00234FF4E651074801F029FDBD46E6
:104D780080BD00BF6F400020633102006631020031
:104D8800E231020003000001A41D0200F0B506464E
:104D98000D46144687B0E3B10F4B1F68CFB11822F8
:104DA800002168461CF0F4F969463846CDE90165EA
:104DB800ADF80C4008F018FD034650B110F1800F13
:104DC80007D00221054A064807B0BDE8F04016F0B2
:104DD80097BF07B0F0BD00BF50240020F831020093
:104DE800A41D020003460121014A024816F088BFAB
:104DF8000F320200A41D020010B50446084619B17E
:104E0800BDE81040FFF7EEBF0321054A054816F03C
:104E18006EFF204618F000FD034B186010BD00BF60
:104E28002A320200A41D02005024002030B50020C0
:104E380089B004F025FD044640B10346124A012119
:104E4800124816F05DFF204609B030BD104D032111
:104E5800104A0E4803AC16F04AFF0FCD0FC42B685A
:104E68000125236002220C4B0C49009503A805F08C
:104E780065FB044610B10A4A0346E0E70321094AE4
:104E8800024816F034FFDEE738320200A41D0200A3
:104E9800B01E020057320200342202003C220200F7
:104EA8006D32020092320200024B1868003818BFB7
:104EB8000120704750240020034670B51B4C00F1B8
:104EC8001805224618685968083303C2AB421446CD
:104ED800F7D1174B02221B7814491648FFF756FFE3
:104EE800154B02221B7815491548FFF74FFF154B44
:104EF80004221B7814491548FFF748FF144B062273
:104F08001B7814491448FFF741FF144B06221B78FD
:104F180013491448FFF73AFFBDE87040124B0422CA
:104F28001B7812491248FFF731BF00BF54240020F4
:104F3800734000207823020072400020562400208D
:104F4800B42302007140002058240020F0230200FE
:104F5800704000205C240020742202006F40002072
:104F680062240020C42202006E4000206824002031
:104F78001423020013B504460E4B0F4863602060EB
:104F88001BF052F818B94FF0FF3002B010BD60683E
:104F98001BF04AF80028F6D0012300226068CDE90A
:104FA800003283681C6814B16B464021A04700207A
:104FB800EBE700BF20190200A01802004FF07E5254
:104FC800044B1A600023044A1360044A1360044A1D
:104FD80013607047780200206C24002070240020A1
:104FE8007424002013B504460A4820601BF01CF8FE
:104FF80068B10A2300222068CDE9003283681C6862
:1050080014B16B464021A047002002B010BD4FF0FC
:10501800FF30FAE70019020013B504460A48206079
:105028001BF002F868B1D02300222068CDE90032D5
:1050380083681C6814B16B460321A047002002B0A6
:1050480010BD4FF0FF30FAE740190200282208B5DA
:10505800002104481CF09CF80023034A1360034A0B
:10506800136008BD84240020802400207C240020B4
:105078002DE9F74FFCF768FA3E4D3F4B2C6843F893
:1050880024000A23013494FBF3F203FB12443B4A45
:105098002C601368092BDCBF013313601368012BE4
:1050A80063DD00244FF00009274626462546DFF831
:1050B800C8B048460193FCF751FB80460146284694
:1050C800FCF798FA5BF804AB054651463046FCF706
:1050D80091FA514606464046FCF794FB014638468D
:1050E800FCF788FA414607464046FCF78BFB014629
:1050F8002046FCF77FFA019B09F101094B4504465C
:10510800D7D11846FCF72AFB39468046FCF77AFBCC
:10511800314607462846FCF775FB01463846FCF73A
:1051280067FA214606464046FCF76CFB29460446CA
:105138002846FCF767FB01462046FCF759FA01466A
:105148003046FCF713FC0E49044620F00040FCF7FB
:10515800F7FC60B920460A49FCF710FD002814BF87
:105168000220032003B0BDE8F08F0020FAE70120F9
:10517800F8E700BF80240020842400207C2400203D
:105188006F12833A03289ABF024B53F82000024853
:10519800704700BF18240200CC4A02002DE9F04FE6
:1051A80091B0009302F004030293C2F3C2030133E7
:1051B800840705460E46DDF868800392059340F0A3
:1051C800BB81041D30B1072909D86FF01B0011B04D
:1051D800BDE8F08F01F007063444C6F10806009BCD
:1051E8004FF000094FF0040A591E4FF0FF334F46A5
:1051F8000193CB465346CDF810900DB1009A22602A
:105208000598002800F3E8809848009A824203D362
:1052180097488242C0F0E080039AA4EB050E9207FB
:105228004FEA9E0000F103810F2F00F2B180002D9C
:1052380000F0058107F140020DEB020C019A0CF811
:10524800200C0CF8102C049801300490E7E07A2820
:105258005DD84B280ED8472859D829282DD8252875
:1052680052D054D820287AD02338D0F1000B4BEBF9
:10527800000B74E04C382E2849D8DFE800F070485D
:10528800484848484848484848484B484848484893
:1052980048484859484B4B595959704B6D487048C4
:1052A800184B184848827F4B48484B487F000020DD
:1052B8004FF0000B4FF0040A38E001222A38C0B240
:1052C80002FA00F010EA0E0F49D110F0625C2FD1FB
:1052D80010EA020B43D06046013C5444B4FBFAF494
:1052E8000AFB04F4002D61D0A3EB050CA444B445DB
:1052F8003FF66BAF002868D1042B47D158F8043B20
:105308002360042304342AE0019A013A01924FF001
:10531800000B24E011F8010C6C2834D1002011F89E
:10532800023C83466C2BC5D14FF0080A5346D3E79D
:1053380008F1070828F00708073424F00704F8E8FC
:1053480002AB35B106982044B0423FF63EAFC4E9FF
:1053580000AB4FF0000B08344FF0080A534611F821
:10536800010F002878D0BBF1000F7FF470AF25281B
:10537800F5D14FF0010B019B013301934FF0040A63
:10538800ECE7584694E700208346A5E7082B02D0AF
:105398006FF015001BE708F1070828F00708F8E880
:1053A8000223C4E9002308230834D8E768B9042B8A
:1053B80002D108F10408A4E7082BE9D108F107088D
:1053C80028F0070808F10808EDE7059A013A059260
:1053D80058F8042B009210E7039A900720D54FF055
:1053E800010CA4EB050E4FEA9E00BEF5007FCFD25C
:1053F8000F2FCDD8F5B107F140020DEB020E019A3F
:10540800C0B20EF8200C0EF8102CBCF1000F3FF4BF
:105418001AAF60F07F000EF8200C09F1010901377E
:10542800C5F108024FF6DA7E0434069297E74FF08A
:10543800000CDAE7BCF1000F01D00136EFE7029863
:1054480002360028EBD10098CDE90631FCF75AFC6A
:10545800DDE906310644E2E7631BB3F5806F97D2B6
:1054680045B9A6F10804E018B1E600BF60160200CD
:1054780088690200029A9B0828602B709DF81030FA
:10548800C2B1EB7085F80290B9F1000F05D0002287
:1054980008A8C5F1010C97420ED14FF0000AC5F1DA
:1054A80001030DF1200801930DF1300B574512D17E
:1054B800601B8CE66B70E5E710F8013B190608D510
:1054C8000CEB040EB64503F07F033FF67EAE04F8FE
:1054D800013B0132DFE7B9F1000F03D098F9002052
:1054E800002A17DB029BD3B11AF80B2004F8012B12
:1054F8000022019B18191044B0423FF666AE98F896
:105508000000009904F8010B204603921BF019FED5
:10551800039A14440AF1010A08F10108C6E798F849
:10552800002055F822300093029B009845F822305D
:10553800FCF7E8FB421CDCE76FF00D0047E600BF14
:105548002DE9F04F97B000AFD7F880B03B62CBF3AE
:10555800C0030446894690F802A0FA62BB6141B9CB
:10556800457800780AEB800020444D4517D8A0EB19
:105578000409E378FB61BAF1000F02D01BF0010FB8
:1055880016D1FB6953BBFB6A1BB1494620463A6AF0
:1055980098474D4628465C37BD46BDE8F08F461C07
:1055A8003046FCF7AFFB0130304409F10109DCE774
:1055B800626823787A62FA6A9900796104EB830158
:1055C800002A40F001810E464FF000084D4601EBDD
:1055D8000A094E454CD101EB0A0610E01BF0020FF8
:1055E800D1D023789A007A61626804EB83017A62E9
:1055F800FA6A002A77D14D46904601EB0A061BF05D
:10560800050F0CBF02230123FB62FB6906EB430A6B
:105618000BF00203BB625645BCD016F8021B16F805
:10562800013C54F82390994B994502D3984B9945DE
:1056380036D3BB69002B40D0786A15F011FD0028DD
:105648003BD0E9468AB06A46924B53617B6AC2E90D
:1056580006314FF4007313848F4B42F8103F002338
:105668004FF412518D4801F0ABF8023DCD46D2E718
:1056780016F8013BF96254F82300FCF743FBD7F80E
:105688008430F96A01304BB1D7F8883098453EBF6D
:10569800D7F8843023F8180008F10108054498E782
:1056A800BB6923B1786A15F0DBFC0028C9D11BF06F
:1056B800010F05D1FB6AED1AADE7BB6A002BAAD032
:1056C8004846FCF71FFBD7F8843053B1D7F8883029
:1056D80098453FBFD7F88420431C22F8183008F1BA
:1056E8000108054497E7BAF1000F73D01BF00406D0
:1056F80073D0D046002607F1480052463B61B96294
:105708001BF01FFDB96A3B6901EB0A02BA62FA692C
:10571800F9695200FA60BA6A02EB41023A610BF089
:105728000202BA603A69B96A8A4258D162781BF0B3
:10573800020F18BF00217A6208BF4FEA5801B21859
:105748001BF0010FD2B240F09F801BF0040F14BF72
:1057580040460020BB616270A070E17020463A6A42
:105768007969FB6A9847051EFFF614AFBB69414685
:1057780023707B6A3A6A6370FB6984F802A0E3705D
:1057880007F14800FB6A9847B0F10008C0F2BA80F8
:105798007B69A9EB0A01C91AFB683A6AC91AD7E9F1
:1057A8000A0398470028C0F2AF804FF0000BA844C6
:1057B80008EB000507F1380AB34571D300213A6AAE
:1057C8000846FB6A9847E5E656464FF0000807F199
:1057D800380092E75646D04696E7B04694E7BA6A4C
:1057E80012F8021B12F8015CBA6254F82500274A25
:1057F800904202D3264A90421ED3BA6932B1786ADF
:105808007B6015F02DFC7B6800288BD1BA6802BB41
:1058180008F1280207F1300C08F10100944407F15F
:10582800580208F1020852FA80F00CF8101C5FFACE
:1058380088F800F8105C75E7BA693AB1786A7B6055
:1058480015F00EFC7B6800287FF46CAF1BF0010F8D
:1058580009D006F1280207F13000711C161806F865
:10586800205CCEB25EE71BF0040F3FF45BAF08F19B
:10587800280207F1300008F1010102EB000808F8DE
:10588800105C5FFA81F84DE7002063E760160200BC
:105898008869020036350200040000011C1E02005F
:1058A8001BF80A3054F8239087F83730D7F884303B
:1058B8002BB3D7F888309B4521D2D7F8843033F8FA
:1058C8001B8001213A6AFB6A07F1370098470028D4
:1058D8001ADB0544B8F1000F06D14846FCF712FA66
:1058E80000F101081FFA88F8414648463A6AFB6AFF
:1058F8009847002808DB05440BF1010B5CE74FF0E3
:105908000008DEE7454645E6054643E6014B1860D4
:10591800704700BF7C02002080B505460E4617463A
:1059280098460EF05BFB03461BF08CFE0446DFF83E
:105938001890424649F8003039463046A84754F88E
:10594800090001F07BFE00BF080000002DE9F047C8
:10595800058B04462807904611D4022905F007054F
:1059680040F0CC80204615F02AFE78B10138218B12
:10597800042811D8DFE800F0C2106D8595000129D0
:105988000CBF45F0100545F02005258388F31188E4
:10599800BFF36F8FBDE8F08701F0070AAA4500F052
:1059A800A5800027B9463E46A368002B00F0BC80BE
:1059B80041F00801218388F31188BFF36F8FA16834
:1059C800002900F0BA800D68002900F0B68033463F
:1059D80052462046D1F80480C047002D76D02B6867
:1059E80029461D46F0E701F007035A1F012A1BD874
:1059F800002221F00701062B276889B2C4E900229A
:105A080009D13B4603E0628B013262831B68002B9D
:105A1800F9D141F002012046218315F0D0FD00287C
:105A28007AD041F0200176E0042B0AD121F0070159
:105A380089B22046218315F0C2FD10B141F0200142
:105A48002183218B01F0070AAA454FD00027B946C8
:105A5800AAE7236921F0070141F00601062DD3F8D2
:105A6800009021832DD1B9F1000F3FD041F00801FA
:105A7800218388F31188BFF36F8F20463949C847BF
:105A880029E021F00701236941F0040189B2042DBE
:105A9800D3F804902183E6D000274FF0040A3E464D
:105AA80082E721F00701236941F0050189B2052D3C
:105AB800D3F808902183D6D000274FF0050A3E4638
:105AC80072E700274FF0060A3E466DE72B4687E748
:105AD800B9F1000FD1D1EFF31188202383F3128895
