:1000000038FC01206D390000451702005939000005
:100010005939000059390000593900005939000098
:10002000000000000000000000000000D93A0000BD
:100030005939000000000000713A000059390000F1
:100040006D3C00006D3C00006D3C00006D3C00000C
:100050006D3C00006D3C00006D3C00006D3C0000FC
:100060006D3C00006D3C00006D3C00006D3C0000EC
:100070006D3C00006D3C00006D3C00006D3C0000DC
:100080006D3C00006D3C00006D3C00006D3C0000CC
:100090006D3C00006D3C00006D3C00006D3C0000BC
:1000A0006D3C00006D3C00006D3C00006D3C0000AC
:1000B0006D3C00006D3C00006D3C00006D3C00009C
:1000C0006D3C00006D3C00006D3C00006D3C00008C
:1000D0006D3C00006D3C00006D3C00006D3C00007C
:1000E0006D3C00006D3C00006D3C00006D3C00006C
:1000F0006D3C00006D3C00006D3C00006D3C00005C
:100100006D3C00006D3C00006D3C00006D3C00004B
:100110006D3C00006D3C00006D3C00006D3C00003B
:100120006D3C00006D3C00006D3C00006D3C00002B
:100130006D3C00006D3C00006D3C00006D3C00001B
:100140006D3C00006D3C00006D3C00006D3C00000B
:040150006D3C000002
:1001580081F0004102E000BF83F0004330B54FEA70
:1001680041044FEA430594EA050F08BF90EA020FDD
:100178001FBF54EA000C55EA020C7FEA645C7FEA70
:10018800655C00F0E2804FEA5454D4EB5555B8BF93
:100198006D420CDD2C4480EA020281EA030382EA04
:1001A800000083EA010180EA020281EA0303362D96
:1001B80088BF30BD11F0004F4FEA01314FF4801C69
:1001C8004CEA113102D0404261EB410113F0004F7B
:1001D8004FEA03334CEA133302D0524263EB430332
:1001E80094EA050F00F0A780A4F10104D5F1200ED0
:1001F8000DDB02FA0EFC22FA05F2801841F100012B
:1002080003FA0EF2801843FA05F359410EE0A5F1FE
:1002180020050EF1200E012A03FA0EFC28BF4CF02F
:10022800020C43FA05F3C01851EBE37101F00045E5
:1002380007D54FF0000EDCF1000C7EEB00006EEBF2
:100248000101B1F5801F1BD3B1F5001F0CD349087C
:100258005FEA30004FEA3C0C04F101044FEA4452D3
:1002680012F5800F80F09A80BCF1004F08BF5FEA5A
:10027800500C50F1000041EB045141EA050130BD3A
:100288005FEA4C0C404141EB0101013C28BFB1F54C
:10029800801FE9D291F0000F04BF01460020B1FA97
:1002A80081F308BF2033A3F10B03B3F120020CDA6A
:1002B8000C3208DD02F1140CC2F10C0201FA0CF048
:1002C80021FA02F10CE002F11402D8BFC2F1200CAD
:1002D80001FA02F120FA0CFCDCBF41EA0C01904063
:1002E800E41AA2BF01EB0451294330BD6FEA0404AC
:1002F8001F3C1CDA0C340EDC04F11404C4F1200297
:1003080020FA04F001FA02F340EA030021FA04F3A8
:1003180045EA030130BDC4F10C04C4F1200220FAFF
:1003280002F001FA04F340EA0300294630BD21FA3D
:1003380004F0294630BD94F0000F83F4801306BF03
:1003480081F480110134013D4EE77FEA645C18BFF7
:100358007FEA655C29D094EA050F08BF90EA020F8E
:1003680005D054EA000C04BF1946104630BD91EA86
:10037800030F1EBF0021002030BD5FEA545C05D189
:100388004000494128BF41F0004130BD14F58004C8
:100398003CBF01F5801130BD01F0004545F0FE413C
:1003A80041F470014FF0000030BD7FEA645C1ABF71
:1003B800194610467FEA655C1CBF0B46024650EAA8
:1003C800013406BF52EA033591EA030F41F40021D4
:1003D80030BD00BF90F0000F04BF0021704730B55A
:1003E8004FF4806404F132044FF000054FF000012F
:1003F80050E700BF90F0000F04BF0021704730B5F0
:100408004FF4806404F1320410F0004548BF4042C4
:100418004FF000013EE700BF42004FEAE2014FEA19
:1004280031014FEA02701FBF12F07F4393F07F4FF4
:1004380081F06051704732F07F4208BF704793F0F7
:100448007F4F04BF41F40021704730B54FF460740A
:1004580001F0004521F000411CE700BF50EA01020D
:1004680008BF704730B54FF000050AE050EA0102B6
:1004780008BF704730B511F0004502D5404261EB26
:1004880041014FF4806404F132045FEA915C3FF467
:10049800D8AE4FF003025FEADC0C18BF03325FEA04
:1004A800DC0C18BF033202EBDC02C2F1200300FAB5
:1004B80003FC20FA02F001FA03FE40EA0E0021FADA
:1004C80002F11444BDE600BF70B54FF0FF0C4CF4C8
:1004D800E06C1CEA11541DBF1CEA135594EA0C0F7A
:1004E80095EA0C0F00F0DEF82C4481EA030621EAB5
:1004F8004C5123EA4C5350EA013518BF52EA0335F0
:1005080041F4801143F4801338D0A0FB02CE4FF0A1
:100518000005E1FB02E506F00042E0FB03E54FF0D1
:100528000006E1FB03569CF0000F18BF4EF0010EC9
:10053800A4F1FF04B6F5007F64F5407404D25FEAC5
:100548004E0E6D4146EB060642EAC62141EA555178
:100558004FEAC52040EA5E504FEACE2EB4F1FD0CBA
:1005680088BFBCF5E06F1ED8BEF1004F08BF5FEA38
:10057800500E50F1000041EB045170BD06F00046EA
:1005880046EA010140EA020081EA0301B4EB5C0497
:10059800C2BFD4EB0C0541EA045170BD41F480118F
:1005A8004FF0000E013C00F3AB8014F1360FDEBFB4
:1005B800002001F0004170BDC4F10004203C35DA90
:1005C8000C341BDC04F11404C4F1200500FA05F313
:1005D80020FA04F001FA05F240EA020001F00042B4
:1005E80021F0004110EBD37021FA04F642EB06012A
:1005F8005EEA430E08BF20EAD37070BDC4F10C0454
:10060800C4F1200500FA04F320FA05F001FA04F217
:1006180040EA020001F0004110EBD37041F1000103
:100628005EEA430E08BF20EAD37070BDC4F120050E
:1006380000FA05F24EEA020E20FA04F301FA05F276
:1006480043EA020321FA04F001F0004121FA04F21E
:1006580020EA020000EBD3705EEA430E08BF20EAEE
:10066800D37070BD94F0000F0FD101F00046400028
:1006780041EB010111F4801F08BF013CF7D041EAAA
:10068800060195F0000F18BF704703F000465200AE
:1006980043EB030313F4801F08BF013DF7D043EA7F
:1006A8000603704794EA0C0F0CEA135518BF95EA35
:1006B8000C0F0CD050EA410618BF52EA4306D1D1BC
:1006C80081EA030101F000414FF0000070BD50EADB
:1006D800410606BF1046194652EA430619D094EA65
:1006E8000C0F02D150EA013613D195EA0C0F05D14F
:1006F80052EA03361CBF104619460AD181EA0301A3
:1007080001F0004141F0FE4141F470014FF000005A
:1007180070BD41F0FE4141F4780170BD70B54FF0F5
:10072800FF0C4CF4E06C1CEA11541DBF1CEA135575
:1007380094EA0C0F95EA0C0F00F0A7F8A4EB050457
:1007480081EA030E52EA03354FEA013100F088804E
:100758004FEA03334FF0805545EA131343EA126317
:100768004FEA022245EA111545EA10654FEA0026CC
:100778000EF000419D4208BF964244F1FD0404F585
:10078800407402D25B084FEA3202B61A65EB0305E1
:100798005B084FEA32024FF480104FF4002CB6EB9E
:1007A800020E75EB030E22BFB61A754640EA0C001E
:1007B8005B084FEA3202B6EB020E75EB030E22BF5E
:1007C800B61A754640EA5C005B084FEA3202B6EB9F
:1007D800020E75EB030E22BFB61A754640EA9C005E
:1007E8005B084FEA3202B6EB020E75EB030E22BF2E
:1007F800B61A754640EADC0055EA060E18D04FEAEC
:10080800051545EA16754FEA06164FEAC30343EA8B
:1008180052734FEAC2025FEA1C1CC0D111F4801F58
:100828000BD141EA00014FF000004FF0004CB6E751
:1008380011F4801F04BF01430020B4F1FD0C88BFF0
:10084800BCF5E06F3FF6AFAEB5EB030C04BFB6EBFB
:10085800020C5FEA500C50F1000041EB045170BDEE
:100868000EF0004E4EEA113114EB5C04C2BFD4EB1B
:100878000C0541EA045170BD41F480114FF0000E9F
:10088800013C90E645EA060E8DE60CEA135594EA1B
:100898000C0F08BF95EA0C0F3FF43BAF94EA0C0F1E
:1008A8000AD150EA01347FF434AF95EA0C0F7FF493
:1008B80025AF104619462CE795EA0C0F06D152EAE7
:1008C80003353FF4FDAE1046194622E750EA4106CB
:1008D80018BF52EA43067FF4C5AE50EA41047FF4DC
:1008E8000DAF52EA43057FF4EBAE12E74FF0FF3C41
:1008F80006E000BF4FF0010C02E000BF4FF0010C12
:100908004DF804CD4FEA410C7FEA6C5C4FEA430C8A
:1009180018BF7FEA6C5C1BD001B050EA410C0CBFD9
:1009280052EA430C91EA030F02BF90EA020F00203B
:10093800704710F1000F91EA030F58BF994208BFA2
:1009480090422CBFD8176FEAE37040F0010070475F
:100958004FEA410C7FEA6C5C02D150EA013C07D1B6
:100968004FEA430C7FEA6C5CD6D152EA033CD3D001
:100978005DF8040B704700BF8446104662468C46FB
:100988001946634600E000BF01B5FFF7B7FF00282E
:1009980048BF10F1000F01BD4DF808EDFFF7F4FF57
:1009A8000CBF012000205DF808FB00BF4DF808EDE2
:1009B800FFF7EAFF34BF012000205DF808FB00BF05
:1009C8004DF808EDFFF7E0FF94BF012000205DF827
:1009D80008FB00BF4DF808EDFFF7CEFF94BF0120DC
:1009E80000205DF808FB00BF4DF808EDFFF7C4FFD5
:1009F80034BF012000205DF808FB00BF80F00040F4
:100A080002E000BF81F0004142001FBF5FEA4103DE
:100A180092EA030F7FEA226C7FEA236C6AD04FEADE
:100A28001262D2EB1363C1BFD21841404840414023
:100A3800B8BF5B42192B88BF704710F0004F40F4D5
:100A4800000020F07F4018BF404211F0004F41F4F1
:100A5800000121F07F4118BF494292EA030F3FD0BD
:100A6800A2F1010241FA03FC10EB0C00C3F12003D0
:100A780001FA03F100F0004302D5494260EB40005F
:100A8800B0F5000F13D3B0F1807F06D340084FEACA
:100A9800310102F10102FE2A51D2B1F1004F40EBBF
:100AA800C25008BF20F0010040EA03007047490027
:100AB80040EB0000013A28BFB0F5000FEDD2B0FAC4
:100AC80080FCACF1080CB2EB0C0200FA0CF0AABFE7
:100AD80000EBC25052421843BCBFD0401843704785
:100AE80092F0000F81F4000106BF80F4000001328B
:100AF800013BB5E74FEA41037FEA226C18BF7FEA62
:100B0800236C21D092EA030F04D092F0000F08BFA3
:100B18000846704790EA010F1CBF0020704712F08A
:100B28007F4F04D1400028BF40F00040704712F1C9
:100B380000723CBF00F50000704700F0004343F02E
:100B4800FE4040F4000070477FEA226216BF084664
:100B58007FEA23630146420206BF5FEA412390EA27
:100B6800010F40F4800070474FF0000304E000BF1D
:100B780010F0004348BF40425FEA000C08BF7047CE
:100B880043F0964301464FF000001CE050EA010292
:100B980008BF70474FF000030AE000BF50EA0102A7
:100BA80008BF704711F0004302D5404261EB410194
:100BB8005FEA010C02BF84460146002043F0B643B9
:100BC80008BFA3F18053A3F50003BCFA8CF2083ADE
:100BD800A3EBC25310DB01FA02FC634400FA02FCE7
:100BE800C2F12002BCF1004F20FA02F243EB0200EE
:100BF80008BF20F00100704702F1200201FA02FC50
:100C0800C2F1200250EA4C0021FA02F243EB020042
:100C180008BF20EADC7070474FF0FF0C1CEAD05286
:100C28001EBF1CEAD15392EA0C0F93EA0C0F6FD047
:100C38001A4480EA010C400218BF5FEA41211ED025
:100C48004FF0006343EA501043EA5111A0FB013111
:100C58000CF00040B1F5000F3EBF490041EAD371E6
:100C68005B0040EA010062F17F02FD2A1DD8B3F162
:100C7800004F40EBC25008BF20F00100704790F0D1
:100C8800000F0CF0004C08BF49024CEA502040EA23
:100C980051207F3AC2BFD2F1FF0340EAC2507047E9
:100CA80040F400004FF00003013A5DDC12F1190F27
:100CB800DCBF00F000407047C2F10002410021FA99
:100CC80002F1C2F1200200FA02FC5FEA310040F1B1
:100CD800000053EA4C0308BF20EADC70704792F02A
:100CE800000F00F0004C02BF400010F4000F013A62
:100CF800F9D040EA0C0093F0000F01F0004C02BF5D
:100D0800490011F4000F013BF9D041EA0C018FE7CB
:100D18000CEAD15392EA0C0F18BF93EA0C0F0AD0D1
:100D280030F0004C18BF31F0004CD8D180EA0100F7
:100D380000F00040704790F0000F17BF90F0004F90
:100D4800084691F0000F91F0004F14D092EA0C0F72
:100D580001D142020FD193EA0C0F03D14B0218BF05
:100D6800084608D180EA010000F0004040F0FE404B
:100D780040F40000704740F0FE4040F440007047E7
:100D88004FF0FF0C1CEAD0521EBF1CEAD15392EA66
:100D98000C0F93EA0C0F69D0A2EB030280EA010C56
:100DA80049024FEA402037D04FF0805343EA1111EF
:100DB80043EA10130CF000408B4238BF5B0042F14D
:100DC8007D024FF4000C8B4224BF5B1A40EA0C00F2
:100DD800B3EB510F24BFA3EB510340EA5C00B3EB24
:100DE800910F24BFA3EB910340EA9C00B3EBD10F12
:100DF80024BFA3EBD10340EADC001B0118BF5FEA64
:100E08001C1CE0D1FD2A3FF650AF8B4240EBC2508C
:100E180008BF20F0010070470CF0004C4CEA50204D
:100E28007F32C2BFD2F1FF0340EAC250704740F49C
:100E380000004FF00003013A37E792F0000F00F08E
:100E4800004C02BF400010F4000F013AF9D040EA0C
:100E58000C0093F0000F01F0004C02BF490011F4A0
:100E6800000F013BF9D041EA0C0195E70CEAD15398
:100E780092EA0C0F08D142027FF47DAF93EA0C0F7F
:100E88007FF470AF084676E793EA0C0F04D14B0263
:100E98003FF44CAF08466EE730F0004C18BF31F015
:100EA800004CCAD130F000427FF45CAF31F000430F
:100EB8007FF43CAF5FE700BF4FF0FF3C06E000BFA8
:100EC8004FF0010C02E000BF4FF0010C4DF804CDCB
:100ED8004FEA40024FEA41037FEA226C18BF7FEADB
:100EE800236C11D001B052EA530C18BF90EA010FDD
:100EF80058BFB2EB030088BFC81738BF6FEAE1706C
:100F080018BF40F0010070477FEA226C02D15FEA07
:100F1800402C05D17FEA236CE4D15FEA412CE1D073
:100F28005DF8040B704700BF844608466146FFE73A
:100F38000FB5FFF7C9FF002848BF10F1000F0FBD1C
:100F48004DF808EDFFF7F4FF0CBF012000205DF815
:100F580008FB00BF4DF808EDFFF7EAFF34BF01209A
:100F680000205DF808FB00BF4DF808EDFFF7E0FF33
:100F780094BF012000205DF808FB00BF4DF808ED84
:100F8800FFF7D2FF94BF012000205DF808FB00BFE7
:100F98004DF808EDFFF7C8FF34BF012000205DF8C9
:100FA80008FB00BF7BB972B90029BEBF00204FF013
:100FB800004106E008BF00281CBF6FF000414FF059
:100FC800FF3000F095B8ADF1080C6DE904CE0029AA
:100FD80009DB002B1ADB00F0DFF8DDF804E0DDE9BF
:100FE800022304B07047404261EB4101002B1BDB38
:100FF80000F0D2F8DDF804E0DDE9022304B0404255
:1010080061EB4101524263EB43037047524263EB89
:10101800430300F0C1F8DDF804E0DDE9022304B081
:10102800404261EB41017047524263EB430300F0D9
:10103800B3F8DDF804E0DDE9022304B0524263EBC3
:101048004303704753B94AB9002908BF00281CBF99
:101058004FF0FF314FF0FF3000F04AB8ADF1080C07
:101068006DE904CE00F098F8DDF804E0DDE902232C
:1010780004B07047D0B5FFF7CFF900220B4B0646F6
:101088000F46FFF721FA00F035F80446FFF7A2F9FA
:101098000022074BFFF718FA02460B46304639463E
:1010A800FFF75AF800F026F82146D0BD0000F03DC1
:1010B8000000F041D0B500220B4B06460F46FFF763
:1010C80003FA00F017F80446FFF784F90022074BEB
:1010D800FFF7FAF902460B4630463946FFF73CF867
:1010E80000F008F82146D0BD0000F03D0000F041B6
:1010F800704700BF4A0011D212F5001211D20DD567
:101108006FF47873B3EB62520ED44FEAC12343F005
:10111800004343EA505323FA02F070474FF00000AF
:10112800704750EA013002D14FF0FF3070474FF05E
:1011380000007047034613F8012B002AFBD1181A48
:101148000138704710B500210446FFF703FF20B9A6
:101158002046BDE81040FFF78DBF04F10040FFF7BF
:1011680089FF404261EB410110BD38B500220023E0
:1011780004460D46FFF71AFC28B920462946BDE863
:101188003840FFF797BF204605F10041FFF792FF6F
:10119800404261EB410138BD2DE9F04786468C4657
:1011A8000846089E154674461946002B40F0C18033
:1011B8008542B2FA82F245D94AB1C2F1200300FA57
:1011C80002FC954094402EFA03F343EA0C0C4FEAD4
:1011D800154EA8B2230CBCFBFEF80EFB18CC08FB7E
:1011E80000F943EA0C43994528D9EB1808F1FF3771
:1011F80004D2994502D9A8F102072B44A3EB0903AD
:10120800A4B2B3FBFEFC0EFB1C330CFB00F044EA5B
:101218000344A04214D92C190CF1FF3304D2A04284
:1012280002D9ACF102032C44241A43EA07401EB148
:10123800D440002334607360BDE8F0874746DDE79B
:101248006346F1E792BB431B01214FEA154EAFB24B
:10125800200CB3FBFEFC0EFB1C330CFB07F840EA2A
:101268000343984561D9EB180CF1FF3004D2984537
:1012780002D9ACF102002B44A3EB0803A4B2B3FBE0
:10128800FEFC0EFB1C330CFB07F744EA0344A742A1
:101298004DD92C190CF1FF3304D2A74202D9ACF175
:1012A80002032C44E41B43EA0040C0E7C2F12003D8
:1012B8009540944020FA03F12EFA03F34FEA154EB5
:1012C8009040AFB20343B1FBFEFC0EFB1C10190C9F
:1012D8000CFB07F841EA0041884522D969180CF14E
:1012E800FF3004D2884502D9ACF102002944A1EBB1
:1012F80008019BB2B1FBFEFC0EFB1C110CFB07F7AF
:1013080043EA01439F420ED9EB180CF1FF3104D296
:101318009F4202D9ACF102012B44DB1B41EA004198
:1013280093E76046E3E76146F7E76046A4E763466C
:10133800B8E7834206D916B9002108467CE7C6E912
:1013480000E0F9E7B3FA83F78FB9834201D3724516
:1013580008D8BEEB020460EB030301209C461EB9CB
:10136800002169E73846FAE7C6E9004CF8E7C7F113
:10137800200CBB400EFA07F522FA0CF42EFA0CF1F9
:10138800BA401C4320FA0CF3B8404FEA1449014311
:101398001FFA84FEB3FBF9F809FB18300B0C08FBA5
:1013A8000EFA43EA00439A4540D9E31808F1FF30A2
:1013B80004D29A4502D9A8F102002344A3EB0A03F8
:1013C80089B2B3FBF9F809FB183308FB0EFE41EAB2
:1013D80003418E452CD9611808F1FF3304D28E459C
:1013E80002D9A8F10203214443EA0040A1EB0E010F
:1013F800A0FB02984145CE46434602D306D14D454F
:1014080004D20138B9EB020E68EB0403002EA7D012
:10141800B5EB0E0261EB030101FA0CFC22FA07F3AB
:10142800F9404CEA0303C6E9003199E74046C5E7AD
:101438004346D9E700000000D0B504464068FEF7EF
:10144800D9FF09A3D3E90023FFF768F90646206806
:101458000F46FEF7CFFF02460B4630463946FEF7E9
:101468007DFED0BDAFF300800000000080842E41D7
:101478000B1EB8BFFF3310B504461812A0FB0201BB
:10148800DB1702FB0311FEF7F1FF07A3D3E90023E3
:10149800FFF71AF8FFF769FE0023054AFFF782FDF8
:1014A800C4E9000210BD00BF05A3923A019D234084
:1014B80040420F00000000000329F8B505460C461D
:1014C80061D1002A3ED0072A54D15A681E681346B3
:1014D8003148D117C6FB0031012B71F1000244DB02
:1014E80000F56E1000F65D70181841F1000128A390
:1014F800D3E90023FFF756FD02282E6914D00428EB
:1015080014D0082814D010282FD1E7B239466868BB
:101518001FF07FF900280DDB204B777403EBC40321
:101528005B68F3600020F8BD0024EEE70124ECE7D7
:101538000224EAE71A4A1B4801211EF026FF6FF031
:101548000400F0E71988184B33F8020B814209D8D8
:10155800D4B2214668682E691FF040F9002807DADE
:10156800124AE8E701320A2AEED16FF01500DAE7ED
:101578003474D7E70B48134602210D4A1EF00EFFBC
:101588006FF08500CFE70846BDE8F84004F088B85A
:101598003AA395000000000040420F0084A0030019
:1015A80092CC03001C9A030058B30300BDCC03007F
:1015B800D5C3030000000000B0B50329044600AFFE
:1015C80042D852B3072A2CD15A681D6813462848B6
:1015D800D117C5FB0031012B71F1000215DB00F5B5
:1015E8006E1000F65D70181841F100011EA3D3E9D2
:1015F8000023FFF7D7FCB0FA80F0C0F11E01C9B292
:10160800204620F0F5FCBD46B0BD1A48181861F117
:10161800000115A3D3E90023EBE7198804F052FA77
:10162800F1E76C4688B06A46134B4FF4C8515361D2
:10163800124B9361032342F8103F114820F0EAFC53
:101648006FF08500A546DEE76C4688B06A460D4B0C
:1016580053610D4BC2E9063104234FF4045142F89B
:10166800103FEAE7AFF300803AA3950000000000BE
:1016780040420F00632EB5FF5BC5030047C7030058
:10168800249A03007BC5030057C70300000000002D
:1016980070B514460646CD17A1FB0201002304FBD2
:1016A80005110A22FFF77EFC0FA3D3E900230C4D96
:1016B80080FB054520462946FFF774FC06A3D3E9BD
:1016C8000023306029462046FFF76CFC0023054ABA
:1016D800FFF768FC726070BD80A81201000000006E
:1016E800D8EF2F0040420F0000209BF35E1000004F
:1016F8002DE9F84305460C4600AF00296CD00729B0
:1017080040F08980536810684F4AD917C0FB0231EE
:10171800012B71F1000277DBD5F804804B4898F86B
:101728001A4018184FEAD41445A3D3E9002341F10D
:10173800000164B2FFF736FC002C14BF0423022317
:10174800834298F91A6028D0002C14BF2023102354
:10175800984224D0002C14BF08230423984220D098
:10176800002C14BF1023082398424DD103245FFA9C
:1017780084F9494640462D691FF097FC002812DB82
:10178800334B002E4FF03D0233F8143085F81E908D
:101798001EDBA3FB02325B081BE00024E7E7012401
:1017A800E5E70224E3E76C4688B06A46294B5361B3
:1017B800294B9361032329484FF4C85142F8103F3D
:1017C80020F0BAFC6FF00400A546BD46BDE8F883DA
:1017D8005343EB600020F8E7214B1288984633F812
:1017E800021B8A420DD86868E1B22E691FF0EFFD2E
:1017F80000280CDA6C4688B06A461A4B53611A4BBB
:10180800D7E701340B2CEAD16FF01500DDE738F883
:101818001430B383DEE76C4688B06A46134B0F4832
:101828005361134B4FF4C8519361032342F8103F9F
:1018380020F082FC6FF08500A546C6E7AFF3008074
:101848003AA395000000000040420F009DD14A00D5
:1018580098B303008ECC030080CF03003C9A0300AA
:10186800A0B30300B9CC03006ACF0300E7CC0300A0
:1018780098CF030000000000F8B50D46032D11466F
:1018880004461A4600AF07D0072D09D00221464A60
:1018980046481EF07AFD7EE0FFF72AFFBD46F8BDF8
:1018A800002951D0072966D159681D680A46404B5E
:1018B800C817C5FB0320B425A2FB0531012A05FB87
:1018C800001170F1000028DB3A48181841F10001B6
:1018D80033A3D3E900230025FFF764FB364B33F825
:1018E800022B904221D16068E9B226691FF0F4FB0F
:1018F800002820DA6C4688B06A46304B5361304B7A
:101908009361032329484FF4C85142F8103F20F04F
:1019180013FC6FF00400A546C0E72A48181861F1C7
:1019280000011FA3D3E90023D5E70135072DD6D140
:101938006FF01500B2E741F21712234B33F8153058
:101948005343B3610020A9E71A88204B33F8020BF0
:1019580082420CD86068C9B21FF0A7FD0028F1DAEE
:101968006C4688B06A461A4B53611A4BC8E7013176
:101978000B29EBD1DCE76C4688B06A46164B4FF46E
:10198800C8515361154B09489361032342F8103F2E
:1019980020F0D2FBA5466FF085007FE7AFF300800B
:1019A800D8EF2F000000000060CB03003C9A030032
:1019B80040420F00ECF717008AB303000ACD03007A
:1019C8003FCF03001408E8FF7CB30300A0B3030073
:1019D80031CD03002ACF03005BCD030056CF0300AF
:1019E8002DE9F74F03291446066905D90B1F032B68
:1019F80053D96FF0850023E00229F7683A4D22D0C9
:101A0800032923D0012914BFB6F90460B6F906608A
:101A1800A6FB076732A3D3E9002386FB056530469A
:101A28002946FFF7BFFA0023304A2060294630468E
:101A3800FFF7B8FA00232D4AFFF7B4FA62600020D6
:101A480003B0BDE8F08FB6F90860E1E74FF0000B8E
:101A580002F11803DFF894A00236019336F9028FD9
:101A6800A8FB07831EA3D3E9002388FB05984846F3
:101A78004146FFF797FA524644F8080B5B4648463A
:101A88004146FFF78FFA52465B46FFF78BFA019BF8
:101A980044F8042C9C42E1D1D1E70629B5690CD061
:101AA80007290ED02A46052914BFB6F91010B6F931
:101AB80012102046FFF7ECFDC1E72A46B6F91410CC
:101AC800F7E70E3602F1180720462A4636F9021FB4
:101AD8000834FFF7DDFDA742F6D1B0E7AFF3008089
:101AE8000010A5D4E80000003AA3950040420F007A
:101AF80013B504460E4B0F486360206036F08CFF28
:101B080018B94FF0FF3002B010BD606836F084FF9E
:101B18000028F6D0642300226068CDE9003283688B
:101B28001C6814B16B464021A0470020EBE700BFBA
:101B3800E49503006495030013B504460A48206041
:101B480036F06AFF68B1642300222068CDE90032CC
:101B580083681C6814B16B464021A047002002B07E
:101B680010BD4FF0FF30FAE7C49503002DE9F047A8
:101B7800A2B015A800F08AF8002871D104A8FFF7D0
:101B8800DBFF00286CD10BA8FFF7B2FF002867D154
:101B9800DFF8DCA0DFF8DC80DFF8DC9050461CF0D2
:101BA80047FB40461CF056FB0BA81DF067FCE8B944
:101BB8000DA8FFF741FC04460FA80D46FFF73CFCB3
:101BC80022462B46CDE9000148461CF031FB11A8FE
:101BD800FFF732FC044613A80D46FFF72DFC2246FA
:101BE800CDE900012B4625481CF022FB15A81DF065
:101BF80089FCA8B916A8FFF71FFC044618A80D46CB
:101C0800FFF71AFC06461AA80F46FFF715FC2246EE
:101C1800CDE902012B46CDE9006719481CF008FB05
:101C280004A81DF05AFCA8B905A8FFF705FC04464E
:101C380007A80D46FFF700FC064609A80F46FFF760
:101C4800FBFB2246CDE902012B46CDE900670D4892
:101C58001CF0EEFA00214FF4803037F0AEF89DE723
:101C680009481CF0F7FA4FF0FF3022B0BDE8F087C2
:101C780048B603004FB603006FB6030094B60300DE
:101C8800BEB60300E6B6030022B6030013B5044649
:101C98000A48206036F0C0FE68B1D02300222068D0
:101CA800CDE9003283681C6814B16B460321A04754
:101CB800002002B010BD4FF0FF30FAE70496030091
:101CC8002DE9F04F91B0009302F004030293C2F3A0
:101CD800C2030133840705460E46DDF86880039287
:101CE800059340F0BB81041D30B1072909D86FF076
:101CF8001B0011B0BDE8F08F01F007063444C6F1AF
:101D08000806009B4FF000094FF0040A591E4FF0D7
:101D1800FF334F460193CB465346CDF810900DB193
:101D2800009A22600598002800F3E8809848009AF5
:101D3800824203D397488242C0F0E080039AA4EB22
:101D4800050E92074FEA9E0000F103810F2F00F263
:101D5800B180002D00F0058107F140020DEB020C67
:101D6800019A0CF8200C0CF8102C049801300490FF
:101D7800E7E07A285DD84B280ED8472859D8292873
:101D88002DD8252852D054D820287AD02338D0F1FD
:101D9800000B4BEB000B74E04C382E2849D8DFE8D9
:101DA80000F07048484848484848484848484B4820
:101DB8004848484848484859484B4B595959704B26
:101DC8006D487048184B184848827F4B48484B4824
:101DD8007F0000204FF0000B4FF0040A38E001228A
:101DE8002A38C0B202FA00F010EA0E0F49D110F0FA
:101DF800625C2FD110EA020B43D06046013C544488
:101E0800B4FBFAF40AFB04F4002D61D0A3EB050C33
:101E1800A444B4453FF66BAF002868D1042B47D1E2
:101E280058F8043B2360042304342AE0019A013A59
:101E380001924FF0000B24E011F8010C6C2834D10A
:101E4800002011F8023C83466C2BC5D14FF0080ADC
:101E58005346D3E708F1070828F00708073424F0A9
:101E68000704F8E802AB35B106982044B0423FF6C3
:101E78003EAFC4E900AB4FF0000B08344FF0080A3E
:101E8800534611F8010F002878D0BBF1000F7FF4FA
:101E980070AF2528F5D14FF0010B019B0133019359
:101EA8004FF0040AECE7584694E700208346A5E77C
:101EB800082B02D06FF015001BE708F1070828F07F
:101EC8000708F8E80223C4E9002308230834D8E700
:101ED80068B9042B02D108F10408A4E7082BE9D15A
:101EE80008F1070828F0070808F10808EDE7059A3F
:101EF800013A059258F8042B009210E7039A9007CC
:101F080020D54FF0010CA4EB050E4FEA9E00BEF55C
:101F1800007FCFD20F2FCDD8F5B107F140020DEBDE
:101F2800020E019AC0B20EF8200C0EF8102CBCF16B
:101F3800000F3FF41AAF60F07F000EF8200C09F193
:101F480001090137C5F108024FF6DA7E043406921A
:101F580097E74FF0000CDAE7BCF1000F01D001362B
:101F6800EFE7029802360028EBD10098CDE9063158
:101F7800FFF7E0F8DDE906310644E2E7631BB3F555
:101F8800806F97D245B9A6F10804E018B1E600BF02
:101F98004C930300D00C0400029A9B0828602B7015
:101FA8009DF81030C2B1EB7085F80290B9F1000FBE
:101FB80005D0002208A8C5F1010C97420ED14FF0B8
:101FC800000AC5F101030DF1200801930DF1300B52
:101FD800574512D1601B8CE66B70E5E710F8013BA2
:101FE800190608D50CEB040EB64503F07F033FF63F
:101FF8007EAE04F8013B0132DFE7B9F1000F03D0F0
:1020080098F90020002A17DB029BD3B11AF80B209D
:1020180004F8012B0022019B18191044B0423FF626
:1020280066AE98F80000009904F8010B2046039268
:1020380036F082FF039A14440AF1010A08F10108F4
:10204800C6E798F8002055F822300093029B0098C4
:1020580045F82230FFF76EF8421CDCE76FF00D0000
:1020680047E600BF2DE9F04F97B000AFD7F880B032
:102078003B62CBF3C0030446894690F802A0FA629B
:10208800BB6141B9457800780AEB800020444D4592
:1020980017D8A0EB0409E378FB61BAF1000F02D06E
:1020A8001BF0010F16D1FB6953BBFB6A1BB14946F4
:1020B80020463A6A98474D4628465C37BD46BDE8F3
:1020C800F08F461C3046FFF735F80130304409F1EF
:1020D8000109DCE7626823787A62FA6A9900796113
:1020E80004EB8301002A40F001810E464FF00008FE
:1020F8004D4601EB0A094E454CD101EB0A0610E0AA
:102108001BF0020FD1D023789A007A61626804EB41
:1021180083017A62FA6A002A77D14D46904601EB2C
:102128000A061BF0050F0CBF02230123FB62FB69A3
:1021380006EB430A0BF00203BB625645BCD016F807
:10214800021B16F8013C54F82390994B994502D389
:10215800984B994536D3BB69002B40D0786A1DF05F
:10216800FDFC00283BD0E9468AB06A46924B536191
:102178007B6AC2E906314FF4007313848F4B42F82F
:10218800103F00234FF412518D4800F017FD023D17
:10219800CD46D2E716F8013BF96254F82300FEF762
:1021A800C9FFD7F88430F96A01304BB1D7F88830C5
:1021B80098453EBFD7F8843023F8180008F1010885
:1021C800054498E7BB6923B1786A1DF0C7FC00286D
:1021D800C9D11BF0010F05D1FB6AED1AADE7BB6A47
:1021E800002BAAD04846FEF7A5FFD7F8843053B194
:1021F800D7F8883098453FBFD7F88420431C22F889
:10220800183008F10108054497E7BAF1000F73D0B8
:102218001BF0040673D0D046002607F1480052464A
:102228003B61B96236F088FEB96A3B6901EB0A0284
:10223800BA62FA69F9695200FA60BA6A02EB4102B5
:102248003A610BF00202BA603A69B96A8A4258D117
:1022580062781BF0020F18BF00217A6208BF4FEAAC
:102268005801B2181BF0010FD2B240F09F801BF04A
:10227800040F14BF40460020BB616270A070E1707B
:1022880020463A6A7969FB6A9847051EFFF614AF3B
:10229800BB69414623707B6A3A6A6370FB6984F8BC
:1022A80002A0E37007F14800FB6A9847B0F1000804
:1022B800C0F2BA807B69A9EB0A01C91AFB683A6ABD
:1022C800C91AD7E90A0398470028C0F2AF804FF02F
:1022D800000BA84408EB000507F1380AB34571D391
:1022E80000213A6A0846FB6A9847E5E656464FF0E9
:1022F800000807F1380092E75646D04696E7B04600
:1023080094E7BA6A12F8021B12F8015CBA6254F830
:102318002500274A904202D3264A90421ED3BA6922
:1023280032B1786A7B601DF019FC7B6800288BD17C
:10233800BA6802BB08F1280207F1300C08F1010065
:10234800944407F1580208F1020852FA80F00CF898
:10235800101C5FFA88F800F8105C75E7BA693AB1A2
:10236800786A7B601DF0FAFB7B6800287FF46CAF0D
:102378001BF0010F09D006F1280207F13000711C8B
:10238800161806F8205CCEB25EE71BF0040F3FF487
:102398005BAF08F1280207F1300008F1010102EBF8
:1023A800000808F8105C5FFA81F84DE7002063E741
:1023B8004C930300D00C04000EB703000400000186
:1023C8004C9A03001BF80A3054F8239087F83730EA
:1023D800D7F884302BB3D7F888309B4521D2D7F86B
:1023E800843033F81B8001213A6AFB6A07F1370011
:1023F800984700281ADB0544B8F1000F06D1484673
:10240800FEF798FE00F101081FFA88F84146484691
:102418003A6AFB6A9847002808DB05440BF1010B70
:102428005CE74FF00008DEE7454645E6054643E62B
:10243800014B1860704700BF0000002080B50546BA
:102448000E46174698461BF0F7F9034636F070FF1C
:102458000446DFF81890424649F8003039463046BD
:10246800A84754F8090001F0E9FA00BF0800000085
:102478002DE9F047058B04462807904611D4022918
:1024880005F0070540F0CC8020461DF007FE78B126
:102498000138218B042811D8DFE800F0C2106D85BF
:1024A800950001290CBF45F0100545F0200525834E
:1024B80088F31188BFF36F8FBDE8F08701F0070A32
:1024C800AA4500F0A5800027B9463E46A368002B20
:1024D80000F0BC8041F00801218388F31188BFF324
:1024E8006F8FA168002900F0BA800D68002900F0FC
:1024F800B680334652462046D1F80480C047002DA6
:1025080076D02B6829461D46F0E701F007035A1FCD
:10251800012A1BD8002221F00701062B276889B25F
:10252800C4E9002209D13B4603E0628B0132628391
:102538001B68002BF9D141F00201204621831DF0D0
:10254800ADFD00287AD041F0200176E0042B0AD1B5
:1025580021F0070189B2204621831DF09FFD10B1AB
:1025680041F020012183218B01F0070AAA454FD0B1
:102578000027B946AAE7236921F0070141F00601BF
:10258800062DD3F8009021832DD1B9F1000F3FD04B
:1025980041F00801218388F31188BFF36F8F20462B
:1025A8003949C84729E021F00701236941F00401AE
:1025B80089B2042DD3F804902183E6D000274FF088
:1025C800040A3E4682E721F00701236941F005012C
:1025D80089B2052DD3F808902183D6D000274FF073
:1025E800050A3E4672E700274FF0060A3E466DE7A9
:1025F8002B4687E7B9F1000FD1D1EFF311882023DB
:1026080083F31288BFF36F8F238B23F00803238390
:10261800258BEA062ED525F01003238305F0070540
:102628006669218B002EBFF670AF00232768C4E9C6
:10263800003321F0070141F001012183218B4FF084
:10264800000901F0070AAA457FF440AF002F9CD08B
:1026580041F00801218388F31188BFF36F8F002FA1
:10266800C8D03D6839463346524620461DF042FDE3
:102678002F46F4E7AB067FF51BAF25F02003238335
:1026880005F0070500E700BF290102002DE9F04722
:10269800044607464FF00109DFF8508014B9384660
:1026A800BDE8F08794FAA4F5B5FA85F509FA05F3BB
:1026B8002E0108EB05156FEA030A24EA03042B7BB5
:1026C800002BEBD058F806301B694BB946447368A9
:1026D80004222846196807EA0A071DF0E7FDDDE726
:1026E800284698470028D9D1F0E700BFDC9A0300B4
:1026F80030B5002289B00F490F4836F0EDFB0022B3
:1027080000230024CDE906230E230C4DCDE9033424
:102718004FF440722846CDE90144094B0949009419
:102728001AF0C6FD084928461AF04CFD204609B0A3
:1027380030BD00BF55270000280700207002002088
:10274800692A0000F8E70120C2B7030001481AF01F
:1027580013BB00BF5C0200202DE9F04780462148EA
:102768000F461DF087FD0646002833D00025284671
:10277800BDE8F087237B83B12368DB680BB1204673
:102788009847636883F8069023681B69D3B9636820
:102798000422204619681DF089FD0136103454457D
:1027A800E8D3B8F1000FE2D0002DDFD02846FFF7BC
:1027B8006DFF0546002FF7D000214FF4A47036F0C6
:1027C800FCFAF1E7204698470028E0D009FA06F31A
:1027D8001D43E2E705464FF00109034CDFF80CA062
:1027E800DDE700BFA85B0020DC9A0300EC9A030039
:1027F800014B53F8200070470C9E030008B50346B0
:1028080008462BB1044A136000F06EFC002008BD96
:102818006FF01500FBE700BF0400002010B5044C62
:10282800237813B903481AF0A7FA0123237010BDBF
:10283800C6E701205C02002010B5044609481DF0D7
:1028480019FD3CB1084BD3E8EF1F0139C3E8E21F7B
:10285800002AF8D1054836F04BFBBDE81040044883
:102868001AF08ABAA05B0020A45B00202807002089
:102878005C02002000200146034BD3E8EF0FC3E8B9
:10288800E21F002AF9D17047A05B002070B5FFF75E
:10289800F1FF0546074C084EB44200D370BD63688B
:1028A8005B792BB123685B6813B1294620469847AA
:1028B8001034F1E7DC9A0300EC9A030010B5044CDD
:1028C800044920461DF083FA034B1C6010BD00BF6D
:1028D800A8010020F89D0300985B002000230D4A02
:1028E80010B513700C4A4FF4004113600B4A0C48A2
:1028F8001360FFF783FFFFF7E1FF0A4B0A49184609
:102908008B4200D310BD1A1A5C6812110132227171
:102918001033F5E7C7E70120A05B0020A45B002087
:1029280079020200DC9A0300EC9A030001460022B7
:10293800002301481DF06CBAA801002001481DF0D1
:1029480005BB00BFA8010020024B014618681DF016
:1029580051BB00BF985B002001481DF086BB00BF3B
:10296800A801002070B5274B1878002849D0FFF738
:10297800E5FF0546002841D1234B244C1B68002B5A
:1029880019DD36F0A7FA4FF47A72A0FB020302FBB6
:102998000131C30B43EA4143D4E900209B1A40F2BA
:1029A800E9324FEAD13161EB0001934271F1000144
:1029B80001D3FFF76BFFD4E9003213F57A7342F1C4
:1029C8000002C4E90032BDE87040FFF7C5BF636884
:1029D8005B7923B12368294620461B689847103441
:1029E800B442F4D32846FFF7AFFF094BD3E8EF1FF3
:1029F8000139C3E8E21F002ABED0F7E7054C064EAE
:102A0800EEE770BDC6E70120A05B0020200700208C
:102A1800A45B0020DC9A0300EC9A030070B50D4D0E
:102A2800297861B90120FFF797FE0B4C0B4EB44291
:102A380006D3FFF797FF0028FBD101232B7070BD49
:102A480063685B791BB1236820469B6898471034FC
:102A5800EDE700BFC7E70120DC9A0300EC9A03000A
:102A680000212DE9F0470846FFF776FE044658B3E3
:102A780040F267684FF0000936F05AFC1B4B1C4ABD
:102A88001B58136033B11B4B1B68092B02DD1A4816
:102A98001AF072F90025194FDFF85CA044B12046FE
:102AA800FFF7F4FD044618B94FF0FF384FF0FF392F
:102AB800FFF758FF064628B9B5B942464B46504677
:102AC8001AF08EF93546E9E74FF0FF384FF0FF3935
:102AD800D2E72B689B691BB100222846114698470C
:102AE8001035BD42F5D3E8E7054DFAE708000000C8
:102AF8009C5B0020A45B00205C020020EC9A030091
:102B0800DC9A030013B518481DF0B4FB174B1B786B
:102B180073B1EFF31184202383F31288BFF36F8F0F
:102B2800FFF720FF84F31188BFF36F8F02B010BD49
:102B38000F4B1B68002BF9D050B9002200230D4819
:102B4800CDE900234FF4004200231BF093F9EDE791
:102B58000928EBD1074836F0CBF9074802B0BDE8A1
:102B680010401AF009B900BFA45B0020C7E7012094
:102B78009C5B0020280700205C02002010B5064B53
:102B880004461B6898472146A06004481DF0BFF919
:102B9800BDE81040FFF7B6BF04000020A8010020E0
:102BA800044A054B9B1AB1EBD30F34BF52F83100DE
:102BB80000207047149A0300DC9A03002DE9F04FB7
:102BC8008FB0C1F34A2804AF0D469146B8607B60C8
:102BD8000C0DB8F1000F63D000264FF0040B4FF036
:102BE8000A0A07F11403C7F80C80C7E907667E6272
:102BF8000193CDF808B0CDF800A007F11C033246C8
:102C08004846F968FFF72EFAB0F5006F03461CD363
:102C18006C468AB0D9F8041004AB26481A46C3E9B2
:102C2800050140F2FF71D9614FF400711984224BFC
:102C380042F8103F4FF4125133462048FFF7BEFFC9
:102C4800A5462C37BD46BDE8F08FC0F30A0804F14D
:102C58001700184420F0070080083B60FFF766FE65
:102C680068F35325044690B13B6800F11001C7E9A9
:102C7800083607F11403F961CDE900A3CDF808B0CF
:102C880048460F4AF96807F11C03FFF7EBF968F3A8
:102C980053252A4620467B68B9681DF026FBD0E7F5
:102CA80004F1170020F007008008FFF73FFE0446F4
:102CB800EDE700BFD7B7030004000001949A0300B2
:102CC800C70202002DE9F04F87B00446DDE9105A2B
:102CD800DDE91279934698460391BFB13B465246C7
:102CE80010210020CDF80090CDF81490FEF7E8FFF1
:102CF800B0F5006F06460AD340F2FF730221174A67
:102D0800174807B0BDE8F04F1DF048BB3E4605F137
:102D18001700304420F007008008FFF707FE04F092
:102D280007040BF0070BE40044EA8B1444EA46243A
:102D380044EA0554054640B13FB13B465246314648
:102D4800CDF800901030FEF7BBFF434622462846D8
:102D5800039907B0BDE8F04F1DF0C7BA16B80300D5
:102D6800949A0300406820B1034BC01A40F3CF0087
:102D780070474FF0FF307047149A03000EB403B544
:102D880003AB53F8042B01460448019301F08AF978
:102D980002B05DF804EB03B0704700BF07040200FF
:102DA800CA0605D48B064CBF02490349FFF7E6BFA4
:102DB800704700BFBCB603004EB803002DE9F04FC2
:102DC80089B09B46149B9DF84CA00693159B04461E
:102DD8000593169B0D469046179E0493BAF1000F73
:102DE80000F09D8006F4807307931DF05DFA06F0ED
:102DF8000209024600283ED020469149FFF7BEFF4F
:102E08000746B9F1000F08D016F0440F35D12A460D
:102E180020468C49FFF7B2FF074406F0010353B17F
:102E2800894B204653F82A20884B8949002A08BF35
:102E38001A46FFF7A3FF06F48073002B49D006F06B
:102E48000803002B63D1B8F1000F66D04246204634
:102E58008049FFF793FF0546069B3D44002B6DD143
:102E6800049B002B73D1F30700F1E4803146204620
:102E7800FFF796FFD8E00746C3E7774B18680028A6
:102E8800CAD0764B4FF47A791B684FF03C0CB5FBEF
:102E9800F3F5B5FBF0F14FF4616300FB115509FB45
:102EA80005F5B1FBF3F2B5FBF0FE03FB121100FBD5
:102EB8001E55B1FBFCF309FB05F5B5FBF0F50CFB62
:102EC800131120460091CDE901E56549FFF756FF4A
:102ED800A2E706F00803EBB1624B204653F82A201C
:102EE8006149FFF74BFF0546B8F1000F05D0424690
:102EF80020465849FFF742FF0544BBF1000FABD00D
:102F08005A4620465949FFF739FF0544A4E74FF0D0
:102F1800000BE1E706F00805E6E745469CE7BBF14C
:102F2800010F069B06D1002B64D1049B002B7BD09C
:102F380000250CE0002BF8D04D485CE04D48069B7E
:102F480022464D491CF0D9FD049B002B68D0DFF8C0
:102F58002C81DFF82C91049F3146102F204628BF82
:102F680010274FF0000BFFF71BFF5D4545DC059B65
:102F7800494620461A78FFF701FF4FF0010B1BF076
:102F8800070F03D141462046FFF7F8FE5F453BD9BE
:102F9800059B4946204613F80B20FFF7EFFE0BF17F
:102FA800010BBBF1100FEAD14FF0000B2046354959
:102FB800FFF7E4FE5A46059B20469A5CA2F12001E1
:102FC8005F2928BF2E223049FFF7D8FE0BF1010BED
:102FD800BBF1100F1DD01BF0070F03D1414620464F
:102FE800FFF7CCFE5F455A46E5D841462046FFF735
:102FF800C5FEEBE71F485546A1E741462046FFF7C7
:10300800BDFE0BF1010BB0E720462049FFF7B6FEE5
:10301800C5E7059B3B440593049BDB1B04939AD1AE
:10302800BAF1000F7FF41FAF204609B0BDE8F04F9A
:103038001DF0D8B92046054A0549FFF79FFE15E758
:1030480056B803005AB803001C9E030051B8030089
:10305800DEC103007FB80300B05B0020AC5B00203A
:1030680063B80300309E030083B8030089B80300E7
:103078003504020007040200AD40000096B80300C2
:103088008EB8030098B803009AB8030094B80300F8
:1030980042F20F7373B58B4228BF0B46056804468E
:1030A800052168460D4A0FF065FE06466368284606
:1030B8000B225B680A491DF087F963683246694646
:1030C80028465B681DF080F963681B2228465B6808
:1030D80004491DF079F902B070BD00BF86C2030033
:1030E800B9B803009DB8030000210123064A9042A5
:1030F80006D8064A01B901231360054B18607047CA
:10310800012140085B00F2E740420F00AC5B002061
:10311800B05B0020F8B50D460446064F4618B44289
:1031280001D12846F8BD14F8011BBB6801485B684B
:103138009847F4E784940300014B0360002070472C
:10314800789E030070B545680669286835F064FC08
:1031580040B90121194A1A481DF017F96FF01204F5
:10316800204670BD686890B12C1D35F055FC0028CC
:10317800F4D020464FF400311DF0D4F9041E06DACD
:103188002346104A01210E481DF008F9E8E7E868CF
:1031980070B10C3535F040FC0028DFD04FF4B01189
:1031A80028461DF0BFF9041E02DA074A2346E9E75C
:1031B800304635F0DFFC0024D2E700BFFFB803003B
:1031C800AC9A030017B9030042B9030008B50448D4
:1031D8001CF0EBFCBDE8084002481CF0E6BC00BF50
:1031E80096B90300CBB9030001481AF0DFBE00BF4F
:1031F800909E030038B5044618B90F4B0F485B681A
:1032080098476168B1F5683F10D0B1F5680F0DD0E7
:103218000B4DA9420AD011F46861206807D0014615
:10322800084835F04FFC00232360656038BD142240
:1032380035F0A9FEF9E700BF24010020F9B9030021
:103248002C5F5CA9F060002008B560B34368B3F553
:10325800683F0ED0B3F5680F18D0144A934220D0B7
:1032680000684FF0FF324FF0FF3319F0BDFC58B142
:1032780015E001220368D3E8EF1F002903D1C3E852
:10328800E02F0028F7D10AD1002008BD0368084ABA
:103298001B7803F5807352F82330002BF4D00548CF
:1032A800F3E70548F1E76FF4E040EEE72C5F5CA92F
:1032B80000000350E98FFFFFEA8FFFFF08B520B336
:1032C8004368B3F5683F09D0B3F5680F13D0114AC6
:1032D80093421DD0006819F0FFFC14E00022036837
:1032E800D3E8EF1F012903D1C3E8E02F0028F7D165
:1032F80009D0094808BD00210368084A1B7803F56E
:10330800807342F823100020F4E76FF4E040F1E7FF
:103318000348EFE72C5F5CA9E98FFFFF000003502B
:10332800EA8FFFFF10B5044618B91D4B1D485B68AE
:1033380098476368B3F5683F2FD0B3F5680F2CD072
:10334800194A934219D1236803BB4FF0FF324FF05B
:10335800FF332146154819F05BFB08B923681BB9F0
:103368000F4B13485B68984714220021206835F0FA
:103378000AFE4FF46863636008E0B3F5683F0DD850
:103388003A2B03D040F6BA629342DED1206835F07A
:10339800F1FB636843F03A03636010BD054AF3E745
:1033A80024010020F9B903002C5F5CA9F06000201B
:1033B8001FBA03003A00003A08B506494023142210
:1033C800054835F071FBBDE80840044904481AF087
:1033D8005FBE00BFF05B0020F0600020989E0300F5
:1033E800AC9E03002DE9F04706460C4600AF0029C5
:1033F80036D0D1E90012E9468AB06D46A3684FF08D
:10340800050AA8461F48C5E90723C5E9050148F884
:1034180010AF002342464FF421511B48FFF7CEFB63
:10342800D4E90312CD466369AD461848C5E90723B8
:10343800C5E90501C5F810A0002342464FF4215103
:103448001148FFF7BBFBCD46E3690121104A0E483E
:103458001CF0A4FFA36901210E4A0B481CF09EFF33
:10346800012E07D1EFF305830B4A31460648103B7E
:103478001CF094FF2146304619F01AF9BD46BDE804
:10348800F08700BF4CBA0300BC9A03007BBA030064
:10349800AABA0300B9BA0300E7BA030030BFFFF7BE
:1034A800FDBF00BF2DE9F04105460B4EDFF82C802B
:1034B800324606EB0807CC1B2046094935F03CFD8F
:1034C800A01942460021083C35F05DFDC5F8A4402E
:1034D80007F10800BDE8F0810000000004000000CA
:1034E800309B0300054B5A699B689A421FBF044AE8
:1034F800536843F080535360704700BFA4E5012030
:1035080000ED00E070B52A4C06460D4629482A49C8
:103518001EF01BF9A36ADB0647D5264827491EF08B
:1035280014F91120A36A1C0704D5224824491EF067
:103538000CF912201E4CA36A990712D521491D487F
:103548001EF003F9636BA26A120609D501211E4A0F
:1035580018481CF023FF1EB1A36A23F08003A3625E
:103568001320134CA36ADE0704D5124817491EF02E
:10357800ECF81420A36A9C0604D50E4814491EF0E2
:10358800E4F815200A4B9A6AD10658BF9A6A9A6AD3
:10359800920642BF5A6A22F400525A629A6A42F06C
:1035A800FF029A6200232B7070BD1020BAE700BF9B
:1035B80000ED00E0BC9A0300FABA030010BB030058
:1035C80043BB030056BB03006EBB030084BB030070
:1035D800A3BB030010B5244C244925481EF0B5F8B8
:1035E800A36A99013ED5224822491EF0AEF81E2052
:1035F800A36ADA0104D51E481F491EF0A6F81F2049
:10360800194CA36ADB0204D519481C491EF09DF821
:103618000220A36A1C0304D5154819491EF095F821
:103628002120114CA36A590304D5114815491EF0ED
:103638008CF82220A36A9A0304D50D4812491EF07B
:1036480084F82320084CA36ADB0304D508480F49F3
:103658001EF07BF82420A36A6FEA03436FEA134342
:10366800A36210BD1D20C3E700ED00E0D2BB03003C
:10367800BC9A0300EABB0300FDBB030017BC0300B0
:1036880041BC03005FBC030084BC03009EBC030074
:1036980070B5294C06460D46284829491EF055F8AC
:1036A800A36AD9043CD5254826491EF04EF81720B0
:1036B800A36A1A0504D5214823491EF046F81820A4
:1036C8001D4CA36A9B0512D51C4820491EF03DF8E5
:1036D800A36BA26A100409D501211D4A17481CF0E2
:1036E8005DFE1EB1A36A23F40043A3621920124CA5
:1036F800A36A590504D5114816491EF026F81A2060
:10370800A36ADA050ED50D4813491EF01EF81B20D2
:10371800094A936A43F47F43936200232B7070BD78
:103728001620C5E7A36A9B04F2D504480B491EF08E
:103738000CF81C20ECE700BF00ED00E0BC9A030089
:10374800C9BC0300DFBC030043BB0300F0BC03009B
:1037580009BD03001EBD030039BD0300A3BB030060
:103768002DE9F0418AB0654B0446D3F80480002661
:1037780000AFC8F3080586F31188BFF36F8F02F016
:103788007F43B3F17F4F07D102F00C03082B12D10E
:103798005B495C481DF0D9FF002634460023FB71C5
:1037A800EB1E092B00F28980DFE803F00A7F827B99
:1037B80087878787878510074CBF0C460126EDE76A
:1037C800514950481DF0C1FF00234C4DFB71EB6A75
:1037D8009A0705D54D494B481DF0B7FF002331E046
:1037E800EB6A002B01DA4A49F5E7EB6A5B00F5D58D
:1037F800484944481DF0A9FF6B69A26943F48073E6
:103808006B61BFF34F8FBFF36F8F6B6932F8022C78
:1038180023F480736B61BFF34F8FBFF36F8F4DF647
:1038280002739A4207D0AB6ADBB26BB30120F91D71
:10383800FFF768FE37E023680121374A31481CF05A
:10384800ADFD2368FA79DAB907F1080504F1200C0F
:103858002A4620686168083403C264451546F7D1D2
:103868007A6A002E45D0C2F3080121B96FEA5222C4
:103878006FEA42227A62184607F10801FFF7B2FDA3
:103888002837BD46BDE8F081AB6A13F47F4F04D0FA
:103898000120F91DFFF7FCFE05E0AB6AB3F5803F98
:1038A8009CD3FFF797FE0346CCE70020F91DBFE73E
:1038B8000020F91DEEE719498DE7194A18F4F87F39
:1038C800E8468AB0174B18BF13466A461649103D9A
:1038D800C2E905134FF400731384144BD56142F801
:1038E800103F00234FF411510648FFF767F9C5460A
:1038F80074E722F4FF7222F00102BBE700ED00E05A
:103908007FBD0300BC9A0300AABD0300C1BD03002C
:10391800E2BD0300F0BD03000FBE03002BBE030091
:1039280066BD030051BD03004FBE03000400000143
:10393800064B5A6942F010025A615A6942F4806291
:103948005A615A6922F008025A61704700ED00E096
:10395800EFF30880EFF3098101B57246FFF700FF26
:1039680001BD00BF002080F31488BFF36F8F0020D3
:1039780080F30A8880F30B88104880F308880020B9
:103988000F49087004F0F6FB00200E490860BFF3E9
:103998004F8F00F02DF8202080F311880A484FF44B
:1039A8000061401880F30988EFF31480022108436E
:1039B80080F31488BFF36F8F00F0F0F838FC012013
:1039C800F1E7012094ED00E0F8EE0120002318460D
:1039D8000649D1F89020C2F30722934200DB7047D2
:1039E800C1F89830C1F8A0000133F6E700ED00E017
:1039F80010B572B6002484F31388FFF7E7FF234657
:103A08004FF0FF300C4A03F120010133102B42F82C
:103A18002100F8D100234FF0FF30074A03F160017D
:103A28000133102B42F82100F8D162B6BFF34F8F53
:103A3800BFF36F8F10BD00BF00E100E0084B9B682B
:103A480083420BD1EFF3058343B1064B5A6842F02A
:103A580080525A605A6A22F400425A6219F0F2BE41
:103A6800A4E5012000ED00E016498A684FF0300017
:103A78001044EFF3098C80E8F01F202080F31288AF
:103A8800BFF36F8F104F4FF000664A698A603E603F
:103A9800D2F8A4000D4C2060D2F8A8000023C2F888
:103AA800A83080F3118802F1300090E8F01F8CF301
:103AB800098802F1000004B51DF04FFEBDE804407E
:103AC80070470000A4E5012004ED00E00C6100202F
:103AD8001EF0040F0CBFEFF30880EFF30980816933
:103AE80011F8021C0229FFD001B572461DF022FE12
:103AF80001BD00BF40B2002807DB01234109034A8A
:103B080000F01F00834042F82130704700E100E0D8
:103B180040B200280CDB01220649430900F01F00CF
:103B28008240203341F82320BFF34F8FBFF36F8FBC
:103B3800704700BF00E100E0054B420953F822201E
:103B4800012300F01F0003FA00F01040704700BF87
:103B580000E100E040B2002801F10101ACBF00F132
:103B68006040064B4FEA4111C9B2ABBF00F5614056
:103B780000F00F0080F800131954704714ED00E0AE
:103B8800044B054A23F07F039360BFF34F8FBFF3C5
:103B98006F8F70470000000000ED00E008B5FFF7E8
:103BA800EFFF074AD2F8883023F47003C2F8883050
:103BB80018F06CFE19F09CFF00F048F818F0AAFE07
:103BC80000ED00E042F8203C009B0B4942F81C3C09
:103BD800019B21F0010142F8183C029B42F8081CA5
:103BE80042F8143C4FF0807342F8043C0023203A1A
:103BF8000265C0F8A83070474524000000B50C4B9A
:103C080015469860D0F8A4200A4B0E461A60D0F8E2
:103C1800943083F30B882C4686F309880020064BE2
:103C280098472046002100220023044C204700BF6B
:103C3800A4E501200C6100206D1702004524000056
:103C48001022014B1A61704700ED00E0002320218B
:103C58000348C2180133452B82F80013F9D1704785
:103C680000E100E008B5EFF30583064A103B02EBDC
:103C7800C30152F8330049688847BDE80840FFF798
:103C880031BC00BF449603001FB5094C094A2346BE
:103C98000121094800F012F900230393074B012181
:103CA800E41A01A80193029400F012F904B010BDBF
:103CB8000000072000000020BC9E030070020020C6
:103CC80010B50C7A0B6804F01F0223F01F031A4387
:103CD800CB68640923F01F03054943EA440343F012
:103CE8000103C1F89800C1F89C20C1F8A03010BDAC
:103CF80000ED00E010B50A4BD3F89030C3F307236A
:103D0800013B984208D901210346064A06481CF09F
:103D180045FB6FF0150010BDFFF7D2FFFBE700BFB2
:103D280000ED00E066BE0300B49A03002DE9F04FF1
:103D38008946144606464FF00008514D85B0C845DF
:103D480027DAD6F804A0BAF1000F44D0BAF11F0F51
:103D580017D91AF01F0F14D1D6F800B01BF01F0F97
:103D68000FD158461DF03AFD07460AEB0B00013803
:103D78001DF034FD874210D06FF01507414A3B46CD
:103D880001E04346404A012140481CF007FB6FF020
:103D98001504204605B0BDE8F08F17F1160FEDD0D9
:103DA800BC42EBDDC5F89870D5F89C10C5F8987042
:103DB800D5F8A03021F01F0143F01F0BD6E90032DF
:103DC8001A44994202F1FF3A1DD1D34507D1314631
:103DD800F8B21DF00CFD08F101080C36AFE73146CA
:103DE800C5F89870D5F89C3022F01F0203F01F0325
:103DF8001343C5F89C30E0B21DF0F9FC10F1160F22
:103E0800C5D0441CE7E7C5F89870D5F8A020013B59
:103E180023F01F0302F01F021343D3453146E0B2DB
:103E2800C5F8A030E8D01DF0E2FC10F1160FAED0B6
:103E3800C5F89870D5F89C209DF808300BF1FF3B29
:103E480062F304038DF80830D5F8A0309DF80820F7
:103E58005B0863F347128DF80820D6E90032134453
:103E6800009323F01F035B44A3EB0A03013023F004
:103E78001F036946C0B20393FFF73CFFBEE700BFCC
:103E880000ED00E0AFBE03008CBE0300B49A03004F
:103E98000522044BC3F89420BFF34F8FBFF36F8FF5
:103EA800704700BF00ED00E0BFF35F8F0022024BB8
:103EB800C3F89420704700BF00ED00E010B5034C34
:103EC8002278FFF733FF207010BD00BFC9E701203B
:103ED8002DE9F74F294D8A4606464FF00008AB46B4
:103EE800274FD0451BDAD6F80490B9F1000F3FD020
:103EF8003168084601911DF071FC0199044609EBEF
:103F0800010001381DF06AFC84424FF014021D4B79
:103F180008D002FB08F36FF015024BF8032003B03A
:103F2800BDE8F08F14F1160F2C60F8D01978A14273
:103F3800F5DD02FB08B0C7F89840C7F89840D7F8F5
:103F48009C4000F10801007B64F304000871D7F875
:103F5800A0000C79400860F347140C71D7F89C1046
:103F680021F01F016960D7F8A01021F01F01296115
:103F780008F1010814350C36B3E700BF10610020C2
:103F880000ED00E0C9E70120F0B54149414CD1F806
:103F980090302568C3F307239D4287B075D8002069
:103FA800FFF782FF3C4BC1F8C030854216D13B4C2D
:103FB80001A82570FFF7C0F800250646384FAE4225
:103FC80013D1002023783249D1F89020C2F3072278
:103FD800934254DBFFF75CFF00202FE0616801EBA0
:103FE8000011FFF76DFE0130DFE70199280101EBB1
:103FF8000513DA683A40B2F5001F21D0B2F5800FF8
:104008002BD0B2F5801F38D15A689B680958013BFC
:1040180022F01F0003440120844623F01F0340EAD6
:104028004C10CDE902218DF8100002A920780593E3
:10403800FFF760FE00281DDA6FF0150007B0F0BD2D
:104048005A689B680958013B22F01F0003444FF04F
:10405800020C012023F01F03E1E75A689B68095806
:10406800013B22F01F0003444FF0000C062023F010
:104078001F03D4E723780133237001359FE7C1F884
:104088009830C1F8A00001339EE74FF0FF30D5E724
:1040980000ED00E0C89E0300AAFF4400C9E7012024
:1040A8000000F0FFF0B587B007460E461446002121
:1040B800102268461D4634F066FF02238DF8023050
:1040C800054B2A4621466846CDE9047601931AF045
:1040D8007BF907B0F0BD00BF2918020008B5024BF4
:1040E8001B689847002008BD24610020034B044A40
:1040F8001860937843F0020393707047246100209E
:104108003000002008B50649064821F00701C1F132
:10411800005202F5E0221BF098FC002008BD00BF09
:10412800FF00022028610020054B03EB8000D0F837
:10413800003223F0E04343F04053C0F800327047A8
:1041480000258450052370B5144D154E2C78013484
:10415800B4FBF3F303EB8303E41A1EF030FA114ABD
:10416800137823B156F82430C01A072814D94FF011
:104178005023D3F8141141B10021C3F81411D3F816
:1041880014312C700CB9012313702C781EF017FA17
:1041980046F82400012070BD0020FCE7CBE7012091
:1041A80034610020CAE70120012208B50B4B0C49F5
:1041B800C3F8002502230020C1F8D036FFF7B4FF6A
:1041C8001046FFF7B1FFC1F80427C1F80429C1F868
:1041D800002BBDE8084000F0A5B800BF0010005053
:1041E8000040005007B50DF1070004F0E7F80F4B49
:1041F800984218D14FF480620D4B0E49C3F8B82588
:104208004FF40062C3F83C259DF807001EF0EEF954
:104218009DF8070008491EF0E4F901209DF80730D1
:10422800984004F0C5F803B05DF804FB0000AD0B3E
:1042380000A002502CA0025028A1025048B1054B02
:10424800054A1B68B3FBF2F35843044B43F00103E0
:1042580018477047A800002040420F00609B0300E9
:10426800002170B5104C114D114E000714F8013B98
:1042780003F01F025B090FD0012B0FD1334603EB6C
:104288008203D3F80022013122F0E04202430429DC
:10429800C3F80022EAD170BD2B46F0E70023803234
:1042A80053F82230FFDE00BFE9BE0300002584502A
:1042B800002884502DE9F041064601200D46FFF7FD
:1042C800CFFF4FF47F03D3F83021D3F83431072AD6
:1042D80020D1023B032B02D8114AD35CD3B14FF053
:1042E80050244FF0010800270520C4F81886C4F8A8
:1042F80014761EF074F94046C4F814861EF06FF95F
:10430800C4F81476C4F8187630462B46BDE8F04158
:10431800002118474FF050230022C3F81426F3E772
:10432800E5BE0300014902481BF007BFF49E0300E5
:1043380048610020F0B5114D114E124F85B04FF075
:10434800FF334FF0FF32284601A918F0E9FB034676
:1043580090B101213A460C481CF020F8EFE7236899
:1043680013B1019A934203D1D4E9013101A89847C6
:104378000C34B442F3D3E2E7044CFAE734020020E9
:10438800309B0300EDBE03008C9A0300309B0300B2
:10439800F0B517461E4685B001909DF82800DDE966
:1043A8000C5423462C432A468DF808008DF8091032
:1043B800ADF80A7003960AD034F0BAFF0C49D1F868
:1043C800B0400C4909588C4204BF002213460A48E1
:1043D80001A918F04BFB041E07DA0221074A084816
:1043E8001BF0D3FF204605B0F0BD0024FAE700BF5C
:1043F800F8590020080000003402002002BF030022
:104408008C9A0300084B70B5C31A0D4607499B10D8
:1044180004465943402206481DF027FA2B46014618
:104428002046BDE87040184778610020B76DDBB6BC
:1044380024940300402373B50B4C0093041B0B46D4
:104448000D460A49A41061430646094A09481DF069
:1044580037FA011E05DA30462B4602B0BDE8704037
:10446800184702B070BD00BF78610020B76DDBB699
:10447800311902002494030010B5EFF311842023AE
:1044880083F31288BFF36F8F074A136823F0020182
:10449800DB07116002D401201EF0B4F884F3118800
:1044A800BFF36F8F10BD00BF186200202DE9F843DD
:1044B8000022012106460520FFF74CFB114803F0B6
:1044C800FDFF114B984219D104F008F800244FF071
:1044D8001C090C27DFF834803569414609FB045074
:1044E8001BF02BFE002807DB012307FB04551C44A7
:1044F800042CAB67F0D10020BDE8F8836FF004000E
:10450800FAE700BF114600000000AD0B009F030052
:104518001FB500220123CDE902236B46084ACDF8D6
:1045280000D0CDF804D01DF0F8F9002805DB4FF4D1
:1045380080420023684618F053FC05B05DF804FB80
:10454800671902000C22104B014602FB00330020C1
:1045580030B4D3E91C521867EFF31180202484F398
:104568001288BFF36F8F9C6F04F0C00444F00204FC
:104578009C6780F31188BFF36F8F1DB12B4630BC49
:104588000248184730BC7047786100202494030023
:1045980010B4EFF31182202383F31288BFF36F8FD7
:1045A8001748016841F002040460C80707D482F381
:1045B8001188BFF36F8F012010BC03F0A7BF4FF025
:1045C8005021D1F80C04D1F80C14C907EFD5EFF33A
:1045D800118083F31288BFF36F8F0A498B6F03F042
:1045E800C00343F002038B6780F31188BFF36F8F1A
:1045F80082F31188BFF36F8F002010BCFFF7A2BFB2
:104608001862002078610020092813D8DFE800F03C
:1046180005101212121212120E0C074B986F10F09E
:10462800070007D1FFF78EBF0220FBE70320F9E759
:104638000120F7E7704700BF786100202DE9F041BD
:10464800012207463649D1E8EF3FC1E8E02F0028AC
:10465800F9D133B9334934484B60CB608A601BF0D9
:104668007FFD7B1E012B2BD8012F07D14FF0502344
:10467800D3F81C3403F00303022B21D034F004FBDD
:104688000546F8B9294B1B78E3B14FF050230222B5
:104698000646C3F808234FF05024DFF89480D4F876
:1046A8001824D4F81834D20315D503F00303022BC9
:1046B80001D0012F0FD16DB386F31188BFF36F8F2F
:1046C800BDE8F081EFF31186202383F31288BFF34E
:1046D8006F8F0125DFE7C5B130461DF063F8D4F8C8
:1046E8001835DBB2012BDAD1D4F80421002AD6D050
:1046F8000022C4F80421D4F804210222C4F81825A1
:104708002022C8F88021A360C9E70021212034F0C5
:1047180054FBE4E74FF050230222C3F80423CFE709
:10472800746100206461002094610020F1E7012099
:1047380000E100E008B5074834F06EF938B10648E2
:10474800FFF7D4FC0448FDF773FE002008BD6FF0A6
:104758001200FBE784940300654700000A2838B577
:104768000446074D04D1AB680D2128465B6898477D
:10477800AB6803485B68E1B29847204638BD00BF84
:104788008494030008B50121034A04481BF0FDFD89
:104798006FF0850008BD00BF74BF0300649A030072
:1047A80070B543680546586834F036F940B90121B8
:1047B800364A37481BF0E9FD6FF01204204670BDF9
:1047C8006B6858688368D96841B1212200238847FB
:1047D800002803DBA420002134F0EFFA0023012194
:1047E8001A4628461DF0DAF8041E06DA2346294A36
:1047F800012127481BF0D2FDE0E70021A42034F076
:10480800DCFA28461DF0B4F96E68284696F8203080
:10481800002B14BF012110211DF004F9041E14DB24
:10482800718C29B15A2913D0B42914BF032102214C
:1048380028461DF0C4F8041E07DB96F828304BB94B
:104848002846336B9847041E0DDA134A2346CFE7F0
:104858000121EDE7002321211A4628461DF09EF884
:10486800041EEDDAF1E7002311211A4628461DF04F
:1048780095F8041E06DB40F65D70002134F09DFAC1
:1048880000249BE7054A2346B2E700BF8DBF03001B
:10489800649A0300AABF0300D5BF0300F6BF030054
:1048A800F0B51646426801F01F04107B87B044EA51
:1048B80040141069002871D0B6F5001F02F11005E8
:1048C80006D1214628461DF02EFF002007B0F0BD76
:1048D8000027B6F5800F01A80197476039D1B3F1D9
:1048E800007F14BF052304238DF804300023CDE98D
:1048F8000403039393680DF1030723FA01F111F000
:1049080001013DD1B6F1A07F3AD104F01F0362093D
:1049180003F1800328D0012A46D1254A52F82330D2
:10492800DB072DD43A462146284604F0F9F8214BF6
:1049380098421BD002972146284603AA03F0A8FFF5
:104948001D4B98422DD101222146284604F040F9FA
:10495800BBE7B3F1C06F05D0B3F1007F14BF0123EB
:104968000223C1E70323BFE7144AD7E7394628469D
:1049780004F026F9104B9842DCD06FF00B00A5E745
:104988003A462146284604F0CBF80B4B9842D2D140
:1049980028469DF8031004F00BF9CCE76FF085006A
:1049A80094E76FF0150091E751F82330FFDE00BF60
:1049B800002884500400AD0B0000AD0B0025845086
:1049C8004209034670B502D0012A17D070BD0D4EBA
:1049D800326951680029F9D0012503F01F030C68DA
:1049E8009D400029F2D08A682A4002D030464B68A0
:1049F80098472CB1236821461C46F2E7024EE7E7A8
:104A08002346F8E7649403004494030038B54568E6
:104A18002B69B3B11035284604F0C0F8044680B9B4
:104A28000146284604F096F8084B98420BD12246D6
:104A38002846074904F06EF8224605210D20FFF7A5
:104A480089F8002038BD6FF00400FBE70000AD0BCB
:104A5800C94900002DE9F04340F206354668D00602
:104A680048BF0320337B02EA050558BFC2F3401054
:104A780087B001F01F07B5F5837F144647EA43174F
:104A88008DF8030043D00FD8062D18D007D8B5B13C
:104A9800022D3ED06FF0150007B0BDE8F083B5F5E4
:104AA800807FF7D101250AE040F20222954232D0F8
:104AB800B5F5407F31D0B5F5007FEBD10225220353
:104AC8002DD5012372688B409360326982BB07F051
:104AD8001F037F092AD0012F77D13E4A02EB8302B8
:104AE80084F48033D2F80012C3F30043C4F3404483
:104AF80044EA430421F4706144EA800421F00F0180
:104B080044EA05230B43C2F800320020C4E7072516
:104B1800D5E70425D3E70525D1E70325CFE76303C8
:104B280041BF012372688B40D360CEE72A4AD5E79C
:104B38001036394630460DF1020203F0F1FF14F445
:104B4800403F80460CD1394630461DF0EAFD234BE4
:104B58009845DAD130469DF8021004F029F8D4E7D8
:104B68004FF0000901AB3946304603AACDE90439B4
:104B7800CDE90199CDF80C9003F08AFE174B9842C5
:104B880088D114F4003315D09DF8033084F48034B0
:104B9800C4F300448DF80E3039464B46304603AA1C
:104BA8008DF80C508DF80D4003F032FF0B4B9842F6
:104BB800CDD06FE7CDE9043339460DF10303304614
:104BC80003AA039303F064FEF0E7803352F823301E
:104BD800FFDE00BF00288450002584500000AD0B84
:104BE80002780B69012A08D0022A08D04AB9064A75
:104BF8001A6203F1100018F0BFB8044AF8E7044A33
:104C0800F6E7044AF4E700BF0000AD0B0100AE0B65
:104C18000200AE0B0100AD0B2DE9F04F89B002AFD9
:104C2800BB60036993463B6143684FF0FF32D3F89A
:104C380028A09B8B0546FB604FF0FF330C461DF008
:104C480054F83B6910337B61002600230022786901
:104C580018F0C6F833465E4501D3002340E0207AB9
:104C6800010700F1938001365E4521680BD2820767
:104C780009D4227D80EA020C0CF0010C02F0040237
:104C88005CEA020C08D023B901F06042B2F1005F7F
:104C98003FD04FF0000801E04FF001086268D7F8F4
:104CA8000CE003EB020CF44524D96C468CB0286860
:104CB80002A9384ECA61C1E90563FB680A46C1E921
:104CC800083040F203530B85334B42F8103F002362
:104CD8004FF451513148FDF771FF6FF01B03A546A2
:104CE80028467B611DF004F87B691C371846BD46D1
:104CF800BDE8F08FC00705D40AEB03007B6034F0F1
:104D08001BF97B6862681A4493B2B8F1000F27D187
:104D1800D3B94FF00008D4F80090A388BA68217A74
:104D2800284600924A4600F085F8031ED8DB4FF467
:104D380080420023786918F053F840B1284600F003
:104D480031F86FF00403CBE79846D146E6E73B69B4
:104D5800134A1B6A9342F4D1237ADB0702D4002357
:104D68000C3478E7CA45FAD123460AE0A8EB0201D9
:104D7800D8681FFA81F819FA81F17B6034F0DCF801
:104D88007B685A680C3B9045F0D2E8E76FF08503E2
:104D9800A6E700BF86C0030006000001849A03004E
:104DA8000000AD0B70B5446823682046D3F8085559
:104DB800D3F80C6504F0ECFB3146284604F0B2FE4B
:104DC80005460021606A1CF096FF204604F0D0FBDF
:104DD800034B9D4214BF6FF00F00002070BD00BF51
:104DE8000000AD0B08B5CA0743681BD4C1F34201E4
:104DF80002290AD003290CD001290ED14FF0CC7218
:104E08001B680020C3F8242508BD4FF0C8621B6842
:104E1800F7E74FF07F621B68F3E70121034A044874
:104E28001BF0B3FA6FF01500EEE700BF68C103008E
:104E3800849A0300F0B50C461D46164689B04768AB
:104E4800122200210DF10E0034F09DF804F0010348
:104E58008DF80C30BDF8383004958DF80D30BB8DC9
:104E68000696AB420AD21048009301212B460F4AFE
:104E78001BF09EFA6FF01B0009B0F0BD84F002022F
:104E8800C2F340023846520103A904F0CDFB084B97
:104E9800984207D00B33984214BF6FF004006FF0AC
:104EA8000F00E9E70020E7E7849A03007AC10300CE
:104EB8000000AD0BB0B50446456800AF2B6A9847B3
:104EC8000121686A1CF017FF23462846AA6905F1E4
:104ED800080104F013FB104B984217D023686C4666
:104EE80088B06A460D49C2E905134FF400739383ED
:104EF8000B4B42F8103F0B4800234FF4E251FDF7EB
:104F08005DFE6FF00400A546BD46B0BD20461CF00E
:104F180001FF0020F8E700BF0000AD0BC1C103008E
:104F280003000001849A0300F7B545680446066942
:104F3800E86833F071FD48B901212C4A2C481BF070
:104F480024FA6FF01204204603B0F0BD3046294918
:104F580040F8044B33F060FE6869002835D0297E9C
:104F68006B8B0127D0F810C0DA07DCF8004054BF7B
:104F780043F4D01383F4B01323F480128F40DB077B
:104F8800D0F808E04CBF3C43BC43CCF80040DEF806
:104F980000309847041E05DA0121174A14481BF00F
:104FA800F4F9D0E70021A42033F007FF01212B7E7C
:104FB8006869994003691B68194283680CBF1B69BB
:104FC800DB68984700280446BDDB183600223046C7
:104FD8000A4933F081FF4FF4A47200233046CDE92B
:104FE800002318F047FF0024ADE700BFE1C103002C
:104FF8006C9A03000950000001C203005B1D020007
:105008002DE9F0430124022750F8045C87B0D5F855
:1050180004802E69D8F80C00B8F810100DF11103AF
:1050280000940DF112028DF812701CF095FE002804
:105038004CDB9DF8113003F00F038DF8113053B39A
:1050480003238DF813300423D8F80C00B8F8101097
:105058000DF11302009305AB1CF07EFE002835DB32
:105068009DF814109DF816209DF81530090201F4DA
:10507800706110020B4302F00F029DF8171000F444
:1050880070600F2A41EA00010AD1194A00911948B3
:1050980039461BF08DF996F85030D3B9002413E047
:1050A8004FF0FF384FF0FF391A462846CDE90089FE
:1050B8001CF09CFE23464FF4A57221462846CDE9F4
:1050C80002890094FFF764F986F8504007B0BDE8FC
:1050D800F0834FF0FF324FF0FF330121CDE9022377
:1050E800284600234FF4A5720091FFF751F9D5E740
:1050F8001DC203006C9A03000346F0B553F8186DFF
:105108000546726885B0D16892685C1A154B2411FF
:105118005C430C236343D718D05839791CF038FE08
:10512800031E08DA012100930F4A23460F481BF09B
:105138003FF905B0F0BD15F9082C9A42F9D04FF0A7
:10514800FF304FF0FF3105F8083C3A89CDE90201FC
:105158000121003B18BF012330460091FFF718F9E1
:10516800E7E700BFCDCCCCCC4DC20300749A030056
:105178002DE9F04F85B04FF00009466802AFF56899
:10518800786018353D6073684B4505DC337D002B2E
:1051980040F09F80002423E00C2303FB09F8D6F895
:1051A80008A05AF808000AEB080433F035FC034657
:1051B800D8B95AF808206C4688B0116802AA4E4837
:1051C800C2E905014FF4007191834C4942F8101F60
:1051D8004FF4E2514A48FDF7F1FCA5466FF012047E
:1051E80020460C37BD46BDE8F08FE3885AF8080022
:1051F800217943F480324FF0010C046913F0010F58
:1052080023680CFA01FCD0F808E014BF4CEA030349
:1052180023EA0C032360DEF800309847044638B1CF
:105228004B46384A0090012135481BF0C1F8D7E7B2
:105238007B68284645F8183C316933F019FD337D01
:10524800002B42D10123D6F808A0A5F114010AEBDE
:10525800080B9BF8042003FA02F22B4B45E90432B1
:105268005AF808008268D46964B10122A047041E74
:105278000BDA0121254A22481BF087F8244A4B46BD
:105288000094D0E76FF05704F3E79BF804105AF83E
:1052980008001CF07DFD05F8080C5AF808009BF87A
:1052A800041083689C696CB14FF0C0634FF0A07222
:1052B800A047041E09DA01212346164A10481BF0AC
:1052C8006DF8DBE76FF05704F5E709F10109503590
:1052D80059E74FF4004440F2E730002135684FF4B5
:1052E8007A720023E5FB0401FBF7ACFE02460B468D
:1052F800386817F061FF4DE723C803000300000179
:10530800749A030069C20300C11D020085C8030026
:1053180089C2030090C20300036803F01F025B09FF
:10532800026004D0012B034818BF002070470248D0
:10533800704700BF00288450002584502DE9F04FA5
:105348001546834640F2FF18DFF88891DFF888A1F8
:1053580085B000EB8101594503D1002005B0BDE8B7
:10536800F08FDBF80030C3F3C322082AC3F3080424
:1053780000F2AA801B0E444508BF4FF0FF3419F80D
:105388000270222B00F2A380DFE803F012191F221B
:10539800252B22A1A1A1A13A67A1A1A1A1A1A1A107
:1053A800A1A16A7F8285A1A1A1888F9295989B006F
:1053B800C5F80C45601C5DD10BF1040BCBE7C5F8B3
:1053C8001445621CF8D000265DE0C5F80845F1E7F1
:1053D800C5F81045F5E7631CC5F80845ECD000266C
:1053E80004E0661CC5F80C45E6D0012603A8039422
:1053F800FFF792FF0122039B02FA03F3C36008E060
:10540800C5F80845002FDCD1631CD5D00026062737
:105418003246DBF80030039403F40040002818BF3C
:10542800002203A818BF012601930092FFF774FF1A
:10543800039C019B00EB8400D0F80042C3F3412C8D
:10544800009A3B0243EA8C03134304EA0A04234309
:1054580043EA4603C0F80032AEE7C5F80C45D1E789
:10546800C5F86045601CDBF80030A5D0C3F30043E5
:10547800002BBAD0012603A80394FFF74DFF039B26
:1054880006FA03F383603246C3E7C5F86445E9E7E3
:10549800C5F86845E6E7C5F86C45E3E7C5F824456F
:1054A800621C89D001260022B3E7C5F8284581E7A8
:1054B800C5F83045F4E7C5F83445F1E7C5F838458F
:1054C800EEE7C5F83C4575E76FF0150046E76FF065
:1054D800850043E7C5C20300F0F0FCFF30B50D2995
:1054E800006920D1C488B0F90E500389B0F90210C0
:1054F8001B1B491B4B43B0F91010491B93FBF1F3DD
:1055080023441946002BB8BFD91D584200F00700A4
:1055180003F0070358BF43421248C9104343002011
:10552800C2E9001330BD102919D10479B0F90A5025
:105538004379B0F900101B1B491B4B43B0F90C1001
:105548000948491B93FBF1F3234403EBD371002B68
:1055580003F001034FEA6101B8BF5B42DEE76FF079
:105568008500DFE748E8010020A10700042337B5DC
:10557800A82105690DEB030240681BF090F8041E92
:1055880007DA0121074A08481AF0FFFE204603B04F
:1055980030BDBDF8043000242B80BDF806306B8088
:1055A800F4E700BFCEC20300149A030070B5456843
:1055B80086B006460DF1070128461BF0B4F8041E14
:1055C80005DA304A012130481AF0DFFE0AE09DF87A
:1055D8000730BC2B09D001212C4A2B481AF0D5FEE4
:1055E8006FF01504204606B070BD012128461BF057
:1055F8006CF8041E01DA264AE4E7012128461BF06C
:105608007BF8041E01DA234ADCE7012128461BF057
:1056180091F8041E01DA204AD4E70021632033F010
:10562800CCFB1023B021706802AA35691BF037F84B
:10563800041E06DA0121194A13481AF0A6FE174A71
:10564800C0E7BDF808309DF80A20AB809DF80D3002
:105658000024190201F440710A43EA809B019DF875
:105668000B2003F4407313432B81BDF80E306B817C
:10567800BDF81230AB81BDF81430EB81BDF816309F
:105688002B82AFE7EBC20300149A030003C30300A5
:1056980014C3030033C3030049C303005EC30300FC
:1056A80008B503460221034A03481AF077FE6FF053
:1056B800850008BD8FC303001C9A0300F8B50329B1
:1056C8001446056904D90C2924D06FF08500F8BD6B
:1056D8000229EE680DD003290FD03246012914BFE4
:1056E800B5F90410B5F906102046FBF7C1FE0020F5
:1056F800EDE73246B5F90810F6E7023502F118076A
:105708002046324635F9021F0834FBF7B1FEA7429E
:10571800F6D1ECE7B5F90A000B4BC217A0FB030161
:1057280003FB0211002902DAFF3041F10001000AEF
:1057380040EA01600023044A0912FBF733FC1930E0
:10574800C4E90002D3E700BF40420F000121024A2A
:1057580002481AF01ABE00BFBFC303001C9A030018
:1057680080B500AF88B06A46074B5361074B936119
:10577800032342F8103F00234FF4C8510448FDF7B3
:105788001DFABD4680BD00BFBBC30300A3C4030010
:105798001C9A03002DE9F04F85B0E84600AF88B0A9
:1057A80004466A46056903684549C2E905134FF48A
:1057B80000739383434B42F8103F00234FF4E651A4
:1057C8004148FDF7FBF92C606568C546284607F196
:1057D8000F01D4F810B01BF068F800280CDA3B4A27
:1057E800012139481AF0D1FD37480121384A1AF009
:1057F800CCFD6FF004005BE0FB7B332B05D0354A12
:10580800012131481AF0CAFDEEE70321324A2E4839
:105818001AF0C4FD012128461BF012F8002801DA0D
:105828002E4ADDE788B06A46AE7E4FF004092C4B5D
:10583800DFF8B0A05361C2E906A642F8109F002322
:105848004FF404512048FDF7B9F92369C54631469C
:1058580060687B601AF0DDFF00287B6802DA224A64
:105868003346CDE75E74214B88B003EBC6035B6813
:105878006A46CBF80C306E7E1D4BD661C2E9053AFC
:1058880042F8109F00234FF404510F48FDF796F992
:105898003146C5466068D4F810801AF09FFF00288A
:1058A8000ADB0321284688F810601AF080FF0020E0
:1058B8001437BD46BDE8F08F0E4A3346A0E700BF57
:1058C800F7C30300030000011C9A03009DCD0300E9
:1058D800F1CE0300B8CD0300D6CA03000CC4030000
:1058E8001EC4030090C4030034C4030084A0030052
:1058F80059C403006DC4030080B500AF88B06A4680
:10590800074B4FF4C8515361064B07489361032373
:1059180042F8103F1CF07EFB6FF08500BD4680BD4D
:10592800D3C40300B6C70300249A030080B500AFB0
:1059380088B06A46074B4FF4C8515361064B074875
:105948009361032342F8103F1CF064FB6FF085005D
:10595800BD4680BDD3C40300A0C70300249A03003A
:10596800B0B5032982B000AF04D90C2930D0FFF7B5
:10597800DDFF2AE045680469394628461BF02AF805
:10598800002810DA6C4688B06A46184B5361184BE9
:10599800936103234FF4C851164842F8103F1CF096
:1059A80039FBA54610E02B7E002B14BF02220422EF
:1059B800B7F9003013416380B7F902301341A3806F
:1059C800B7F904301341E38000200837BD46B0BD65
:1059D800016940681AF0EEFF0028F5DA6C4688B0D5
:1059E8006A46054B5361054BD2E700BFEDC403007F
:1059F80084C70300249A03001EC5030069C7030077
:105A08000C292DE9F74F154643D006D803290ED99E
:105A180003B0BDE8F04FFFF76FBF4129F8D14068E8
:105A280001A91AF0B9FF9DF804302B600EE019BFE8
:105A3800CCB2274602270024D0F81080DFF874A0E3
:105A4800DFF874B008F10209BC4203DD002003B09E
:105A5800BDE8F08F39F91400FBF78AF80646B8F864
:105A68000800FBF781F801463046FBF7D5F85146A8
:105A7800FBF7D2F85946FBF783F9FBF763FB0023E2
:105A88000E4AFBF78FFA45F8080B45F8042C013449
:105A9800DAE74FF2244203690948B3F900301B11D1
:105AA80002FB03000023054AC117FBF77BFAC5E98F
:105AB8000002CBE73AA3154B0024744940420F007B
:105AC80040787D0108B5034640681A690B4619B944
:105AD800BDE808401AF006BF012914D00C2911D9D5
