:10000000507500209D6600001FBB0100896600003E
:100010008966000089660000896600008966000024
:10002000000000000000000000000000096800005F
:100030008966000000000000A167000089660000DA
:100040009D6900009D6900009D6900009D69000098
:100050009D6900009D6900009D6900009D69000088
:100060009D6900009D6900009D6900009D69000078
:100070009D6900009D6900009D6900009D69000068
:100080009D6900009D6900009D6900009D69000058
:100090009D6900009D6900009D6900009D69000048
:1000A0009D6900009D6900009D6900009D69000038
:1000B0009D6900009D6900009D6900009D69000028
:1000C0009D6900009D6900009D6900009D69000018
:1000D0009D6900009D6900009D6900009D69000008
:1000E0009D6900009D6900009D6900009D690000F8
:1000F0009D6900009D6900009D6900009D690000E8
:100100009D6900009D6900009D6900009D690000D7
:100110009D6900009D6900009D6900009D690000C7
:100120009D6900009D6900009D6900009D690000B7
:100130009D6900009D6900009D6900009D690000A7
:100140009D6900009D6900009D6900009D69000097
:040150009D690000A5
:1001580080EA101404F0F01480EA0410604081EA88
:10016800111404F0F01481EA0411614082EA1214B7
:1001780004F0F01482EA0412624083EA131404F0D3
:10018800F01483EA0413634080EA102404F47F44E3
:1001980080EA0420604081EA112404F47F4481EA63
:1001A8000421614082EA122404F47F4482EA042292
:1001B800624083EA132404F47F4483EA04236340FF
:1001C80081EA500404F0553480EA4400614083EA2F
:1001D800520404F0553482EA4402634082EA9004EF
:1001E80004F0333480EA8400624083EA910404F026
:1001F800333481EA84016340704700BF82EA900487
:1002080004F0333480EA8400624083EA910404F005
:10021800333481EA8401634081EA500404F05534A0
:1002280080EA4400614083EA520404F0553482EACB
:100238004402634080EA102404F47F4480EA0420E6
:10024800604081EA112404F47F4481EA042161407A
:1002580082EA122404F47F4482EA0422624083EA98
:10026800132404F47F4483EA0423634080EA1014CF
:1002780004F0F01480EA0410604081EA111404F0DC
:10028800F01481EA0411614082EA121404F0F014B7
:1002980082EA0412624083EA131404F0F01483EA39
:1002A80004136340704700BF2DE9F14F94464FEAAD
:1002B800930B8A68CB6808684968FFF749FF0BF118
:1002C800060E33E083EA134480EA134582EA1347B3
:1002D80046BA96EA3444604000F00F1684EA0634C1
:1002E80020F00F1684EA161054BA94EA01067240F8
:1002F80002F00F1486EA043622F00F1486EA14126C
:100308004CBA6540694001F00F1485EA043521F0C4
:100318000F1485EA14115CBA67407B4003F00F1490
:1003280087EA043723F00F1487EA1413BCE8F000B7
:100338006040694072407B4000F0E03400F01035C6
:1003480000F00F3040EA540040EAC50080EA90040B
:1003580004F0332480EA8400604001F0E03401F0C6
:10036800103501F00F3141EA540141EAC50181EA33
:10037800910404F0332481EA8401614002F0E034FE
:1003880002F0103502F00F3242EA540242EAC50286
:1003980082EA920404F0332482EA8402624003F081
:1003A800E03403F0103503F00F3343EA540343EA13
:1003B800C50383EA930404F0332483EA8403634087
:1003C80081EA324787EA134581EA354690EA06040E
:1003D80084EA034B82EA1B4280EA044484EA054427
:1003E80083EA144A85EA14448BEA044B84EA3744C6
:1003F80081EA0B4181EA164104EA0A00454082EA93
:1004080004082BEA080041408AEA0B0602EA0600C3
:1004180084EA34438AEA3A4603EA060778404540C4
:10042800414088EA38478BEA3B4007EA000985EAF9
:10043800090583EA0709464006EA0906714085EA84
:10044800010005EA3546464006EA314181EA304175
:1004580081EA364606EA304686EA3546344008EAF6
:10046800010886EA01052A4086EA364003405A40D8
:1004780081EA31431F407C4080EA030709EA070903
:1004880088EA0908544088EA020806EA0A0601EAE6
:100498000B018AEA0B0215408AEA3A4210404540AD
:1004A8008BEA3B4003405E404240174079404D4054
:1004B8004E40E443F64386EA18435D4085EA05402A
:1004C80083EA134386EA034183EA384284EA114304
:1004D80083EA04435FEA3343BEF1010E3FF6F2AE0E
:1004E8001ED4BCE8F0006040694072407B4020BCEC
:1004F800FFF784FE28606960AA60EB60BDE8F08FB2
:100508002DE9E0414FF2F00280EA1031114080EA13
:100518000130484041088208C3084FF0000E4FE7F9
:1005280000F0113001F0113102F0113203F01133F3
:1005380040EA410040EA820040EAC3004FF2F0027C
:1005480080EA1031114080EA01304840BDE8E0817E
:100558002DE9F04F02F11C050646074600EB850819
:1005680051F8040B043A46F8040BF9D14FF0010C8A
:10057800FFF7C6FF5FEA302080EA0C001ECF41403B
:100588004A4053405C401EC62000464517D04FEAFB
:100598004C0C1CF4807F18BFACF1E50C2C2DE7D077
:1005A8003C2D06D1FFF7ACFF06CF41404A4006C6B6
:1005B800100006CF41404A4006C61000D8E736E989
:1005C8000F00FFF7C5FD043D86E80F00F7D1BDE831
:1005D800F08F00BF2DE9F14F03F11C0402EB840CEE
:1005E8004FEA930B8A68CB6808684968FFF7B0FD43
:1005F8003CE9F0006040694072407B400BF1060E18
:100608004EE083EA134480EA134582EA134746BA68
:1006180096EA3444604000F00F1684EA063420F06D
:100628000F1684EA161054BA94EA0106724002F0D2
:100638000F1486EA043622F00F1486EA14124CBA14
:100648006540694001F00F1485EA043521F00F1464
:1006580085EA14115CBA67407B4003F00F1487EAFF
:10066800043723F00F1487EA141344BA44404DBAF0
:100678004D4056BA56405FBA5F4087EA174886EA47
:10068800174B84EA17464FEA38488BEA1B4485EA39
:100698001B4788EA1B4580EA3440694072407B402A
:1006A80000F0703400F0803500F00F3040EA44006C
:1006B80040EAD50080EA900404F0332480EA8400FC
:1006C800604001F0703401F0803501F00F3141EAEB
:1006D800440141EAD50181EA910404F0332481EA16
:1006E8008401614002F0703402F0803502F00F326C
:1006F80042EA440242EAD50282EA920404F0332430
:1007080082EA8402624003F0703403F0803503F01B
:100718000F3343EA440343EAD50383EA930404F01E
:10072800332483EA84036340C943DB4381EA00043A
:1007380083EA044686EA020183EA014382EA3345F2
:1007480083EA14435C4084EA00077FEA040A8AEAE1
:10075800024A8AEA010B87EA11488AEA374A80EA9C
:10076800060181EA1A418AEA030A04EA0A004540B6
:1007780088EA040707EA0B0041408AEA0B0608EA00
:10078800060084EA34428AEA3A4602EA06035840F6
:100798004540414087EA37438BEA3B4003EA00097A
:1007A80085EA090582EA0309464006EA0906714016
:1007B80085EA010005EA3546464006EA314181EA04
:1007C800304181EA364606EA304686EA3546344004
:1007D8000F4086EA010508EA050886EA3640024025
:1007E80088EA020881EA314213405C4080EA020349
:1007F80009EA030987EA0907674088EA040806EA5C
:100808000A0601EA0B018AEA0B0425408AEA3A44FF
:10081800204045408BEA3B4B02EA0B02564084EAF3
:100828000B04234059406E40694087EA364080EA0D
:10083800384080EA060380EA104481EA134585EAD5
:10084800344585EA17427D4082EA354180EA054011
:100858003CE9F0006040694072407B40BEF1010E07
:100868003FF6CFAE20BCFFF7C9FC28606960AA60DC
:10087800EB60BDE8F08F00BFFFF76ABE30B44FF001
:10088800000310F8014B11F8015B013A84EA0504F2
:1008980043EA0403F5D1A3F101034FEAD37030BC56
:1008A800704700BF4FF0000310F8012B013943EAED
:1008B8000203F9D1A3F101034FEAD370704700BFD7
:1008C80030B411F8014B12F8015B6C4000F8014B91
:1008D800013BF6D130BC70472DE9F04F90E8F00F9E
:1008E80000F140004FF0040E59E0F0B4826BC36B86
:1008F80004680525242687593C444FEA724787EA4D
:10090800F24787EA92273C4442684FEAF21787EA9F
:10091800B24787EAD2073C4440F8044B032D08BF8E
:100928006FF01B0687593A444FEA734787EAF34743
:1009380087EA93273A4443684FEAF31787EAB347AD
:1009480087EAD3073A4440F8042B87593B444FEAD7
:10095800744787EAF44787EA94273B4444684FEA98
:10096800F41787EAB44787EAD4073B4440F8043BC6
:10097800013DC0D1A0F13C00076A3C444FEA7247F0
:1009880087EAF24787EA92273C4402684FEAF2175F
:1009980087EAB24787EAD2073C44C463F0BC4FF009
:1009A800020288EA781C8CEAF84C0BEBBC1C8AEA39
:1009B800090303EA080383EA0A039C4450F8043B4A
:1009C8009C4451F8043B9C44674444EA050B0BEAF9
:1009D800060B04EA05034BEA030BE34484EAF42319
:1009E80083EA34530BEBB30B87EA771C8CEAF74C9A
:1009F8000AEBBC1C89EA080303EA070383EA090334
:100A08009C4450F8043B9C4451F8043B9C44664485
:100A18004BEA040A0AEA050A0BEA04034AEA030A4B
:100A2800E2448BEAFB2383EA3B530AEBB30A86EAE8
:100A3800761C8CEAF64C09EBBC1C88EA070303EA2F
:100A4800060383EA08039C4450F8043B9C4451F88D
:100A5800043B9C4465444AEA0B0909EA04090AEA8A
:100A68000B0349EA0309E1448AEAFA2383EA3A5381
:100A780009EBB30985EA751C8CEAF54C08EBBC1C3C
:100A880087EA060303EA050383EA07039C4450F850
:100A9800043B9C4451F8043B9C44644449EA0A08DA
:100AA80008EA0B0809EA0A0348EA0308E04489EA65
:100AB800F92383EA395308EBB30884EA741C8CEAF7
:100AC800F44C07EBBC1C86EA050303EA040383EA3B
:100AD80006039C4450F8043B9C4451F8043B9C4456
:100AE800E34448EA090707EA0A0708EA090347EA64
:100AF8000307674488EAF82383EA385307EBB30708
:100B08008BEA7B1C8CEAFB4C06EBBC1C85EA0403D5
:100B180003EA0B0383EA05039C4450F8043B9C4416
:100B280051F8043B9C44E24447EA080606EA0906F1
:100B380007EA080346EA0306664487EAF72383EAD6
:100B4800375306EBB3068AEA7A1C8CEAFA4C05EBB3
:100B5800BC1C84EA0B0303EA0A0383EA04039C44EB
:100B680050F8043B9C4451F8043B9C44E14446EA59
:100B7800070505EA080506EA070345EA030565448B
:100B880086EAF62383EA365305EBB30589EA791C2E
:100B98008CEAF94C04EBBC1C8BEA0A0303EA090350
:100BA80083EA0B039C4450F8043B9C4451F8043BF3
:100BB8009C44E04445EA060404EA070405EA0603FF
:100BC80044EA0304644485EAF52383EA355304EBD5
:100BD800B304013A7FF4E5AEA0F14000BEF1010E86
:100BE8007FF483AEA0F1400C9CE80F00001949196E
:100BF8009219DB19ACE80F009CE80F004044494407
:100C080052445B44ACE80F00BDE8F08F81F000412E
:100C180002E000BF83F0004330B54FEA41044FEAD9
:100C2800430594EA050F08BF90EA020F1FBF54EA74
:100C3800000C55EA020C7FEA645C7FEA655C00F010
:100C4800E2804FEA5454D4EB5555B8BF6D420CDDE1
:100C58002C4480EA020281EA030382EA000083EA64
:100C6800010180EA020281EA0303362D88BF30BD04
:100C780011F0004F4FEA01314FF4801C4CEA11315A
:100C880002D0404261EB410113F0004F4FEA0333B9
:100C98004CEA133302D0524263EB430394EA050F44
:100CA80000F0A780A4F10104D5F1200E0DDB02FAB3
:100CB8000EFC22FA05F2801841F1000103FA0EF247
:100CC800801843FA05F359410EE0A5F120050EF10D
:100CD800200E012A03FA0EFC28BF4CF0020C43FA3E
:100CE80005F3C01851EBE37101F0004507D54FF04B
:100CF800000EDCF1000C7EEB00006EEB0101B1F59B
:100D0800801F1BD3B1F5001F0CD349085FEA3000E0
:100D18004FEA3C0C04F101044FEA445212F5800FEB
:100D280080F09A80BCF1004F08BF5FEA500C50F188
:100D3800000041EB045141EA050130BD5FEA4C0C6B
:100D4800404141EB0101013C28BFB1F5801FE9D2C8
:100D580091F0000F04BF01460020B1FA81F308BFEB
:100D68002033A3F10B03B3F120020CDA0C3208DDB7
:100D780002F1140CC2F10C0201FA0CF021FA02F192
:100D88000CE002F11402D8BFC2F1200C01FA02F102
:100D980020FA0CFCDCBF41EA0C019040E41AA2BF27
:100DA80001EB0451294330BD6FEA04041F3C1CDAEF
:100DB8000C340EDC04F11404C4F1200220FA04F00F
:100DC80001FA02F340EA030021FA04F345EA0301B9
:100DD80030BDC4F10C04C4F1200220FA02F001FA7B
:100DE80004F340EA0300294630BD21FA04F02946FD
:100DF80030BD94F0000F83F4801306BF81F4801196
:100E08000134013D4EE77FEA645C18BF7FEA655C08
:100E180029D094EA050F08BF90EA020F05D054EADA
:100E2800000C04BF1946104630BD91EA030F1EBFDF
:100E38000021002030BD5FEA545C05D140004941E3
:100E480028BF41F0004130BD14F580043CBF01F5D6
:100E5800801130BD01F0004545F0FE4141F47001BC
:100E68004FF0000030BD7FEA645C1ABF1946104697
:100E78007FEA655C1CBF0B46024650EA013406BF98
:100E880052EA033591EA030F41F4002130BD00BF57
:100E980090F0000F04BF0021704730B54FF4806414
:100EA80004F132044FF000054FF0000150E700BF95
:100EB80090F0000F04BF0021704730B54FF48064F4
:100EC80004F1320410F0004548BF40424FF00001E1
:100ED8003EE700BF42004FEAE2014FEA31014FEA24
:100EE80002701FBF12F07F4393F07F4F81F0605173
:100EF800704732F07F4208BF704793F07F4F04BFBE
:100F080041F40021704730B54FF4607401F000459A
:100F180021F000411CE700BF50EA010208BF7047FA
:100F280030B54FF000050AE050EA010208BF7047EB
:100F380030B511F0004502D5404261EB41014FF454
:100F4800806404F132045FEA915C3FF4D8AE4FF05C
:100F580003025FEADC0C18BF03325FEADC0C18BF3F
:100F6800033202EBDC02C2F1200300FA03FC20FA90
:100F780002F001FA03FE40EA0E0021FA02F11444DD
:100F8800BDE600BF70B54FF0FF0C4CF4E06C1CEAF6
:100F980011541DBF1CEA135594EA0C0F95EA0C0F67
:100FA80000F0DEF82C4481EA030621EA4C5123EADA
:100FB8004C5350EA013518BF52EA033541F4801109
:100FC80043F4801338D0A0FB02CE4FF00005E1FBBC
:100FD80002E506F00042E0FB03E54FF00006E1FB06
:100FE80003569CF0000F18BF4EF0010EA4F1FF0449
:100FF800B6F5007F64F5407404D25FEA4E0E6D4189
:1010080046EB060642EAC62141EA55514FEAC52099
:1010180040EA5E504FEACE2EB4F1FD0C88BFBCF515
:10102800E06F1ED8BEF1004F08BF5FEA500E50F1C6
:10103800000041EB045170BD06F0004646EA01018C
:1010480040EA020081EA0301B4EB5C04C2BFD4EBBE
:101058000C0541EA045170BD41F480114FF0000EB7
:10106800013C00F3AB8014F1360FDEBF002001F025
:10107800004170BDC4F10004203C35DA0C341BDC9F
:1010880004F11404C4F1200500FA05F320FA04F071
:1010980001FA05F240EA020001F0004221F00041A5
:1010A80010EBD37021FA04F642EB06015EEA430E18
:1010B80008BF20EAD37070BDC4F10C04C4F1200548
:1010C80000FA04F320FA05F001FA04F240EA0200FB
:1010D80001F0004110EBD37041F100015EEA430ECC
:1010E80008BF20EAD37070BDC4F1200500FA05F2EC
:1010F8004EEA020E20FA04F301FA05F243EA02036B
:1011080021FA04F001F0004121FA04F220EA020079
:1011180000EBD3705EEA430E08BF20EAD37070BDBF
:1011280094F0000F0FD101F00046400041EB01019F
:1011380011F4801F08BF013CF7D041EA060195F081
:10114800000F18BF704703F00046520043EB03033B
:1011580013F4801F08BF013DF7D043EA0603704728
:1011680094EA0C0F0CEA135518BF95EA0C0F0CD033
:1011780050EA410618BF52EA4306D1D181EA030179
:1011880001F000414FF0000070BD50EA410606BF73
:101198001046194652EA430619D094EA0C0F02D1B8
:1011A80050EA013613D195EA0C0F05D152EA0336FD
:1011B8001CBF104619460AD181EA030101F000411B
:1011C80041F0FE4141F470014FF0000070BD41F064
:1011D800FE4141F4780170BD70B54FF0FF0C4CF43E
:1011E800E06C1CEA11541DBF1CEA135594EA0C0F5D
:1011F80095EA0C0F00F0A7F8A4EB050481EA030EAA
:1012080052EA03354FEA013100F088804FEA033390
:101218004FF0805545EA131343EA12634FEA02225E
:1012280045EA111545EA10654FEA00260EF000411F
:101238009D4208BF964244F1FD0404F5407402D271
:101248005B084FEA3202B61A65EB03055B084FEA02
:1012580032024FF480104FF4002CB6EB020E75EBFF
:10126800030E22BFB61A754640EA0C005B084FEA27
:101278003202B6EB020E75EB030E22BFB61A7546A4
:1012880040EA5C005B084FEA3202B6EB020E75EBEF
:10129800030E22BFB61A754640EA9C005B084FEA67
:1012A8003202B6EB020E75EB030E22BFB61A754674
:1012B80040EADC0055EA060E18D04FEA051545EA63
:1012C80016754FEA06164FEAC30343EA52734FEA0C
:1012D800C2025FEA1C1CC0D111F4801F0BD141EA85
:1012E80000014FF000004FF0004CB6E711F4801FEA
:1012F80004BF01430020B4F1FD0C88BFBCF5E06FCA
:101308003FF6AFAEB5EB030C04BFB6EB020C5FEAD9
:10131800500C50F1000041EB045170BD0EF0004E2E
:101328004EEA113114EB5C04C2BFD4EB0C0541EA60
:10133800045170BD41F480114FF0000E013C90E65D
:1013480045EA060E8DE60CEA135594EA0C0F08BF21
:1013580095EA0C0F3FF43BAF94EA0C0F0AD150EA20
:1013680001347FF434AF95EA0C0F7FF425AF1046B3
:1013780019462CE795EA0C0F06D152EA03353FF4DB
:10138800FDAE1046194622E750EA410618BF52EA58
:1013980043067FF4C5AE50EA41047FF40DAF52EA2C
:1013A80043057FF4EBAE12E74FF0FF3C06E000BFC9
:1013B8004FF0010C02E000BF4FF0010C4DF804CDD6
:1013C8004FEA410C7FEA6C5C4FEA430C18BF7FEA96
:1013D8006C5C1BD001B050EA410C0CBF52EA430CC4
:1013E80091EA030F02BF90EA020F0020704710F144
:1013F800000F91EA030F58BF994208BF90422CBFD3
:10140800D8176FEAE37040F0010070474FEA410CCB
:101418007FEA6C5C02D150EA013C07D14FEA430CE9
:101428007FEA6C5CD6D152EA033CD3D05DF8040B5A
:10143800704700BF8446104662468C46194663468C
:1014480000E000BF01B5FFF7B7FF002848BF10F163
:10145800000F01BD4DF808EDFFF7F4FF0CBF0120A8
:1014680000205DF808FB00BF4DF808EDFFF7EAFF24
:1014780034BF012000205DF808FB00BF4DF808EDDF
:10148800FFF7E0FF94BF012000205DF808FB00BFD4
:101498004DF808EDFFF7CEFF94BF012000205DF85E
:1014A80008FB00BF4DF808EDFFF7C4FF34BF01206B
:1014B80000205DF808FB00BF4FEA410212F5001258
:1014C80015D211D56FF47873B3EB625212D94FEA83
:1014D800C12343F0004343EA505311F0004F23FA6D
:1014E80002F018BF404270474FF00000704750EAC2
:1014F800013005D111F0004008BF6FF0004070477F
:101508004FF00000704700BF4A0011D212F50012D8
:1015180011D20DD56FF47873B3EB62520ED44FEA43
:10152800C12343F0004343EA505323FA02F07047C3
:101538004FF00000704750EA013002D14FF0FF3001
:1015480070474FF00000704780F0004002E000BF95
:1015580081F0004142001FBF5FEA410392EA030F96
:101568007FEA226C7FEA236C6AD04FEA1262D2EBE0
:101578001363C1BFD218414048404140B8BF5B42E5
:10158800192B88BF704710F0004F40F4000020F07E
:101598007F4018BF404211F0004F41F4000121F094
:1015A8007F4118BF494292EA030F3FD0A2F10102DE
:1015B80041FA03FC10EB0C00C3F1200301FA03F11C
:1015C80000F0004302D5494260EB4000B0F5000F3F
:1015D80013D3B0F1807F06D340084FEA310102F1FE
:1015E8000102FE2A51D2B1F1004F40EBC25008BFB0
:1015F80020F0010040EA03007047490040EB00007A
:10160800013A28BFB0F5000FEDD2B0FA80FCACF17A
:10161800080CB2EB0C0200FA0CF0AABF00EBC250A7
:1016280052421843BCBFD0401843704792F0000F95
:1016380081F4000106BF80F400000132013BB5E7E8
:101648004FEA41037FEA226C18BF7FEA236C21D05E
:1016580092EA030F04D092F0000F08BF08467047C3
:1016680090EA010F1CBF0020704712F07F4F04D191
:10167800400028BF40F00040704712F100723CBFA4
:1016880000F50000704700F0004343F0FE4040F4CE
:10169800000070477FEA226216BF08467FEA23638C
:1016A8000146420206BF5FEA412390EA010F40F477
:1016B800800070474FF0000304E000BF10F00043C3
:1016C80048BF40425FEA000C08BF704743F09643AA
:1016D80001464FF000001CE050EA010208BF7047C5
:1016E8004FF000030AE000BF50EA010208BF70474C
:1016F80011F0004302D5404261EB41015FEA010C61
:1017080002BF84460146002043F0B64308BFA3F158
:101718008053A3F50003BCFA8CF2083AA3EBC2533A
:1017280010DB01FA02FC634400FA02FCC2F1200259
:10173800BCF1004F20FA02F243EB020008BF20F090
:101748000100704702F1200201FA02FCC2F12002F6
:1017580050EA4C0021FA02F243EB020008BF20EAEB
:10176800DC7070474FF0FF0C1CEAD0521EBF1CEA19
:10177800D15392EA0C0F93EA0C0F6FD01A4480EA07
:10178800010C400218BF5FEA41211ED04FF00063F0
:1017980043EA501043EA5111A0FB01310CF000401C
:1017A800B1F5000F3EBF490041EAD3715B0040EA42
:1017B800010062F17F02FD2A1DD8B3F1004F40EB12
:1017C800C25008BF20F00100704790F0000F0CF0E5
:1017D800004C08BF49024CEA502040EA51207F3AA9
:1017E800C2BFD2F1FF0340EAC250704740F4000084
:1017F8004FF00003013A5DDC12F1190FDCBF00F075
:1018080000407047C2F10002410021FA02F1C2F122
:10181800200200FA02FC5FEA310040F1000053EABE
:101828004C0308BF20EADC70704792F0000F00F00C
:10183800004C02BF400010F4000F013AF9D040EA12
:101848000C0093F0000F01F0004C02BF490011F4A6
:10185800000F013BF9D041EA0C018FE70CEAD153A4
:1018680092EA0C0F18BF93EA0C0F0AD030F0004C24
:1018780018BF31F0004CD8D180EA010000F00040D8
:10188800704790F0000F17BF90F0004F084691F096
:10189800000F91F0004F14D092EA0C0F01D14202D0
:1018A8000FD193EA0C0F03D14B0218BF084608D199
:1018B80080EA010000F0004040F0FE4040F40000E3
:1018C800704740F0FE4040F4400070474FF0FF0C76
:1018D8001CEAD0521EBF1CEAD15392EA0C0F93EABD
:1018E8000C0F69D0A2EB030280EA010C49024FEA0F
:1018F800402037D04FF0805343EA111143EA1013C8
:101908000CF000408B4238BF5B0042F17D024FF47F
:10191800000C8B4224BF5B1A40EA0C00B3EB510F5A
:1019280024BFA3EB510340EA5C00B3EB910F24BF43
:10193800A3EB910340EA9C00B3EBD10F24BFA3EBC8
:10194800D10340EADC001B0118BF5FEA1C1CE0D190
:10195800FD2A3FF650AF8B4240EBC25008BF20F043
:10196800010070470CF0004C4CEA50207F32C2BF97
:10197800D2F1FF0340EAC250704740F400004FF034
:101988000003013A37E792F0000F00F0004C02BF65
:10199800400010F4000F013AF9D040EA0C0093F02F
:1019A800000F01F0004C02BF490011F4000F013B89
:1019B800F9D041EA0C0195E70CEAD15392EA0C0FF1
:1019C80008D142027FF47DAF93EA0C0F7FF470AF29
:1019D800084676E793EA0C0F04D14B023FF44CAF6C
:1019E80008466EE730F0004C18BF31F0004CCAD101
:1019F80030F000427FF45CAF31F000437FF43CAF3D
:101A08005FE700BF4FF0FF3C06E000BF4FF0010C5E
:101A180002E000BF4FF0010C4DF804CD4FEA400240
:101A28004FEA41037FEA226C18BF7FEA236C11D08A
:101A380001B052EA530C18BF90EA010F58BFB2EB3D
:101A4800030088BFC81738BF6FEAE17018BF40F0BD
:101A5800010070477FEA226C02D15FEA402C05D171
:101A68007FEA236CE4D15FEA412CE1D05DF8040BF6
:101A7800704700BF844608466146FFE70FB5FFF789
:101A8800C9FF002848BF10F1000F0FBD4DF808ED41
:101A9800FFF7F4FF0CBF012000205DF808FB00BF32
:101AA8004DF808EDFFF7EAFF34BF012000205DF88C
:101AB80008FB00BF4DF808EDFFF7E0FF94BF0120D9
:101AC80000205DF808FB00BF4DF808EDFFF7D2FFD6
:101AD80094BF012000205DF808FB00BF4DF808ED19
:101AE800FFF7C8FF34BF012000205DF808FB00BFE6
:101AF8007BB972B90029BEBF00204FF0004106E053
:101B080008BF00281CBF6FF000414FF0FF3000F005
:101B180095B8ADF1080C6DE904CE002909DB002B5E
:101B28001ADB00F0D1F8DDF804E0DDE9022304B0A7
:101B38007047404261EB4101002B1BDB00F0C4F809
:101B4800DDF804E0DDE9022304B0404261EB410125
:101B5800524263EB43037047524263EB430300F086
:101B6800B3F8DDF804E0DDE9022304B0404261EB9C
:101B780041017047524263EB430300F0A5F8DDF8DA
:101B880004E0DDE9022304B0524263EB43037047EB
:101B980053B94AB9002908BF00281CBF4FF0FF31CC
:101BA8004FF0FF3000F04AB8ADF1080C6DE904CEF3
:101BB80000F08AF8DDF804E0DDE9022304B070479C
:101BC800D0B5FFF787F900220B4B06460F46FFF703
:101BD800D9F9FFF799FC0446FFF75AF90022074B99
:101BE800FFF7D0F902460B4630463946FFF712F8A0
:101BF800FFF78AFC2146D0BD0000F03D0000F0410F
:101C0800D0B500220B4B06460F46FFF7BBF9FFF78E
:101C18007BFC0446FFF73CF90022074BFFF7B2F9BB
:101C280002460B4630463946FEF7F4FFFFF76CFCD8
:101C38002146D0BD0000F03D0000F041704700BFD4
:101C480010F8012B11F8013B012A28BF9A42F7D05E
:101C5800D01A7047034611F8012B03F8012B002A0C
:101C6800F9D17047034613F8012B002AFBD1181A43
:101C78000138704710B500210446FFF711FF20B95D
:101C88002046BDE81040FFF79BBF04F10040FFF776
:101C980097FF404261EB410110BD38B50022002397
:101CA80004460D46FFF7E0FB28B920462946BDE863
:101CB8003840FFF7A5BF204605F10041FFF7A0FF18
:101CC800404261EB410138BD2DE9F04786468C461C
:101CD8000846089E154674461946002B40F0C180F8
:101CE8008542B2FA82F245D94AB1C2F1200300FA1C
:101CF80002FC954094402EFA03F343EA0C0C4FEA99
:101D0800154EA8B2230CBCFBFEF80EFB18CC08FB42
:101D180000F943EA0C43994528D9EB1808F1FF3735
:101D280004D2994502D9A8F102072B44A3EB090371
:101D3800A4B2B3FBFEFC0EFB1C330CFB00F044EA20
:101D48000344A04214D92C190CF1FF3304D2A04249
:101D580002D9ACF102032C44241A43EA07401EB10D
:101D6800D440002334607360BDE8F0874746DDE760
:101D78006346F1E792BB431B01214FEA154EAFB210
:101D8800200CB3FBFEFC0EFB1C330CFB07F840EAEF
:101D98000343984561D9EB180CF1FF3004D29845FC
:101DA80002D9ACF102002B44A3EB0803A4B2B3FBA5
:101DB800FEFC0EFB1C330CFB07F744EA0344A74266
:101DC8004DD92C190CF1FF3304D2A74202D9ACF13A
:101DD80002032C44E41B43EA0040C0E7C2F120039D
:101DE8009540944020FA03F12EFA03F34FEA154E7A
:101DF8009040AFB20343B1FBFEFC0EFB1C10190C64
:101E08000CFB07F841EA0041884522D969180CF112
:101E1800FF3004D2884502D9ACF102002944A1EB75
:101E280008019BB2B1FBFEFC0EFB1C110CFB07F773
:101E380043EA01439F420ED9EB180CF1FF3104D25B
:101E48009F4202D9ACF102012B44DB1B41EA00415D
:101E580093E76046E3E76146F7E76046A4E7634631
:101E6800B8E7834206D916B9002108467CE7C6E9D7
:101E780000E0F9E7B3FA83F78FB9834201D37245DB
:101E880008D8BEEB020460EB030301209C461EB990
:101E9800002169E73846FAE7C6E9004CF8E7C7F1D8
:101EA800200CBB400EFA07F522FA0CF42EFA0CF1BE
:101EB800BA401C4320FA0CF3B8404FEA14490143D6
:101EC8001FFA84FEB3FBF9F809FB18300B0C08FB6A
:101ED8000EFA43EA00439A4540D9E31808F1FF3067
:101EE80004D29A4502D9A8F102002344A3EB0A03BD
:101EF80089B2B3FBF9F809FB183308FB0EFE41EA77
:101F080003418E452CD9611808F1FF3304D28E4560
:101F180002D9A8F10203214443EA0040A1EB0E01D3
:101F2800A0FB02984145CE46434602D306D14D4513
:101F380004D20138B9EB020E68EB0403002EA7D0D7
:101F4800B5EB0E0261EB030101FA0CFC22FA07F370
:101F5800F9404CEA0303C6E9003199E74046C5E772
:101F68004346D9E70000000000220023C0E900230F
:101F780003A3D3E90023C0E90223002303747047B5
:101F88000000000000AA8F4010B50446194610460C
:101F9800174B0022FEF7F6FF237CBBB90EA3D3E94B
:101FA8000023FFF719F90EA3D3E9002300F098FFE7
:101FB80002460B4600200F49FEF72CFE0AA3D3E980
:101FC8000023FEF7DFFFC4E9000110BDD4E90223B6
:101FD800E7E700BFAFF300800000000000AA8F40D1
:101FE8006C45D9CC955BC83F0000000040A5E54092
:101FF800000024400000F03F2DE9F84F04464868EF
:102008000D46FEF755FF38A3D3E90023FFF7E4F8A0
:10201800064628680F46FEF74BFF02460B46304639
:102028003946FEF7F9FDD4E90823FEF7F3FD8046AB
:10203800E8688946FEF73CFF2BA3D3E90023FFF7A6
:10204800CBF80646A8680F46FEF732FF02460B4655
:1020580030463946FEF7E0FDD4E90A23FEF7DAFDFB
:10206800064668690F46FEF723FF1FA3D3E900233E
:10207800FFF7B2F8824628698B46FEF719FF024639
:102088000B4650465946FEF7C7FDD4E90C23FEF728
:10209800C1FDC4E90467C4E9060142464B4630461F
:1020A8003946C4E9028900F01BFE0022124BFEF7F4
:1020B80069FF0FA3D3E90023FFF78EF8002200235E
:1020C80006460F46FFF7D0F938B1304639460022A8
:1020D8000A4BFEF7A1FD06460F46C4E90067BDE8B6
:1020E800F88F00BFAFF300800000000080842E410D
:1020F800182D4454FB21094000806640008076403A
:10210800D0B504464068FEF7D3FE09A3D3E90023FF
:10211800FFF762F8064620680F46FEF7C9FE02463A
:102128000B4630463946FEF777FDD0BDAFF3008049
:102138000000000080842E412DE9F04FE1B02EA868
:1021480017F084FA04A8FFF70FFF21A802F094F80B
:10215800002840F0178110A802F074F8002840F019
:10216800118117A802F04AF8002840F00B813CA81A
:1021780000F036F901F09EFF10B1894815F0B8FF5C
:102188004FF000080024DFF81C92874D874815F0AF
:102198009DFF874815F0ACFF17A817F06EFA21A825
:1021A80017F0AFFA10A817F097FA1DA8FFF7A8FFC5
:1021B80002460B4604A8FFF7E7FE19A8FFF7A0FFA1
:1021C80006461BA80F46FFF79BFF32463B46CDE964
:1021D8000001784815F07AFF1DA8FFF791FF064621
:1021E8001FA80F46FFF78CFF32463B46CDE900019A
:1021F800714815F06BFF04A817F025FA02460B4644
:102208006E4815F063FF22A8FFF77AFF824624A8DC
:102218008B46FFF775FF064626A80F46FFF770FFA7
:1022280052465B46CDE90201CDE90067644815F0E6
:102238004DFF11A8FFF764FF824613A88B46FFF7EE
:102248005FFF064615A80F46FFF75AFF52465B4642
:10225800CDE90201CDE900675A4815F037FF11A909
:102268002EA8FFF7C9FE2EA817F001FA02460B4662
:10227800554815F02BFF22A93CA800F0E1F83CA82E
:1022880017F05BFADDE940230146504815F01EFFC0
:1022980019A8FFF735FF42464B46FEF773FEFFF7D6
:1022A8000BF9ADF828001BA8FFF72AFF42464B465A
:1022B800FEF768FEFFF728F9ADF82A001DA8FFF71A
:1022C8001FFF35A3D3E90023FEF75CFEFFF71CF9D7
:1022D8000B9022A8FFF714FF22462B46FEF752FE6A
:1022E800FFF7EAF8ADF8300024A8FFF709FF224607
:1022F8002B46FEF747FEFFF7DFF8ADF8320026A8B9
:10230800FFF7FEFE22462B46FEF73CFEFFF7D4F809
:10231800ADF8340011A8FFF7F3FE22462B46FEF76E
:1023280031FEFFF7C9F8ADF8360013A8FFF7E8FE4D
:1023380022462B46FEF726FEFFF7BEF8ADF838001A
:1023480015A8FFF7DDFE22462B46FEF71BFEFFF71A
:10235800B3F8ADF83A003CA817F0EFF90F900AA8C7
:1023680001F0EEFE01F0E4FE194A1A49002808BF00
:102378001146194815F0AAFE002141F69A101CF0E2
:102388007EFF03E7154815F0B3FE4FF0FF3061B04C
:10239800BDE8F08FAFF30080000000000088C34064
:1023A8005C1E02000000594000408F40791E020068
:1023B800801E0200A01E0200C51E0200EE1E0200C2
:1023C800011F0200291F0200511F0200631F0200A3
:1023D800281E02001F1E0200851F0200361E020072
:1023E80000230022036003710023C0E902230022B6
:1023F800002330B5C0E90423002403460E4D00F144
:102408007002C0E90645E3E90845E3E9024593425D
:10241800FBD100234FF033328367084BC0E92023F8
:1024280003A3D3E90023C0E9222330BDAFF3008022
:102438009A9999999999E93F0000F03F3333F33F0E
:102448002DE9F84F044648680D46FEF731FD7AA39A
:10245800D3E90023FEF7C0FE064628680F46FEF7BC
:1024680027FD02460B4630463946FEF7D5FB0646A1
:10247800E8680F46FEF71CFD6FA3D3E90023FEF7BB
:10248800ABFE8046A8688946FEF712FD02460B4659
:1024980040464946FEF7C0FB824668698B46FEF710
:1024A80007FD65A3D3E90023FEF796FE8046286959
:1024B8008946FEF7FDFC02460B4640464946FEF7B4
:1024C800ABFB3246804689463B4630463946FEF7E6
:1024D80059FD524606460F465B4650465946FEF79A
:1024E80051FD02460B4630463946FEF795FB4246FB
:1024F80006460F464B4640464946FEF743FD024610
:102508000B4630463946FEF787FB16F02DFF4CA3E5
:10251800D3E9002380468946D4E90601FEF732FD57
:1025280049A3D3E9002306460F4640464946FEF72D
:1025380053FE47A3D3E90023FEF724FD02460B46CA
:1025480030463946FEF768FB0F460646A36FC4E9D6
:10255800066704EBC302C2E90A670A22013393FB48
:10256800F2F14FF000084FF0000902FB113304F1BB
:102578002005A36704F1700A4046F5E9022349469D
:10258800FEF74AFB554580468946F5D10022324B75
:10259800FEF722FE804689464FF03332C4E90889A7
:1025A8002E4BFEF7EFFC26A3D3E90023C4E9200154
:1025B80040464946FEF7E6FCC4E90467C4E922013F
:1025C8001CF0EAFE237905460E461BB1012B0CD000
:1025D800BDE8F88FD4E92023D4E90601FEF762FFAD
:1025E8000028F5D001232371F2E7D4E92223D4E9A6
:1025F8000601FEF739FF0028EAD04FF47A72A5FBEE
:10260800023102FB0611D4E90202DB0B43EA414323
:10261800181A4FEAD13161EB0202FA2872F100026E
:10262800A2BF2268C4E9023101324FF00003A8BFFB
:102638002260D8E7AFF300800000000080842E41BC
:102648009A9999999999E93F1F85EB51B89E23402A
:102658009A9999999999C93F000024403333F33FD7
:102668000B1EB8BFFF3310B504461812A0FB0201B9
:10267800DB1702FB0311FEF757FC07A3D3E900237E
:10268800FEF780FCFFF709FB0023054AFFF730FA45
:10269800C4E9000210BD00BF05A3923A019D234082
:1026A80040420F00000000000329F8B505460C461B
:1026B80061D1002A3ED0072A54D15A681E681346B1
:1026C8003148D117C6FB0031012B71F1000244DB00
:1026D80000F56E1000F65D70181841F1000128A38E
:1026E800D3E90023FFF704FA02282E6914D004283E
:1026F80014D0082814D010282FD1E7B239466868BA
:1027080018F075FA00280DDB204B777403EBC4032F
:102718005B68F3600020F8BD0024EEE70124ECE7D5
:102728000224EAE71A4A1B48012118F0BCF86FF0A6
:102738000400F0E71988184B33F8020B814209D8D6
:10274800D4B2214668682E6918F036FA002807DAEC
:10275800124AE8E701320A2AEED16FF01500DAE7EB
:102768003474D7E70B48134602210D4A18F0A4F831
:102778006FF08500CFE70846BDE8F8400BF09EBB38
:102788003AA395000000000040420F00D415020053
:102798009D4C020080080200D01B0200C84C0200B9
:1027A800E043020000000000B0B50329044600AF72
:1027B80042D852B3072A2CD15A681D6813462848B4
:1027C800D117C5FB0031012B71F1000215DB00F5B3
:1027D8006E1000F65D70181841F100011EA3D3E9D0
:1027E8000023FFF785F9B0FA80F0C0F11E01C9B2E5
:1027F80020461BF05AF8BD46B0BD1A48181861F1BA
:10280800000115A3D3E90023EBE719880BF068FD55
:10281800F1E76C4688B06A46134B4FF4C8515361D0
:10282800124B9361032342F8103F11481BF04FF8F5
:102838006FF08500A546DEE76C4688B06A460D4B0A
:1028480053610D4BC2E9063104234FF4045142F899
:10285800103FEAE7AFF300803AA3950000000000BC
:1028680040420F00632EB5FF664502005247020042
:102878008808020086450200624702000000000046
:1028880070B514460646CD17A1FB0201002304FBD0
:1028980005110A22FFF72CF90FA3D3E900230C4DE9
:1028A80080FB054520462946FFF722F906A3D3E910
:1028B8000023306029462046FFF71AF90023054A0D
:1028C800FFF716F9726070BD80A8120100000000C1
:1028D800D8EF2F0040420F0000209BF35E1000004D
:1028E8002DE9F84305460C4600AF00296CD00729AE
:1028F80040F08980536810684F4AD917C0FB0231ED
:10290800012B71F1000277DBD5F804804B4898F869
:102918001A4018184FEAD41445A3D3E9002341F10B
:10292800000164B2FFF7E4F8002C14BF042302236B
:10293800834298F91A6028D0002C14BF2023102352
:10294800984224D0002C14BF08230423984220D096
:10295800002C14BF1023082398424DD103245FFA9A
:1029680084F9494640462D6918F08DFD002812DB90
:10297800334B002E4FF03D0233F8143085F81E908B
:102988001EDBA3FB02325B081BE00024E7E70124FF
:10299800E5E70224E3E76C4688B06A46294B5361B1
:1029A800294B9361032329484FF4C85142F8103F3B
:1029B8001BF01FF86FF00400A546BD46BDE8F8837C
:1029C8005343EB600020F8E7214B1288984633F810
:1029D800021B8A420DD86868E1B22E6918F0E5FE3C
:1029E80000280CDA6C4688B06A461A4B53611A4BB9
:1029F800D7E701340B2CEAD16FF01500DDE738F882
:102A08001430B383DEE76C4688B06A46134B0F4830
:102A18005361134B4FF4C8519361032342F8103F9D
:102A28001AF0E7FF6FF08500A546C6E7AFF3008010
:102A38003AA395000000000040420F009DD14A00D3
:102A4800101C0200994C02008B4F0200A0080200E3
:102A5800181C0200C44C0200754F0200F24C020020
:102A6800A34F020000000000F8B50D46032D1146E3
:102A780004461A4600AF07D0072D09D00221464A5E
:102A8800464817F010FF7EE0FFF72AFFBD46F8BD65
:102A9800002951D0072966D159681D680A46404B5C
:102AA800C817C5FB0320B425A2FB0531012A05FB85
:102AB800001170F1000028DB3A48181841F10001B4
:102AC80033A3D3E900230025FFF712F8364B33F878
:102AD800022B904221D16068E9B2266918F0EAFC1D
:102AE800002820DA6C4688B06A46304B5361304B78
:102AF8009361032329484FF4C85142F8103F1AF054
:102B080078FF6FF00400A546C0E72A48181861F15D
:102B180000011FA3D3E90023D5E70135072DD6D13E
:102B28006FF01500B2E741F21712234B33F8153056
:102B38005343B3610020A9E71A88204B33F8020BEE
:102B480082420CD86068C9B218F09DFE0028F1DAFC
:102B58006C4688B06A461A4B53611A4BC8E7013174
:102B68000B29EBD1DCE76C4688B06A46164B4FF46C
:102B7800C8515361154B09489361032342F8103F2C
:102B88001AF037FFA5466FF085007FE7AFF30080A6
:102B9800D8EF2F00000000006B4B0200A0080200D5
:102BA80040420F00ECF71700021C0200154D02000E
:102BB8004A4F02001408E8FFF41B0200181C020028
:102BC8003C4D0200354F0200664D0200614F020085
:102BD8002DE9F74F03291446066905D90B1F032B66
:102BE80053D96FF0850023E00229F7683A4D22D0C7
:102BF800032923D0012914BFB6F90460B6F9066089
:102C0800A6FB076732A3D3E9002386FB0565304698
:102C18002946FEF76DFF0023304A206029463046DA
:102C2800FEF766FF00232D4AFEF762FF6260002070
:102C380003B0BDE8F08FB6F90860E1E74FF0000B8C
:102C480002F11803DFF894A00236019336F9028FD7
:102C5800A8FB07831EA3D3E9002388FB05984846F1
:102C68004146FEF745FF524644F8080B5B46484686
:102C78004146FEF73DFF52465B46FEF739FF019B92
:102C880044F8042C9C42E1D1D1E70629B5690CD05F
:102C980007290ED02A46052914BFB6F91010B6F92F
:102CA80012102046FFF7ECFDC1E72A46B6F91410CA
:102CB800F7E70E3602F1180720462A4636F9021FB2
:102CC8000834FFF7DDFDA742F6D1B0E7AFF3008087
:102CD8000010A5D4E80000003AA3950040420F0078
:102CE8002DE9F84F17469046994623F000427B425B
:102CF800DFF8E4A104460D463B4342EAD37353454B
:102D080009D8464221F000438E468346064343EAEB
:102D1800D676564508D942464B4620462946FDF701
:102D28007BFF04460D4616E009F1404606F580167D
:102D38003E4303D1BDE8F84F00F062BE4FEAA976E2
:102D480053EA0B0B06F0020646EAD17617D1022E9B
:102D580005D0032E0AD020462946BDE8F88F48A39F
:102D6800D3E9002348A1D1E90001D8E744A3D3E976
:102D7800002347A1D1E90001FDF74CFFD1E7174334
:102D88000DD1BEF1000F3EA3D3E9002303DA42A11F
:102D9800D1E90001F0E742A1D1E90001BFE75245BE
:102DA80024D1934218D1022E35A3D3E900230BD0A6
:102DB800032E0DD0012E03D03BA1D1E90001AEE7CF
:102DC8003BA1D1E90001D7E73BA1D1E90001A6E782
:102DD8003BA1D1E90001CFE7022EC0D0032EC5D018
:102DE800012E4FF0000448D00025B4E75345C8D061
:102DF8009B1AB3F1747F4FEA23521ADB32A3D3E94B
:102E0800002327A1D1E90001FDF706FF04460D467E
:102E1800012E21D0022E23D0002E9CD020462946F8
:102E28002BA3D3E90023FDF7F5FE17A3D3E900236D
:102E3800A2E7B9F1000F01DA3C320ADB42464B4601
:102E480020462946FEF7C8F921F0004100F0D8FDD8
:102E5800DCE700240025DBE705F100431D467AE79F
:102E68001BA3D3E9002320462946FDF7D3FE0246DB
:102E78000B4605A1D1E900017EE74FF000456AE75E
:102E880059F3F8C21F6EA501182D4454FB210940BF
:102E9800182D4454FB2109C0182D4454FB21F9BFB7
:102EA800182D4454FB21F93F182D4454FB21E93FC8
:102EB800182D4454FB21E9BFD221337F7CD902402D
:102EC800D221337F7CD902C0075C143326A6913CFB
:102ED800075C143326A6A13C0000F07F0000000028
:102EE8002DE9F04F91B00D460446CDE90023DDE908
:102EF800007B2BF0004252EA070111D1031885F438
:102F0800002252419942864B934180F0D18020465D
:102F18002946DDE90023FDF77FFE04460D4618E04B
:102F280025F000487F4BA946844698451DD815D101
:102F38000028ECD14245EAD826D1002FE7D17A4BB8
:102F4800984540F2B880BBF1000FC0F21E85DDE95C
:102F580000452046294611B0BDE8F08F9A4204D8B2
:102F6800C64612D1002F00F09C8009F1404909F5AE
:102F7800801959EA0C09CAD1FA198BF400235B416C
:102F88009145674A9A41C0E7C646B9F1000F2BDA66
:102F9800664B9A422DD9002F00F0BA8002262046AF
:102FA80025F00041BCF1000F00F0A9824FEAD97367
:102FB80003F1FF3A5AEA060C00F0BB82B2F1844FE3
:102FC80040F2CF805A4CA242574A40F2D6829045EE
:102FD80000F2C982BBF1000F80F2C982002011B053
:102FE800BDE8F04F16F0F8BA002F00F081800026F7
:102FF800D5E74D4B9A421AD8002FF8D1BBF1804F34
:103008007DD04C4B3E469B45C9D1204625F000411A
:10301800BCF1000F40F09D80424B984540F0B984C8
:10302800012E04460D4694D101F1004591E7131590
:10303800A3F2FF33142B1DDDC3F1340327FA03F683
:1030480006FA03F3BB4228D106F00106C6F10206D0
:10305800002FA4D1BBF1804FA1D1374B98459ED802
:10306800364B98456ED922462B4620462946FDF711
:1030780089FF52E7002F40F03B82C3F1140342FA64
:1030880003F606FA03F393422D4B1DD19A421DD045
:1030980006F00106C6F10206DCE7002FA7D13E467E
:1030A800D8E708F1404303F5801303437FF447AFA3
:1030B8000024234D4DE7BBF1000F80F26684DDE963
:1030C800004303F1004544E79A42E8D1BBF1000F01
:1030D800BFF63FAF0022002320462946FEF7BAF983
:1030E80078B14FEAD97011B0BDE8F04F16F080BA48
:1030F800134B9A42EAD0BBF1804F40F0EF813E4635
:10310800ABE722462B4600200D49FEF765F804E799
:10311800BBF1804F02D0074B022674E702269CE7DA
:103128000000F0FF0000F07FFFFFEF3FFFFF3F438D
:103138000000F0430000E03FFFFFEF5F0000501E7B
:103148000000F03F5CEA080C204625F0004100F042
:1031580028844FEAD97303F1FF3A56EA0A0300F0CC
:10316800E881C74B002209EA03032BB9C54BFDF7D9
:1031780009FF6FF034028E464FEA2E53CEF3130E3A
:10318800A3F2FF334EF07F55134445F440150C93DA
:10319800BD4B9E4508DDBD4B9E4540F3A8820C9B68
:1031A800A5F5801501330C930024E30029466D1022
:1031B8000D93B74B45F0005503EBC40305F5002507
:1031C800D3E90023CDE90A01CDE90823FDF722FD63
:1031D80080468946DDE90A23DDE90801FDF71CFD83
:1031E80002460B460020AB49FDF7F6FF02460B46A8
:1031F800CDE90E0140464946FDF7C4FECDE906017A
:10320800DDE90623CDE9042300230493DDE9042343
:10321800CDE9022305EB844300221D4614462946C6
:103228002046DDE90223FDF7ADFE02460B46404687
:103238004946FDF7EFFC8046894620462946DDE9E8
:103248000823FDF7E7FC02460B46DDE90A01FDF716
:10325800E1FCDDE90223FDF795FE02460B464046F8
:103268004946FDF7D7FCDDE90E23FDF78BFEDDE9C6
:103278000623CDE9080110461946FDF783FE80466E
:1032880089466DA3D3E90023FDF77CFE6CA3D3E93F
:103298000023FDF7C1FC42464B46FDF773FE6AA3C7
:1032A800D3E90023FDF7B8FC42464B46FDF76AFE1A
:1032B80067A3D3E90023FDF7AFFC42464B46FDF771
:1032C80061FE65A3D3E90023FDF7A6FC42464B4601
:1032D800FDF758FE62A3D3E90023FDF79DFC0446E1
:1032E8000D4642464B4640464946FDF74BFE0246D0
:1032F8000B4620462946FDF745FE04460D46DDE906
:103308000223DDE90601FDF787FCDDE90823FDF767
:1033180039FE22462B46FDF77FFC04460D46DDE9C3
:10332800022310461946FDF72DFE02460B46CDE94D
:103338000A230022584BFDF76FFC22462B46FDF767
:103348006BFC002089468046DDE90223FDF71AFE62
:103358000022514BCDE9020140464946FDF75AFC8F
:10336800DDE90A23FDF756FC02460B4620462946AE
:10337800FDF750FCDDE90623FDF704FE04460D4683
:1033880040464946DDE90823FDF7FCFD02460B46A9
:1033980020462946FDF740FC04460D4602460B46EA
:1033A800DDE90201FDF738FC0020894680462EA39E
:1033B800D3E90023FDF7E6FDDDE90223CDE90601A7
:1033C80040464946FDF726FC02460B46204629465C
:1033D800FDF720FC26A3D3E90023FDF7D3FD04461F
:1033E8000D464046494624A3D3E90023FDF7CAFD0C
:1033F80002460B4620462946FDF70EFC0D9A274B40
:103408001344D3E90023FDF707FCCDE908010C9824
:10341800FDF74EFD0D9A224B04460D461344D3E9A1
:103428000023DDE90601CDE90223DDE90823FDF7E4
:10343800F3FB37E0AFF30080EF4E454A287ECA3FE2
:1034480065DBC9934A86CD3F01411DA96074D13F10
:103458004D268F515555D53FFFAB6FDBB66DDB3F22
:10346800033333333333E33F000000E009C7EE3F53
:10347800FD033ADC09C7EE3FF5015B14E02F3EBEC1
:103488000000F07F000040438E98030079B60B00DF
:10349800280D02000000F03F00000840080D02005F
:1034A800180D0200DDE90223FDF7B6FB22462B4684
:1034B800FDF7B2FB002022462B4680468946FDF7E1
:1034C800A9FBDDE90223FDF7A5FBDDE90623FDF7EE
:1034D800A1FB02460B46DDE90801B9E0B04B9B456C
:1034E8002ED12046294611B0BDE8F04F15F03CBF5B
:1034F800BCF1000F1DD1204625F00041664629F099
:10350800404CA84B9C451DD1BBF1000F05DA024683
:103518000B460020A349FDF75FFEB9F1000FBFF687
:10352800FCAC08F1404808F5801858EA06087FF412
:1035380077AD2046294611B0BDE8F04F16F064B8C3
:103548003E462CE5B8F1000F7FF430ADBBF1000F1B
:1035580080F22782B9F1000F03DA731E58425841EE
:10356800C1E54046BFE5BBF1000F3FF737AD00208E
:1035780011B0BDE8F04F1CF048BD904505D2BBF135
:10358800000F03EA0600F3DA29E5864A904506D9D2
:10359800BBF1000F03EA06003FF721ADE8E7002280
:1035A800804BFDF737FB04460D4673A3D3E9002390
:1035B800FDF7E8FC72A3D3E90023CDE90201204618
:1035C8002946FDF7DFFC0022774BCDE904012046B0
:1035D8002946FDF7D7FC02460B466BA1D1E900014D
:1035E800FDF718FB22462B46FDF7CCFC02460B469E
:1035F80000206B49FDF70EFB8046894622462B4684
:1036080020462946FDF7BEFC02460B464046494681
:10361800FDF7B8FC5EA3D3E90023FDF7B3FC02462F
:103628000B46DDE90401FDF7F5FA02460B460446B0
:103638000D46DDE90201FDF7EFFA002089468046D4
:10364800DDE90223FDF7E6FA02460B462046294645
:10365800013EFDF7DFFA0022044656EA0A064FF05B
:1036680000060D4618BF4F4BB24608BF4F4BDDE969
:103678000001CDE902235B463246FDF7CBFA42460C
:103688004B46FDF77FFCDDE90023CDE90401204628
:103698002946FDF777FC02460B46DDE90401FDF7F4
:1036A800BBFA5B463246CDE9000140464946FDF784
:1036B80069FC0B46024680468946DDE90001FDF7B4
:1036C800ABFA3B4B04460D4699428B4631DD01F17E
:1036D8003F4303F5E00303430BD000220023DDE959
:1036E8000201FDF7C1FE801B18BF012077E4012409
:1036F8005BE529A3D3E90023DDE90001FDF78CFA96
:1037080006460F4642464B4620462946FDF782FAB2
:1037180002460B4630463946FDF7C4FE30B3002258
:103728000023DDE90201FDF79FFE003818BF0120E4
:1037380055E421F000431F4CA3423FD91E4B0B44D4
:10374800034309D000220023DDE90201FDF78CFEC6
:10375800003818BF01200BE742464B46FDF75AFADE
:10376800DDE90023FDF794FE0028EBD140F2094380
:1037780028E000BFAFF30080000000604715F73F66
:1037880044DF5DF80BAE543E555555555555D53F5C
:10379800FE822B654715F73FFE822B654715973C40
:1037A8000000E03F0000F03F0000D03F0000F0BF05
:1037B800FFFF8F40FFCB904000346F3F8C4A93420D
:1037C80025D91B15A3F2FE334FF4801A8948BBF1A3
:1037D800000F4AFA03FA4FF00002DA44CAF30A511A
:1037E800A1F2FF3140FA01F0C1F1140100EA0A0325
:1037F800CAF3130A40464AF4801A4AFA01FA4946BB
:10380800B8BFCAF1000AFDF705FA804689460024C8
:1038180040464946DDE90023FDF7FEF90D462046FE
:1038280063A3D3E90023FDF7ADFB424606460F46E6
:103838004B4620462946FDF7EDF902460B46DDE9E1
:103848000001FDF7E7F95CA3D3E90023FDF79AFB34
:10385800804689462046294659A3D3E90023FDF727
:1038680091FB02460B4640464946FDF7D5F904460A
:103878000D4602460B4630463946FDF7CDF932462D
:10388800804689463B46FDF7C5F902460B46204669
:103898002946FDF7BFF9424606460F464B464046C5
:1038A8004946FDF76FFB04460D4647A3D3E90023BD
:1038B800FDF768FB46A3D3E90023FDF7ABF92246E1
:1038C8002B46FDF75FFB44A3D3E90023FDF7A4F9DA
:1038D80022462B46FDF756FB41A3D3E90023FDF70B
:1038E80099F922462B46FDF74DFB3FA3D3E9002368
:1038F800FDF792F922462B46FDF744FB02460B469C
:1039080040464946FDF786F904460D4602460B46F1
:1039180040464946FDF736FB00224FF08043CDE98B
:10392800000120462946FDF775F902460B46DDE9F8
:103938000001FDF751FC324604460D463B46404621
:103948004946FDF71FFB32463B46FDF765F902463F
:103958000B4620462946FDF75DF942464B46FDF7E2
:1039680059F902460B4600202349FDF753F901EBAC
:103978000A54B4F5801F06DA524615F0AFFDDDE9AA
:103988000223FFF774BB2146F9E700240025FFF75F
:10399800E0BA194B98453FF4C4ADB8F1000F7FF475
:1039A800D8AB012E7FF4B9AAFFF7D3BAAFF30080E2
:1039B80000000000432EE63FEF39FAFE422EE63FB4
:1039C800396CA80C615C20BED0A4BE726937663E13
:1039D800F16BD2C541BDBB3E2CDE25AF6A56113F07
:1039E80093BDBE166CC1663F3E5555555555C53FEE
:1039F8000000E03F0000F0FF0000F03F0000000082
:103A08002DE9F84FC04A21F0004304460D46934281
:103A18008B4620D9BD4A934201D80CD158B12246D1
:103A28002B4620462946FDF7F7F804460D46204662
:103A38002946BDE8F88FBBF1000F95A3D3E9002311
:103A480003DD95A1D1E90001EDE795A1D1E90001D8
:103A5800FDF7E0F8E9E7AE4A934211D8A2F1DE7229
:103A680093420AD890A3D3E90023FDF7D5F80022A2
:103A7800A84BFDF717FD0028D9D14FF0FF3A27E0F2
:103A8800A54A064621F00047934200F2B880A2F505
:103A98005022934200F29B8002463B4639464FF043
:103AA800000AFDF7B9F800229A4BFDF7B3F804466F
:103AB8000D4600224FF0804330463946FDF7ACF8FA
:103AC80002460B4620462946FDF786FB04460D466E
:103AD80022462B4620462946FDF754FA02460B4655
:103AE80080468946FDF74EFA06460F4670A3D3E98D
:103AF8000023FDF747FA70A3D3E90023FDF78CF8FC
:103B080032463B46FDF73EFA6DA3D3E90023FDF7A5
:103B180083F832463B46FDF735FA6BA3D3E9002319
:103B2800FDF77AF832463B46FDF72CFA68A3D3E94D
:103B38000023FDF771F832463B46FDF723FA66A3EA
:103B4800D3E90023FDF768F842464B46FDF71AFA19
:103B5800804689463046394661A3D3E90023FDF7FC
:103B680011FA61A3D3E90023FDF754F832463B4626
:103B7800FDF708FA5EA3D3E90023FDF74BF83246B8
:103B88003B46FDF7FFF95CA3D3E90023FDF742F8B4
:103B980032463B46FDF7F6F959A3D3E90023FDF772
:103BA80039F832463B46FDF7EDF902460B464046EA
:103BB8004946FDF731F822462B46FDF7E3F9BAF1FD
:103BC800FF3F02460B4644D12046294640E70022E3
:103BD800504B39464FF0010AFDF71CF804460D46D4
:103BE80000224C4B30463946FDF716F802460B4684
:103BF80020462946FDF7F0FA04460D4668E7474A8D
:103C080093421BD20022464B39464FF0020AFDF779
:103C180001F8002204460D46414B30463946FDF76F
:103C2800B1F900223B4BFCF7F7FF02460B46204652
:103C38002946FDF7D1FA04460D4649E702463B46B8
:103C480000203849FDF7C8FA4FF0030A04460D462C
:103C58003EE7354B354E03EBCA0306EBCA06D3E9FC
:103C68000023FCF7D7FF22462B46FCF7D3FF02467A
:103C78000B46D6E90001FCF7CDFFBBF1000F044667
:103C88000D46BFBF024601F1004314461D46CEE66D
:103C9800075C143326A6913C182D4454FB21F93FA8
:103CA800182D4454FB21F9BF9C7500883CE4377EED
:103CB80011DA22E33AAD903FEB0D76244B7BA93F16
:103CC800513DD0A0660DB13F6E204CC5CD45B73FE4
:103CD800FF8300922449C23F0D5555555555D53F90
:103CE8002F6C6A2C44B4A2BF9AFDDE522DDEAD3F84
:103CF8006D9A74AFF2B0B33F711623FEC671BC3F24
:103D0800C4EB98999999C93FFFFF0F440000F07FD1
:103D1800FFFFDB3F0000F03FFFFFF23F0080034062
:103D28000000F83F0000F0BF380D0200580D0200F7
:103D38001FB504240294044C0194BDF81840009463
:103D480019F054FA04B010BDB82600201FB502249B
:103D58000294044C0194BDF81840009419F046FAF6
:103D680004B010BDB62600201FB502240294044CEE
:103D78000194BDF81840009419F038FA04B010BD49
:103D8800B42600201FB504240294044C0194BDF805
:103D98001840009419F02AFA04B010BDC826002073
:103DA8001FB506240294044C0194BDF818400094F1
:103DB80019F01CFA04B010BDC22600201FB5062455
:103DC8000294044C0194BDF81840009419F00EFABE
:103DD80004B010BDBC2600200B4610B5064C0748A1
:103DE8000321074A16F068FD206818B105F0BCFFEA
:103DF8000023236010BD00BFB0260020B8080200D1
:103E08003E1C020001290CBF0122002280B50D4B87
:103E180000AF1A700C4A88B00C4B08BF13466A46AC
:103E28000B49C2E905134FF400739383094B42F819
:103E3800103F00234FF4E651074801F055FDBD46F9
:103E480080BD00BF944200205B1C02005E1C020083
:103E5800621C020003000001B808020001290CBF1F
:103E68000122002280B50D4B00AF1A700C4A88B0B1
:103E78000C4B08BF13466A460B49C2E905134FF4B9
:103E880000739383094B42F8103F00234FF4E65127
:103E9800074801F029FDBD4680BD00BF95420020BE
:103EA8005B1C02005E1C0200791C0200030000017A
:103EB800B808020001290CBF0122002280B50D4B71
:103EC80000AF1A700C4A88B00C4B08BF13466A46FC
:103ED8000B49C2E905134FF400739383094B42F869
:103EE800103F00234FF4E651074801F0FDFCBD46A2
:103EF80080BD00BF964200205B1C02005E1C0200D1
:103F0800931C020003000001B808020001290CBF3D
:103F18000122002280B50D4B00AF1A700C4A88B000
:103F28000C4B08BF13466A460B49C2E905134FF408
:103F380000739383094B42F8103F00234FF4E65176
:103F4800074801F0D1FCBD4680BD00BF9742002064
:103F58005B1C02005E1C0200AD1C02000300000195
:103F6800B808020001290CBF0122002280B50D4BC0
:103F780000AF1A700C4A88B00C4B08BF13466A464B
:103F88000B49C2E905134FF400739383094B42F8B8
:103F9800103F00234FF4E651074801F0A5FCBD4649
:103FA80080BD00BF924200205B1C02005E1C020024
:103FB800C31C020003000001B808020001290CBF5D
:103FC8000122002280B50D4B00AF1A700C4A88B050
:103FD8000C4B08BF13466A460B49C2E905134FF458
:103FE80000739383094B42F8103F00234FF4E651C6
:103FF800074801F079FCBD4680BD00BF9342002010
:104008005B1C02005E1C0200DA1C020003000001B7
:10401800B8080200F0B506460D46144687B0E3B16D
:104028000F4B1F68CFB11822002168461BF08CFE89
:1040380069463846CDE90165ADF80C4008F072FCD8
:10404800034650B110F1800F07D00221054A0648F7
:1040580007B0BDE8F04016F02FBC07B0F0BD00BFB8
:10406800B0260020F01C0200B80802000346012117
:10407800014A024816F020BC071D0200B8080200D9
:1040880010B50446084619B1BDE81040FFF7EEBF69
:104098000321054A054816F006FC204618F099F950
:1040A800034B186010BD00BF221D0200B8080200B3
:1040B800B026002030B5002089B004F07FFC04460B
:1040C80040B10346124A0121124816F0F5FB20467A
:1040D80009B030BD104D0321104A0E4803AC16F04C
:1040E800E2FB0FCD0FC42B680125236002220C4B85
:1040F8000C49009503A805F0BFFA044610B10A4A16
:104108000346E0E70321094A024816F0CCFBDEE744
:10411800301D0200B8080200000A02004F1D02000C
:10412800780D0200800D0200651D02008A1D020044
:10413800024B1868003818BF01207047B0260020CD
:10414800034670B51B4C00F11805224618685968DB
:10415800083303C2AB421446F7D1174B02221B782F
:1041680014491648FFF756FF154B02221B781549CC
:104178001548FFF74FFF154B04221B7814491548C3
:10418800FFF748FF144B06221B7814491448FFF721
:1041980041FF144B06221B7813491448FFF73AFFD6
:1041A800BDE87040124B04221B7812491248FFF7F1
:1041B80031BF00BFB426002097420020BC0E020089
:1041C80096420020B6260020F80E020095420020F4
:1041D800B8260020340F020094420020BC2600209C
:1041E800B80D020093420020C2260020080E0200EB
:1041F80092420020C8260020580E020013B504463B
:104208000E4B0F48636020601AF0EBFC18B94FF0B2
:10421800FF3002B010BD60681AF0E3FC0028F6D049
:10422800012300226068CDE9003283681C6814B15C
:104238006B464021A0470020EBE700BF3404020092
:10424800B403020013B504460A4820601AF0C9FCFA
:1042580068B10A2300222068CDE9003283681C680F
:1042680014B16B464021A047002002B010BD4FF0AA
:10427800FF30FAE71404020013B504460A48206028
:104288001AF0AFFC68B1D02300222068CDE90032D3
:1042980083681C6814B16B460321A047002002B054
:1042A80010BD4FF0FF30FAE7540402002DE9F04F3B
:1042B80091B0009302F004030293C2F3C2030133E6
:1042C800840705460E46DDF868800392059340F0A2
:1042D800BB81041D30B1072909D86FF01B0011B04C
:1042E800BDE8F08F01F007063444C6F10806009BCC
:1042F8004FF000094FF0040A591E4FF0FF334F46A4
:104308000193CB465346CDF810900DB1009A226028
:104318000598002800F3E8809848009A824203D361
:1043280097488242C0F0E080039AA4EB050E9207FA
:104338004FEA9E0000F103810F2F00F2B180002D9B
:1043480000F0058107F140020DEB020C019A0CF810
:10435800200C0CF8102C049801300490E7E07A281F
:104368005DD84B280ED8472859D829282DD8252874
:1043780052D054D820287AD02338D0F1000B4BEBF8
:10438800000B74E04C382E2849D8DFE800F070485C
:10439800484848484848484848484B484848484892
:1043A80048484859484B4B595959704B6D487048C3
:1043B800184B184848827F4B48484B487F000020DC
:1043C8004FF0000B4FF0040A38E001222A38C0B23F
:1043D80002FA00F010EA0E0F49D110F0625C2FD1FA
:1043E80010EA020B43D06046013C5444B4FBFAF493
:1043F8000AFB04F4002D61D0A3EB050CA444B445DA
:104408003FF66BAF002868D1042B47D158F8043B1E
:104418002360042304342AE0019A013A01924FF000
:10442800000B24E011F8010C6C2834D1002011F89D
:10443800023C83466C2BC5D14FF0080A5346D3E79C
:1044480008F1070828F00708073424F00704F8E8FB
:1044580002AB35B106982044B0423FF63EAFC4E9FE
:1044680000AB4FF0000B08344FF0080A534611F820
:10447800010F002878D0BBF1000F7FF470AF25281A
:10448800F5D14FF0010B019B013301934FF0040A62
:10449800ECE7584694E700208346A5E7082B02D0AE
:1044A8006FF015001BE708F1070828F00708F8E87F
:1044B8000223C4E9002308230834D8E768B9042B89
:1044C80002D108F10408A4E7082BE9D108F107088C
:1044D80028F0070808F10808EDE7059A013A05925F
:1044E80058F8042B009210E7039A900720D54FF054
:1044F800010CA4EB050E4FEA9E00BEF5007FCFD25B
:104508000F2FCDD8F5B107F140020DEB020E019A3D
:10451800C0B20EF8200C0EF8102CBCF1000F3FF4BE
:104528001AAF60F07F000EF8200C09F1010901377D
:10453800C5F108024FF6DA7E0434069297E74FF089
:10454800000CDAE7BCF1000F01D00136EFE7029862
:1045580002360028EBD10098CDE90631FDF782FB41
:10456800DDE906310644E2E7631BB3F5806F97D2B5
:1045780045B9A6F10804E018B1E600BF74010200CD
:10458800F4530200029A9B0828602B709DF81030A3
:10459800C2B1EB7085F80290B9F1000F05D0002286
:1045A80008A8C5F1010C97420ED14FF0000AC5F1D9
:1045B80001030DF1200801930DF1300B574512D17D
:1045C800601B8CE66B70E5E710F8013B190608D50F
:1045D8000CEB040EB64503F07F033FF67EAE04F8FD
:1045E800013B0132DFE7B9F1000F03D098F9002051
:1045F800002A17DB029BD3B11AF80B2004F8012B11
:104608000022019B18191044B0423FF666AE98F894
:104618000000009904F8010B204603921BF06DFB83
:10462800039A14440AF1010A08F10108C6E798F848
:10463800002055F822300093029B009845F822305C
:10464800FDF710FB421CDCE76FF00D0047E600BFEA
:104658002DE9F04F97B000AFD7F880B03B62CBF3AD
:10466800C0030446894690F802A0FA62BB6141B9CA
:10467800457800780AEB800020444D4517D8A0EB18
:104688000409E378FB61BAF1000F02D01BF0010FB7
:1046980016D1FB6953BBFB6A1BB1494620463A6AEF
:1046A80098474D4628465C37BD46BDE8F08F461C06
:1046B8003046FDF7D7FA0130304409F10109DCE74B
:1046C800626823787A62FA6A9900796104EB830157
:1046D800002A40F001810E464FF000084D4601EBDC
:1046E8000A094E454CD101EB0A0610E01BF0020FF7
:1046F800D1D023789A007A61626804EB83017A62E8
:10470800FA6A002A77D14D46904601EB0A061BF05B
:10471800050F0CBF02230123FB62FB6906EB430A6A
:104728000BF00203BB625645BCD016F8021B16F804
:10473800013C54F82390994B994502D3984B9945DD
:1047480036D3BB69002B40D0786A15F065FA00288B
:104758003BD0E9468AB06A46924B53617B6AC2E90C
:1047680006314FF4007313848F4B42F8103F002337
:104778004FF412518D4801F0B7F8023DCD46D2E70B
:1047880016F8013BF96254F82300FDF76BFAD7F8E5
:104798008430F96A01304BB1D7F8883098453EBF6C
:1047A800D7F8843023F8180008F10108054498E781
:1047B800BB6923B1786A15F02FFA0028C9D11BF01C
:1047C800010F05D1FB6AED1AADE7BB6A002BAAD031
:1047D8004846FDF747FAD7F8843053B1D7F8883000
:1047E80098453FBFD7F88420431C22F8183008F1B9
:1047F8000108054497E7BAF1000F73D01BF00406CF
:1048080073D0D046002607F1480052463B61B96292
:104818001BF073FAB96A3B6901EB0A02BA62FA69DA
:10482800F9695200FA60BA6A02EB41023A610BF088
:104838000202BA603A69B96A8A4258D162781BF0B2
:10484800020F18BF00217A6208BF4FEA5801B21858
:104858001BF0010FD2B240F09F801BF0040F14BF71
:1048680040460020BB616270A070E17020463A6A41
:104878007969FB6A9847051EFFF614AFBB69414684
:1048880023707B6A3A6A6370FB6984F802A0E3705C
:1048980007F14800FB6A9847B0F10008C0F2BA80F7
:1048A8007B69A9EB0A01C91AFB683A6AC91AD7E9F0
:1048B8000A0398470028C0F2AF804FF0000BA844C5
:1048C80008EB000507F1380AB34571D300213A6AAD
:1048D8000846FB6A9847E5E656464FF0000807F198
:1048E800380092E75646D04696E7B04694E7BA6A4B
:1048F80012F8021B12F8015CBA6254F82500274A24
:10490800904202D3264A90421ED3BA6932B1786ADD
:104918007B6015F081F97B6800288BD1BA6802BBEF
:1049280008F1280207F1300C08F10100944407F15E
:10493800580208F1020852FA80F00CF8101C5FFACD
:1049480088F800F8105C75E7BA693AB1786A7B6054
:1049580015F062F97B6800287FF46CAF1BF0010F3B
:1049680009D006F1280207F13000711C161806F864
:10497800205CCEB25EE71BF0040F3FF45BAF08F19A
:10498800280207F1300008F1010102EB000808F8DD
:10499800105C5FFA81F84DE7002063E774010200BC
:1049A800F45302008E1F02000400000130090200C7
:1049B8001BF80A3054F8239087F83730D7F884303A
:1049C8002BB3D7F888309B4521D2D7F8843033F8F9
:1049D8001B8001213A6AFB6A07F1370098470028D3
:1049E8001ADB0544B8F1000F06D14846FDF73AF93D
:1049F80000F101081FFA88F8414648463A6AFB6AFE
:104A08009847002808DB05440BF1010B5CE74FF0E1
:104A18000008DEE7454645E6054643E6014B1860D3
:104A2800704700BF7802002080B505460E4617463D
:104A380098460EF0AFFB03461BF08EFB0446DFF8EA
:104A48001890424649F8003039463046A84754F88D
:104A5800090001F08BFE00BF080000002DE9F047B7
:104A6800058B04462807904611D4022905F007054E
:104A780040F0CC80204615F07EFB78B10138218BC0
:104A8800042811D8DFE800F0C2106D8595000129CF
:104A98000CBF45F0100545F02005258388F31188E3
:104AA800BFF36F8FBDE8F08701F0070AAA4500F051
:104AB800A5800027B9463E46A368002B00F0BC80BD
:104AC80041F00801218388F31188BFF36F8FA16833
:104AD800002900F0BA800D68002900F0B68033463E
:104AE80052462046D1F80480C047002D76D02B6866
:104AF80029461D46F0E701F007035A1F012A1BD873
:104B0800002221F00701062B276889B2C4E9002298
:104B180009D13B4603E0628B013262831B68002B9C
:104B2800F9D141F002012046218315F024FB002829
:104B38007AD041F0200176E0042B0AD121F0070158
:104B480089B22046218315F016FB10B141F02001EF
:104B58002183218B01F0070AAA454FD00027B946C7
:104B6800AAE7236921F0070141F00601062DD3F8D1
:104B7800009021832DD1B9F1000F3FD041F00801F9
:104B8800218388F31188BFF36F8F20463949C847BE
:104B980029E021F00701236941F0040189B2042DBD
:104BA800D3F804902183E6D000274FF0040A3E464C
:104BB80082E721F00701236941F0050189B2052D3B
:104BC800D3F808902183D6D000274FF0050A3E4637
:104BD80072E700274FF0060A3E466DE72B4687E747
:104BE800B9F1000FD1D1EFF31188202383F3128894
:104BF800BFF36F8F238B23F008032383258BEA06EB
:104C08002ED525F01003238305F007056669218B4F
:104C1800002EBFF670AF00232768C4E9003321F0E7
:104C2800070141F001012183218B4FF0000901F0B8
:104C3800070AAA457FF440AF002F9CD041F0080135
:104C4800218388F31188BFF36F8F002FC8D03D6888
:104C5800394633465246204615F0B9FA2F46F4E74E
:104C6800AB067FF51BAF25F02003238305F007056E
:104C780000E700BF03A2010010B530B90B480C498A
:104C880015F084FB6FF0150010BD836833B9074831
:104C9800084915F07BFB6FF00400F5E71B6813B1BA
:104CA800BDE8104018471846EEE700BF500902005B
:104CB800422002005320020010B530B90B480C49BD
:104CC80015F064FB6FF0150010BD836833B9074811
:104CD800084915F05BFB6FF00400F5E75B6813B15A
:104CE800BDE8104018471846EEE700BF500902001B
:104CF800422002005320020070B508B101B132B958
:104D08000B480C4915F042FB6FF0150070BD846824
:104D18000CB1E56835B90648074915F037FB6FF05F
:104D28000400F3E741F8040BE368BDE87040184756
:104D380050090200712002005320020010B50446F9
:104D480030B91048104915F021FB6FF0150010BD5F
:104D5800006830B90B480D4915F018FB6FF00100D9
:104D6800F5E783680BB11B6933B90648084915F0A4
:104D78000DFB6FF00400EAE7616898470028E6D168
:104D88002060E4E7500902009D200200AE200200E6
:104D98005320020070B51346044630B91048114933
:104DA80015F0F4FA6FF0150070BD006830B90C48C2
:104DB8000D4915F0EBFA6FF00100F5E782680AB1CA
:104DC800956835B90648094915F0E0FA6FF004000E
:104DD800EAE70A46AC466168BDE87040604700BF34
:104DE800500902009D200200AE200200532002005C
:104DF800034A13680BB9526813600020704700BF5C
:104E08007C02002030B50C460E4985B00291D0F8DE
:104E1800D4110546CDE9003100F1F0014FF0FF3320
:104E280020460CF043FE50B9012384F86C30D5F8C5
:104E3800D03123B1204605B0BDE83040184705B051
:104E480030BD00BF8DA4010038B50C46114605469B
:104E580015F01AFB034638B92846044915F014FB27
:104E680003460020236038BD0120FBE7001F020035
:104E78002DE9F04F01238146056946688FB005F595
:104E88006B77D7E8EF2F002A03D1C7E8E13F002965
:104E9800F7D10CBF1A46002240F0BB80B368B16A54
:104EA80005F5F8781C1F104615F075FB844279D873
:104EB800013A00F0A880B2FA82F24FF00044D440E0
:104EC80072682046073222F00302C5F83C22B16A14
:104ED80015F061FBC5F84002B36A404663430333EB
:104EE80023F0030302EB4302230103EB44030933DA
:104EF80023F0030303EBC403C5F834221A44083231
:104F0800C5F830227368C5F83842C5F82C32424BD0
:104F1800C5E9AD63316800F0F1F9044600283FD1D6
:104F2800D9F810B0D9F804A0D9F800300BF53479C5
:104F3800059004934846DAE90734012B08BF103C72
:104F48001AF094F8DAF82400344904AB009301EB22
:104F58008021234648464FF480620DF0FFFC202153
:104F6800DAF824302E4A06A813F0E2F806A94846D3
:104F78000DF0D4FD2B490BF530701AF030F8DAE952
:104F8800050183685C684CB15B46274AA047044624
:104F980030B9DAE9050183681B692BB96FF057044A
:104FA800002129E001327EE70122984704460028C3
:104FB800F6D11E4B2846C5F8D0311D4BC5F8D43163
:104FC8001C4B0393D5F840320293D5F83C32CDE917
:104FD800008305F51173B26AD5F8A81300F056F9E5
:104FE80004460028DCD105F1F0000CF005FE00288D
:104FF800C5F8B0030ADB0221384615F079FA2046D5
:105008000FB0BDE8F08F6FF00B04C9E76FF015041F
:10501800C6E76FF07704F2E7E3A4010058450020E3
:10502800D3200200C9A40100BDA401004150000022
:1050380075A6010029A5010013B5044640B1002357
:105048000122CDE90032074BD0E909120CF002FD2C
:10505800236F1B6823B1606F02B0BDE8104018478A
:1050680002B010BD001F020013B5044608462169AE
:1050780001F56B71D1E8AF1F022910D193B1A0B12E
:105088000121CDE900311346D0E909120CF0E2FC08
:10509800074B984208BF6FF00B0002B010BD6FF0CD
:1050A8000F00FAE76FF04C00F7E76FF00100F4E744
:1050B8002EF8FFFF2DE9F34789461546066906F5E0
:1050C8006B73D3E8AF3F022B64D1136823B96FF039
:1050D800150002B0BDE8F0871B78002BF7D0D6F892
:1050E800A8A3BAF1000F36D106F5EC774FF0FF32DE
:1050F8004FF0FF3338460DF05FF930462A6801A9B2
:10510800FFF7A2FE019C80461CB9384615F0EEF95F
:10511800DDE705F108032367AB6984F86CA06367D2
:10512800646460B1384615F0E1F921463046A36E53
:105138002A68FFF767FE0020C9F80040C9E71F2268
:10514800296804F148001AF029FE384684F8678077
:1051580015F0CCF9EFE73046104915F095F90446FB
:105168000028B4D0002705F108030367AB6980F86D
:105178006C70436740641F22296848301AF00EFE9D
:1051880022460121304684F8677000F061F8002853
:10519800D1D09CE76FF00F009BE700BF001F020013
:1051A80010B50C46006900F56B73D3E8AF3F022BCE
:1051B8000FD189B10A4900F5307019F03CFF20463B
:1051C80019F039FA7822002120461AF0BDFD002096
:1051D80010BD6FF00F00FBE76FF00100F8E700BFAC
:1051E800CC2600202DE9F04F05460E4690460027B4
:1051F800D0F8C4A085B0AAF5BE7421463046FCF7A5
:105208001FFDE0B9114BA4F1480B0293DAF81030F6
:105218003246CDE9008329464FF0FF335846AAF5B8
:10522800E2790CF043FC60B97823012203FB079371
:1052380083F86C20DAF80C300BB15846984778346C
:1052480017B105B0BDE8F08F0127D6E7A3A6010086
:105258001FB5144690B18AB1012912D10A4B00F149
:10526800F0010293D0F8D431483201934FF0FF3364
:10527800204600930CF01AFC04B010BD6FF0150026
:10528800FAE70020F8E700BFA3A601002DE9F043E4
:1052980087B00E46DDE90E811446DDE910251F466C
:1052A80030B329B3DFF850C000F1F009002D08BF72
:1052B80065469EB9CDE9034400F5E274204605969B
:1052C80019F051FC03ABCDE900432A463B46414661
:1052D80048460CF00BFD07B0BDE8F08300224146BC
:1052E8000E9248462A4607B0BDE8F0430CF04EBE81
:1052F8006FF01500EFE700BFED510000F0B5044670
:105308002B4A87B004AB0E4692E8030083E80300FB
:10531800002C49D018460CF0A3FA0546B0B94FF056
:10532800FF33E16C04F15407A163CDE90100009358
:105338003846236D04F1380218F02FFEA06C15F0E2
:10534800DBF9C4F8BC0020B96FF00B05284607B09C
:10535800F0BDA06C15F0D0F9C4F8C0000028F3D057
:10536800236CD4F8BC10C4F890300423C4F89430EB
:10537800C4F8AC300223E3620E4BB4F84820C4F8FA
:105388008C10616C236204F18C03C4F8A070A4F83B
:105398009820C4F8B870C4F8A810A4F8B020C4F8CD
:1053A800A400A6612363D1E76FF01505CEE700BF1F
:1053B800140A0200880F02002DE9F0470446074648
:1053C8004FF00109DFF8508014B93846BDE8F0877E
:1053D80094FAA4F5B5FA85F509FA05F32E0108EB58
:1053E80005156FEA030A24EA03042B7B002BEBD094
:1053F80058F806301B694BB946447368042228469E
:10540800196807EA0A0715F0DFF9DDE72846984723
:105418000028D9D1F0E700BFA809020030B5002262
:1054280089B00F490F4819F0FEFF0022002300241D
:10543800CDE906230E230C4DCDE903344FF4407219
:105448002846CDE90144094B094900940DF0DCFBDD
:10545800084928460DF062FB204609B030BD00BF60
:1054680081540000F8100020380C002095570000E7
:1054780058490020DF20020001480DF097B800BF0E
:10548800D80600202DE9F047804621480F4615F040
:105498007FF90646002833D000252846BDE8F08766
:1054A800237B83B12368DB680BB120469847636888
:1054B80083F8069023681B69D3B9636804222046E1
:1054C800196815F081F9013610345445E8D3B8F15C
:1054D800000FE2D0002DDFD02846FFF76DFF05460C
:1054E800002FF7D000214FF4A47019F0C8FEF1E79F
:1054F800204698470028E0D009FA06F31D43E2E762
:1055080005464FF00109034CDFF80CA0DDE700BFAA
:1055180004270020A8090200B8090200014B53F82B
:1055280020007047C80F020008B5034608462BB193
:10553800044A136000F06EFC002008BD6FF01500EF
:10554800FBE700BFA802002010B5044C237813B96C
:1055580003480DF02BF80123237010BD984200205A
:10556800D806002010B50446094815F011F93CB1D9
:10557800084BD3E8EF1F0139C3E8E21F002AF8D12E
:10558800054819F05CFFBDE8104004480DF00EB85E
:10559800FC26002000270020F8100020D806002054
:1055A80000200146034BD3E8EF0FC3E8E21F002AAF
:1055B800F9D17047FC26002070B5FFF7F1FF0546CA
:1055C800074C084EB44200D370BD63685B792BB1B9
:1055D80023685B6813B12946204698471034F1E7E1
:1055E800A8090200B809020010B5044C0449204675
:1055F80014F05AFC034B1C6010BD00BFA00500202E
:10560800B40F0200F426002000230D4A10B51370D1
:105618000C4A4FF4004113600B4A0C481360FFF723
:1056280083FFFFF7E1FF0A4B0A4918468B4200D374
:1056380010BD1A1A5C681211013222711033F5E795
:1056480099420020FC2600200027002095A7010091
:10565800A8090200B80902000146002200230148F7
:1056680014F043BCA0050020014814F0DCBC00BFC6
:10567800A0050020024B0146186814F028BD00BFA1
:10568800F4260020014814F05DBD00BFA0050020ED
:1056980070B5274B1878002849D0FFF7E5FF054675
:1056A800002841D1234B244C1B68002B19DD19F02D
:1056B80073FE4FF47A72A0FB020302FB0131C30BA5
:1056C80043EA4143D4E900209B1A40F2E9324FEA09
:1056D800D13161EB0001934271F1000101D3FFF771
:1056E8006BFFD4E9003213F57A7342F10002C4E982
:1056F8000032BDE87040FFF7C5BF63685B7923B12E
:105708002368294620461B6898471034B442F4D3CE
:105718002846FFF7AFFF094BD3E8EF1F0139C3E86D
:10572800E21F002ABED0F7E7054C064EEEE770BD33
:1057380098420020FC260020F010002000270020BE
:10574800A8090200B809020070B50D4D297861B9A1
:105758000120FFF797FE0B4C0B4EB44206D3FFF720
:1057680097FF0028FBD101232B7070BD63685B791C
:105778001BB1236820469B6898471034EDE700BFAB
:1057880099420020A8090200B809020000212DE969
:10579800F0470846FFF776FE044658B340F26768BC
:1057A8004FF000091AF0D8FC1B4B1C4A1B58136019
:1057B80033B11B4B1B68092B02DD1A480CF0F6FEAF
:1057C8000025194FDFF85CA044B12046FFF7F4FD2F
:1057D800044618B94FF0FF384FF0FF39FFF758FF6C
:1057E800064628B9B5B942464B4650460CF018FF54
:1057F8003546E9E74FF0FF384FF0FF39D2E72B681D
:105808009B691BB100222846114698471035BD42B6
:10581800F5D3E8E7054DFAE708000000F826002070
:1058280000270020D8060020B8090200A8090200B5
:1058380013B5184814F0ACFF174B1B7873B1EFF38E
:105848001184202383F31288BFF36F8FFFF720FFA3
:1058580084F31188BFF36F8F02B010BD0F4B1B6824
:10586800002BF9D050B9002200230D48CDE90023C0
:105878004FF4004200230DF0ABFFEDE70928EBD110
:10588800074819F0DCFD074802B0BDE810400CF0ED
:105898008DBE00BF0027002099420020F826002076
:1058A800F8100020D806002010B5064B04461B68E7
:1058B80098472146A060044814F096FBBDE81040C4
:1058C800FFF7B6BFA8020020A0050020044A054B38
:1058D8009B1AB1EBD30F34BF52F831000020704748
:1058E80078080200A80902002DE9F04F8FB0C1F333
:1058F8004A2804AF0D469146B8607B600C0DB8F19C
:10590800000F63D000264FF0040B4FF00A0A07F18E
:105918001403C7F80C80C7E907667E620193CDF8C7
:1059280008B0CDF800A007F11C0332464846F968D4
:10593800FEF78EFEB0F5006F03461CD36C468AB0A6
:10594800D9F8041004AB26481A46C3E9050140F209
:10595800FF71D9614FF400711984224B42F8103F4E
:105968004FF4125133462048FFF7BEFFA5462C37A7
:10597800BD46BDE8F08FC0F30A0804F117001844CB
:1059880020F0070080083B60FFF766FE68F35325A8
:10599800044690B13B6800F11001C7E9083607F1E9
:1059A8001403F961CDE900A3CDF808B048460F4AC1
:1059B800F96807F11C03FEF74BFE68F353252A46E6
:1059C80020467B68B96814F01EFFD0E704F1170081
:1059D80020F007008008FFF73FFE0446EDE700BF10
:1059E800F42002000400000158090200E3A70100A6
:1059F8002DE9F04F87B00446DDE9105ADDE9127948
:105A0800934698460391BFB13B4652461021002069
:105A1800CDF80090CDF81490FEF748FCB0F5006F73
:105A280006460AD340F2FF730221174A174807B007
:105A3800BDE8F04F14F040BF3E4605F11700304472
:105A480020F007008008FFF707FE04F007040BF0BA
:105A5800070BE40044EA8B1444EA462444EA05545C
:105A6800054640B13FB13B4652463146CDF800901D
:105A78001030FEF71BFC434622462846039907B020
:105A8800BDE8F04F14F0BFBE3321020058090200F0
:105A9800406820B1034BC01A40F3CF0070474FF065
:105AA800FF307047780802000EB403B503AB53F813
:105AB800042B01460448019301F08CF902B05DF80B
:105AC80004EB03B0704700BF23A90100CA0605D440
:105AD8008B064CBF02490349FFF7E6BF704700BF7A
