:020000040100F9
:10000000B07C0021D5BD01015D1E0201C1BD010111
:10001000C1BD0101C1BD0101C1BD01010000000060
:1000200000000000000000000000000031BF0101DE
:10003000C1BD010100000000D1BE0101C1BD01012F
:10004000A1C00101A1C00101A1C00101A1C0010124
:10005000A1C00101A1C00101A1C00101A1C0010114
:1000600029250201A1C00101A1C00101A1C0010116
:100070003F250201A1C00101A1C00101A1C00101F0
:10008000A1C001010F250201A1C00101A1C0010110
:10009000A1C00101A1C00101A1C00101A1C00101D4
:1000A000A1C00101A1C00101A1C00101A1C00101C4
:1000B000A1C00101A1C00101084B1B78002B4FF02A
:1000C0000003836018BF0222036008BF0122044BB3
:1000D0004360FF23C2710372704700BF780900219B
:1000E00028010800064A074B9B7802604FF41672FD
:1000F000C37100238280082203728271704700BF9F
:1001000051AE010178090021064A074BDB780260F5
:100110004FF43472C371002382800822037282710B
:10012000704700BF5BAC010178090021064A074B0C
:100130001B7902604FF4B472C371FF2382800822DE
:1001400003728271704700BF27A80101780900215E
:100150002DE9F341C41D0028064624F007040CBF16
:100160000020204600F0CAFF071E04DA6FF00B00E3
:1001700002B0BDE8F0810EB9FC42F7D4364D698972
:10018000288903316B7B03302A7B89B280B217F058
:10019000ADF90028EADB3C44A978EB78002E04F1A5
:1001A0000304194424F0030400FB01F10CBF0020F8
:1001B000204601F02DF920440EB90028D6DB2B791A
:1001C0000446B3B1697D19446B791944FF29CDDC2C
:1001D0000330002E2A8AC9B220F003040CBF00208D
:1001E000204601F085F90028C0DB04440EB9002C3C
:1001F000BCDB012000F078FFC8B1A97BB9B195F84C
:100200002C300734002B24F0070415BF402325238E
:100210004FF481722822002E14BF2046002006F0E1
:1002200035FF0028A2DB04440EB9002C9EDBAB7C1A
:10023000DBB12B7993B10734002EA97C24F007049D
:100240000CBF002020460DF039F900288EDB044455
:100250005EB9002C09DA89E778090021012000F055
:1002600043FF10B1AB7B002BE5D1724B1B6893B100
:10027000A97981B10334002EEA7C24F003040CBF79
:100280000020204698470028FFF670AF044416B9B6
:10029000002CFFF66BAF684B1B688BB1297D79B1E1
:1002A0000334002E24F003040CBF0020204698479E
:1002B0000028FFF65BAF044416B9002CFFF656AFDA
:1002C0005E4B1F68B7B1697DA1B10334002E2B7E50
:1002D00024F0030408BF0020009318BF2046EB7DE4
:1002E000AA7DB8470028FFF641AF044416B9002C98
:1002F000FFF63CAF072000F0F7FE98B1A97989B16D
:100300000334002EAA7E24F003040CBF00202046F4
:1003100001F0DCF90028FFF629AF044416B9002CDF
:10032000FFF624AFB6FA86F795F825007F09A0B14D
:100330000334EB7F297F24F0070419443B4644F043
:100340000404C9B2224601F003FA0028FFF60EAFFA
:10035000044416B9002CFFF609AF95F826100029C1
:1003600059D00734002E2A8D24F007080CBF002036
:10037000404617F0D0F8041EFFF6F8AE444416B914
:10038000002CFFF6F3AE1EB1298D404612F028FD79
:1003900095F82010002940D095F82430002B3CD04F
:1003A0006A8C0734002E24F0070802F124020CBFE7
:1003B0000020404692B217F0AEF8041EFFF6D6AE0B
:1003C000444416B9002CFFF6D1AE0334AB7F297F2D
:1003D00024F0070495F8240019443B4644F0040433
:1003E000C9B2224601F0A6F90028FFF6BFAE0444C8
:1003F00016B9002CFFF6BAAE3EB16A8C404695F8AD
:100400002010083292B212F0F1FC2B6B5BB176B186
:100410002C630020ACE68846B5E7002EF5D000221C
:1004200011461046EFE7002EF3D12046A0E628340F
:10043000FBD59BE6600000216400002168000021DC
:100440001FB572B6194B5D6BE5B9BFF34F8F1849F5
:10045000184BCA6802F4E0621343CB60BFF34F8FBE
:1004600000BFFDE7B4FBF6F4D3B20132002CF9D1A2
:1004700003F110026A4402F80C4C0A2233B901A8B5
:10048000A847E2E7044600220A26EDE7013BDBB27B
:1004900003F110040DEB0406B0FBF2F402FB1400B0
:1004A000303006F80C0C2046E8E700BF7809002140
:1004B00000ED00E00400FA0513B5114C6846637BBB
:1004C0008DF80130237B8DF800306389ADF804305E
:1004D0002389ADF802300AF0A3FD18B1E8219C2071
:1004E000FFF7AEFF207E0AF0FFFD08B1EB21F6E733
:1004F000E07D0AF0F3FD08B1EC21F0E702B010BD99
:100500007809002138B5054600283ED015F0ACFF2B
:1005100010B94FF0FF3038BD13F022F8B0F5FA7F74
:10052000F7D81C4C1C486563002500F059FD2A22B1
:100530002946A01C84F83850257084F82C50256377
:1005400016F0A4FA1B2240F201132281628140F2CC
:10055000032263800123A28103222371A2731F223D
:10056000A376F72322824FF402726384FB23628214
:1005700044F601122385E282EFF3108472B601F093
:10058000F7F82CB962B62046C5E76FF01500C2E750
:100590002846C0E778090021B904000138B514469F
:1005A000002840F0B9805E4D95F83830032B00F0FC
:1005B000B080B1B112B96FF0150038BD01391429FE
:1005C00000F2AA80DFE801F00B1C1F345E67853A59
:1005D0006A6D7F404654598B8E9C9FA2940013787D
:1005E000AB700020FFF7B4FD0028B7BF0123022342
:1005F0006FF00B0085F83830A8BF85F83830DCE79D
:100600001378EB70EDE71379002BD4D05379002BDE
:10061000D1D01288FB2ACED81A2A6388CBD91B3BAB
:10062000E02BC8D82368A288AB603E4B9A80D8E7FD
:1006300013786A799342BED32B71D2E713782A7963
:100640009342B8D86B71CCE713782A799342B2D829
:100650006B75C6E71378002BADD05378013BDBB246
:10066000F82BA8D813889278EB822F4B9A70B8E7B2
:100670001078687610F0EAFCB3E71378002B9AD074
:10068000AB76AEE7012000F02FFD237808B1012BF7
:1006900091D9AB73A5E713882B82A2E71378AB71CE
:1006A0009FE7072000F020FD10B92378012B82D9A5
:1006B000072000F019FD18B12378002B3FF47BAF21
:1006C0002378EB748DE71378082B3FF674AF2B7506
:1006D00087E71388FF2B3FF66EAFAB7481E7137883
:1006E000EB767EE713780E2B3FF665AF2B7778E736
:1006F00023680E4A2B62636853602389138170E775
:1007000013786B776DE71378EB776AE71378AB773D
:1007100067E74FF0FF3050E76FF02C004DE700BF68
:1007200078090021800900218E0900219809002103
:10073000F8B50D46064630B329B311F0070422D1AF
:10074000124F97F83830012B02D16FF00B00F8BD33
:10075000032B02D14FF0FF30F9E700F0CBF800286F
:10076000F8D02846FFF7F4FC0028EEDB10F074FC0C
:100770003046396B0AF074FDFFF79EFE03232046D6
:1007800087F83830E3E76FF01500E0E778090021DB
:1007900010B5074C94F83830032B03D10AF07CFDD8
:1007A0000BF0D6FE16F0FFFF002084F8380010BDD5
:1007B0007809002150B1074B03F1140253F8041BD0
:1007C000934240F8041BF9D1002070476FF01500E8
:1007D000704700BFF43D0201074B10B593F8384055
:1007E0003CB90AF0CFFC0320044900F075FC204618
:1007F00010BD4FF0FF30FBE7780900212D0100010B
:10080000074B10B593F838403CB90AF0CFFC0220F2
:10081000044900F061FC204610BD4FF0FF30FBE7BB
:10082000780900210901000108B50C4B93F8382024
:100830008AB993F82C305BB10AF0F6FC0849012024
:1008400000F04AFC0020074900F046FC002008BDEB
:100850000AF0CEFCF2E74FF0FF30F8E7780900210C
:10086000B9000001E5000001054B10B593F83840D0
:100870001CB917F0E7FF204610BD4FF0FF30FBE733
:1008800078090021054B10B593F838401CB917F0D2
:10089000DCFF204610BD4FF0FF30FBE77809002158
:1008A000054B10B593F838401CB917F0D1FF20461E
:1008B00010BD4FF0FF30FBE778090021054B10B564
:1008C00093F838401CB917F0C5FF204610BD4FF013
:1008D000FF30FBE77809002102680020014B1A6015
:1008E000704700BFB4090021014B1B68184700BFC7
:1008F000B4090021024B1868003818BF0120704766
:10090000B4090021F7B504462D4E071D2C48376069
:100910000BF03EFE0228054606D12949204616F076
:1009200016FA284603B0F0BD042842D13378092BCB
:100930000AD0262B1ED03146204600F043F8B0F5F1
:10094000817F2DD3722112E005213E2016F0D2F9CD
:100950000028F0D1F37801A93279684643EA0223EE
:10096000ADF8003016F0A6FB0028CFD053210820A8
:10097000FFF766FD1A213E2016F0BCF90028DAD1F7
:100980007368694601A8C3F30F23ADF8043011233F
:100990008DF8063016F0A8FB0028B7D06521E6E7F1
:1009A0000028B3D0A178207816F0A4F90028B8D197
:1009B000ACE70828B5D10249204616F000FAB0E7A6
:1009C000B80900212DE9F8430B7805460C46013B98
:1009D000832B00F29B82DFE813F09A009E00A200B6
:1009E000530199021B01210127012D013301370118
:1009F000390149014F0184009902A7009902AB0017
:100A00003D0143015D0163015701990269019902AA
:100A10007C01AC01B201B8019902BE01CA01D0014A
:100A2000990200020E0236021402280230021A0253
:100A300022027102770285028B023C0242026002AE
:100A4000480299029902990299029902990299021F
:100A500099029902990299029902990299029902BE
:100A600099029902990299029902990299029902AE
:100A7000990299029902990299029902990299029E
:100A8000990299029902990299029902990299028E
:100A9000990299029902990299029902990299027E
:100AA000990299029902990299029902990299026E
:100AB000990299029902990299029902990299025E
:100AC000990299029902990299029902990299024E
:100AD0009902990299029902990299024E025402CE
:100AE0005A020E23B1F803200B7042F283039A429C
:100AF00009D10623637066782146284602363246BD
:100B000016F05AF85AE03521C720FFF799FC0C235C
:100B10000B700823EEE71A230B700123EAE73E234C
:100B20000B700223A370E6E73E230B700B23F9E75B
:100B3000292000F045FA28B13E2323702223637058
:100B40002923EFE70A2000F03BFA3E2305F10802D3
:100B500004F108012B70A0B30A23AB70E378EB70AB
:100B6000A3882B71A3881B0A6B71A379AB71E379FE
:100B7000EB71A368AB608B8893801F22D4F80E3092
:100B8000C5F80E30638A6B8263696B61238B2B839C
:100B9000638BAB76638B1B0AEB76A38B2B77A38BD4
:100BA0001B0A6B77E38BAB77E38B1B0AEB7794F82D
:100BB000203085F820306A70023296B23046BDE8A7
:100BC000F8830123AB70E378EB70A3882B71A388C3
:100BD0001B0A6B71A379AB71E37903F00103EB712D
:100BE000A368AB608B8893801322638BAB73638B9A
:100BF0001B0AEB73A38B2B74A38B1B0A6B74E38B05
:100C0000AB74E38B1B0AEB7494F820302B75D2E79E
:100C10003E230B7004234B70142383E73E230B7099
:100C20000C234B7004237DE73E230B700A234B708B
:100C3000032377E73E230B700D234B70052371E7E9
:100C400005232370042355E70823FAE730230B70AC
:100C500003234FE73E230B700B234B70072361E701
:100C60003E230B7006234B700C235BE713230B70A2
:100C70008B789B0001333DE757230B70022339E744
:100C80003E230B700D234DE73E230B7001234B7069
:100C9000112347E73E230B7006234B70122341E7D5
:100CA0003E230B7009234B7013233BE73E23037055
:100CB000242000F085F9002815BF24230E231326D5
:100CC0000F263246A11CE81CAB7015F075FF721C94
:100CD00071E73E230370252000F072F9C0B125238F
:100CE0000A26AB70D4F80230C5F80330D4F80630C9
:100CF000C5F807306389A5F80B30F01CE27A04F1DF
:100D00000C01284415F058FFE27A0132324452E7D0
:100D10000F230726AB706388A5F8033023796B7126
:100D20006379AB71A379EB71A37A2B72E37A6B725F
:100D3000E3E73E230B7003234B701023F2E63E23C0
:100D40000B7005234B702023ECE63E230B70092328
:100D50004B702123E6E63E230370262000F030F995
:100D6000002815BF2623182317261326A9E73E239C
:100D70000B7004234B702723D4E63E234FF000086A
:100D800081460370282346468370D1F8023049F823
:100D9000033FAA795FFA88F39A4205D8721D92B28E
:100DA000002A3FF4A8AE06E7B21D331D08F1010882
:100DB000A118A25809EB030049F80320063131F8C5
:100DC000023C063020F8023C10F8017C3A46063717
:100DD00015F0F2FE3E44B6B2DBE73E232A200B704C
:100DE00000F0EEF818B12B2363702A239AE61D2336
:100DF0006370192396E63E230B7007234B701A236A
:100E000090E63E230B7014234B7022238AE63E2388
:100E10000B700B7C5B000F334B701D2382E63E236F
:100E20000B7003234B701E237CE63E230B700B7D5F
:100E30005B0013334B701B2374E63E230B700323BC
:100E40004B701C236EE63E230B7005234B701F2353
:100E500068E6FF230B700B234B70A22362E6FF238F
:100E60000B7005234B70A3235CE6FF230B700D234F
:100E70004B70802356E6FF230B700D234B708223AB
:100E800050E6FF230B7002234B7083234AE6FF23B7
:100E90000B7004234B70842344E6FF23C21C0370B1
:100EA00081238370D1F8033003F1280153F8040B38
:100EB0008B4242F8040BF9D129227CE63E230B70C9
:100EC0000C234B7023232DE6124B1B78002B14BFF1
:100ED000FF233E230B704FF00E034B7014BF85238E
:100EE00037231FE63E230B700A234B70352319E688
:100EF000084B1B78002B14BFFF233E230B704FF0D1
:100F0000FE034B7014BF86232B230BE640F26221B5
:100F1000FAE500BFBC0A0021074B4FF0FF3141F654
:100F2000FF72C3E9001205490022C1E900221F2116
:100F3000C3E90212704700BF00000021C00A00216F
:100F40003F280CD801380B4BC0F3421200F01F00B1
:100F500053F8223023FA00F000F001007047FF2818
:100F600006D04038044BC0F3421200F01F00EFE7F8
:100F70000120704700000021C00A0021074B0146F4
:100F8000006849681A4603C240F48C221A6041F096
:100F9000107242F4FF625A60704700BF00000021E7
:100FA0000246024B0068516803C37047C00A002123
:100FB0000246024B0068516803C3704708000021D5
:100FC0000138064BC0F3421200F01F0003EB82030E
:100FD0009B6823FA00F000F0010070470000002138
:100FE000014B1860704700BFC80A002110B5FFF719
:100FF00093FF16F084FE034B04461B6803B1984729
:10100000204610BDC80A002170B50C88C27CA6B26B
:10101000C4F30E04931C058804F118021D44825A7F
:10102000ADB21A4443882A44013AB2FBF5F202FBFE
:10103000054292B29342044B8BBF3340B3431343F8
:101040009BB20B8070BD00BF0080FFFF4A1E062AC6
:1010500008B50346084604D84FF4D1711520FFF7B0
:10106000EFF9094A914202D940F2A311F6E711B90A
:1010700003B1196008BD2BB11B680022C3E901212F
:101080001A1D1A600430F5E7FAFFFF7F10B5114B07
:1010900000EB41041A786389B3FBF2F303FB0223EC
:1010A000013A1A44B2F5706F027928BF00231A443E
:1010B0008378B2FBF3F0194403FB1020091AB1FB4B
:1010C000F3F003FB101313446FEA43436FEA5343F7
:1010D000638110BDCC0A0021024B03EB80035960F1
:1010E000704700BFCC0A0021034B03EB8003586814
:1010F000003818BF01207047CC0A00212DE9F04FBD
:1011000010F0070A85B0054604D040F2611117209F
:10111000FFF796F9544F04464FF0010B07F14C06C8
:10112000B146B04657F8043B8DF80BA03BB101A87F
:1011300098479DF80A30082B01D9E821E7E79DF888
:101140000B1081BB05B13160B94506F10406E9D148
:101150002DB30023DFF814E112221E468EF8003072
:1011600058F82200013A60B190F804A08178BAF1F1
:10117000FF0F64D14FF000078E4207713CBFCEB223
:101180000123511CECD10BB18EF80060122640F601
:10119000FF6A58F82670002F63D1013EF9D2601B18
:1011A00005B0BDE8F08F9DF80AC04A1DBCF1020FE2
:1011B000E64604EB420438BF4FF0020E53000EF136
:1011C000FF300444CEF100002040BDF808406444E4
:1011D000CCF1000C013C04EA0C04B4F5803F01D3CF
:1011E000F82194E775B1C31A336099701C8083F8B5
:1011F00003B09DF80C201A71019A4FEA124C1A8123
:10120000A3F806C004FB01049EE758F82C90B9F13E
:10121000000F06D099F804B0D34504BF99F80290A6
:101220004F440CF1FF3CBCF1000FEEDA3944FF29CA
:10123000A2D90BB18EF8006040F2271167E79446FF
:101240000027F0E707EB410309F101093846A3F84D
:101250000AA0FFF71BFF5FFA89F1BB788B42F1D838
:101260009BE74FF00009F6E7D00A0021CC0A0021E5
:10127000F8B54FF6FF7305460380184B03EB810367
:10128000186DB8B186780379B3FBF6F206FB12331A
:10129000DBB219460A1D00EB4202B2F90270548813
:1012A000002F09DB0131B1FBF6F206FB1211C9B2C6
:1012B0008B42EFD10020F8BDFF29FBD0C4F30E0311
:1012C000C4782B8024B94FF4D5711720FFF7B8F8F4
:1012D0005380BDE8F84016F0E8B800BFCC0A002102
:1012E0001D4B03EB810370B51C6D054644B303042D
:1012F00004D54FF4DC711720FFF7A2F80146204611
:1013000016F0B6F8FF28014604D02046BDE870402C
:1013100016F0CBB8A078B5FBF0F300FB1353DBB2AB
:1013200019460A1D04EB4206B6F90260002E09DBDD
:101330000131B1FBF0F200FB1211C9B28B42F0D1C6
:10134000002070BDFF29FBD08B4204EB42021CBF82
:101350000023E3705580D8E7CC0A0021094B03EB4A
:101360008103014610B51C6D204616F081F8FF2858
:10137000014604D02046BDE8104016F096B8002083
:1013800010BD00BFCC0A0021F8B5104B074603EB97
:10139000810301461C6D204616F06AF8FF280546B9
:1013A00011D0E688238953EA064606D00146204636
:1013B00016F07BF801463846B04720462946FFF72D
:1013C00065FE0020F8BD0520FCE700BFCC0A002127
:1013D00038B50E4B0446827903EB8203186D08B9C9
:1013E000052038BD8278E1799142F9D24B1CE37136
:1013F00000EB41035D89B3F90A30002BF3DBA580D4
:1014000016F053F820600020EBE700BFCC0A002163
:1014100070B5044610F003000E4603D04E2118208C
:10142000FFF70EF8FFF712FE054624B103483146D8
:101430000460FFF70BFE284670BD00BF680B00215B
:101440002DE9F14FDFF870B01E4607460D46DBF878
:10145000003090469DF828A09DF82C901BB9602183
:101460001820FEF7EDFF52460921404615F082FE96
:101470004A4684B20921304615F07CFE81B2DBF881
:101480000000214415F0C9FF386018B9286001B088
:10149000BDE8F08F04445346414609222C60386869
:1014A00015F02CFE4B4609223146286801B0BDE8F4
:1014B000F04F15F023BE00BF680B002170B50E463B
:1014C000044615F06AFE0546304615F066FE044BEC
:1014D0002A1821461868BDE8704015F0C2BF00BF49
:1014E000680B0021014B186815F08BBF680B0021B9
:1014F0001F2AF8B5044613460ED89200033222F094
:101500000303B3F5803F2DD2184DACB1A00710D026
:101510005F210920FEF794FFFF2B4FEA420204D916
:10152000FF339A42A8BF1A46E8E77C2AB8BF7C225C
:10153000E4E729706C602B8122F003022823012745
:10154000120403FB01F06B680025120CEEB28E4210
:1015500000D3F8BD14B126181F705E601044013529
:101560002833F3E74FF0FF30F3E700BF6C0B0021A7
:10157000144A002138B553681478C8B2844203D89D
:10158000AB210920FEF75CFF1846013128330578AE
:10159000002DF2D000218170012412898161051D86
:1015A00044709208C16100F12001446821F8022BC7
:1015B000994245F8044B1444F8D100234361037069
:1015C00038BD00BF6C0B00210A4B1B89B3F5FF7FB0
:1015D0004FEA930006D25A089B1A9BB2984238BF32
:1015E00018467047B3F5EE6F01D8FF22F4E740F2DA
:1015F0007263F3E76C0B00212DE9F8434B788046CA
:101600000C4602F0040602F0FB07D3B1DFB12E4B0B
:10161000D4F804901D89B7BB0123AD084A46211DAB
:10162000637004F1280004F12003A761E76123F847
:10163000025B984241F8042B2A44F8D100236361ED
:1016400001E0002FE3D0FF23A370002E18BF022675
:10165000A3191B7D032B03D1022F1CBF0136F6B249
:10166000A31901221A7506F10C02002304EB860669
:1016700024F812307268A3704046C8F80020A8F819
:101680000430BDE8F883002114226170A01815F021
:10169000FDF9B5F5FF7F0FD26B08ED1AADB209EB7E
:1016A0000502C4F804902584A2606384C4F80C90F9
:1016B000A5842261E384C6E7B5F5EE6F4FF0FF0322
:1016C000EBD940F27265EAE76C0B00212DE9F84393
:1016D00005460C46F7200521914615F04BFD061EE8
:1016E00022DB1DB906FB04F0BDE8F88315F0030703
:1016F00003D098211920FEF7A3FEDFF83480C8F844
:101700001050A5B2A8F81460BBB29D42EAD9B8F84F
:1017100014C04B46D8F810000522F72107FB0C0037
:10172000013715F0EBFCEFE74FF0FF30DCE700BFCF
:10173000800B002107B5CDE900230B460349024683
:10174000081D16F00AF803B05DF804FB980B0021A1
:1017500013B5064CCDE900230B46024604F10801FF
:1017600004F10C0015F0F9FF02B010BD980B002138
:10177000144B012200214FF0FF309A60C3F8001291
:10178000C3F80803C3F80015C3F804259A60C3F82A
:1017900008034FF48040C3F80015C3F8042503F58F
:1017A000805341F6F8720849C3F80825C1F8800053
:1017B000BFF34F8FBFF36F8FC1F88001C3F80825C7
:1017C000704700BF00E0004100E100E08C46342299
:1017D000064B00B50CF8032B8E4607CBCEF8030062
:1017E000CCF80410CCF808205DF804FBB40B002101
:1017F00010B5154C10F00EFD0FF0D8FD0021636AF6
:10180000608C9847237E9BB9104B628C93E8030051
:101810000BF0DEFEE36A18880BF004FE636B94F8AD
:10182000301094F831009847002384F8383010BD08
:1018300094E8070004F10C0383E80700044904F16D
:10184000190018F052F8DFE7A80B0021D00B002197
:10185000CD170001034B93F8383003B97047FFF7F9
:10186000C7BF00BFA80B00214FF48E61062008B54A
:10187000FEF7E6FD08B5094B93F83820022A07D198
:10188000DA7A42F00102DA72BDE80840FFF7B0BF31
:1018900040F231212720FEF7D3FD00BFA80B002125
:1018A00038B5354D044695F828300BB1C2071FD422
:1018B000012924D82B6C2046984700B395F83000B6
:1018C000E8B995F82820E2B18CB995F84430D806EB
:1018D000C3F300142ED4AB6C23B30123AAB16A8FD7
:1018E000910713D5EB6BD878023818BF012038BDAB
:1018F0006B8F1B07DCD5EB6BDB78022BD8D101207B
:1019000038BD002CE1D1204638BD6A8F002AF6D1BF
:101910002A6D107803EA10102043C0F1010000F096
:10192000010038BDB5F84C30B3FA83F35B09002AE7
:10193000EBD0D4E7E96B0B7803F00303032B09D159
:10194000CB78022B15D0686D15F0A6FC95F82820F1
:101950000446C0E7686D15F09FFC38B909F0CAFE6F
:1019600080F0010095F82820C4B2B4E795F828204B
:10197000B1E70024AFE700BFA80B002170B5264CEB
:101980000646E56A236D95F8942094F85C00A365FB
:101990000AB1031DD8B2FF2895F8751004D11EB9FD
:1019A00095F874308B4203D010F00EF995F894201E
:1019B00062B3206E10F046FD94F82830D5F8F02080
:1019C000003B216E626718BF0123D5F8F420A06D9B
:1019D00084F87C30A2670FF087FC5EB995F875300B
:1019E0002A8F033B012B94BF28200020104480B293
:1019F00010F0C6FDA88E10F063F895F87410002062
:101A000010F022FE022384F8383070BDA06D10F073
:101A100019FD0FF0CBFCE0E7A80B00212DE9F04702
:101A20003D4C82B094F83830012B6DD15FFA83F9C8
:101A3000E56AE36B064695F884200F4693F800802C
:101A400093F801A008F0030872B1638F002104200D
:101A500043F0040385F884106387636A984794F819
:101A600028300BB185F88690B8F1030F38D0BAF161
:101A7000000F31D0022385F88A3095F89430F3B105
:101A8000E36A94F8282093F87530003A03F1FF33A5
:101A900018BF0122DBB284F87C20D5F8F020032B9C
:101AA0006267D5F8F420A26794F85C2031D81B490E
:101AB0000020CB5C0090012019490FF0ABFB012FF7
:101AC00005D126B931463046FFF7EAFEB8B102B07B
:101AD000BDE8F047FFF78CBE012385F88A30CCE7DC
:101AE00095F88A303BB9638F0220E16B43F0020323
:101AF0006387636A9847032385F88A30BDE702B09D
:101B0000BDE8F047FFF73ABF40F2DC412720FEF77F
:101B100097FCFFF7A9FE00BFA80B0021083E0201B9
:101B20000C0C002170B5814E002282B0F46A8DF851
:101B3000052094F8942096F85C300AB10433DBB2A7
:101B4000FF2B94F8741004D118B994F875308B42B7
:101B500002D0FF2010F038F894F88A30032B00F2FE
:101B6000E080DFE803F0021C796996F8BA3070482B
:101B7000ADF80630A4F8643009F096FD002840F076
:101B80009F800DF105020DF10601706D15F02CFB23
:101B9000F06320B194F8CF30002B00F0A680654BA5
:101BA0001846F36394F88B200378D20003F0030502
:101BB00003F0F30302F00802032D43EA020394F852
:101BC0008C204FEA820202F0040243EA020303F08F
:101BD000EF03037052D1C278022A06D0706D15F05F
:101BE0005BFB002852D1F06B0378037043781BB184
:101BF00094F89330002B4ED110F024FC0FF0D6FB5C
:101C00000AF0B4FD032D01D100286AD1E08E0FF057
:101C100057FF94F87510012010F016FDF26B0123A8
:101C200045491088927886F8BC30A6F8440086F8BA
:101C300038308A7002B070BD3D4809F035FD00288B
:101C400065D0F06BC3781B2B14D1012104F1100077
:101C50000FF0F8FFF06B0DE0B4F864300DF1050201
:101C60000DF10601706DADF8063015F0BDFAF063A8
:101C7000002851D0012386F8BB3093E7706D15F032
:101C80000BFB18B909F036FD0028ACD1F06B0378D6
:101C900043F01003A9E7306E10F0D4FB96F828301B
:101CA000D4F8E820B3FA83F3F16B72675B09D4F8D8
:101CB000EC20306EB26786F87C300FF015FB9FE7A2
:101CC000738F4FF48070F16B43F48073726A738783
:101CD00090470121F06B84F88510C3781B2BC9D184
:101CE000B4E7012011F0BEFD90E79DF8053033B157
:101CF000BDF806200123427086F8BB3052E703800E
:101D000001218370F06B17F03AFDF06BF0E740F2C1
:101D1000DB212720FEF794FB40F2D1212720FEF79C
:101D20008FFB40F2E9212720FEF78AFBA80B002158
:101D3000E40B0021300C0021EC0B00210D4B0E4A6E
:101D400070B50E4C1A6094F838301BB1ED21272085
:101D5000FEF776FB03F0FF0206460D4622760BF0F7
:101D60002FFC012104F1880017F009FD2665256686
:101D700070BD00BF6C000021C4260001A80B00212B
:101D8000074A10B592F8383013B10C24204610BD24
:101D900003F0FF0414760BF013FC204610BD00BFC7
:101DA000A80B0021024B012283F8BD20704700BF21
:101DB000A80B0021F0B585B0BB4C02AD85E803004F
:101DC00094F838100A98002940F06781002B18BF5A
:101DD000002A00F06281B0FA80F14909002800F081
:101DE0005C81236404F12803606384F8BD1084F8E7
:101DF000301084F8BE1084F8311084F8BC1084F8D8
:101E0000BB1061876184626295E8030083E8030088
:101E1000E56A0FF04BFF0FF0C9FA95F97C0010F05E
:101E20007BF8A86A10F0F2FA286A10F07BF895F8AF
:101E3000A40010F081F894F82800002800F0B48085
:101E400095F875209C21012010F088F9974B984E49
:101E5000186810F0E1FAD5F8F800D5F8FC10E76A38
:101E6000D5E905236265C4F8C030D5F80021D5F85E
:101E700004310FC6D5F80831D5F80C21C4F87D30EF
:101E800097F88E30C6F80D20A3F12602012A40F201
:101E90009B8097F88F20262A00F09680213B012B0B
:101EA00000F2E380242A40F0D28094F82830002BFE
:101EB00000F0DE8097F86D2097F82E3197F8746067
:101EC00013405A0700F1CD8013F0010240F0DE808C
:101ED0009B0700F1D38005F13C073146384617F0E7
:101EE00070FD314617F0CCF8B5F84830024695F849
:101EF00075103846934228BF134684F8BA3017F05D
:101F00002DFD95F8751095F894700429B5F850607A
:101F100008BF032117F0B4F80FB9043080B2B04203
:101F200028BF3046C6B284F8C4600AF01FFC0028FF
:101F30007FD194F8280084F85C6000285BD195F884
:101F40009330E3B195F87430012295F87E10013B8F
:101F500084F87C200029D5F8E820DBB218BF0420E3
:101F60006267032BD5F8EC20A26700F29B80514AF0
:101F70000021D35CFB2200914D490FF04BF9012069
:101F8000FFF7D0FD0023B5F8880095F8A420A360E2
:101F9000C4E90033AB6F29886080218022710BB1C6
:101FA00001221A6005B0F0BD95F87420414B03EB97
:101FB00042039988404B01F5FA71A3FB013189096D
:101FC0007D3110F0CBF841E794F82830002B37D161
:101FD00097F80A3297F87460002B3FF47CAFF21E3A
:101FE000012A3ED9DA1E012A3BD9012E3BD0012B12
:101FF00039D002266FE795F89430B3B1D5F8F030B8
:1020000001206367D5F8F43084F87C00A36795F865
:102010007530013BDBB2032B44D826493246CB5CFA
:102020000021009122490FF0F5F80120FFF7A6FCEE
:10203000A8E70AF0A1FBB04238BF3046C6B278E745
:1020400097F89A3297F87460002BC8D143E794F858
:1020500028306BB197F82E3197F8746059077FF5E7
:1020600033AF042637E7012635E7242A3FF41DAFB6
:1020700097F87460032E08BF04262CE7F31EDBB22A
:10208000012BEED9012E18BF022624E7F31EDBB286
:10209000012B8CBF164604261DE74FF4BE71272086
:1020A000FEF7CEF9FFF7E0FBA80B00216C00002142
:1020B0000C0C0021083E0201D34D621008B5124BF2
:1020C00093F8382092B193F8282022B993F8383049
:1020D000012B14D108BD93F83820022A0AD1DB6AFB
:1020E000D3F8D801BDE8084010F01CBABDE808409C
:1020F000FFF77EBB40F213212720FEF7A1F940F243
:102100000F212720FEF79CF9A80B0021FFF770BBD9
:10211000014B1876704700BFA80B0021014B93F8C4
:10212000BC007047A80B0021034B93F8BB0010B90B
:10213000588CC0F300307047A80B0021024B588C1C
:10214000C0F3C020704700BFA80B0021014B93F8DB
:10215000BE007047A80B00212DE9F0433B4C10F066
:10216000010983B00E46A56DE76A95F8018035D068
:102170000023800784F8C5301ED5A36C002B5AD0ED
:10218000B4F84C2018462946033214F015FD0DF121
:10219000020201A9A065D4F8C00015F028F9019841
:1021A00015F00BF9012230604146D4F8C00015F05B
:1021B000B3F8B9F1000F1BD0D7E93C3297F88C1077
:1021C000013342F100020129C7E93C320CBF002370
:1021D000012387F88C3003B0BDE8F08394F8C53054
:1021E000032B2DD8DFE803F024070202830718D45D
:1021F00003B0BDE8F0838207FAD5A36CDBB1B4F875
:102200004C2029461846033214F0D6FC002203461F
:102210004146D4F8C000A36503B0BDE8F04315F013
:102220007BB8D4F8C00003B0BDE8F04315F0DBB8CC
:102230008107DDD5A1E740F2CE412720FEF700F966
:1022400040F27A412720FEF7FBF800BFA80B0021DF
:102250002DE9F04FBF4C87B0002394F83820E56A91
:10226000022ACDE9043340F01C82638C884607467D
:1022700013F0400106D1636A40209847638C43F015
:1022800040036384A26D92F80190002F00F0A880B3
:10229000167895F89430C6F3C00A002B40F062819E
:1022A0001FFA89F1A4F84C10002940F06C81A16458
:1022B000628CC6F3800395F88B1042F40072994249
:1022C000628400F0F280D4F82CB09BF88A30DBB145
:1022D000022B00F09B81002194F828308BF88A10A3
:1022E00023B19BF88630002B40F086819BF8853027
:1022F000002B40F066819BF88B30628C012B0CBF69
:10230000002301238BF88B3095F88C1042F4006287
:102310004FF0000B06F003035145628400F0CD80BE
:1023200003930AF023FA039B032B14BF002600F04B
:102330000106002E40F03E8195F89330B246002B06
:102340007AD1B8F1000F40F09E8094F8BE100120C1
:10235000FFF7A6FA002840F09680BAF1000F40F08F
:10236000E980FFF7DFFBBBF1000F09D094F82830BC
:10237000002B40F0D480B4F809300133A4F80930C0
:10238000002F00F08780B4F805300022013384F874
:10239000BE20A4F8053070480BF032F8049830B134
:1023A00015F00BF8E16A002202720AF03BF9059B76
:1023B00033B1E16A00221A720C2205980AF000F982
:1023C000002E6DD1638C1B0607D4636A31468020D2
:1023D0009847638C43F08003638407B0BDE8F08FB7
:1023E00095F89420002A40F0B18043F48063638420
:1023F00094F8BE30013384F8BE3095F87530033B55
:10240000012B05D90AF0B2F90646002800F08480B5
:1024100001204FF0000A11F025FA0FF061FBB9F12D
:102420001B0FD34694BF00260126042818BF0026A0
:1024300095F89330002B84D094F8283095F87E20BE
:10244000B3FA83F3002AD5F8E8204FEA531314BFF8
:102450000420002084F87C3095F874306267013BDA
:10246000D5F8EC20DBB2A267032B00F21F813B4AB8
:102470003B49D35C00220092FB220EF0CBFEB8F168
:10248000000F3FF462AF10F02FF9BAF1000F3DD109
:10249000012668E7B4F807300133A4F807307AE77B
:1024A000FFF7A6F907B0BDE8F08F95F88C10BB4692
:1024B00006F0030351457FF433AF032BE66A68D17E
:1024C00042F480520120A16D6284628F86F88400FC
:1024D00042F0010203936287626A9047039B96F879
:1024E0008C20013A18BF012286F88C20B9F1000F28
:1024F0003FF416AFD6F8F0200132C6F8F020D6F837
:10250000F42042F10002C6F8F42009E705A90320EF
:102510005646FFF721FE26E78246834688E7B4F851
:102520000530B4F80710B5F888200B4313433FF487
:1025300027AF20E705A90120FFF70EFE4046FFF771
:10254000F1FA05A90220FFF707FE0CE70EF096FF4F
:10255000638C4AE7A80B0021D00B0021083E020142
:102560000C0C00210EF04AFFB9F1000F3FF498AEB9
:1025700000287FF495AE95F88C30534578D01FFA3B
:1025800089F1A4F84C10D4F8C00014F0A6FEA064A1
:102590008EE6002BA3D0B9F1000F49D196F88C300C
:1025A000CA46013B18BF012386F88C3000260AF08A
:1025B000DDF83DE74FF0000A012011F053F95646CF
:1025C00036E700218BF8851009F07EF800210028FD
:1025D0006ED0638F082043F008036387636A9847CF
:1025E000DBF8E8300133CBF8E830DBF8EC3043F1CE
:1025F0000003CBF8EC307EE6638F10208BF886105A
:1026000043F010036387636A98476FE604A9606D1F
:1026100014F00CFE002850D0DBF8E8300133CBF882
:10262000E830DBF8EC3043F10003CBF8EC3052E655
:1026300042F4805296F8946062840FF051FA0428B4
:1026400094F8C43006D1002E14BF1B221F229342DF
:1026500028BF1346994511D8A36CEBB194F8BD304F
:10266000C3B1636A002120204FF0000A98479DE71C
:10267000012384F83130FFF7BBF8AEE694F8303030
:1026800001204FF0000A43F0100384F8303011F0BD
:10269000E9F88BE7BA4689E79A460AF067F85646A2
:1026A000C6E640F25F512720FDF7CAFEFFF7DCF8CF
:1026B00040F22B412720FDF7C3FE40F214412720B2
:1026C000FDF7BEFE75180001512200011D1A000120
:1026D000551800012DE9F843002800F0E480044675
:1026E000072900F2D380DFE801F0AB2525A7D12030
:1026F0009ECD0146204618F0A0F8D4F8443100F1F0
:10270000F6059D4240F2C780E81A0321402838BFF1
:10271000402013F009FB0346C4F8445120461D46EF
:1027200018F053F9002D00F09C802046BDE8F843D6
:1027300018F04CB918F0C2F80023D4F8142105465B
:102740000E4684F8403184F84931BAB150EA0103A9
:1027500014D0CA00C30042EA50721B1A62EB010295
:10276000D4F830115B18D4F8341142EB0102D4E9EB
:102770005401834272EB0103C0F09380022304F5FD
:10278000A07784F84831384612F038FD002800F070
:102790008E8094F8603103F0FF01002B6AD16FF056
:1027A0000043D4E956029A4208BFB0F1FF3F12D06D
:1027B0002046D4E9549818F040F8D4F85831F6304F
:1027C000D4F85C21B3EB090362EB08021B1A62F137
:1027D0000002002A4BDB394694F8100112F0FAFD92
:1027E00000286ED0D4E95401D4E94A32834272EB16
:1027F00001071FD255EA06071CD0C01A334661EB09
:1028000002012A4614F084F805FB01F1A5FB0053F0
:1028100000FB0616D4E94A213344551943EB010362
:10282000C4E94A5306E090F8100112F0C1FC0023FD
:1028300084F83831BDE8F883BDE8F8430FF068BF8D
:102840000BF0A6FFD4F84401DC3813F0C7F998B3B5
:10285000204618F071F800283FF44BAF204618F0DE
:10286000B4F8D4E95423C4E94C23BDE8F8832046E6
:102870000BF096FF94F8100112F09AFC002384F8F4
:102880003831AFE7FF213020FDF7DAFD40F20311C8
:102890003020FDF7D5FD2046C4F8445118F095F8D6
:1028A000DFE701236BE7E2213020FDF7C9FD40F2AD
:1028B000A4613020FDF7C4FD40F25D213020FDF71A
:1028C000BFFD4FF4D5613020FDF7BAFD2DE9F04F83
:1028D000044689B000201F460E46914694F875A024
:1028E000049016F08BF894F8C2310B2B00F26F8332
:1028F000894A32F8135094F88F302844442B85B21B
:1029000000F09B8294F88E800E2B18BFB8F1440F14
:102910000CBF4FF001084FF0000889F0010302934B
:10292000B9F1000F1AD0B4F8501204F50879B4F8D0
:1029300088B0711AA6EB0B0B09B20FFA8BFB0029BA
:10294000C0F27182384694F80432032B00F25E83A1
:10295000DFE813F0E401A801E800540094F8042231
:10296000032A14BF002308F00103002BDBD0B4F8C6
:102970009822B242D7D1B4F852222046B4F8DC11E2
:1029800003930A44C4F80022D4F80C22C4F8F821B6
:10299000E269C4F8FC210DF0EFF894F8AC22002AAB
:1029A00040F0FC82D4F8A092E269039B914506D0E6
:1029B0002088039318F0F5FAD4F8A022039B94F82A
:1029C0007E10002900F0E48241F64B51894540F227
:1029D000D98200234FF096112387616384F87E30FB
:1029E000D4F89C32E261E362B4F89A322386D4F8D8
:1029F000A4326362022384F8043294E7E26902FBA2
:102A000001F30493002F00F01B82B4F8DC51002D79
:102A100040F0168284F81B52D4F80CC20CFB113122
:102A200094F88E30262B049100F01D8294F88F309C
:102A3000262B00F0188200283CD0002D3AD1D4E992
:102A400090E0D4E98E237245834180F0DA8294F8D5
:102A50007500C31E012B40F28A82039110F0C2F868
:102A60004AF2A13CD4F840322C4D8444A3F18301B6
:102A700094F87500A5FB0C3CA0F1030ED4E98E235D
:102A8000BEF1010FA1EB020303991944A1EB9C11C4
:102A900040F2B182039110F0A5F800F2E730D4F8CB
:102AA0000CC20399A5FB0030B4F8DC518009014445
:102AB00010390491AB44AAF103030CFB0BFBDBB20E
:102AC0000BF1300B012B4FEA4B0B40F215825046B5
:102AD000124D10F087F84AF2A1330344A5FB0323FB
:102AE0009D09504610F076F80BF173031D4494F8DD
:102AF0007E3028440A4D2860002B00F00D8104AB85
:102B00002A465946E06916F0FFFA049B84F81B0236
:102B1000E269286871E000BF1C3E0201D34D6210DB
:102B2000700C0021E36A2946D4F8FC01184410F027
:102B3000DBFC2946C4F80802E06910F0D5FC94F8E3
:102B40007E30002B40F08D8194F875A0C4F80C0203
:102B50005046AAF1030A10F045F84DF64171BAF15A
:102B6000010FC74D01444FF001022046A5FB013182
:102B700094BF2823002303EB9111803116F081FFCD
:102B8000B4F8DC3113B9002F40F0B881D4F8FC312F
:102B9000E26A94F875B01344D4F80802ABF103016B
:102BA0001B1AC9B20493D4F8F8310129D4F80022D1
:102BB000B4F830A002FB03050AF1730A05F13005F1
:102BC0004FEA450540F24681584610F00BF84AF2AC
:102BD000A1330344AA48A0FB03239B09584603934F
:102BE00055440FF0F7FF039BE2691D44A54B2844B1
:102BF0001860012384F80432049BD4F80C52D4F8F2
:102C00004812551B6FF4B3721544854228BF054620
:102C1000C918D4F84C3204F13C00C4F8D85143F13F
:102C20000003C4F83012C4F83432002384F8203290
:102C300016F092FE0544A4F85062C4F82452D4E978
:102C40008C23C4E992230CF0DFF920B1D4F82432AC
:102C50001E33C4F82432B4F8C81100238E1B84F844
:102C6000283236B29E4202DD022384F82832B8F1BF
:102C7000000F40F00981002F40F0098194F80432E0
:102C8000002B40F02481494694F81C0212F0A2FB6C
:102C9000002800F0A181029B84F81832002009B0BE
:102CA000BDE8F08FD4F80C02E369D4F808221B1AAF
:102CB000D4F80052B4F8DCA1303203FB01F1D4F8AF
:102CC000F831D3446FEA050A03FB052594F8752013
:102CD000DA440491D31E00FB0A55B4F830A0012B4E
:102CE0004FEA45050AF1730A40F2B6801046039296
:102CF0000FF078FF4AF2A13303446148A0FB03239D
:102D0000039A4FEA931BAA4410460FF063FF5D4BF2
:102D10000AEB0B0528441860049B82E094F87510B8
:102D200094F8D60116F0D3F98246E06A2946504459
:102D300010F0DAFB2946C4F80802E06910F0D4FB71
:102D400094F87E30002B40F08A8005A9C4F80C026C
:102D500006A8DFF82CB10FF0CFFC059B0093DDE94E
:102D60000623D4E9920113F04DFA94F87530054624
:102D7000184603930FF036FF039B4DF64171012275
:102D8000033B01442046012BABFB013194BF2823B8
:102D9000002303EB9111803116F073FED4F8543206
:102DA000E26A94F87500049303920FF01BFF00F59C
:102DB0002340039AA130ABFB0031049BA3F19300A5
:102DC000D4F808321044C01A5044B4F830A0401B64
:102DD00003F1300594F875300AF1950AA0EB9110D3
:102DE000DA1E6D000490012A31D9184603930FF0C2
:102DF000F9FE00F52340A130ABFB003B039B4FEAFB
:102E00009B1B184655440FF0E5FE049BD4F8542252
:102E10005D441C499A1A2844B2F5A07F0860C0F0AE
:102E2000E080E269E9E600235946012084F81B327C
:102E3000D4E98E23C4E9922385E54FF001086CE5BF
:102E400094F81B52002D54D00E490868D5E64FF077
:102E5000650BD6E76523C1E64FF0650B53E70230FB
:102E600073E7023070E6B4F89832F31A1B043FF5AA
:102E7000E2AD94F89B32002B18BF9A46DBE500BF09
:102E8000D34D6210700C0021002F3FF4FCAEB4F85B
:102E9000F021CAB1B4F8F20194F8F41100FB011169
:102EA00001308A427FF7EFAE002B3FF4ECAE0023F7
:102EB000A4F8F20184F8283209F064FC00F007005D
:102EC000013084F8F401DEE6A4F8F221DBE6D4F860
:102ED0000C324846E169C91A16F0A1F883B2002BFA
:102EE0003FF4D1AE129A0120002A3FF4D8AE1380ED
:102EF000D5E6B4F8DC518FE56525F2E5E26AD4F851
:102F0000FC3194F8750003EB020A0FF06BFE4AF2F5
:102F1000A13394F875B0AAF1930A0344ABF103010D
:102F2000D4F80802A5FB0323C9B2D4F84022AAEBC7
:102F3000000A9B09012992440393D4E98E23AAEB4A
:102F4000020A1DD958460FF04DFE94F875B000F2F4
:102F5000E732D4F80802ABF10301A5FB0235C9B290
:102F6000AD09039BAAEB03022A4404921BE6AEF1CF
:102F7000E80E3C20D4E98E23AEEB020E714496E5B8
:102F80003C25EEE74FF04D1161630021218725E5D7
:102F900041F64B508145F5D90B461FE5208817F0C7
:102FA000FDFF18B3B4F8A822B4F898326286B4F8DA
:102FB000AA224381013B8281038294F87E30D4F8B7
:102FC000A022A0F80E90002B7FF403AD06E540F29E
:102FD000FB310620FDF734FA40F293513020FDF723
:102FE0002FFA40F2DE413020FDF72AFA40F23E711E
:102FF0003020FDF725FAB4F8DC513C20D4F80CC29F
:1030000055E540F232513020FDF71AFA40F24A51AC
:103010003020FDF715FA00BFF0B585B0002800F0AC
:103020000C810446072900F2FC80DFE811F07B00E8
:10303000080008006C00FA0099007100F60010F01A
:103040000FFCD4E98E23801A61EB0301012871F192
:103050000003C0F204816FF00102002382428B4121
:10306000C0F2F480E3690BB1B0FBF3F394F88F1076
:10307000442905D094F88E20433A012A00F2848036
:10308000B4F81612013189B2A4F81612B4F8C200CD
:1030900002ADB4F88830B4F852220344B4F8C0004A
:1030A000714E0132013BA4F852221B1A9FB23368C1
:1030B00053B101390022204689B29847B4F816125C
:1030C000014489B2A4F816127B1A18047ED4002396
:1030D000204600951A46FFF7F9FB08B3012840F097
:1030E000B080B4F81612B4F8C831CA1A120400F14C
:1030F0008A80BDF80830194489B23368A4F81612E2
:10310000002BD6D1E0E705B0BDE8F0400FF000BBE2
:1031100090F80432042B40F09E80002380F80432A3
:1031200005B0F0BD90F8183213B3B0F81632B0F80D
:103130008820934279D09A1AA0F88830A0F8CE213E
:103140002046D4E98C23C4E98E230CF035FC94F896
:10315000D331002BE4D005B0BDE8F04017F0B2BD8C
:10316000012010F07FFB05B0BDE8F040FEF7CEBFB8
:10317000B0F81432B0F88810B0F814225B1AA0F836
:103180008820A0F8CE31DBE70E293FF479AFB4F800
:103190008810B4F816220B449BB2D11A0D0454BF08
:1031A000531C01339BB2A4F8163294F81932B4F8C8
:1031B0001612002B7FF46AAFB4F8CC318B427FF447
:1031C00065AF013189B2A4F816125FE794F8922036
:1031D000012328460394002A8DF808300CBF3E23B3
:1031E000082384F8B13009F099FE204617F06CFDF1
:1031F000002394F81C0284F8043211F0D9FF202334
:1032000084F81C328CE7BDF80820114489B27A1A80
:1032100012F4004F18BF19466FE7D6213020FDF792
:103220000FF9DA213020FDF70BF9B0F8CC21D31AD1
:10323000A0F88820A0F8CE3182E7AA213020FDF73F
:10324000FFF840F276613020FDF7FAF840F21F6196
:103250003020FDF7F5F8D0213020FDF7F1F840F2ED
:103260001E613020FDF7ECF8700000212DE9F043DD
:10327000D0F81431002683B0054680F818610F4657
:10328000D0E9548983F8D62180F838610121D0F83B
:10329000140108F04FFED5F814413246314620465D
:1032A000C4E98E8995F81031C4F8547284F81C3240
:1032B000334684F80462A4F85062C4E99289009607
:1032C000FFF704FBD0B90123C4F80002C4F8F801E9
:1032D00084F80432A4F81602A4F8140284F819023F
:1032E000B4F88830A4F85202013BA4F888300FF0FB
:1032F00021F803B0BDE8F04311F086BD40F2FF11A4
:103300003020FDF79DF800BFD0F81401704700BFD2
:103310002DE9F043002385B00322FF26CDE90033D9
:103320008DF806206846FEF753F8044620BB009D42
:1033300095F83831002BF5D085F8606101212846D9
:1033400017F046FB95F83831002BEBD095F81001BB
:1033500012F064FA95F8100112F01CFE95F81001B5
:1033600011F026FF002840D085F838416846FEF766
:103370002FF804460028DAD0DFF8848001230025E6
:1033800002264FF6FF7788F804301EE0029B03B355
:1033900093F81C22202A1CD01888B8421FD0022182
:1033A000FDF7DCFF814628B390F81C0212F036FAD4
:1033B00099F81C0212F0EEFD99F81C0289F80442FB
:1033C00011F0F6FE202389F81C32CDE902558DF864
:1033D0000E6002A8FDF7FCFF04460028D6D00023AB
:1033E00088F8043005B0BDE8F08340F2EB113020DE
:1033F000FDF726F84FF49B713020FDF721F800BF50
:10340000700C0021044B002242F210715A71D980D5
:103410001A71FFF77DBF00BF700C00212DE9F84342
:1034200090F83831002B76D104468846014656483C
:10343000154603F0FF0711F087FE202806466AD0E4
:103440005822394604F5887013F020FB84F8106187
:10345000C4F81481FF2384F83831B8F1000F06D086
:1034600009F0A8F900F00700013088F8F401022300
:103470004FF00008A4F8483184F8408110F07AF841
:1034800000F1BC062046B6B217F056FA002846D026
:1034900015F0B4FA00F5CD6128464FF0010989B264
:1034A00010F022F82844C4F8440110F0D9F930187B
:1034B000A4F8268041F10001C4F8500184F8189165
:1034C0002046C4F8541117F04DFA002845D0A5F253
:1034D000F2454946204617F0B0F92D1AC4F81C51A0
:1034E0004FF0FF326FF00043C4E9562304F5A0719A
:1034F00094F8100111F06EFF00283FD02046002103
:10350000D4E95423C4E94A23C4E94C2317F060FAF0
:103510003846BDE8F8830C273846BDE8F8830146F5
:10352000204617F08AF9DFF86480F630C4F84401C9
:10353000B8F8060008B1E08CB8B9064410F090F96C
:10354000361841F10001C4E95461002DC8D0AE190C
:1035500041F10001C4E95661C8E7F63D484617F05D
:10356000D4FA2D1AC4F81C51BAE709F023F9B8F8B7
:103570000630B0FBF3F202FB1300DEE740F2CD11A0
:103580003020FCF75DFF00BFD5260001700C002144
:1035900090F838310BB90020704710B50446FF236E
:1035A00080F86031012117F013FA94F838310BB923
:1035B000002010BD94F8100112F030F994F81001B9
:1035C00012F0E8FC94F8100111F0F2FD20B1002394
:1035D00084F83831002010BD40F2EB113020FCF7A8
:1035E0002FFF00BF014B5871704700BF700C0021C6
:1035F00090F8602182B910B502F0FF0490F818210C
:1036000012B90122104610BDD0E947319942F9D9CB
:103610000BF0C6F82246F5E700221046704700BFBF
:1036200008B50EF083FA054B9A68824203D31879E5
:1036300080F0010008BD002008BD00BF700C002113
:1036400040F20B2108B516F025FAB0F5296F28BF16
:103650004FF4296080B208BD90F8D331002B73D1AC
:10366000F0B503F0FF0590F8043285B00446032B53
:1036700001D005B0F0BD10F0F3F8D4E98E23801A24
:1036800061EB0301012871F10003F2DB6FF001032C
:10369000834275EB01035ADBE369B4F88820002B01
:1036A00053D0B0FBF3F080B20132B4F8CC31104407
:1036B00080B2A4F81402B4F814229B1A1BB2002B97
:1036C000D7DD94F81C0212F0A9F80028D1D0FF230E
:1036D00084F81932B4F888500DF10E06B4F8C220FF
:1036E000B4F8C03015441F4F013DED1A3B68ADB230
:1036F00063B1B4F8141200222046013989B2984708
:10370000B4F81432184480B2A4F81402B4F8143295
:10371000EB1A1B04ADD4B4F8141200230122204686
:1037200089B20096FFF7D2F80028A2D0012813D161
:10373000B4F81432BDF80E2013449BB2A4F814322E
:103740003B68002BD5D1E1E770471846ACE740F263
:10375000C7513020FCF774FE40F20E613020FCF7B8
:103760006FFE00BF700000212DE9F043044683B0D6
:10377000062900F2C380DFE801F0041E0B1B242B96
:103780008000614B1B7903F0FF02002B00F09A8050
:10379000042384F804320EF0CDFD11F035FB002334
:1037A000B4F88820A4F85232A4F8162284F819320A
:1037B00003B0BDE8F083032380F8043203B0BDE812
:1037C000F0830EF0E1F9C4E9900103B0BDE8F083A5
:1037D00011210088FDF7C2FD94F87530002800F033
:1037E0008180022B7CD064D8012B40F083800A308A
:1037F00080884FF4A977B8428CBFC01B0020D4F852
:103800000C52E3692A1893425AD95B1B1D1ADFF840
:10381000F89099F805301BB9E36B9D4228BF1D460F
:10382000D4F8D86104F13C0016F096F806EB0008D5
:10383000022012F011FA0221A5EB080525EAE57530
:10384000854228BF0546284612F06EFA00B9A84402
:1038500001233A464146204616F002F9E269D4F8BF
:10386000D831C9F80800D01812F0B8F900289FD153
:1038700040F28A313020FCF7E3FD90F8755028467D
:10388000033D0FF0AFF94DF6417102461F4B012D7C
:10389000204611444FF00102A3FB013194BF2823BD
:1038A000002303EB9111803103B0BDE8F04316F023
:1038B000E8B8033B012B1DD8408C4FF4BD779AE745
:1038C0000025A4E7B0F8CC1101230092FEF7FEFF1B
:1038D00000283FF460AF40F2DC613020FCF7B0FD1F
:1038E000143085E7033B012B94BF4FF4BD774FF4B1
:1038F000A97784E7CD21B420FCF7A2FD4FF4F36152
:103900003020FCF79DFD00BF700C0021D34D6210EC
:10391000012A70B5064609D0022A14460D461ED06B
:103920004AB140F2C2713020FCF78AFD0EF0FEF879
:10393000C6F8540270BD0EF0F9F82246014628463A
:10394000FFF794FC32460F4995F810010FF074FF11
:103950000028EFD140F2AB713020FCF771FDD0F8B8
:10396000541201222846FFF781FC3246054995F89A
:1039700010010FF061FF0028DCD140F2BC71302053
:10398000FCF75EFD19300001F8B5044651B101297C
:1039900060D1002380F818310EF0CCFCBDE8F8406F
:1039A00011F032BAC58C002D4CD12046D4E94A76AC
:1039B00016F084FF40194FF0000341F10001C019D7
:1039C00084F840314FF0020346EB0101C4F8500186
:1039D000C4F82801C4F85411A4F84831C4F82C11D3
:1039E00094F8603103F0FF01002BD5D16FF0004354
:1039F000D4E956029A4208BFB0F1FF3F0CD104F55A
:103A0000A07194F8100111F0E5FC0028C4D140F237
:103A1000FB613020FCF714FD2046D4E9545616F023
:103A20000CFFD4F85831F630D4F85C215B1B62EB04
:103A300006021B1A62F10002002AE0DA20460AF0B0
:103A4000AFFEA9E708F09EFEE58CB0FBF5F303FBA3
:103A50001505AAE740F2D2713020FCF7F1FC00BF57
:103A600090F83801003818BF01207047014BD8800A
:103A7000704700BF700C002106220B4603F8032B91
:103A8000B0F809C0C27AA1F803C09A70704700BFAD
:103A90004FF42E71322008B5FCF7D2FC10B582B07D
:103AA00090F8DE3073B903F0FF02ADF804209DF802
:103AB000042000209DF8053062F3070063F30F2017
:103AC00002B010BD36380C4604F058F91822042311
:103AD0002270ADF80430EAE770B5002865D0437A6B
:103AE00004460D46002B3FD000214089FDF736FCEF
:103AF000064600285ED0008807F096FD0021308839
:103B0000FDF742FC00285AD194F8546094F8A6308E
:103B10002BB194F8A7301E43002384F8A63020462A
:103B200004F02CF9B30730D113212B4604F109021C
:103B3000293403F8031BD2F800C0103252F80C6C81
:103B4000103352F8080C52F8041CA24243F810CC6F
:103B500043F80C6C43F8080C43F8041CEBD11178C3
:103B600000221970AA7170BD036DD0F80E20C3F841
:103B70000320428AA3F80720427B036D12F0FD0F59
:103B800014BF012200229A70BEE7002226F004062C
:103B90002046114684F8546004F0A2FF0028C3D1E7
:103BA00040F221313220FCF74BFC40F2013132204F
:103BB000FCF746FC40F20D313220FCF741FC40F2AC
:103BC00011313220FCF73CFC044B00221B68A3F8A7
:103BD000212183F8232183F8702070477C0C002179
:103BE00008B508F067FA034B18700EF013FB0320BA
:103BF00008BD00BF1000002108B508F05BFA024BB9
:103C0000024601201A7008BD1000002138B5114C81
:103C100020686C3003F0ACFA656803F059FA636809
:103C20002860186858B103F081FA68B10EF00AFCF8
:103C300000200EF0A5FC636804221A7138BD40F222
:103C4000EC413220FCF7FCFB40F2EE413220FCF765
:103C5000F7FB00BF7C0C002108B508F02BFA0449E3
:103C60000246044B48681A7003F0F4FA012008BDBC
:103C70007C0C002110000021F0B5534C00220E46B0
:103C80000546236841F2707083B0196D5A72CA6993
:103C9000B1F800C0A3F80AC0A2F57A7C844540F2CE
:103CA00086804A48A0FB0202C2F38F221A848A8CC3
:103CB0005A84CA8C9A844FF47F42DA844FF6FF729A
:103CC0001A85002D69D00121304615F05DFC32784F
:103CD000D209236893F8481009B1002A3DD1207B0E
:103CE000002108285961198343D003F10E0203F122
:103CF0000D0107F089FF002861D023685A7B03F18A
:103D00001A0742F002025A73002D40D103F17800E5
:103D100002683A608288BA8093F95810186D08F0EA
:103D2000ADF920682A4915F0D7FD236829491A6D95
:103D30001088A3F8330003F12A0092F8962083F844
:103D4000352015F0D2FD2068022105F079F82068B1
:103D50006C3003F00DFA03B0F0BD427902F0C002FE
:103D6000402ABCD102685A618288207B1A830828C5
:103D7000BBD193F87E109A6FB3F87C005973002181
:103D8000C3F80E205882C3F81A10D983C4E7002163
:103D9000304615F0F9FB2368BAE7A068694615F0CC
:103DA000ADFAA36868461A78C2F3801291E70A4810
:103DB000A0FB0202920902F5506292B276E741F24C
:103DC000F7313220FCF73CFB7C0C00215917B7D1AE
:103DD000D93A0001793A0001D34D621040F2923194
:103DE000322008B5FCF72CFB10B504788CB004F039
:103DF0000F0402A9224603F0CDFC08F05BF9234A28
:103E0000042C107002D003200CB010BD204C03997C
:103E1000236891F800E093F878C0E645F3D191F873
:103E200001E093F879C0E645EDD191F802E093F80E
:103E30007AC0E645E7D191F803E093F87BC0E64508
:103E4000E1D191F804E093F87CC0E645DBD191F82C
:103E500005C093F87D108C45D5D193F87E309DF840
:103E600019109942CFD17F280DD04FF07F0C0090D0
:103E700002A9606882F800C0237C227B03F0F4FB77
:103E800003200CB010BDFFF7A9FF00BF10000021F8
:103E90007C0C00212DE9F04F054687B006290BD890
:103EA000DFE801F0A630100A0A0A0400B04C60688E
:103EB0008379002B40F0C5800EF0ACF9032007B0E9
:103EC000BDE8F08F0EF0A6F9A94A136893F85410D4
:103ED0008F07F3D0506881790029EFD0A54C94F971
:103EE00000107F2900F0EF8102912946127B7F2587
:103EF00042330192FF2200920222257003F00CFB54
:103F00000320DCE79A4CAE7C60682168012E83793F
:103F100090F80790059391F8483083F0010B00F07A
:103F2000AB80002691F85420374612F0040300F0CD
:103F3000AB8091F84DE0BEF1000F00F0A58091F844
:103F40004E80B8F1080F40F0A28091F84180002720
:103F5000404623B36A6891F85BC092F800E0E645FA
:103F600000F04B814FF0000A62685279082A05D0B0
:103F700091F84EC0944508BF4FF0010A002F40F061
:103F8000E280BBF1000F40F032813846B9F1000FFA
:103F900040F0DB800EF03EF9236893F8542093073D
:103FA0008CD00EF037F9059B002B87D02068AB68CA
:103FB00000F14201AA7C90F8410014F0A6FF17B965
:103FC000002800F058816B4E96F900307F2B00F0EE
:103FD0007A8102932946237B0122CDE90083D4E92B
:103FE00000307F244233347003F096FA032066E7F2
:103FF0005F4C2368606893F85420570719D5C2793D
:10400000002A56D06A6893F85B1016788E4200F04A
:10401000C98093F85620012A00F0A68093F84E300C
:10402000082B03D042799A4200F09E800EF0F2F8FD
:1040300060688379002B40D1C379002B7FF43EAFB9
:104040003AE7236893F85420960760D5494A92F9D5
:1040500000107F2900F0378102912946257B4233E9
:104060000195FF2500957F251570062203F054FA6F
:1040700000230920237422E7AA68527902F0C002C3
:10408000402A7FF44EAF4DE790F8058059E740464F
:1040900007F0C8FC002818BF8346002F40F0DB80E3
:1040A000216891F8418091F85420404602F00403C1
:1040B0004FE78379002B3FF4FFAE236893F8542039
:1040C000960759D4D0077FF5F9AE510700F1F48077
:1040D000284B93F900207F2A00F0F5807F20029280
:1040E000227B29461870FF2023680192002200904D
:1040F0004233606803F010FA03206368DA79002A1B
:104100007FF4DDAE9B79002B7FF4D9AED4E6D107E6
:104110007FF5D2AE530700F1CC80164B93F9002007
:104120007F2A00F0D0807F200292227B29461870DF
:10413000D4E90030FF24019242330622009403F0B8
:10414000EBF90320BBE6012020E7236893F8563003
:10415000012B06D0002B7FF41DAFBAF1000F3FF406
:1041600019AF00283FF416AF0A2007B0BDE8F08F62
:104170007C0C002110000021544A92F900107F2984
:1041800000F0A18002912946257B42330195FF254D
:1041900000957F251570002203F0BEF90123092048
:1041A0002374AAE7567893F85C108E427FF431AFFF
:1041B000967893F85D108E427FF42BAFD67893F803
:1041C0005E108E427FF425AF167993F85F108E4211
:1041D0007FF41FAF517993F8602091427FF419AFBB
:1041E000697C93F85A2091427FF413AFBCE74231C7
:1041F000AB68AA7C14F089FEC8E692F801E091F859
:104200005CC0E6457FF4AEAE92F802E091F85DC086
:10421000E6457FF4A7AE92F803E091F85EC0E6456C
:104220007FF4A0AE92F804E091F85FC0E6457FF419
:1042300099AE92F805C091F8602094457FF492AE53
:1042400095F811A091F85A20AAEB0202D2F1000AC7
:104250004AEB020A88E6A968404607F0C5FD2168D6
:10426000074691F8542091F8410047B340F0020806
:1042700002F004036DE6236893F85520023A012A00
:104280003FF61CAE002E3FF419AE104E96F90020FA
:104290007F2A18D002924233227B294660687F240D
:1042A0000192FE2200920122347003F035F90320BE
:1042B00005E60DF0AFFF30E70DF0ACFF08E78046F4
:1042C00002F0040345E6FFF789FD00BF100000215E
:1042D0000E4A536810B5197902290CD919790829A1
:1042E0000ED8197952690A4B92680B44BDE8104008
:1042F00052F8233018474FF4A5513220FCF7A0F8AC
:1043000041F2A1413220FCF79BF800BF7C0C002158
:10431000FDFFFF3F38B5194D6B681B79022B28D87C
:104320002B680446027C83F8A4201A44C16899666D
:1043300092F8242183F820214268C3F88820037A68
:10434000022B0ED00DF0B2FC0EF064F90CF0CEFE94
:104350000B480EF061F80B480EF058F80A480DF0C3
:10436000E1FD637C23B12B685B6E0BB101221A6007
:1043700038BD40F6F3013220FCF762F87C0C0021D6
:104380007C00002155555500D6BE898E70B53A4C3B
:10439000064663681A79032A30D01A79042A2DD088
:1043A000226892F8542092072DD1A568002D40D0A4
:1043B000236893F85430002B40D03EB1284615F0C6
:1043C000A7F928BB284615F0BEF908BB63681A791F
:1043D000022A3DD91A79082A3FD819796269274BF0
:1043E00052690B4452F8233098470C282BD8636944
:1043F000DB68BDE8704053F820301847186802F0B9
:1044000095FE0546D2E7186802F092FE0546CDE714
:1044100063681A79022A25D91A79082A27D81979BE
:1044200028466269154B12690B4452F823309847AD
:10443000DBE741F2A8313220FCF702F841F2AE315D
:104440003220FBF7FDFF41F2C1313220FBF7F8FFCC
:1044500041F28E313220FBF7F3FF41F28F313220EF
:10446000FBF7EEFF41F22E313220FBF7E9FF41F27C
:104470002F313220FBF7E4FF7C0C0021FDFFFF3FD2
:1044800038B5214D2C6894F84830ABB36FF0004339
:10449000D4E920129A4208BFB1F1FF3F2CD00FF0AF
:1044A000DFF9D4E92023904271EB030324D32C6875
:1044B00094F848300BBB07F0A1FB05460FF0D0F98C
:1044C0006B01EA0E5B1B62F10002520242EAD35218
:1044D0005B025B1942F1000C9A014FEA8C1ED21A62
:1044E0004EEA936E6EEB0C0C53194CF100021B1844
:1044F00042EB0101C4E9203138BD012007F040FC46
:104500000028F9D02C68D6E77C0C00211B4B2DE944
:10451000F04793F9008084B0B8F17F0F2CD0184C8D
:104520007F2281460E4667681A703B79032B1AD0AA
:104530003B79062B0CBF4FF0030A4FF0010A2368AA
:1045400003F142050DF0CCFA324600902B46257B54
:10455000494638460195CDE9028A02F0CBFE28B9DA
:1045600004B0BDE8F0874FF0000AE8E7606804B0E7
:10457000BDE8F04702F02EBEFFF730FC100000212E
:104580007C0C002138B505460C4606F0EBFE4207D0
:1045900004D4A37803F0E003402B0DD006F0E2FE34
:1045A000830704D4A37803F0E003202B04D02378FE
:1045B00003F03F03242B01D9002038BD0DF096FAFB
:1045C00094F9003094F802C0002B62780CF01F03BD
:1045D000ACBF1E214FF4967142EA032301FB03F3A3
:1045E0001A1AB2F5877FE7D39842E5D8054A2946DB
:1045F00023881068A0F8213180F823C1BDE8384035
:1046000003F03EBC7C0C00212DE9F047344E84B011
:104610007568AB796BB3D6F800A0044689469AF862
:10462000953033B90378002B0CBF012302238AF89D
:10463000953028790628C3B23ED0072B14BF4FF01F
:1046400001084FF00208274890F900707F2F45D0ED
:104650007F2303700DF044FA317B0AF1420300908E
:104660004A46019128462146CDE9027802F042FEF1
:1046700020B90025284604B0BDE8F087657815F01C
:1046800010051CD0A1690220FFF77CFF0546E8B1A8
:104690000023326882F896306369DBB15978C1F340
:1046A000031182F8971059781B7801F00F0143EA43
:1046B0000123A2F89830DDE74FF00308C3E77068E4
:1046C00002F088FD284604B0BDE8F087706802F06B
:1046D000C1FDCFE7FF2382F89730CBE7FFF77EFBE2
:1046E0007C0C00211000002110B504468AB007F0B0
:1046F000E1FC194A2378107003F00F03072B02D056
:1047000001200AB010BD2046694603F0E1F8684672
:1047100003F0CCF99DF80030002BF1D19DF8013069
:10472000DB07EDD50D4C019922689DF8110002F1CF
:10473000780392F87E2014F0E8FB0028E0D020688F
:104740000121A03014F029F9FF216846FFF75CFF32
:104750000028D5D00220D4E7100000217C0C0021D5
:104760002DE9F04304468BB007F0A4FC404A2378BF
:10477000107003F00F03082B04D0012528460BB05E
:10478000BDE8F0836946204603F038F89DF80050F4
:10479000002DF2D19DF8013003F00303032BECD17F
:1047A000344E376897F84D308BB397F84E90737B43
:1047B0008BBB4FF0000807F1780397F87E20019932
:1047C0009DF8110014F0A1FB10B9B8F1000FD4D07E
:1047D00097F84820376897F841804237002A36D149
:1047E0009DF812000299012821D03B46424614F060
:1047F0008CFB0028C1D030680121A03014F0CDF826
:10480000737B6BBB21460120FFF736FAB6E773686E
:1048100093F80590CBE714F0BCFB0828C9D0A0EBB7
:1048200009083073B8FA88F84FEA5818C3E74B798B
:1048300003F0C003402BD8D13B46424614F065FB41
:104840000028D8D10299484607F0CEFAD1E7484669
:1048500007F004FB0028C3D007464FF00108BFE76C
:104860000DF0D8FE0CF042FC00237373CAE700BFC2
:10487000100000217C0C00212DE9F04FDFF8E8A0AA
:104880009346847C83B0DAF800200646012C8946E2
:1048900092F84870984687F0010738D000249AF8BB
:1048A0000D502346E5B192F85410490721D472689F
:1048B000A2B3DAF804205579082D22D028460193B6
:1048C00007F0B0F8019B002818BF0746EBB19AF833
:1048D0000F307BB314F067FB002305468AF80F30D6
:1048E0008BF8005089F8004088F8007003B0BDE8EC
:1048F000F08F92F84D100029D9D092F84E50082D23
:10490000DCD113B19AF80E10D1B10025E8E7836825
:104910005B7903F0C003402BC0D1C0E7DAF8042074
:104920000193106802F018FF019B0028C1D1002BF1
:10493000EBD0E7E72846B16807F056FA0546CFE71F
:10494000B068019107F078F905468AF80D00002853
:10495000C6D014F01EFB0828019903D0DAF8043001
:104960005871BDE70D46BBE77C0C002108B5054B2F
:10497000586802F02FFC07F09DFB034B0246012014
:104980001A7008BD7C0C0021100000212DE9F843AD
:104990007A4C002205468846A368276818461A8084
:1049A0000DF086FD064600283AD0032D52D0052D85
:1049B0005AD0A068BB6FC0F80930B7F87C30A0F8B7
:1049C0000D3097F87E1014F0ADFC236893F8482062
:1049D00003F1420793F84180A2B93B684146A068C1
:1049E000C0F80330BB88A0F8073014F08EFC644B8D
:1049F000D3F80431002B40F0BB80052D1DD030468C
:104A0000BDE8F88393F8542052070FD463685879AF
:104A100007F024FA0028E0D007464FF00108DCE751
:104A2000032007F0EDFD3046BDE8F88393F84D20F4
:104A3000002AEBD093F84E00EAE723683046396845
:104A40001A6DC2F80A10B988D1811B6D83F80980EC
:104A5000BDE8F883A0680C234370037823F00F03AC
:104A600043F003030370A5E7D4F8089022232268DB
:104A700099F8001089F8013021F02F0141EA481817
:104A800048F0050889F80080136D1B6AC9F80F30DB
:104A9000116D8B6A180A89F813301B0C89F8140001
:104AA00089F8153091F87E30088E002B4CD1354BAB
:104AB000A3FB00C0D1F82CC0A3FB0CC3800AC3F336
:104AC0008F2389F817301B0A89F8160041F270709D
:104AD00089F81830CB69A3F57A7C844540D92948F8
:104AE000A0FB0303C3F38F2389F819301B0A89F84D
:104AF0001A308B8C89F81B301B0A89F81C30CB8C40
:104B000089F81D301B0A89F81E30D1F89730C9F892
:104B10001F3091F89B3089F82330136D99F82420C9
:104B200093F8A23022F01F0203F01F03134389F809
:104B3000243006F03DFC99F8243003F01F0343EACB
:104B4000401389F8243034E70F4BA3FB00C0D1F8A1
:104B50002CC0A3FB0CC3C0F34710C3F34F13B0E743
:104B60000A48A0FB03039B0903F550639BB2BBE714
:104B700040F234613220FBF763FC00BF7C0C002163
:104B8000008000415917B7D11F85EB51D34D6210FA
:104B900038B5154C236893F854309B0718D1A56895
:104BA000E5B12368FF2093F820110DF00DF8284699
:104BB0000DF048FC236893F82031033B012B94BF90
:104BC000282000200DF0DCFC636807221A7138BD34
:104BD0006368186802F0ACFA0546E1E740F2135149
:104BE0003220FBF72DFC00BF7C0C002138B51E4C99
:104BF0000E20236893F820110CF0E6FF236893F849
:104C000054309B0724D1A56845B328460DF01AFC03
:104C1000236893F82031033B012B94BF2820002008
:104C20000DF0AEFC2368681D93F8205107F032F8B0
:104C3000607348B1033D012D94BF552550250CF0FC
:104C400039FA28460DF0DAFC636808221A7138BD7B
:104C50006368186802F06CFA0546D5E74FF4A06166
:104C60003220FBF7EDFB00BF7C0C002170B50D4D31
:104C70000222D5E900031A7103F05AFF00B170BD9A
:104C80002E68044606F16C0002F0E4FA2868A6F8E3
:104C9000214186F8234186F87040BDE8704004F059
:104CA000A5B800BF7C0C002110B50A4C07F002FA31
:104CB000094A637B10701BB90DF0ACFA032010BDDC
:104CC0000DF0A8FC0CF012FA002363730DF0A2FAA9
:104CD000032010BD7C0C00211000002170B52D4C6C
:104CE0000546236893F823215F2A2CD851092A4AC4
:104CF000565C93F8210100F03F000DF01DF9236888
:104D000093F958000DF008F9FDB1236832460120EF
:104D1000996E0DF023FA2368314693F89630022BF2
:104D20000CBF4020FF200CF04FFF236893F8542065
:104D3000920710D193F89530A568B3B12846BDE825
:104D400070400DF07FBB0026D3E73246732101206F
:104D50000DF004FADFE76368186802F0E9F92368E8
:104D6000054693F89530002BE8D1681D06F092FFB8
:104D700060730028E2D0033E012E94BF55245024D6
:104D80000CF098F920460DF039FC2846BDE870403B
:104D90000DF058BB7C0C0021343E0201F0B52F4CC5
:104DA00083B00646236893F823215F2A30D851093F
:104DB0002B4A575C9A6E7ABBD3F888000DF0B2FB91
:104DC000256895F854309A0703D595F89620022A5D
:104DD00033D05B072DD46368186816BB02F0BCFCA7
:104DE00063680646186802F0BDFC024605F19A00A9
:104DF0002568314695F8963095F82051009502F0D7
:104E0000FDFD2268002382F82071A37303B0F0BD7A
:104E10009A6E0027002ACFD00120FFF75FFF23689A
:104E2000CAE702F0ABFC014605F19A0002F0DCFD96
:104E3000E7E795F89630012BCDD1FB1E012B05D964
:104E4000394600200DF000FC2568C4E795F859307C
:104E5000012B14BF39460321F3E700BF7C0C00216E
:104E6000343E020110B50B4C637B63B9A16800208E
:104E7000FEF702FF23680022A3F8212183F82321F3
:104E800083F8702010BD0DF0C5FB0CF02FF9002346
:104E90006373EBE77C0C002110B50E4C637B8BB980
:104EA00000220120D4E90031087103F16C00A3F85D
:104EB000212183F8232102F05BF92068BDE810402E
:104EC00003F094BF0DF0A6FB0CF010F90023637300
:104ED000E6E700BF7C0C002107292DE9F04F0D46C5
:104EE00087B004469146476803D12FB9002A00F0E5
:104EF000BD80002F00F08480637CDFF8A482012B4A
:104F000044D0D8F80430587908285AD00DF10F0150
:104F100004AA06F079FE002800F0388104A99DF863
:104F20000F0015F08FF90746D8F8001091F854C01B
:104F30001CF0030A6DD1D8F8046086F806A091F839
:104F4000543013F0040340F0BA80F371954B1B68A2
:104F50002BB14946204698473072D8F80460636800
:104F60004BB1617CD8F8002082F87E1019689167F7
:104F70009B88A2F87C30337A002B00F00C81072D3F
:104F8000A06800D188BB07B0BDE8F08F7B7903F043
:104F9000C003402BB5D1072D98F80D3000F0BC8030
:104FA000002BAED0D8F8046013F0F3FFD8F804302B
:104FB000707158790123082888F80C0088F80E30A1
:104FC000A4D16168607C15F03DF9D8F8042007464B
:104FD00061680532607C06F04DFD03460028A3D1D0
:104FE000D8F80460F0803072C9E771790829CAD016
:104FF000002BC8D006F03EFE012388F80F30C2E730
:10500000DFF89C81D8F8001091F854C01CF0030A16
:1050100091D0062D91F84CA0D8F804606AD9082DDB
:105020006DD896F806B08BF00103B9F1000F0CBFF4
:10503000002303F00103002B61D16268002A59D1DB
:10504000B9F1000F40F08D806278D00640F1898080
:1050500001201CF0040FB0713FF477AF91F84D3090
:1050600096F807A0D2066ED501236EE7DFF83081EF
:10507000D8E9001091F8543013F0030218BF012250
:1050800013F00403827105D02378A3F10103B3FA6E
:1050900083F35B09C37191F89430002B3FF473AF35
:1050A000D8F80030D3F89000503015F0D5F800282B
:1050B0007FF469AFD8F8043001221A7263E7062D35
:1050C00091F84D3004D8002B7FF43FAF3B463CE7CE
:1050D00096F807A0082D1DD8BAF1010F02D0B9F13A
:1050E000000F17D16268002AEDD1B9F1000F2AD163
:1050F0006278B7E7BAF1000F08BFBA461DE7002390
:10510000B3711CF004033FF420AF91F84D3096F8D2
:1051100007A0DFE7002318E7002B3FF4F2AEB9F158
:10512000000F7FF43FAFD8F8003093F82011012929
:105130007FF438AF384606F07FFD88F80D00002870
:105140003FF4DFAE2EE73068019302F005FB1AEA68
:10515000000702D1019B9BB11F46D8F804603B4673
:10516000F3E6306802F0F8FA1BEA000B0CD1BAF152
:10517000000F02D106F078FC8246D8E90016DCE682
:1051800006F072FC0746E8E7DA46F6E74FF43A61C4
:105190003220FBF755F9F388003B18BF0123EEE6F8
:1051A0007C0C00217800002170B5194E8AB00546AC
:1051B00006F080FF3368174A93F85430107013F0EC
:1051C000060F16D12C782846694604F00F042246B3
:1051D00002F0E0FA214600226846FFF77DFE2146F4
:1051E0006846FEF757FE737B044643B920460AB073
:1051F00070BD0122962100200CF0C6FFE2E70DF001
:1052000009FA0BF073FF0023204673730AB070BDD8
:105210007C0C00211000002110B5104C06F04AFF54
:105220000F4A637B10708BB900220120D4E9003152
:10523000087103F16C00A3F8212183F8232101F008
:1052400097FF2068BDE8104003F0D0BD0DF0E2F9F3
:105250000BF04CFF00236373E6E700BF7C0C0021DA
:105260001000002110B50F4C606801F0F3FF637B64
:105270008BB900220120D4E90031087103F16C00E0
:10528000A3F8212183F8232101F072FF2068BDE8F3
:10529000104003F0ABBD0DF0BDF90BF027FF00236C
:1052A0006373E6E77C0C002110B5114C606801F0D7
:1052B000D1FF06F0FFFE0F4A637B10708BB900220E
:1052C0000120D4E90031087103F16C00A3F8212119
:1052D00083F8232101F04CFF2068BDE8104003F063
:1052E00085BD0DF097F90BF001FF00236373E6E72E
:1052F0007C0C00211000002110B5134C06F0DAFEE2
:10530000124A00212368107003F1A00013F045FB3E
:10531000637B8BB900220120D4E90031087103F1CD
:105320006C00A3F8212183F8232101F021FF2068DC
:10533000BDE8104003F05ABD0DF06CF90BF0D6FE3D
:1053400000236373E6E700BF7C0C002110000021FE
:1053500010B5144C606801F03DFF06F0ABFE02464C
:1053600020680021104BA0301A7013F016FB637BED
:105370008BB900220120D4E90031087103F16C00DF
:10538000A3F8212183F8232101F0F2FE2068BDE873
:10539000104003F02BBD0DF03DF90BF0A7FE0023EC
:1053A0006373E6E77C0C00211000002110B500219A
:1053B0000320164CFFF7EAFA20B10321206802F01F
:1053C0005FFD98B9637BCBB900220120D4E900319D
:1053D000087103F16C00A3F8212183F8232101F067
:1053E000C7FE2068BDE8104003F000BD012108465B
:1053F0000DF02AF9636809221A7110BD0DF00AF93F
:105400000BF074FE00236373DEE700BF7C0C002109
:1054100010B51C4C0C220121D4E900031A7103F0D1
:105420000FFD00210520FFF7B1FA20B10621206809
:1054300002F026FD98B9637BEBB900220120D4E984
:105440000031087103F16C00A3F8212183F82321B6
:1054500001F08EFE2068BDE8104003F0C7BC236851
:10546000012093F820110DF0EFF8236801221B6D45
:1054700083F8962010BD0DF0CDF80BF037FE002319
:105480006373DAE77C0C002170B5244C236893F831
:1054900023215F2A29D85109214A565C9A6E42BBC2
:1054A000D3F888000DF03EF8256895F854309A0737
:1054B00003D595F89620022A20D05B0703D595F8EE
:1054C0009630012B1AD06368186802F057F901462C
:1054D00005F19A0002F088FA002221686368A2733D
:1054E000062281F820611A7170BD9A6E0026002A8A
:1054F000D6D00120FFF7F2FB2368D1E7F31E012B82
:1055000005D9314600200DF09FF82568DBE795F8B6
:105510005930012B14BF31460321F3E77C0C0021E5
:10552000343E020138B5154C0521206802F0A8FC74
:1055300048B12368012093F820110DF085F86368C5
:105540000B221A7138BD637B8BB900220120D4E98C
:105550000031087103F16C00A3F8212183F82321A5
:1055600001F006FE2068BDE8384003F03FBC054668
:105570000DF050F80BF0BAFD6573E6E77C0C0021E6
:1055800038B5234C6368186801F0D0FD00283AD084
:1055900063680A22054600211A71206803F050FC56
:1055A00022682B780520126D92F8965005EA531563
:1055B00005F001052946FFF7E9F948B10421206803
:1055C00002F05EFC20B123681B6D83F8965038BD55
:1055D000637B8BB900220120D4E90031087103F10B
:1055E0006C00A3F8212183F8232101F0C1FD20687C
:1055F000BDE8384003F0FABB0DF00CF80BF076FD77
:1056000000236373E6E74FF4AB613220FAF718FF2B
:105610007C0C0021F0B52C4C83B0236893F8232137
:105620005F2A37D85109294A575C9A6E002A35D12A
:10563000D3F888000CF076FF256895F854309A0767
:1056400003D595F89620022A2DD05B0703D595F84F
:105650009630012B27D06368186802F07DF86368E4
:105660000646186802F07EF8024605F19A002568A1
:10567000314695F8963095F82051009502F0BEF924
:10568000002221686368A273052281F820711A71D3
:1056900003B0F0BD9A6E0027002AC9D00120FFF7A1
:1056A0001DFB2368C4E7FB1E012B05D939460020EA
:1056B0000CF0CAFF2568CEE795F85930012B14BFCE
:1056C00039460321F3E700BF7C0C0021343E020180
:1056D000012910B512D188B91D4A536819790829D2
:1056E0002BD919790C292DD819795269194B52687F
:1056F0000B44BDE8104052F823301847144C606842
:1057000001F0A8FD637B8BB900220120D4E90031B0
:10571000087103F16C00A3F8212183F8232101F023
:1057200027FD2068BDE8104003F060BB0CF072FF5D
:105730000BF0DCFC00236373E6E741F2704132209A
:10574000FAF77EFE41F271413220FAF779FE00BF8E
:105750007C0C0021F7FFFF3FF0B55B4C83B0206865
:105760006C3001F005FD656801F0B2FC63682860EB
:105770001868002800F0A28001F0D8FC0546002837
:1057800000F09780236893F8A630002B55D1D4E918
:10579000000290F8A430034493F8247180F820713B
:1057A000137913B11379012B60D190F8A520474BE1
:1057B000134418790CF0C0FB236893F8A420134419
:1057C00093F82461022E4FD030D9F31E012B2FD82D
:1057D00001F078FC80B231460CF0F6F928460CF066
:1057E00031FE314601200CF0B7FB012F34D0681D8B
:1057F00006F050FA607348B1033F012F94BF55255E
:1058000050250BF057FC28460CF0F8FE6268082182
:1058100000232068517121730321D3801372E38127
:1058200080F895302374117103B0F0BD012ECFD0F4
:1058300040F2F3713220FAF703FE236893F8542004
:1058400093F8A700196D0243C3F8101183F8542090
:10585000002283F8A6209AE7E81C06F01BFA607382
:105860000028D3D04025CCE70D20B4E7002102F07A
:1058700007FB08B1206898E7637B93B900220120F9
:10588000D4E90031087103F16C00A3F8212183F8F9
:10589000232101F06DFC206803B0BDE8F04003F067
:1058A000A5BA01900CF0B6FE0BF020FC01986073D5
:1058B000E4E740F24B413220FAF7C2FD40F24941A1
:1058C0003220FAF7BDFD00BF7C0C0021343E0201FE
:1058D00008B506F0EFFB044B18700CF09BFCBDE81C
:1058E0000840FFF739BF00BF1000002110B50C4C75
:1058F00006F0E0FB0B4A637B10702BB90CF08AFCBE
:10590000BDE81040FFF728BF0CF084FE0BF0EEFB63
:10591000002363730CF07EFCBDE81040FFF71CBF52
:105920007C0C00211000002110B50446FEF7F2FCAB
:10593000237A032B3BD0BBBB1F4B20491A6892F83C
:10594000A53092F84B000133A1FB034C0CF4FF741B
:1059500004EB5C041B1B40FA03FCDCB21CF0010FDF
:1059600016D10133A1FB034C2CF0010404EB5C04C1
:105970001B1B40FA03FCDCB21CF0010F08D1013301
:10598000A1FB034121F0010404EB51015B1ADCB2DD
:1059900082F8A54092F958000CF0BEFAFFF7DCFE41
:1059A000BDE81040FEF76CBD034B1A68F2E740F605
:1059B00022113220FAF744FD7C0C0021ABAAAAAADE
:1059C00010B50446FEF7A6FC237A032B51D0012B19
:1059D00058D040D8334C3449226892F8A53092F818
:1059E0004B000133A1FB03CE0EF4FF7C0CEB5E0CED
:1059F000A3EB0C0340FA03FE5FFA83FC1EF0010FD9
:105A000019D10133A1FB03CE2EF0010C0CEB5E0C7F
:105A1000A3EB0C0340FA03FE5FFA83FC1EF0010FB8
:105A200009D10133A1FB03C121F0010C0CEB5101A1
:105A30005B1A5FFA83FC82F8A5C092F958000CF05B
:105A40006BFA2368002283F89520FFF785FEBDE8F6
:105A50001040FEF715BD023B012B09D8114C2368FD
:105A600093F8950088B9FFF799F9636805221A71D0
:105A700010BD0C4B1B68986E70B9FFF72FF9237A95
:105A8000012BA6D1074C2268D7E70120FFF786F942
:105A9000636806221A7110BD40F638113220FAF7F9
:105AA000CFFC00BF7C0C0021ABAAAAAA2DE9F047CD
:105AB000A84F86B0D7F8008098F857305BB17E6861
:105AC0000546B37963B12C78012C12D0022C00F07A
:105AD000DC80002C50D00324204606B0BDE8F087BF
