:020000040000FA
:1000000068670020D550000067D30100C150000090
:10001000C1500000C1500000C1500000C15000009C
:10002000000000000000000000000000315200004D
:10003000C150000000000000D1510000C15000007C
:10004000C1530000C1530000C1530000C153000060
:10005000C1530000C1530000C1530000C153000050
:10006000C1530000C1530000C1530000C153000040
:10007000C1530000C1530000C1530000C153000030
:10008000C1530000C1530000C1530000C153000020
:10009000C1530000C1530000C1530000C153000010
:1000A000C1530000C1530000C1530000C153000000
:1000B000C1530000C1530000C1530000C1530000F0
:1000C000C1530000C1530000C1530000C1530000E0
:1000D000C1530000C1530000C1530000C1530000D0
:1000E000C1530000C1530000C1530000C1530000C0
:1000F000C1530000C1530000C1530000C1530000B0
:10010000C1530000C1530000C1530000C15300009F
:10011000C1530000C1530000C1530000C15300008F
:10012000C1530000C1530000C1530000C15300007F
:10013000C1530000C1530000C1530000C15300006F
:10014000C1530000C1530000C1530000C15300005F
:04015000C153000097
:1001580080EA101404F0F01480EA0410604081EA88
:10016800111404F0F01481EA0411614082EA1214B7
:1001780004F0F01482EA0412624083EA131404F0D3
:10018800F01483EA0413634080EA102404F47F44E3
:1001980080EA0420604081EA112404F47F4481EA63
:1001A8000421614082EA122404F47F4482EA042292
:1001B800624083EA132404F47F4483EA04236340FF
:1001C80081EA500404F0553480EA4400614083EA2F
:1001D800520404F0553482EA4402634082EA9004EF
:1001E80004F0333480EA8400624083EA910404F026
:1001F800333481EA84016340704700BF82EA900487
:1002080004F0333480EA8400624083EA910404F005
:10021800333481EA8401634081EA500404F05534A0
:1002280080EA4400614083EA520404F0553482EACB
:100238004402634080EA102404F47F4480EA0420E6
:10024800604081EA112404F47F4481EA042161407A
:1002580082EA122404F47F4482EA0422624083EA98
:10026800132404F47F4483EA0423634080EA1014CF
:1002780004F0F01480EA0410604081EA111404F0DC
:10028800F01481EA0411614082EA121404F0F014B7
:1002980082EA0412624083EA131404F0F01483EA39
:1002A80004136340704700BF2DE9F14F94464FEAAD
:1002B800930B8A68CB6808684968FFF749FF0BF118
:1002C800060E33E083EA134480EA134582EA1347B3
:1002D80046BA96EA3444604000F00F1684EA0634C1
:1002E80020F00F1684EA161054BA94EA01067240F8
:1002F80002F00F1486EA043622F00F1486EA14126C
:100308004CBA6540694001F00F1485EA043521F0C4
:100318000F1485EA14115CBA67407B4003F00F1490
:1003280087EA043723F00F1487EA1413BCE8F000B7
:100338006040694072407B4000F0E03400F01035C6
:1003480000F00F3040EA540040EAC50080EA90040B
:1003580004F0332480EA8400604001F0E03401F0C6
:10036800103501F00F3141EA540141EAC50181EA33
:10037800910404F0332481EA8401614002F0E034FE
:1003880002F0103502F00F3242EA540242EAC50286
:1003980082EA920404F0332482EA8402624003F081
:1003A800E03403F0103503F00F3343EA540343EA13
:1003B800C50383EA930404F0332483EA8403634087
:1003C80081EA324787EA134581EA354690EA06040E
:1003D80084EA034B82EA1B4280EA044484EA054427
:1003E80083EA144A85EA14448BEA044B84EA3744C6
:1003F80081EA0B4181EA164104EA0A00454082EA93
:1004080004082BEA080041408AEA0B0602EA0600C3
:1004180084EA34438AEA3A4603EA060778404540C4
:10042800414088EA38478BEA3B4007EA000985EAF9
:10043800090583EA0709464006EA0906714085EA84
:10044800010005EA3546464006EA314181EA304175
:1004580081EA364606EA304686EA3546344008EAF6
:10046800010886EA01052A4086EA364003405A40D8
:1004780081EA31431F407C4080EA030709EA070903
:1004880088EA0908544088EA020806EA0A0601EAE6
:100498000B018AEA0B0215408AEA3A4210404540AD
:1004A8008BEA3B4003405E404240174079404D4054
:1004B8004E40E443F64386EA18435D4085EA05402A
:1004C80083EA134386EA034183EA384284EA114304
:1004D80083EA04435FEA3343BEF1010E3FF6F2AE0E
:1004E8001ED4BCE8F0006040694072407B4020BCEC
:1004F800FFF784FE28606960AA60EB60BDE8F08FB2
:100508002DE9E0414FF2F00280EA1031114080EA13
:100518000130484041088208C3084FF0000E4FE7F9
:1005280000F0113001F0113102F0113203F01133F3
:1005380040EA410040EA820040EAC3004FF2F0027C
:1005480080EA1031114080EA01304840BDE8E0817E
:100558002DE9F04F02F11C050646074600EB850819
:1005680051F8040B043A46F8040BF9D14FF0010C8A
:10057800FFF7C6FF5FEA302080EA0C001ECF41403B
:100588004A4053405C401EC62000464517D04FEAFB
:100598004C0C1CF4807F18BFACF1E50C2C2DE7D077
:1005A8003C2D06D1FFF7ACFF06CF41404A4006C6B6
:1005B800100006CF41404A4006C61000D8E736E989
:1005C8000F00FFF7C5FD043D86E80F00F7D1BDE831
:1005D800F08F00BF2DE9F14F03F11C0402EB840CEE
:1005E8004FEA930B8A68CB6808684968FFF7B0FD43
:1005F8003CE9F0006040694072407B400BF1060E18
:100608004EE083EA134480EA134582EA134746BA68
:1006180096EA3444604000F00F1684EA063420F06D
:100628000F1684EA161054BA94EA0106724002F0D2
:100638000F1486EA043622F00F1486EA14124CBA14
:100648006540694001F00F1485EA043521F00F1464
:1006580085EA14115CBA67407B4003F00F1487EAFF
:10066800043723F00F1487EA141344BA44404DBAF0
:100678004D4056BA56405FBA5F4087EA174886EA47
:10068800174B84EA17464FEA38488BEA1B4485EA39
:100698001B4788EA1B4580EA3440694072407B402A
:1006A80000F0703400F0803500F00F3040EA44006C
:1006B80040EAD50080EA900404F0332480EA8400FC
:1006C800604001F0703401F0803501F00F3141EAEB
:1006D800440141EAD50181EA910404F0332481EA16
:1006E8008401614002F0703402F0803502F00F326C
:1006F80042EA440242EAD50282EA920404F0332430
:1007080082EA8402624003F0703403F0803503F01B
:100718000F3343EA440343EAD50383EA930404F01E
:10072800332483EA84036340C943DB4381EA00043A
:1007380083EA044686EA020183EA014382EA3345F2
:1007480083EA14435C4084EA00077FEA040A8AEAE1
:10075800024A8AEA010B87EA11488AEA374A80EA9C
:10076800060181EA1A418AEA030A04EA0A004540B6
:1007780088EA040707EA0B0041408AEA0B0608EA00
:10078800060084EA34428AEA3A4602EA06035840F6
:100798004540414087EA37438BEA3B4003EA00097A
:1007A80085EA090582EA0309464006EA0906714016
:1007B80085EA010005EA3546464006EA314181EA04
:1007C800304181EA364606EA304686EA3546344004
:1007D8000F4086EA010508EA050886EA3640024025
:1007E80088EA020881EA314213405C4080EA020349
:1007F80009EA030987EA0907674088EA040806EA5C
:100808000A0601EA0B018AEA0B0425408AEA3A44FF
:10081800204045408BEA3B4B02EA0B02564084EAF3
:100828000B04234059406E40694087EA364080EA0D
:10083800384080EA060380EA104481EA134585EAD5
:10084800344585EA17427D4082EA354180EA054011
:100858003CE9F0006040694072407B40BEF1010E07
:100868003FF6CFAE20BCFFF7C9FC28606960AA60DC
:10087800EB60BDE8F08F00BFFFF76ABE30B44FF001
:10088800000310F8014B11F8015B013A84EA0504F2
:1008980043EA0403F5D1A3F101034FEAD37030BC56
:1008A800704700BF4FF0000310F8012B013943EAED
:1008B8000203F9D1A3F101034FEAD370704700BFD7
:1008C80030B411F8014B12F8015B6C4000F8014B91
:1008D800013BF6D130BC70472DE9F04F90E8F00F9E
:1008E80000F140004FF0040E59E0F0B4826BC36B86
:1008F80004680525242687593C444FEA724787EA4D
:10090800F24787EA92273C4442684FEAF21787EA9F
:10091800B24787EAD2073C4440F8044B032D08BF8E
:100928006FF01B0687593A444FEA734787EAF34743
:1009380087EA93273A4443684FEAF31787EAB347AD
:1009480087EAD3073A4440F8042B87593B444FEAD7
:10095800744787EAF44787EA94273B4444684FEA98
:10096800F41787EAB44787EAD4073B4440F8043BC6
:10097800013DC0D1A0F13C00076A3C444FEA7247F0
:1009880087EAF24787EA92273C4402684FEAF2175F
:1009980087EAB24787EAD2073C44C463F0BC4FF009
:1009A800020288EA781C8CEAF84C0BEBBC1C8AEA39
:1009B800090303EA080383EA0A039C4450F8043B4A
:1009C8009C4451F8043B9C44674444EA050B0BEAF9
:1009D800060B04EA05034BEA030BE34484EAF42319
:1009E80083EA34530BEBB30B87EA771C8CEAF74C9A
:1009F8000AEBBC1C89EA080303EA070383EA090334
:100A08009C4450F8043B9C4451F8043B9C44664485
:100A18004BEA040A0AEA050A0BEA04034AEA030A4B
:100A2800E2448BEAFB2383EA3B530AEBB30A86EAE8
:100A3800761C8CEAF64C09EBBC1C88EA070303EA2F
:100A4800060383EA08039C4450F8043B9C4451F88D
:100A5800043B9C4465444AEA0B0909EA04090AEA8A
:100A68000B0349EA0309E1448AEAFA2383EA3A5381
:100A780009EBB30985EA751C8CEAF54C08EBBC1C3C
:100A880087EA060303EA050383EA07039C4450F850
:100A9800043B9C4451F8043B9C44644449EA0A08DA
:100AA80008EA0B0809EA0A0348EA0308E04489EA65
:100AB800F92383EA395308EBB30884EA741C8CEAF7
:100AC800F44C07EBBC1C86EA050303EA040383EA3B
:100AD80006039C4450F8043B9C4451F8043B9C4456
:100AE800E34448EA090707EA0A0708EA090347EA64
:100AF8000307674488EAF82383EA385307EBB30708
:100B08008BEA7B1C8CEAFB4C06EBBC1C85EA0403D5
:100B180003EA0B0383EA05039C4450F8043B9C4416
:100B280051F8043B9C44E24447EA080606EA0906F1
:100B380007EA080346EA0306664487EAF72383EAD6
:100B4800375306EBB3068AEA7A1C8CEAFA4C05EBB3
:100B5800BC1C84EA0B0303EA0A0383EA04039C44EB
:100B680050F8043B9C4451F8043B9C44E14446EA59
:100B7800070505EA080506EA070345EA030565448B
:100B880086EAF62383EA365305EBB30589EA791C2E
:100B98008CEAF94C04EBBC1C8BEA0A0303EA090350
:100BA80083EA0B039C4450F8043B9C4451F8043BF3
:100BB8009C44E04445EA060404EA070405EA0603FF
:100BC80044EA0304644485EAF52383EA355304EBD5
:100BD800B304013A7FF4E5AEA0F14000BEF1010E86
:100BE8007FF483AEA0F1400C9CE80F00001949196E
:100BF8009219DB19ACE80F009CE80F004044494407
:100C080052445B44ACE80F00BDE8F08F81F000412E
:100C180002E000BF83F0004330B54FEA41044FEAD9
:100C2800430594EA050F08BF90EA020F1FBF54EA74
:100C3800000C55EA020C7FEA645C7FEA655C00F010
:100C4800E2804FEA5454D4EB5555B8BF6D420CDDE1
:100C58002C4480EA020281EA030382EA000083EA64
:100C6800010180EA020281EA0303362D88BF30BD04
:100C780011F0004F4FEA01314FF4801C4CEA11315A
:100C880002D0404261EB410113F0004F4FEA0333B9
:100C98004CEA133302D0524263EB430394EA050F44
:100CA80000F0A780A4F10104D5F1200E0DDB02FAB3
:100CB8000EFC22FA05F2801841F1000103FA0EF247
:100CC800801843FA05F359410EE0A5F120050EF10D
:100CD800200E012A03FA0EFC28BF4CF0020C43FA3E
:100CE80005F3C01851EBE37101F0004507D54FF04B
:100CF800000EDCF1000C7EEB00006EEB0101B1F59B
:100D0800801F1BD3B1F5001F0CD349085FEA3000E0
:100D18004FEA3C0C04F101044FEA445212F5800FEB
:100D280080F09A80BCF1004F08BF5FEA500C50F188
:100D3800000041EB045141EA050130BD5FEA4C0C6B
:100D4800404141EB0101013C28BFB1F5801FE9D2C8
:100D580091F0000F04BF01460020B1FA81F308BFEB
:100D68002033A3F10B03B3F120020CDA0C3208DDB7
:100D780002F1140CC2F10C0201FA0CF021FA02F192
:100D88000CE002F11402D8BFC2F1200C01FA02F102
:100D980020FA0CFCDCBF41EA0C019040E41AA2BF27
:100DA80001EB0451294330BD6FEA04041F3C1CDAEF
:100DB8000C340EDC04F11404C4F1200220FA04F00F
:100DC80001FA02F340EA030021FA04F345EA0301B9
:100DD80030BDC4F10C04C4F1200220FA02F001FA7B
:100DE80004F340EA0300294630BD21FA04F02946FD
:100DF80030BD94F0000F83F4801306BF81F4801196
:100E08000134013D4EE77FEA645C18BF7FEA655C08
:100E180029D094EA050F08BF90EA020F05D054EADA
:100E2800000C04BF1946104630BD91EA030F1EBFDF
:100E38000021002030BD5FEA545C05D140004941E3
:100E480028BF41F0004130BD14F580043CBF01F5D6
:100E5800801130BD01F0004545F0FE4141F47001BC
:100E68004FF0000030BD7FEA645C1ABF1946104697
:100E78007FEA655C1CBF0B46024650EA013406BF98
:100E880052EA033591EA030F41F4002130BD00BF57
:100E980090F0000F04BF0021704730B54FF4806414
:100EA80004F132044FF000054FF0000150E700BF95
:100EB80090F0000F04BF0021704730B54FF48064F4
:100EC80004F1320410F0004548BF40424FF00001E1
:100ED8003EE700BF42004FEAE2014FEA31014FEA24
:100EE80002701FBF12F07F4393F07F4F81F0605173
:100EF800704732F07F4208BF704793F07F4F04BFBE
:100F080041F40021704730B54FF4607401F000459A
:100F180021F000411CE700BF50EA010208BF7047FA
:100F280030B54FF000050AE050EA010208BF7047EB
:100F380030B511F0004502D5404261EB41014FF454
:100F4800806404F132045FEA915C3FF4D8AE4FF05C
:100F580003025FEADC0C18BF03325FEADC0C18BF3F
:100F6800033202EBDC02C2F1200300FA03FC20FA90
:100F780002F001FA03FE40EA0E0021FA02F11444DD
:100F8800BDE600BF70B54FF0FF0C4CF4E06C1CEAF6
:100F980011541DBF1CEA135594EA0C0F95EA0C0F67
:100FA80000F0DEF82C4481EA030621EA4C5123EADA
:100FB8004C5350EA013518BF52EA033541F4801109
:100FC80043F4801338D0A0FB02CE4FF00005E1FBBC
:100FD80002E506F00042E0FB03E54FF00006E1FB06
:100FE80003569CF0000F18BF4EF0010EA4F1FF0449
:100FF800B6F5007F64F5407404D25FEA4E0E6D4189
:1010080046EB060642EAC62141EA55514FEAC52099
:1010180040EA5E504FEACE2EB4F1FD0C88BFBCF515
:10102800E06F1ED8BEF1004F08BF5FEA500E50F1C6
:10103800000041EB045170BD06F0004646EA01018C
:1010480040EA020081EA0301B4EB5C04C2BFD4EBBE
:101058000C0541EA045170BD41F480114FF0000EB7
:10106800013C00F3AB8014F1360FDEBF002001F025
:10107800004170BDC4F10004203C35DA0C341BDC9F
:1010880004F11404C4F1200500FA05F320FA04F071
:1010980001FA05F240EA020001F0004221F00041A5
:1010A80010EBD37021FA04F642EB06015EEA430E18
:1010B80008BF20EAD37070BDC4F10C04C4F1200548
:1010C80000FA04F320FA05F001FA04F240EA0200FB
:1010D80001F0004110EBD37041F100015EEA430ECC
:1010E80008BF20EAD37070BDC4F1200500FA05F2EC
:1010F8004EEA020E20FA04F301FA05F243EA02036B
:1011080021FA04F001F0004121FA04F220EA020079
:1011180000EBD3705EEA430E08BF20EAD37070BDBF
:1011280094F0000F0FD101F00046400041EB01019F
:1011380011F4801F08BF013CF7D041EA060195F081
:10114800000F18BF704703F00046520043EB03033B
:1011580013F4801F08BF013DF7D043EA0603704728
:1011680094EA0C0F0CEA135518BF95EA0C0F0CD033
:1011780050EA410618BF52EA4306D1D181EA030179
:1011880001F000414FF0000070BD50EA410606BF73
:101198001046194652EA430619D094EA0C0F02D1B8
:1011A80050EA013613D195EA0C0F05D152EA0336FD
:1011B8001CBF104619460AD181EA030101F000411B
:1011C80041F0FE4141F470014FF0000070BD41F064
:1011D800FE4141F4780170BD70B54FF0FF0C4CF43E
:1011E800E06C1CEA11541DBF1CEA135594EA0C0F5D
:1011F80095EA0C0F00F0A7F8A4EB050481EA030EAA
:1012080052EA03354FEA013100F088804FEA033390
:101218004FF0805545EA131343EA12634FEA02225E
:1012280045EA111545EA10654FEA00260EF000411F
:101238009D4208BF964244F1FD0404F5407402D271
:101248005B084FEA3202B61A65EB03055B084FEA02
:1012580032024FF480104FF4002CB6EB020E75EBFF
:10126800030E22BFB61A754640EA0C005B084FEA27
:101278003202B6EB020E75EB030E22BFB61A7546A4
:1012880040EA5C005B084FEA3202B6EB020E75EBEF
:10129800030E22BFB61A754640EA9C005B084FEA67
:1012A8003202B6EB020E75EB030E22BFB61A754674
:1012B80040EADC0055EA060E18D04FEA051545EA63
:1012C80016754FEA06164FEAC30343EA52734FEA0C
:1012D800C2025FEA1C1CC0D111F4801F0BD141EA85
:1012E80000014FF000004FF0004CB6E711F4801FEA
:1012F80004BF01430020B4F1FD0C88BFBCF5E06FCA
:101308003FF6AFAEB5EB030C04BFB6EB020C5FEAD9
:10131800500C50F1000041EB045170BD0EF0004E2E
:101328004EEA113114EB5C04C2BFD4EB0C0541EA60
:10133800045170BD41F480114FF0000E013C90E65D
:1013480045EA060E8DE60CEA135594EA0C0F08BF21
:1013580095EA0C0F3FF43BAF94EA0C0F0AD150EA20
:1013680001347FF434AF95EA0C0F7FF425AF1046B3
:1013780019462CE795EA0C0F06D152EA03353FF4DB
:10138800FDAE1046194622E750EA410618BF52EA58
:1013980043067FF4C5AE50EA41047FF40DAF52EA2C
:1013A80043057FF4EBAE12E74FF0FF3C06E000BFC9
:1013B8004FF0010C02E000BF4FF0010C4DF804CDD6
:1013C8004FEA410C7FEA6C5C4FEA430C18BF7FEA96
:1013D8006C5C1BD001B050EA410C0CBF52EA430CC4
:1013E80091EA030F02BF90EA020F0020704710F144
:1013F800000F91EA030F58BF994208BF90422CBFD3
:10140800D8176FEAE37040F0010070474FEA410CCB
:101418007FEA6C5C02D150EA013C07D14FEA430CE9
:101428007FEA6C5CD6D152EA033CD3D05DF8040B5A
:10143800704700BF8446104662468C46194663468C
:1014480000E000BF01B5FFF7B7FF002848BF10F163
:10145800000F01BD4DF808EDFFF7F4FF0CBF0120A8
:1014680000205DF808FB00BF4DF808EDFFF7EAFF24
:1014780034BF012000205DF808FB00BF4DF808EDDF
:10148800FFF7E0FF94BF012000205DF808FB00BFD4
:101498004DF808EDFFF7CEFF94BF012000205DF85E
:1014A80008FB00BF4DF808EDFFF7C4FF34BF01206B
:1014B80000205DF808FB00BF4FEA410212F5001258
:1014C80015D211D56FF47873B3EB625212D94FEA83
:1014D800C12343F0004343EA505311F0004F23FA6D
:1014E80002F018BF404270474FF00000704750EAC2
:1014F800013005D111F0004008BF6FF0004070477F
:101508004FF00000704700BF4A0011D212F50012D8
:1015180011D20DD56FF47873B3EB62520ED44FEA43
:10152800C12343F0004343EA505323FA02F07047C3
:101538004FF00000704750EA013002D14FF0FF3001
:1015480070474FF00000704780F0004002E000BF95
:1015580081F0004142001FBF5FEA410392EA030F96
:101568007FEA226C7FEA236C6AD04FEA1262D2EBE0
:101578001363C1BFD218414048404140B8BF5B42E5
:10158800192B88BF704710F0004F40F4000020F07E
:101598007F4018BF404211F0004F41F4000121F094
:1015A8007F4118BF494292EA030F3FD0A2F10102DE
:1015B80041FA03FC10EB0C00C3F1200301FA03F11C
:1015C80000F0004302D5494260EB4000B0F5000F3F
:1015D80013D3B0F1807F06D340084FEA310102F1FE
:1015E8000102FE2A51D2B1F1004F40EBC25008BFB0
:1015F80020F0010040EA03007047490040EB00007A
:10160800013A28BFB0F5000FEDD2B0FA80FCACF17A
:10161800080CB2EB0C0200FA0CF0AABF00EBC250A7
:1016280052421843BCBFD0401843704792F0000F95
:1016380081F4000106BF80F400000132013BB5E7E8
:101648004FEA41037FEA226C18BF7FEA236C21D05E
:1016580092EA030F04D092F0000F08BF08467047C3
:1016680090EA010F1CBF0020704712F07F4F04D191
:10167800400028BF40F00040704712F100723CBFA4
:1016880000F50000704700F0004343F0FE4040F4CE
:10169800000070477FEA226216BF08467FEA23638C
:1016A8000146420206BF5FEA412390EA010F40F477
:1016B800800070474FF0000304E000BF10F00043C3
:1016C80048BF40425FEA000C08BF704743F09643AA
:1016D80001464FF000001CE050EA010208BF7047C5
:1016E8004FF000030AE000BF50EA010208BF70474C
:1016F80011F0004302D5404261EB41015FEA010C61
:1017080002BF84460146002043F0B64308BFA3F158
:101718008053A3F50003BCFA8CF2083AA3EBC2533A
:1017280010DB01FA02FC634400FA02FCC2F1200259
:10173800BCF1004F20FA02F243EB020008BF20F090
:101748000100704702F1200201FA02FCC2F12002F6
:1017580050EA4C0021FA02F243EB020008BF20EAEB
:10176800DC7070474FF0FF0C1CEAD0521EBF1CEA19
:10177800D15392EA0C0F93EA0C0F6FD01A4480EA07
:10178800010C400218BF5FEA41211ED04FF00063F0
:1017980043EA501043EA5111A0FB01310CF000401C
:1017A800B1F5000F3EBF490041EAD3715B0040EA42
:1017B800010062F17F02FD2A1DD8B3F1004F40EB12
:1017C800C25008BF20F00100704790F0000F0CF0E5
:1017D800004C08BF49024CEA502040EA51207F3AA9
:1017E800C2BFD2F1FF0340EAC250704740F4000084
:1017F8004FF00003013A5DDC12F1190FDCBF00F075
:1018080000407047C2F10002410021FA02F1C2F122
:10181800200200FA02FC5FEA310040F1000053EABE
:101828004C0308BF20EADC70704792F0000F00F00C
:10183800004C02BF400010F4000F013AF9D040EA12
:101848000C0093F0000F01F0004C02BF490011F4A6
:10185800000F013BF9D041EA0C018FE70CEAD153A4
:1018680092EA0C0F18BF93EA0C0F0AD030F0004C24
:1018780018BF31F0004CD8D180EA010000F00040D8
:10188800704790F0000F17BF90F0004F084691F096
:10189800000F91F0004F14D092EA0C0F01D14202D0
:1018A8000FD193EA0C0F03D14B0218BF084608D199
:1018B80080EA010000F0004040F0FE4040F40000E3
:1018C800704740F0FE4040F4400070474FF0FF0C76
:1018D8001CEAD0521EBF1CEAD15392EA0C0F93EABD
:1018E8000C0F69D0A2EB030280EA010C49024FEA0F
:1018F800402037D04FF0805343EA111143EA1013C8
:101908000CF000408B4238BF5B0042F17D024FF47F
:10191800000C8B4224BF5B1A40EA0C00B3EB510F5A
:1019280024BFA3EB510340EA5C00B3EB910F24BF43
:10193800A3EB910340EA9C00B3EBD10F24BFA3EBC8
:10194800D10340EADC001B0118BF5FEA1C1CE0D190
:10195800FD2A3FF650AF8B4240EBC25008BF20F043
:10196800010070470CF0004C4CEA50207F32C2BF97
:10197800D2F1FF0340EAC250704740F400004FF034
:101988000003013A37E792F0000F00F0004C02BF65
:10199800400010F4000F013AF9D040EA0C0093F02F
:1019A800000F01F0004C02BF490011F4000F013B89
:1019B800F9D041EA0C0195E70CEAD15392EA0C0FF1
:1019C80008D142027FF47DAF93EA0C0F7FF470AF29
:1019D800084676E793EA0C0F04D14B023FF44CAF6C
:1019E80008466EE730F0004C18BF31F0004CCAD101
:1019F80030F000427FF45CAF31F000437FF43CAF3D
:101A08005FE700BF4FF0FF3C06E000BF4FF0010C5E
:101A180002E000BF4FF0010C4DF804CD4FEA400240
:101A28004FEA41037FEA226C18BF7FEA236C11D08A
:101A380001B052EA530C18BF90EA010F58BFB2EB3D
:101A4800030088BFC81738BF6FEAE17018BF40F0BD
:101A5800010070477FEA226C02D15FEA402C05D171
:101A68007FEA236CE4D15FEA412CE1D05DF8040BF6
:101A7800704700BF844608466146FFE70FB5FFF789
:101A8800C9FF002848BF10F1000F0FBD4DF808ED41
:101A9800FFF7F4FF0CBF012000205DF808FB00BF32
:101AA8004DF808EDFFF7EAFF34BF012000205DF88C
:101AB80008FB00BF4DF808EDFFF7E0FF94BF0120D9
:101AC80000205DF808FB00BF4DF808EDFFF7D2FFD6
:101AD80094BF012000205DF808FB00BF4DF808ED19
:101AE800FFF7C8FF34BF012000205DF808FB00BFE6
:101AF8007BB972B90029BEBF00204FF0004106E053
:101B080008BF00281CBF6FF000414FF0FF3000F005
:101B180095B8ADF1080C6DE904CE002909DB002B5E
:101B28001ADB00F0D1F8DDF804E0DDE9022304B0A7
:101B38007047404261EB4101002B1BDB00F0C4F809
:101B4800DDF804E0DDE9022304B0404261EB410125
:101B5800524263EB43037047524263EB430300F086
:101B6800B3F8DDF804E0DDE9022304B0404261EB9C
:101B780041017047524263EB430300F0A5F8DDF8DA
:101B880004E0DDE9022304B0524263EB43037047EB
:101B980053B94AB9002908BF00281CBF4FF0FF31CC
:101BA8004FF0FF3000F04AB8ADF1080C6DE904CEF3
:101BB80000F08AF8DDF804E0DDE9022304B070479C
:101BC800D0B5FFF787F900220B4B06460F46FFF703
:101BD800D9F9FFF799FC0446FFF75AF90022074B99
:101BE800FFF7D0F902460B4630463946FFF712F8A0
:101BF800FFF78AFC2146D0BD0000F03D0000F0410F
:101C0800D0B500220B4B06460F46FFF7BBF9FFF78E
:101C18007BFC0446FFF73CF90022074BFFF7B2F9BB
:101C280002460B4630463946FEF7F4FFFFF76CFCD8
:101C38002146D0BD0000F03D0000F041704700BFD4
:101C480010F8012B11F8013B012A28BF9A42F7D05E
:101C5800D01A7047034611F8012B03F8012B002A0C
:101C6800F9D17047034613F8012B002AFBD1181A43
:101C78000138704710B500210446FFF711FF20B95D
:101C88002046BDE81040FFF79BBF04F10040FFF776
:101C980097FF404261EB410110BD38B50022002397
:101CA80004460D46FFF7E0FB28B920462946BDE863
:101CB8003840FFF7A5BF204605F10041FFF7A0FF18
:101CC800404261EB410138BD2DE9F04786468C461C
:101CD8000846089E154674461946002B40F0C180F8
:101CE8008542B2FA82F245D94AB1C2F1200300FA1C
:101CF80002FC954094402EFA03F343EA0C0C4FEA99
:101D0800154EA8B2230CBCFBFEF80EFB18CC08FB42
:101D180000F943EA0C43994528D9EB1808F1FF3735
:101D280004D2994502D9A8F102072B44A3EB090371
:101D3800A4B2B3FBFEFC0EFB1C330CFB00F044EA20
:101D48000344A04214D92C190CF1FF3304D2A04249
:101D580002D9ACF102032C44241A43EA07401EB10D
:101D6800D440002334607360BDE8F0874746DDE760
:101D78006346F1E792BB431B01214FEA154EAFB210
:101D8800200CB3FBFEFC0EFB1C330CFB07F840EAEF
:101D98000343984561D9EB180CF1FF3004D29845FC
:101DA80002D9ACF102002B44A3EB0803A4B2B3FBA5
:101DB800FEFC0EFB1C330CFB07F744EA0344A74266
:101DC8004DD92C190CF1FF3304D2A74202D9ACF13A
:101DD80002032C44E41B43EA0040C0E7C2F120039D
:101DE8009540944020FA03F12EFA03F34FEA154E7A
:101DF8009040AFB20343B1FBFEFC0EFB1C10190C64
:101E08000CFB07F841EA0041884522D969180CF112
:101E1800FF3004D2884502D9ACF102002944A1EB75
:101E280008019BB2B1FBFEFC0EFB1C110CFB07F773
:101E380043EA01439F420ED9EB180CF1FF3104D25B
:101E48009F4202D9ACF102012B44DB1B41EA00415D
:101E580093E76046E3E76146F7E76046A4E7634631
:101E6800B8E7834206D916B9002108467CE7C6E9D7
:101E780000E0F9E7B3FA83F78FB9834201D37245DB
:101E880008D8BEEB020460EB030301209C461EB990
:101E9800002169E73846FAE7C6E9004CF8E7C7F1D8
:101EA800200CBB400EFA07F522FA0CF42EFA0CF1BE
:101EB800BA401C4320FA0CF3B8404FEA14490143D6
:101EC8001FFA84FEB3FBF9F809FB18300B0C08FB6A
:101ED8000EFA43EA00439A4540D9E31808F1FF3067
:101EE80004D29A4502D9A8F102002344A3EB0A03BD
:101EF80089B2B3FBF9F809FB183308FB0EFE41EA77
:101F080003418E452CD9611808F1FF3304D28E4560
:101F180002D9A8F10203214443EA0040A1EB0E01D3
:101F2800A0FB02984145CE46434602D306D14D4513
:101F380004D20138B9EB020E68EB0403002EA7D0D7
:101F4800B5EB0E0261EB030101FA0CFC22FA07F370
:101F5800F9404CEA0303C6E9003199E74046C5E772
:101F68004346D9E700000000D0B504464068FEF7B4
:101F78009FFF09A3D3E90023FFF72EF9064620683F
:101F88000F46FEF795FF02460B4630463946FEF7E8
:101F980043FED0BDAFF300800000000080842E41D6
:101FA8000B1EB8BFFF3310B504461812A0FB020180
:101FB800DB1702FB0311FEF7B7FF07A3D3E90023E2
:101FC800FEF7E0FFFFF769FE0023054AFFF790FDE3
:101FD800C4E9000210BD00BF05A3923A019D234049
:101FE80040420F00000000000329F8B505460C46E2
:101FF80061D1002A3ED0072A54D15A681E68134678
:102008003148D117C6FB0031012B71F1000244DBC6
:1020180000F56E1000F65D70181841F1000128A354
:10202800D3E90023FFF764FD02282E6914D00428A1
:1020380014D0082814D010282FD1E7B23946686880
:102048001AF0F9F900280DDB204B777403EBC40371
:102058005B68F3600020F8BD0024EEE70124ECE79C
:102068000224EAE71A4A1B4801211AF035F86FF0F2
:102078000400F0E71988184B33F8020B814209D89D
:10208800D4B2214668682E691AF0BAF9002807DA2E
:10209800124AE8E701320A2AEED16FF01500DAE7B2
:1020A8003474D7E70B48134602210D4A1AF01DF87D
:1020B8006FF08500CFE70846BDE8F8400DF0D4BCC6
:1020C8003AA395000000000040420F00A824020037
:1020D800D275020090190200382A0200FD7502002C
:1020E800156D020000000000B0B50329044600AFDA
:1020F80042D852B3072A2CD15A681D68134628487B
:10210800D117C5FB0031012B71F1000215DB00F579
:102118006E1000F65D70181841F100011EA3D3E996
:102128000023FFF7E5FCB0FA80F0C0F11E01C9B248
:1021380020461CF05AFCBD46B0BD1A48181861F17B
:10214800000115A3D3E90023EBE719880DF09EFEE3
:10215800F1E76C4688B06A46134B4FF4C851536197
:10216800124B9361032342F8103F11481CF04FFCB7
:102178006FF08500A546DEE76C4688B06A460D4BD1
:1021880053610D4BC2E9063104234FF4045142F860
:10219800103FEAE7AFF300803AA395000000000083
:1021A80040420F00632EB5FF9B6E0200877002004D
:1021B80098190200BB6E0200977002000000000030
:1021C80070B514460646CD17A1FB0201002304FB97
:1021D80005110A22FFF78CFC0FA3D3E900230C4D4D
:1021E80080FB054520462946FFF782FC06A3D3E974
:1021F8000023306029462046FFF77AFC0023054A71
:10220800FFF776FC726070BD80A812010000000024
:10221800D8EF2F0040420F0000209BF35E10000013
:102228002DE9F84305460C4600AF00296CD0072974
:1022380040F08980536810684F4AD917C0FB0231B3
:10224800012B71F1000277DBD5F804804B4898F830
:102258001A4018184FEAD41445A3D3E9002341F1D2
:10226800000164B2FFF744FC002C14BF04230223CE
:10227800834298F91A6028D0002C14BF2023102319
:10228800984224D0002C14BF08230423984220D05D
:10229800002C14BF1023082398424DD103245FFA61
:1022A80084F9494640462D691AF011FD002812DBD1
:1022B800334B002E4FF03D0233F8143085F81E9052
:1022C8001EDBA3FB02325B081BE00024E7E70124C6
:1022D800E5E70224E3E76C4688B06A46294B536178
:1022E800294B9361032329484FF4C85142F8103F02
:1022F8001CF01FFC6FF00400A546BD46BDE8F8833E
:102308005343EB600020F8E7214B1288984633F8D6
:10231800021B8A420DD86868E1B22E691AF069FE7C
:1023280000280CDA6C4688B06A461A4B53611A4B7F
:10233800D7E701340B2CEAD16FF01500DDE738F848
:102348001430B383DEE76C4688B06A46134B0F48F7
:102358005361134B4FF4C8519361032342F8103F64
:102368001CF0E7FB6FF08500A546C6E7AFF30080D9
:102378003AA395000000000040420F009DD14A009A
:10238800782A0200CE750200C0780200B019020057
:10239800802A0200F9750200AA7802002776020056
:1023A800D878020000000000F8B50D46032D11464C
:1023B80004461A4600AF07D0072D09D00221464A25
:1023C800464819F089FE7EE0FFF72AFFBD46F8BDB2
:1023D800002951D0072966D159681D680A46404B23
:1023E800C817C5FB0320B425A2FB0531012A05FB4C
:1023F800001170F1000028DB3A48181841F100017B
:1024080033A3D3E900230025FFF772FB364B33F8DB
:10241800022B904221D16068E9B226691AF06EFC5D
:10242800002820DA6C4688B06A46304B5361304B3E
:102438009361032329484FF4C85142F8103F1CF018
:1024480078FB6FF00400A546C0E72A48181861F128
:1024580000011FA3D3E90023D5E70135072DD6D105
:102468006FF01500B2E741F21712234B33F815301D
:102478005343B3610020A9E71A88204B33F8020BB5
:1024880082420CD86068C9B21AF021FE0028F1DA3D
:102498006C4688B06A461A4B53611A4BC8E701313B
:1024A8000B29EBD1DCE76C4688B06A46164B4FF433
:1024B800C8515361154B09489361032342F8103FF3
:1024C8001CF037FBA5466FF085007FE7AFF300806F
:1024D800D8EF2F0000000000A0740200B01902001D
:1024E80040420F00ECF717006A2A02004A76020001
:1024F8007F7802001408E8FF5C2A0200802A0200A4
:10250800717602006A7802009B76020096780200D3
:102518002DE9F74F03291446066905D90B1F032B2C
:1025280053D96FF0850023E00229F7683A4D22D08D
:10253800032923D0012914BFB6F90460B6F906604F
:10254800A6FB076732A3D3E9002386FB056530465F
:102558002946FFF7CDFA0023304A20602946304645
:10256800FFF7C6FA00232D4AFFF7C2FA626000207F
:1025780003B0BDE8F08FB6F90860E1E74FF0000B53
:1025880002F11803DFF894A00236019336F9028F9E
:10259800A8FB07831EA3D3E9002388FB05984846B8
:1025A8004146FFF7A5FA524644F8080B5B464846F1
:1025B8004146FFF79DFA52465B46FFF799FA019BA1
:1025C80044F8042C9C42E1D1D1E70629B5690CD026
:1025D80007290ED02A46052914BFB6F91010B6F9F6
:1025E80012102046FFF7ECFDC1E72A46B6F9141091
:1025F800F7E70E3602F1180720462A4636F9021F79
:102608000834FFF7DDFDA742F6D1B0E7AFF300804D
:102618000010A5D4E80000003AA3950040420F003E
:102628000B460321014A024819F05FBDA62A0200A1
:10263800C01902001FB506240294044C0194BDF889
:10264800184000940BF03AF904B010BD943F0020F4
:102658001FB506240294044C0194BDF81840009458
:102668000BF02CF904B010BD9A3F00201FB50424CC
:102678000294044C0194BDF8184000940BF01EF924
:1026880004B010BD582300201FB502240294044C46
:102698000194BDF8184000940BF010F904B010BD77
:1026A800A03F00201FB502240294044C0194BDF8F9
:1026B800184000940BF002F904B010BDA23F0020AE
:1026C80080B50C4A0C4B00AF88B0012908BF1346EF
:1026D8006A460A49C2E905134FF400739383084B0D
:1026E80042F8103F00234FF4E651064801F0D0FDB0
:1026F800BD4680BDC32A0200BF2A0200CD2A0200BF
:1027080003000001C019020080B50C4A0C4B00AF51
:1027180088B0012908BF13466A460A49C2E9051369
:102728004FF400739383084B42F8103F00234FF493
:10273800E651064801F0ACFDBD4680BDC32A020043
:10274800BF2A0200ED2A020003000001C01902009E
:1027580080B50C4A0C4B00AF88B0012908BF13465E
:102768006A460A49C2E905134FF400739383084B7C
:1027780042F8103F00234FF4E651064801F088FD67
:10278800BD4680BDC32A0200BF2A02000D2B0200ED
:1027980003000001C019020080B50C4A0C4B00AFC1
:1027A80088B0012908BF13466A460A49C2E90513D9
:1027B8004FF400739383084B42F8103F00234FF403
:1027C800E651064801F064FDBD4680BDC32A0200FB
:1027D800BF2A0200272B020003000001C0190200D3
:1027E80080B50C4A0C4B00AF88B0012908BF1346CE
:1027F8006A460A49C2E905134FF400739383084BEC
:1028080042F8103F00234FF4E651064801F040FD1E
:10281800BD4680BDC32A0200BF2A0200422B020027
:1028280003000001C019020003460121014A0248C1
:1028380019F05BBC602B0200C0190200084609B100
:10284800FFF7F2BF0321024A024819F045BC00BF56
:102858007D2B0200C0190200B0B588B0002002AF7D
:1028680005F048FA034638B11A4A01211A4819F006
:102878003CFC1837BD46B0BD184D0321184A164810
:102888003C1D19F029FC19F0F4FC0FCD0FC42B687E
:10289800022223600124134B13490094381D06F0CB
:1028A800C7F9034608B1114ADFE76C4688B002AAA7
:1028B8000F4951610F4991614FF4007191830E499D
:1028C80042F8101F4FF4E651034801F0E1FCA54619
:1028D800CFE700BF872B0200C0190200C01A020010
:1028E800A12B0200C81D0200D01D0200B72B020058
:1028F800D52B0200F12B02000300000107B5064B9F
:10290800ADF8040018800222044801A918F0B9FAA9
:1029180003B05DF804FB00BFA23F0020081E0200C0
:1029280007B5064BADF8040018800222044801A937
:1029380018F0A7FA03B05DF804FB00BFA03F002021
:10294800441E020007B50422054B019018600DEBE8
:102958000201044818F095FA03B05DF804FB00BFC3
:1029680058230020801E0200044B188059809A804A
:1029780019460622024818F084BA00BF9A3F002080
:10298800BC1E0200044B188059809A801946062202
:10299800024818F076BA00BF943F0020F81E0200E3
:1029A80013B504460E4B0F48636020601DF0B9F95B
:1029B80018B94FF0FF3002B010BD60681DF0B1F9D2
:1029C8000028F6D0642300226068CDE900328368CD
:1029D8001C6814B16B464021A0470020EBE700BFFC
:1029E8005C150200DC14020013B504460A48206096
:1029F8001DF097F968B1642300222068CDE9003200
:102A080083681C6814B16B464021A047002002B0BF
:102A180010BD4FF0FF30FAE73C1502002DE9F04FEA
:102A2800A3B015A800F008F9002840F0EA8004A82F
:102A3800FFF7DAFF002840F0E4800BA8FFF7B0FFAB
:102A4800002840F0DE80FFF707FF0024DFF8C4A16C
:102A5800714D504617F0B0F8704817F0BFF80BA842
:102A680018F026FA15A818F067FA04A818F04FFA13
:102A78000DA8FFF779FA06460FA80F46FFF774FA74
:102A880032463B46CDE90001654817F095F811A894
:102A9800FFF76AFA064613A80F46FFF765FA3246AB
:102AA8003B46CDE900015F4817F086F816A8FFF706
:102AB8005BFA064618A80F46FFF756FA80461AA88A
:102AC8008946FFF751FA32463B46CDE90201CDE986
:102AD8000089554817F070F805A8FFF745FA06462B
:102AE80007A80F46FFF740FA804609A88946FFF76E
:102AF8003BFA32463B46CDE90201CDE900894B4815
:102B080017F05AF80DA8FFF72FFA22462B46FEF7C2
:102B180039FAFEF7D1FC00B2FFF7F0FE0FA8FFF775
:102B280023FA22462B46FEF72DFAFEF7EDFC80B27B
:102B3800FFF7F6FE11A8FFF717FA00223C4BFEF745
:102B480021FAFEF7E1FCFFF7FDFE16A8FFF70CFAE5
:102B5800804618A88946FFF707FA06461AA80F46BE
:102B6800FFF702FA22462B46FEF70CFAFEF7A4FC02
:102B780022462B460FFA80FB39463046FEF702FA0A
:102B8800FEF79AFC2B46224606B249464046FEF717
:102B9800F9F9FEF791FC5A46314600B2FFF7F2FE0A
:102BA80005A8FFF7E1F9804607A88946FFF7DCF991
:102BB800064609A80F46FFF7D7F922462B46FEF727
:102BC800E1F9FEF779FC22462B460FFA80FB3946DD
:102BD8003046FEF7D7F9FEF76FFC22462B4606B2C1
:102BE80049464046FEF7CEF9FEF766FC5A4631469E
:102BF80000B2FFF7B9FE00214FF480301DF0E1FB71
:102C080027E70C4816F0EAFF4FF0FF3023B0BDE885
:102C1800F08F00BF1F2C020000005940262C020034
:102C2800462C02006B2C0200952C0200BD2C0200E1
:102C380000408F40F92B020013B504460A48206073
:102C48001DF06FF868B1D02300222068CDE900326A
:102C580083681C6814B16B460321A047002002B0AA
:102C680010BD4FF0FF30FAE77C1502002DE9F04F58
:102C780091B0009302F004030293C2F3C20301333C
:102C8800840705460E46DDF868800392059340F0F8
:102C9800BB81041D30B1072909D86FF01B0011B0A2
:102CA800BDE8F08F01F007063444C6F10806009B22
:102CB8004FF000094FF0040A591E4FF0FF334F46FA
:102CC8000193CB465346CDF810900DB1009A22607F
:102CD8000598002800F3E8809848009A824203D3B8
:102CE80097488242C0F0E080039AA4EB050E920751
:102CF8004FEA9E0000F103810F2F00F2B180002DF2
:102D080000F0058107F140020DEB020C019A0CF866
:102D1800200C0CF8102C049801300490E7E07A2875
:102D28005DD84B280ED8472859D829282DD82528CA
:102D380052D054D820287AD02338D0F1000B4BEB4E
:102D4800000B74E04C382E2849D8DFE800F07048B2
:102D5800484848484848484848484B4848484848E8
:102D680048484859484B4B595959704B6D48704819
:102D7800184B184848827F4B48484B487F00002032
:102D88004FF0000B4FF0040A38E001222A38C0B295
:102D980002FA00F010EA0E0F49D110F0625C2FD150
:102DA80010EA020B43D06046013C5444B4FBFAF4E9
:102DB8000AFB04F4002D61D0A3EB050CA444B44530
:102DC8003FF66BAF002868D1042B47D158F8043B75
:102DD8002360042304342AE0019A013A01924FF057
:102DE800000B24E011F8010C6C2834D1002011F8F4
:102DF800023C83466C2BC5D14FF0080A5346D3E7F3
:102E080008F1070828F00708073424F00704F8E851
:102E180002AB35B106982044B0423FF63EAFC4E954
:102E280000AB4FF0000B08344FF0080A534611F876
:102E3800010F002878D0BBF1000F7FF470AF252870
:102E4800F5D14FF0010B019B013301934FF0040AB8
:102E5800ECE7584694E700208346A5E7082B02D004
:102E68006FF015001BE708F1070828F00708F8E8D5
:102E78000223C4E9002308230834D8E768B9042BDF
:102E880002D108F10408A4E7082BE9D108F10708E2
:102E980028F0070808F10808EDE7059A013A0592B5
:102EA80058F8042B009210E7039A900720D54FF0AA
:102EB800010CA4EB050E4FEA9E00BEF5007FCFD2B1
:102EC8000F2FCDD8F5B107F140020DEB020E019A94
:102ED800C0B20EF8200C0EF8102CBCF1000F3FF415
:102EE8001AAF60F07F000EF8200C09F101090137D4
:102EF800C5F108024FF6DA7E0434069297E74FF0E0
:102F0800000CDAE7BCF1000F01D00136EFE70298B8
:102F180002360028EBD10098CDE90631FEF7A2FE73
:102F2800DDE906310644E2E7631BB3F5806F97D20B
:102F380045B9A6F10804E018B1E600BFA4120200E2
:102F4800247D0200029A9B0828602B709DF810309F
:102F5800C2B1EB7085F80290B9F1000F05D00022DC
:102F680008A8C5F1010C97420ED14FF0000AC5F12F
:102F780001030DF1200801930DF1300B574512D1D3
:102F8800601B8CE66B70E5E710F8013B190608D565
:102F98000CEB040EB64503F07F033FF67EAE04F853
:102FA800013B0132DFE7B9F1000F03D098F90020A7
:102FB800002A17DB029BD3B11AF80B2004F8012B67
:102FC8000022019B18191044B0423FF666AE98F8EB
:102FD8000000009904F8010B204603921DF02EFF13
:102FE800039A14440AF1010A08F10108C6E798F89F
:102FF800002055F822300093029B009845F82230B3
:10300800FEF730FE421CDCE76FF00D0047E600BF1C
:103018002DE9F04F97B000AFD7F880B03B62CBF303
:10302800C0030446894690F802A0FA62BB6141B920
:10303800457800780AEB800020444D4517D8A0EB6E
:103048000409E378FB61BAF1000F02D01BF0010F0D
:1030580016D1FB6953BBFB6A1BB1494620463A6A45
:1030680098474D4628465C37BD46BDE8F08F461C5C
:103078003046FEF7F7FD0130304409F10109DCE77D
:10308800626823787A62FA6A9900796104EB8301AD
:10309800002A40F001810E464FF000084D4601EB32
:1030A8000A094E454CD101EB0A0610E01BF0020F4D
:1030B800D1D023789A007A61626804EB83017A623E
:1030C800FA6A002A77D14D46904601EB0A061BF0B2
:1030D800050F0CBF02230123FB62FB6906EB430AC1
:1030E8000BF00203BB625645BCD016F8021B16F85B
:1030F800013C54F82390994B994502D3984B994534
:1031080036D3BB69002B40D0786A18F09EF90028A6
:103118003BD0E9468AB06A46924B53617B6AC2E962
:1031280006314FF4007313848F4B42F8103F00238D
:103138004FF412518D4801F0ABF8023DCD46D2E76D
:1031480016F8013BF96254F82300FEF78BFDD7F817
:103158008430F96A01304BB1D7F8883098453EBFC2
:10316800D7F8843023F8180008F10108054498E7D7
:10317800BB6923B1786A18F068F90028C9D11BF037
:10318800010F05D1FB6AED1AADE7BB6A002BAAD087
:103198004846FEF767FDD7F8843053B1D7F8883032
:1031A80098453FBFD7F88420431C22F8183008F10F
:1031B8000108054497E7BAF1000F73D01BF0040625
:1031C80073D0D046002607F1480052463B61B962E9
:1031D8001DF034FEB96A3B6901EB0A02BA62FA696A
:1031E800F9695200FA60BA6A02EB41023A610BF0DF
:1031F8000202BA603A69B96A8A4258D162781BF009
:10320800020F18BF00217A6208BF4FEA5801B218AE
:103218001BF0010FD2B240F09F801BF0040F14BFC7
:1032280040460020BB616270A070E17020463A6A97
:103238007969FB6A9847051EFFF614AFBB694146DA
:1032480023707B6A3A6A6370FB6984F802A0E370B2
:1032580007F14800FB6A9847B0F10008C0F2BA804D
:103268007B69A9EB0A01C91AFB683A6AC91AD7E946
:103278000A0398470028C0F2AF804FF0000BA8441B
:1032880008EB000507F1380AB34571D300213A6A03
:103298000846FB6A9847E5E656464FF0000807F1EE
:1032A800380092E75646D04696E7B04694E7BA6AA1
:1032B80012F8021B12F8015CBA6254F82500274A7A
:1032C800904202D3264A90421ED3BA6932B1786A34
:1032D8007B6018F0BAF87B6800288BD1BA6802BB0B
:1032E80008F1280207F1300C08F10100944407F1B5
:1032F800580208F1020852FA80F00CF8101C5FFA24
:1033080088F800F8105C75E7BA693AB1786A7B60AA
:1033180018F09BF87B6800287FF46CAF1BF0010F56
:1033280009D006F1280207F13000711C161806F8BA
:10333800205CCEB25EE71BF0040F3FF45BAF08F1F0
:10334800280207F1300008F1010102EB000808F833
:10335800105C5FFA81F84DE7002063E7A4120200D1
:10336800247D0200E52C020004000001301A02004E
:103378001BF80A3054F8239087F83730D7F8843090
:103388002BB3D7F888309B4521D2D7F8843033F84F
:103398001B8001213A6AFB6A07F137009847002829
:1033A8001ADB0544B8F1000F06D14846FEF75AFC6F
:1033B80000F101081FFA88F8414648463A6AFB6A54
:1033C8009847002808DB05440BF1010B5CE74FF038
:1033D8000008DEE7454645E6054643E6014B18602A
:1033E800704700BF1002002080B505460E461746FC
:1033F800984611F067FC03461DF046FF0446DFF8C7
:103408001890424649F8003039463046A84754F8E3
:10341800090001F0C3FE00BF080000002DE9F047D5
:10342800058B04462807904611D4022905F00705A4
:1034380040F0CC80204618F0B7FA78B10138218BDB
:10344800042811D8DFE800F0C2106D859500012925
:103458000CBF45F0100545F02005258388F3118839
:10346800BFF36F8FBDE8F08701F0070AAA4500F0A7
:10347800A5800027B9463E46A368002B00F0BC8013
:1034880041F00801218388F31188BFF36F8FA16889
:10349800002900F0BA800D68002900F0B680334694
:1034A80052462046D1F80480C047002D76D02B68BC
:1034B80029461D46F0E701F007035A1F012A1BD8C9
:1034C800002221F00701062B276889B2C4E90022EF
:1034D80009D13B4603E0628B013262831B68002BF3
:1034E800F9D141F002012046218318F05DFA002845
:1034F8007AD041F0200176E0042B0AD121F00701AF
:1035080089B22046218318F04FFA10B141F020010A
:103518002183218B01F0070AAA454FD00027B9461D
:10352800AAE7236921F0070141F00601062DD3F827
:10353800009021832DD1B9F1000F3FD041F008014F
:10354800218388F31188BFF36F8F20463949C84714
:1035580029E021F00701236941F0040189B2042D13
:10356800D3F804902183E6D000274FF0040A3E46A2
:1035780082E721F00701236941F0050189B2052D91
:10358800D3F808902183D6D000274FF0050A3E468D
:1035980072E700274FF0060A3E466DE72B4687E79D
:1035A800B9F1000FD1D1EFF31188202383F31288EA
:1035B800BFF36F8F238B23F008032383258BEA0641
:1035C8002ED525F01003238305F007056669218BA6
:1035D800002EBFF670AF00232768C4E9003321F03E
:1035E800070141F001012183218B4FF0000901F00F
:1035F800070AAA457FF440AF002F9CD041F008018C
:10360800218388F31188BFF36F8F002FC8D03D68DE
:10361800394633465246204618F0F2F92F46F4E769
:10362800AB067FF51BAF25F02003238305F00705C4
:1036380000E700BF35BA010010B530B90B480C4996
:1036480018F0BDFA6FF0150010BD836833B907484C
:10365800084918F0B4FA6FF00400F5E71B6813B1D5
:10366800BDE8104018471846EEE700BF501A0200A0
:10367800992D0200AA2D020010B530B90B480C494B
:1036880018F09DFA6FF0150010BD836833B907482C
:10369800084918F094FA6FF00400F5E75B6813B175
:1036A800BDE8104018471846EEE700BF501A020060
:1036B800992D0200AA2D020070B508B101B132B9E6
:1036C8000B480C4918F07BFA6FF0150070BD846840
:1036D8000CB1E56835B90648074918F070FA6FF07B
:1036E8000400F3E741F8040BE368BDE870401847AD
:1036F800501A0200C82D0200AA2D020010B5044677
:1037080030B91048104918F05AFA6FF0150010BD7A
:10371800006830B90B480D4918F051FA6FF00100F4
:10372800F5E783680BB11B6933B90648084918F0F7
:1037380046FA6FF00400EAE7616898470028E6D186
:103748002060E4E7501A0200F42D0200052E020062
:10375800AA2D020070B51346044630B91048114925
:1037680018F02DFA6FF0150070BD006830B90C48DC
:103778000D4918F024FA6FF00100F5E782680AB1E4
:10378800956835B90648094918F019FA6FF0040028
:10379800EAE70A46AC466168BDE87040604700BF8A
:1037A800501A0200F42D0200052E0200AA2D020074
:1037B800034A13680BB9526813600020704700BFB2
:1037C8001402002030B50C460E4985B00291D0F89D
:1037D800D4110546CDE9003100F1F0014FF0FF3377
:1037E80020460FF039FF50B9012384F86C30D5F822
:1037F800D03123B1204605B0BDE83040184705B0A8
:1038080030BD00BFBFBC010038B50C4611460546A7
:1038180018F053FA034638B92846044918F04DFA07
:1038280003460020236038BD0120FBE7942C0200EA
:103838002DE9F04F012381460569466887B005F5F3
:103848005D77D7E8EF2F002A03D1C7E8E13F0029C9
:10385800F7D10CBF1A46002240F0B080B368B16AB5
:1038680005F5F8781C1F104618F0AEFA84426ED899
:10387800013A00F09D80B2FA82F24FF00044D44041
:1038880072682046073222F00302C5F83C22B16A6A
:1038980018F09AFAC5F84002B36A40466343033306
:1038A80023F0030302EB4302230103EB4403093330
:1038B80023F0030303EBC403C5F834221A44083287
:1038C800C5F830227368C5F83842C5F82C323D4B2C
:1038D800C5E9AD63316800F0E5F90446002834D144
:1038E800D9F810B0D9F804A0D9F800300BF534791C
:1038F800059004934846DAE90734012B08BF103CC9
:103908001CF053FCDAF824002F4904AB01EB8021AA
:103918004FF4806248460093234610F0F1FD2B498E
:103928000BF530701CF0FAFBDAE9050183685C6876
:103938004CB15B46264AA047044630B9DAE905018E
:1039480083681B692BB96FF05704002129E0013205
:1039580089E70122984704460028F6D11D4B2846DE
:10396800C5F8D0311C4BC5F8D4311C4B0393D5F89E
:1039780040320293D5F83C32CDE9008305F5117346
:10398800B26AD5F8701300F055F904460028DCD166
:1039980005F1F0000FF006FF0028C5F878030ADBF0
:1039A8000221384618F0BDF9204607B0BDE8F08F6F
:1039B8006FF00B04C9E76FF01504C6E76FF07704E2
:1039C800F2E700BF15BD0100C0420020FBBC0100AA
:1039D800EFBC0100E9390000A7BE01005BBD010092
:1039E80013B5044640B100230122CDE90032074B4C
:1039F800D0E909120FF004FE236F1B6823B1606F32
:103A080002B0BDE81040184702B010BD942C020067
:103A180013B504460846216901F55D71D1E8AF1F69
:103A2800022910D193B1A0B10121CDE9003113468B
:103A3800D0E909120FF0E4FD074B984208BF6FF078
:103A48000B0002B010BD6FF00F00FAE76FF04C00EA
:103A5800F7E76FF00100F4E72EF8FFFF2DE9F347D1
:103A680089461546066906F55D73D3E8AF3F022B14
:103A780064D1136823B96FF0150002B0BDE8F08770
:103A88001B78002BF7D0D6F870A3BAF1000F36D107
:103A980006F5EC774FF0FF324FF0FF33384610F061
:103AA8005DFA30462A6801A9FFF7AEFE019C804600
:103AB8001CB9384618F033F9DDE705F10803236728
:103AC800AB6984F86CA06367646460B1384618F029
:103AD80026F921463046A36E2A68FFF773FE0020B8
:103AE800C9F80040C9E71F22296804F148001DF001
:103AF800F6F9384684F8678018F011F9EFE7304690
:103B0800104918F0DAF804460028B4D0002705F167
:103B180008030367AB6980F86C70436740641F2231
:103B2800296848301DF0DBF922460121304684F827
:103B3800677000F061F80028D1D09CE76FF00F00A3
:103B48009BE700BF942C020010B50C46006900F5F5
:103B58005D73D3E8AF3F022B0FD189B10A4900F555
:103B680030701CF007FB20461BF005FE7822002170
:103B780020461DF08AF9002010BD6FF00F00FBE70A
:103B88006FF00100F8E700BF5C2300202DE9F04F3B
:103B980005460E4690460027D0F8C4A085B0AAF581
:103BA800BE7421463046FEF74BF8E0B9114BA4F13C
:103BB800480B0293DAF810303246CDE900832946E3
:103BC8004FF0FF335846AAF5E2790FF045FD60B98A
:103BD8007823012203FB079383F86C20DAF80C3072
:103BE8000BB158469847783417B105B0BDE8F08F47
:103BF8000127D6E7D5BE01001FB5144690B18AB19A
:103C0800012912D10A4B00F1F0010293D0F8D43106
:103C1800483201934FF0FF33204600930FF01CFD0C
:103C280004B010BD6FF01500FAE70020F8E700BFF8
:103C3800D5BE01002DE9F04387B00E46DDE90E81BF
:103C48001446DDE910251F4630B329B3DFF850C00C
:103C580000F1F009002D08BF65469EB9CDE903447F
:103C680000F5E274204605961CF01DF803ABCDE97B
:103C780000432A463B46414648460FF00DFE07B032
:103C8800BDE8F083002241460E9248462A4607B016
:103C9800BDE8F0430FF050BF6FF01500EFE700BF2D
:103CA800953B0000F0B504462B4A87B004AB0E469E
:103CB80092E8030083E80300002C49D018460FF06F
:103CC800A5FB0546B0B94FF0FF33E16C04F154078A
:103CD800A163CDE9010000933846236D04F1380251
:103CE8001BF0FBF9A06C18F020F9C4F8BC0020B94F
:103CF8006FF00B05284607B0F0BDA06C18F015F959
:103D0800C4F8C0000028F3D0236CD4F8BC10C4F861
:103D180090300423C4F89430C4F8AC300223E36232
:103D28000E4BB4F84820C4F88C10616C236204F17F
:103D38008C03C4F8A070A4F89820C4F8B870C4F82C
:103D4800A810A4F8B020C4F8A400A6612363D1E7A2
:103D58006FF01505CEE700BFD41A02004C1F020011
:103D68002DE9F047044607464FF00109DFF8508077
:103D780014B93846BDE8F08794FAA4F5B5FA85F584
:103D880009FA05F32E0108EB05156FEA030A24EA80
:103D980003042B7B002BEBD058F806301B694BB97A
:103DA8004644736804222846196807EA0A0718F087
:103DB80024F9DDE7284698470028D9D1F0E700BF65
:103DC800B01A020030B5002289B00F490F481CF024
:103DD800CBFB002200230024CDE906230E230C4D43
:103DE800CDE903344FF440722846CDE90144094B2C
:103DF8000949009410F0A2FC084928461CF030FA42
:103E0800204609B030BD00BF293E0000980F0020B1
:103E1800100B00203D410000C04600202A2E020061
:103E2800014810F095B900BFE80500202DE9F047DA
:103E3800804621480F4618F0C4F80646002833D0BB
:103E480000252846BDE8F087237B83B12368DB681B
:103E58000BB120469847636883F8069023681B696E
:103E6800D3B9636804222046196818F0C6F80136E9
:103E780010345445E8D3B8F1000FE2D0002DDFD05C
:103E88002846FFF76DFF0546002FF7D000214FF4B5
:103E9800A4701CF096FAF1E7204698470028E0D075
:103EA80009FA06F31D43E2E705464FF00109034C02
:103EB800DFF80CA0DDE700BF94230020B01A020051
:103EC800C01A0200014B53F8200070478C1F0200F3
:103ED80008B5034608462BB1044A136000F06EFC8F
:103EE800002008BD6FF01500FBE700BF400200206E
:103EF80010B5044C237813B9034810F029F90123AD
:103F0800237010BDCA3F0020E805002010B5044604
:103F1800094818F056F83CB1084BD3E8EF1F0139AF
:103F2800C3E8E21F002AF8D105481CF029FBBDE8C8
:103F38001040044810F00CB98C2300209023002076
:103F4800980F0020E805002000200146034BD3E825
:103F5800EF0FC3E8E21F002AF9D170478C23002035
:103F680070B5FFF7F1FF0546074C084EB44200D381
:103F780070BD63685B792BB123685B6813B1294610
:103F8800204698471034F1E7B01A0200C01A020020
:103F980010B5044C0449204617F09FFB034B1C60E6
:103FA80010BD00BF9C040020781F0200842300205D
:103FB80000230D4A10B513700C4A4FF400411360EA
:103FC8000B4A0C481360FFF783FFFFF7E1FF0A4B2A
:103FD8000A4918468B4200D310BD1A1A5C681211A0
:103FE800013222711033F5E7CB3F00208C230020EB
:103FF80090230020C7BF0100B01A0200C01A0200B7
:10400800014600220023014817F088BB9C040020C9
:10401800014817F021BC00BF9C040020024B014658
:10402800186817F06DBC00BF84230020014817F002
:10403800A2BC00BF9C04002070B5274B187800284C
:1040480049D0FFF7E5FF0546002841D1234B244C12
:104058001B68002B19DD1CF040FA4FF47A72A0FBA4
:10406800020302FB0131C30B43EA4143D4E90020B8
:104078009B1A40F2E9324FEAD13161EB00019342D9
:1040880071F1000101D3FFF76BFFD4E9003213F59A
:104098007A7342F10002C4E90032BDE87040FFF7CC
:1040A800C5BF63685B7923B12368294620461B682E
:1040B80098471034B442F4D32846FFF7AFFF094BB2
:1040C800D3E8EF1F0139C3E8E21F002ABED0F7E7A3
:1040D800054C064EEEE770BDCA3F00208C23002039
:1040E800900F002090230020B01A0200C01A02008E
:1040F80070B50D4D297861B90120FFF797FE0B4C7B
:104108000B4EB44206D3FFF797FF0028FBD10123DB
:104118002B7070BD63685B791BB1236820469B6870
:1041280098471034EDE700BFCB3F0020B01A0200DB
:10413800C01A020000212DE9F0470846FFF776FE75
:10414800044658B340F267684FF000091DF09CF828
:104158001B4B1C4A1B58136033B11B4B1B68092BA4
:1041680002DD1A480FF0F4FF0025194FDFF85CA0B4
:1041780044B12046FFF7F4FD044618B94FF0FF3864
:104188004FF0FF39FFF758FF064628B9B5B9424640
:104198004B46504610F016F83546E9E74FF0FF3821
:1041A8004FF0FF39D2E72B689B691BB100222846E4
:1041B800114698471035BD42F5D3E8E7054DFAE7B3
:1041C800080000008823002090230020E805002034
:1041D800C01A0200B01A020013B5184817F0F1FE11
:1041E800174B1B7873B1EFF31184202383F31288E4
:1041F800BFF36F8FFFF720FF84F31188BFF36F8F32
:1042080002B010BD0F4B1B68002BF9D050B900222B
:1042180000230D48CDE900234FF40042002311F09C
:104228004DF8EDE70928EBD107481CF0A9F9074834
:1042380002B0BDE810400FF08BBF00BF90230020F4
:10424800CB3F002088230020980F0020E80500209D
:1042580010B5064B04461B6898472146A0600448E1
:1042680017F0DBFABDE81040FFF7B6BF40020020A8
:104278009C040020044A054B9B1AB1EBD30F34BFB2
:1042880052F831000020704788190200B01A020065
:104298002DE9F04F8FB0C1F34A2804AF0D4691467F
:1042A800B8607B600C0DB8F1000F63D000264FF0AA
:1042B800040B4FF00A0A07F11403C7F80C80C7E98A
:1042C80007667E620193CDF808B0CDF800A007F12B
:1042D8001C0332464846F968FEF79AFEB0F5006FAF
:1042E80003461CD36C468AB0D9F8041004AB2648A0
:1042F8001A46C3E9050140F2FF71D9614FF4007114
:104308001984224B42F8103F4FF41251334620488B
:10431800FFF7BEFFA5462C37BD46BDE8F08FC0F3BA
:104328000A0804F11700184420F0070080083B60D1
:10433800FFF766FE68F35325044690B13B6800F129
:104348001001C7E9083607F11403F961CDE900A3A4
:10435800CDF808B048460F4AF96807F11C03FEF784
:1043680057FE68F353252A4620467B68B96817F03C
:1043780063FED0E704F1170020F007008008FFF77C
:104388003FFE0446EDE700BF3F2E02000400000197
:10439800581A020015C001002DE9F04F87B00446F5
:1043A800DDE9105ADDE91279934698460391BFB1C9
:1043B8003B46524610210020CDF80090CDF81490CD
:1043C800FEF754FCB0F5006F06460AD340F2FF73BF
:1043D8000221174A174807B0BDE8F04F17F085BE0D
:1043E8003E4605F11700304420F007008008FFF72B
:1043F80007FE04F007040BF0070BE40044EA8B14F3
:1044080044EA462444EA0554054640B13FB13B46D8
:1044180052463146CDF800901030FEF727FC43464F
:1044280022462846039907B0BDE8F04F17F004BEAE
:104438007E2E0200581A0200406820B1034BC01AB1
:1044480040F3CF0070474FF0FF30704788190200E3
:104458000EB403B503AB53F8042B0146044801938B
:1044680001F0CAF902B05DF804EB03B0704700BF71
:1044780055C10100CA0605D48B064CBF0249034941
:10448800FFF7E6BF704700BF932C0200D87B0200FD
:104498002DE9F04F89B09B46149B9DF84CA00693DC
:1044A800159B04460593169B0D469046179E04934C
:1044B800BAF1000F00F09D8006F48073079317F09F
:1044C8009AFD06F00209024600283ED0204691498E
:1044D800FFF7BEFF0746B9F1000F08D016F0440FEA
:1044E80035D12A4620468C49FFF7B2FF074406F02B
:1044F800010353B1894B204653F82A20884B894938
:10450800002A08BF1A46FFF7A3FF06F48073002BA2
:1045180049D006F00803002B63D1B8F1000F66D02C
:10452800424620468049FFF793FF0546069B3D44D7
:10453800002B6DD1049B002B73D1F30700F1E480AD
:1045480031462046FFF796FFD8E00746C3E7774B8A
:1045580018680028CAD0764B4FF47A791B684FF058
:104568003C0CB5FBF3F5B5FBF0F14FF4616300FBD0
:10457800115509FB05F5B1FBF3F2B5FBF0FE03FBA2
:10458800121100FB1E55B1FBFCF309FB05F5B5FB49
:10459800F0F50CFB131120460091CDE901E56549C2
:1045A800FFF756FFA2E706F00803EBB1624B20467F
:1045B80053F82A206149FFF74BFF0546B8F1000F71
:1045C80005D0424620465849FFF742FF0544BBF153
:1045D800000FABD05A4620465949FFF739FF05442A
:1045E800A4E74FF0000BE1E706F00805E6E74546CB
:1045F8009CE7BBF1010F069B06D1002B64D1049BFD
:10460800002B7BD000250CE0002BF8D04D485CE057
:104618004D48069B22464D4916F0E6FE049B002BAA
:1046280068D0DFF82C81DFF82C91049F3146102FD9
:10463800204628BF10274FF0000BFFF71BFF5D45F2
:1046480045DC059B494620461A78FFF701FF4FF0E5
:10465800010B1BF0070F03D141462046FFF7F8FE78
:104668005F453BD9059B4946204613F80B20FFF7C9
:10467800EFFE0BF1010BBBF1100FEAD14FF0000B6D
:1046880020463549FFF7E4FE5A46059B20469A5CCA
:10469800A2F120015F2928BF2E223049FFF7D8FE5A
:1046A8000BF1010BBBF1100F1DD01BF0070F03D14D
:1046B80041462046FFF7CCFE5F455A46E5D84146BD
:1046C8002046FFF7C5FEEBE71F485546A1E74146E0
:1046D8002046FFF7BDFE0BF1010BB0E7204620494D
:1046E800FFF7B6FEC5E7059B3B440593049BDB1B20
:1046F80004939AD1BAF1000F7FF41FAF204609B096
:10470800BDE8F04F17F015BD2046054A0549FFF7EB
:104718009FFE15E7BB2E0200BF2E02009C1F020061
:10472800B62E0200EE2B0200E42E02009C2300208D
:1047380098230020C82E0200B01F0200E82E0200B5
:10474800EE2E020083C1010055C10100015800008E
:10475800A47B0200F32E0200F92E0200FB2E0200B9
:10476800A27B020042F20F7373B58B4228BF0B463F
:1047780005680446052168460D4A15F04FFA0646B5
:10478800636828460B225B680A4917F0C4FC636813
:104798003246694628465B6817F0BDFC63681B22F1
:1047A80028465B68044917F0B6FC02B070BD00BF2C
:1047B8007E3602001A2F0200FE2E0200002101237D
:1047C800064A904206D8064A01B901231360054BF0
:1047D80018607047012140085B00F2E740420F0073
:1047E800982300209C230020F8B50D460446064F68
:1047F8004618B44201D12846F8BD14F8011BBB681D
:1048080001485B689847F4E73C140200014B0360D9
:1048180000207047F81F0200002330B585B0CDE9AD
:1048280002330546019000F075F8094B1C6844B93D
:10483800284600F00FF8044600F076F8204605B048
:1048480030BD636820461B6801A998472468EEE7D5
:10485800CC2300202DE9F04780464FF00047002682
:10486800DFF8A490DFF8A4A03D46294C4C450DD3B1
:10487800DAF80040002C42D0183CB8F1000F25D1DE
:1048880022695ABBA469F5E72F46EDE7B8F1000F96
:1048980003D122694AB91834E8E700224146206862
:1048A80017F0EAFC0028F4D1F5E76368BB4205DDA0
:1048B800AF4209D09D42A8BF1D46ECE7EBD1904717
:1048C800002E08BF0646E6E71D46E4E700224146FB
:1048D800206817F0D1FC0028D2D1D3E76368BB4227
:1048E80005DDBD4209D09D42A8BF1D46CAE7C9D112
:1048F8009047002E08BF0646C4E71D46C2E7AF42F0
:10490800C2D13046BDE8F087C01A0200D423002087
:10491800C01A02004FF0FF324FF0FF3301480FF08A
:104928001DBB00BFC005002001480FF08FBB00BFB2
:10493800C005002008B5044816F0B0FDBDE80840E1
:10494800024816F0ABBD00BF692F02009E2F02007F
:10495800014812F02BBC00BFF81F020038B504460E
:1049680018B90F4B0F485B6898476168B1F5683F05
:1049780010D0B1F5680F0DD00B4DA9420AD011F433
:104988006861206807D0014608481BF044FA0023F4
:104998002360656038BD14221CF077FAF9E700BF80
:1049A80010040020CC2F02002C5F5CA9DC2800201A
:1049B80008B560B34368B3F5683F0ED0B3F5680F28
:1049C80018D0144A934220D000684FF0FF324FF0BD
:1049D800FF330FF0C3FA58B115E001220368D3E89A
:1049E800EF1F002903D1C3E8E02F0028F7D10AD12F
:1049F800002008BD0368084A1B7803F5807352F845
:104A08002330002BF4D00548F3E70548F1E76FF4AD
:104A1800E040EEE72C5F5CA900000350E98FFFFF40
:104A2800EA8FFFFF08B520B34368B3F5683F09D0A4
:104A3800B3F5680F13D0114A93421DD000680FF0E8
:104A480005FB14E000220368D3E8EF1F012903D116
:104A5800C3E8E02F0028F7D109D0094808BD002194
:104A68000368084A1B7803F5807342F82310002076
:104A7800F4E76FF4E040F1E70348EFE72C5F5CA947
:104A8800E98FFFFF00000350EA8FFFFF10B50446CF
:104A980018B91D4B1D485B6898476368B3F5683FB4
:104AA8002FD0B3F5680F2CD0194A934219D1236837
:104AB80003BB4FF0FF324FF0FF33214615480FF08C
:104AC8001FFA08B923681BB90F4B13485B6898474E
:104AD8001422002120681CF0D8F94FF46863636041
:104AE80008E0B3F5683F0DD83A2B03D040F6BA6218
:104AF8009342DED120681BF0D8F9636843F03A038B
:104B0800636010BD054AF3E710040020CC2F0200B3
:104B18002C5F5CA9DC280020F22F02003A00003A42
:104B280008B506494023142205481BF066F9BDE87C
:104B380008400449044812F0FDBB00BFDC230020F4
:104B4800DC28002000200200142002002DE9F04794
:104B580006460C4600AF002936D0D1E90012E946D6
:104B68008AB06D46A3684FF0050AA8461F48C5E9F4
:104B78000723C5E9050148F810AF002342464FF462
:104B880021511B48FFF784FBD4E90312CD46636922
:104B9800AD461848C5E90723C5E90501C5F810A0C1
:104BA800002342464FF421511148FFF771FBCD46CF
:104BB800E3690121104A0E4817F097FAA369012109
:104BC8000E4A0B4817F091FA012E07D1EFF305832F
:104BD8000B4A31460648103B17F087FA2146304603
:104BE8000EF0D0FFBD46BDE8F08700BF1F300200C1
:104BF800901A02004E3002007D3002008C30020014
:104C0800BA30020030BFFFF7FDBF00BF2DE9F04109
:104C180005460B4EDFF82C80324606EB0807CC1B06
:104C2800204609491CF00AF9A01942460021083C0F
:104C38001CF02BF96C6707F10800BDE8F08100BF94
:104C48000000000004000000C01A0200054B5A6969
:104C58009B689A421FBF044A536843F080535360CD
:104C6800704700BFF02E002000ED00E070B52A4C20
:104C780006460D4629482A4918F078FBA36ADB0640
:104C880047D52648274918F071FB1120A36A1C074D
:104C980004D52248244918F069FB12201E4CA36A47
:104CA800990712D521491D4818F060FB636BA26A69
:104CB800120609D501211E4A184817F016FA1EB126
:104CC800A36A23F08003A3621320134CA36ADE07B0
:104CD80004D51248174918F049FB1420A36A9C060A
:104CE80004D50E48144918F041FB15200A4B9A6A5E
:104CF800D10658BF9A6A9A6A920642BF5A6A22F443
:104D080000525A629A6A42F0FF029A6200232B709C
:104D180070BD1020BAE700BF00ED00E0901A020055
:104D2800CD300200E33002001631020029310200C2
:104D380041310200573102007631020010B5244C8F
:104D48002449254818F012FBA36A99013ED5224848
:104D5800224918F00BFB1E20A36ADA0104D51E486D
:104D68001F4918F003FB1F20194CA36ADB0204D566
:104D780019481C4918F0FAFA0220A36A1C0304D542
:104D88001548194918F0F2FA2120114CA36A590361
:104D980004D51148154918F0E9FA2220A36A9A03A4
:104DA80004D50D48124918F0E1FA2320084CA36AEB
:104DB800DB0304D508480F4918F0D8FA2420A36A61
:104DC8006FEA03436FEA1343A36210BD1D20C3E7D4
:104DD80000ED00E0A5310200901A0200BD3102008A
:104DE800D0310200EA3102001432020032320200ED
:104DF800573202007132020070B5294C06460D4642
:104E08002848294918F0B2FAA36AD9043CD525489C
:104E1800264918F0ABFA1720A36A1A0504D52148C9
:104E2800234918F0A3FA18201D4CA36A9B0512D534
:104E38001C48204918F09AFAA36BA26A100409D5F5
:104E480001211D4A174817F050F91EB1A36A23F42F
:104E58000043A3621920124CA36A590504D51148CE
:104E6800164918F083FA1A20A36ADA050ED50D48F8
:104E7800134918F07BFA1B20094A936A43F47F43CD
:104E8800936200232B7070BD1620C5E7A36A9B04AC
:104E9800F2D504480B4918F069FA1C20ECE700BF6A
:104EA80000ED00E0901A02009C320200B2320200CB
:104EB80016310200C3320200DC320200F132020075
:104EC8000C330200763102002DE9F0418AB0654BBF
:104ED8000446D3F80480002600AFC8F3080586F31B
:104EE8001188BFF36F8F02F07F43B3F17F4F07D173
:104EF80002F00C03082B12D15B495C4818F036FA13
:104F0800002634460023FB71EB1E092B00F2898032
:104F1800DFE803F00A7F827B87878787878510070A
:104F28004CBF0C460126EDE75149504818F01EFACF
:104F380000234C4DFB71EB6A9A0705D54D494B4848
:104F480018F014FA002331E0EB6A002B01DA4A4921
:104F5800F5E7EB6A5B00F5D54849444818F006FACE
:104F68006B69A26943F480736B61BFF34F8FBFF322
:104F78006F8F6B6932F8022C23F480736B61BFF377
:104F88004F8FBFF36F8F4DF602739A4207D0AB6A0B
:104F9800DBB26BB30120F91DFFF768FE37E0236829
:104FA8000121374A314817F0A0F82368FA79DAB9AD
:104FB80007F1080504F1200C2A46206861680834C6
:104FC80003C264451546F7D17A6A002E45D0C2F36C
:104FD800080121B96FEA52226FEA42227A62184622
:104FE80007F10801FFF7B2FD2837BD46BDE8F0819B
:104FF800AB6A13F47F4F04D00120F91DFFF7FCFEC4
:1050080005E0AB6AB3F5803F9CD3FFF797FE0346F4
:10501800CCE70020F91DBFE70020F91DEEE719498C
:105028008DE7194A18F4F87FE8468AB0174B18BF7D
:1050380013466A461649103DC2E905134FF400733A
:105048001384144BD56142F8103F00234FF41151DB
:105058000648FFF71DF9C54674E722F4FF7222F0EF
:105068000102BBE700ED00E052330200901A020093
:105078007D33020094330200B5330200C3330200CB
:10508800E2330200FE330200393302002433020007
:105098002234020004000001064B5A6942F0100253
:1050A8005A615A6942F480625A615A6922F00802C8
:1050B8005A61704700ED00E0EFF30880EFF30981D3
:1050C80001B57246FFF700FF01BD00BF002080F365
:1050D8001488BFF36F8F002080F30A8880F30B8851
:1050E8000F4880F308880CF089FE00200D490860FD
:1050F800BFF34F8F00F02CF8202080F311880A4866
:105108004FF40061401880F30988EFF314800221FE
:10511800084380F31488BFF36F8F00F0EBF80000AA
:105128006867002094ED00E0285600200023184608
:105138000649D1F89020C2F30722934200DB70475A
:10514800C1F89830C1F8A0000133F6E700ED00E09F
:1051580010B572B6002484F31388FFF7E7FF2346DF
:105168004FF0FF300C4A03F120010133102B42F8B5
:105178002100F8D100234FF0FF30074A03F1600106
:105188000133102B42F82100F8D162B6BFF34F8FDC
:10519800BFF36F8F10BD00BF00E100E0084B9B68B4
:1051A80083420BD1EFF3058343B1064B5A6842F0B3
:1051B80080525A605A6A22F400425A620FF088BD3F
:1051C800F02E002000ED00E014498A684FF030000E
:1051D8001044EFF3098C80E8F01F202080F3128838
:1051E800BFF36F8F0E4F4FF000664A698A603E60CA
:1051F800506F0C4C2060906F0023936780F31188E8
:1052080002F1300090E8F01F8CF3098802F10000E9
:1052180004B518F0B3F8BDE804407047F02E00203C
:1052280004ED00E0F82800201EF0040F0CBFEFF397
:105238000880EFF30980816911F8021C0229FFD068
:1052480001B5724618F087F801BD00BF40B20028CA
:1052580007DB01234109034A00F01F00834042F89D
:105268002130704700E100E040B200280CDB012249
:105278000649430900F01F008240203341F82320EB
:10528800BFF34F8FBFF36F8F704700BF00E100E09F
:10529800054B420953F82220012300F01F0003FAAE
:1052A80000F01040704700BF00E100E040B2002865
:1052B80001F10101ACBF00F16040064B4FEA41111A
:1052C800C9B2ABBF00F5614000F00F0080F80013D1
:1052D8001954704714ED00E0044B054A23F07F038E
:1052E8009360BFF34F8FBFF36F8F704700000000CC
:1052F80000ED00E008B5FFF7EFFF074AD2F8883065
:1053080023F47003C2F888300EF02AFD0FF014FE63
:1053180000F046F80EF064FD00ED00E042F8203C95
:10532800009B0B4942F81C3C019B21F0010142F80B
:10533800183C029B42F8081C42F8143C4FF080735A
:1053480042F8043C0023203A02658367704700BF97
:10535800F133000000B50B4B15469860426F0A4BBD
:105368000E461A60436E83F30B882C4686F3098831
:105378000020064B98472046002100220023044CB9
:10538800204700BFF02E0020F82800208DD3010010
:10539800F13300001022014B1A61704700ED00E064
:1053A800002320210348C2180133452B82F800133B
:1053B800F9D1704700E100E008B5EFF30583064A2C
:1053C800103B02EBC30152F8330049688847BDE837
:1053D8000840FFF73BBC00BFBC1502001FB5094CD5
:1053E800094A23460121094800F012F900230393D2
:1053F800074B0121E41A01A80193029400F012F965
:1054080004B010BD00000720000000202420020086
:105418009007002010B50C7A0B6804F01F0223F0E7
:105428001F031A43CB68640923F01F03054943EAA5
:10543800440343F00103C1F89800C1F89C20C1F867
:10544800A03010BD00ED00E010B50A4BD3F8903045
:10545800C3F30723013B984208D901210346064AB2
:10546800064816F042FE6FF0150010BDFFF7D2FF98
:10547800FBE700BF00ED00E039340200781A0200B3
:105488002DE9F04F8946144606464FF00008514D65
:1054980085B0C84527DAD6F804A0BAF1000F44D081
:1054A800BAF11F0F17D91AF01F0F14D1D6F800B090
:1054B8001BF01F0F0FD1584617F0A0FF07460AEB45
:1054C8000B00013817F09AFF874210D06FF01507CC
:1054D800414A3B4601E04346404A0121404816F014
:1054E80004FE6FF01504204605B0BDE8F08F17F1F3
:1054F800160FEDD0BC42EBDDC5F89870D5F89C10BE
:10550800C5F89870D5F8A03021F01F0143F01F0BA3
:10551800D6E900321A44994202F1FF3A1DD1D34527
:1055280007D13146F8B217F072FF08F101080C36BE
:10553800AFE73146C5F89870D5F89C3022F01F02C5
:1055480003F01F031343C5F89C30E0B217F05FFF68
:1055580010F1160FC5D0441CE7E7C5F89870D5F8C8
:10556800A020013B23F01F0302F01F021343D34581
:105578003146E0B2C5F8A030E8D017F048FF10F186
:10558800160FAED0C5F89870D5F89C209DF8083055
:105598000BF1FF3B62F304038DF80830D5F8A03017
:1055A8009DF808205B0863F347128DF80820D6E9B8
:1055B80000321344009323F01F035B44A3EB0A0358
:1055C800013023F01F036946C0B20393FFF73CFF85
:1055D800BEE700BF00ED00E0823402005F34020045
:1055E800781A02000522044BC3F89420BFF34F8FAA
:1055F800BFF36F8F704700BF00ED00E0BFF35F8F10
:105608000022024BC3F89420704700BF00ED00E071
:1056180010B5034C2278FFF733FF207010BD00BF90
:10562800CD3F00202DE9F74F294D8A4606464FF019
:105638000008AB46274FD0451BDAD6F80490B9F1DD
:10564800000F3FD031680846019117F0D7FE019945
:10565800044609EB0100013817F0D0FE84424FF0F0
:1056680014021D4B08D002FB08F36FF015024BF82B
:10567800032003B0BDE8F08F14F1160F2C60F8D0AA
:105688001978A142F5DD02FB08B0C7F89840C7F8C1
:105698009840D7F89C4000F10801007B64F30400AF
:1056A8000871D7F8A0000C79400860F347140C7112
:1056B800D7F89C1021F01F016960D7F8A01021F0DD
:1056C8001F01296108F1010814350C36B3E700BF42
:1056D800FC28002000ED00E0CD3F0020F0B5414956
:1056E800414CD1F890302568C3F307239D4287B019
:1056F80075D80020FFF782FF3C4BC1F8C0308542C7
:1057080016D13B4C01A82570FFF780F80025064606
:10571800384FAE4213D1002023783249D1F8902077
:10572800C2F30722934254DBFFF75CFF00202FE00F
:10573800616801EB0011FFF76DFE0130DFE70199A9
:10574800280101EB0513DA683A40B2F5001F21D0B1
:10575800B2F5800F2BD0B2F5801F38D15A689B68FC
:105768000958013B22F01F0003440120844623F01E
:105778001F0340EA4C10CDE902218DF8100002A960
:1057880020780593FFF760FE00281DDA6FF01500FA
:1057980007B0F0BD5A689B680958013B22F01F000A
:1057A80003444FF0020C012023F01F03E1E75A687D
:1057B8009B680958013B22F01F0003444FF0000C7E
:1057C800062023F01F03D4E7237801332370013523
:1057D8009FE7C1F89830C1F8A00001339EE74FF069
:1057E800FF30D5E700ED00E030200200AAFF4400BA
:1057F800CD3F00200000F0FFF0B587B007460E4609
:1058080014460021102268461D461BF03EFB022369
:105818008DF80230054B2A4621466846CDE90476C4
:10582800019314F0C1FA07B0F0BD00BF49D40100DC
:1058380008B5024814F0D2F9FEE700BFB4340200FC
:1058480008B5024B1B689847002008BD10290020A6
:10585800034B044A1860937843F00203937070472F
:10586800102900208402002008B50649064821F0C6
:105878000701C1F1005202F5E02215F05DFD00209C
:1058880008BD00BF478F00201429002070B541696A
:105898000446867A0A4D59B1437ADB0706D42C238D
:1058A80003FB06535B6A1B689B6898470023636188
:1058B8002C20214606FB0050BDE870401AF09DBB25
:1058C800300600202C22024B02FB0030704700BF3C
:1058D800300600202C21827A054B01FB02339A6A9C
:1058E8001B7F801A1B3323F00303B0FBF3F07047D0
:1058F8003006002038B52C24827A064B04FB02338C
:105908005B6AD3E901240C601568FFF7E3FF04FB29
:10591800005038BD300600202DE9F04385B005461B
:10592800684690461C4603911AF0D9FDDDE90067E8
:10593800EFF31189202383F31288BFF36F8F6B8BEA
:10594800002B41D02A8B9A4225D9002200232846D1
:105958000EF0CCFB0446F0B189F31188BFF36F8FCA
:10596800039B002B41D032463B4668461AF0DBFDCC
:105978002C21A27A254B204601FB02335B6A03A93E
:105988001B681D68DDE90023A847606170BB2046DD
:10599800FFF77CFF24E0698B4B1E6B8389F311882A
:1059A800BFF36F8F2B7F2A8BAC6A1B3323F0030363
:1059B800521A02FB0344154B154AEB1A9B1053432A
:1059C800A3722B7FE372CBE789F31188BFF36F8F44
:1059D8002346424628460EF089FB04460028BFD1DC
:1059E8000024204605B0BDE8F0836361012300254B
:1059F8002381039B29466382E27A656004F11800DB
:105A08001BF043FA63692582E360EAE73006002069
:105A1800A38B2EBA70B52C250B4C00B970BD037A38
:105A28004668013BDBB20372002BF7D1C3604360C9
:105A3800837A05FB03431B6A13B198473046ECE7AA
:105A4800FFF724FFFAE700BF30060020054B03EB01
:105A58008000D0F8003223F0E04343F04053C0F810
:105A68000032704700258450052370B5144D154E3B
:105A78002C780134B4FBF3F303EB8303E41A19F035
:105A8800D1F9114A137823B156F82430C01A0728DF
:105A980014D94FF05023D3F8141141B10021C3F8A1
:105AA8001411D3F814312C700CB9012313702C780D
:105AB80019F0B8F946F82400012070BD0020FCE771
:105AC800CF3F002020290020CE3F0020012208B52A
