:020000040000FA
:1000000050750020956500002FBA01008165000041
:100010008165000081650000816500008165000048
:100020000000000000000000000000000167000068
:1000300081650000000000009966000081650000F5
:1000400095680000956800009568000095680000BC
:1000500095680000956800009568000095680000AC
:10006000956800009568000095680000956800009C
:10007000956800009568000095680000956800008C
:10008000956800009568000095680000956800007C
:10009000956800009568000095680000956800006C
:1000A000956800009568000095680000956800005C
:1000B000956800009568000095680000956800004C
:1000C000956800009568000095680000956800003C
:1000D000956800009568000095680000956800002C
:1000E000956800009568000095680000956800001C
:1000F000956800009568000095680000956800000C
:1001000095680000956800009568000095680000FB
:1001100095680000956800009568000095680000EB
:1001200095680000956800009568000095680000DB
:1001300095680000956800009568000095680000CB
:1001400095680000956800009568000095680000BB
:0401500095680000AE
:1001580080EA101404F0F01480EA0410604081EA88
:10016800111404F0F01481EA0411614082EA1214B7
:1001780004F0F01482EA0412624083EA131404F0D3
:10018800F01483EA0413634080EA102404F47F44E3
:1001980080EA0420604081EA112404F47F4481EA63
:1001A8000421614082EA122404F47F4482EA042292
:1001B800624083EA132404F47F4483EA04236340FF
:1001C80081EA500404F0553480EA4400614083EA2F
:1001D800520404F0553482EA4402634082EA9004EF
:1001E80004F0333480EA8400624083EA910404F026
:1001F800333481EA84016340704700BF82EA900487
:1002080004F0333480EA8400624083EA910404F005
:10021800333481EA8401634081EA500404F05534A0
:1002280080EA4400614083EA520404F0553482EACB
:100238004402634080EA102404F47F4480EA0420E6
:10024800604081EA112404F47F4481EA042161407A
:1002580082EA122404F47F4482EA0422624083EA98
:10026800132404F47F4483EA0423634080EA1014CF
:1002780004F0F01480EA0410604081EA111404F0DC
:10028800F01481EA0411614082EA121404F0F014B7
:1002980082EA0412624083EA131404F0F01483EA39
:1002A80004136340704700BF2DE9F14F94464FEAAD
:1002B800930B8A68CB6808684968FFF749FF0BF118
:1002C800060E33E083EA134480EA134582EA1347B3
:1002D80046BA96EA3444604000F00F1684EA0634C1
:1002E80020F00F1684EA161054BA94EA01067240F8
:1002F80002F00F1486EA043622F00F1486EA14126C
:100308004CBA6540694001F00F1485EA043521F0C4
:100318000F1485EA14115CBA67407B4003F00F1490
:1003280087EA043723F00F1487EA1413BCE8F000B7
:100338006040694072407B4000F0E03400F01035C6
:1003480000F00F3040EA540040EAC50080EA90040B
:1003580004F0332480EA8400604001F0E03401F0C6
:10036800103501F00F3141EA540141EAC50181EA33
:10037800910404F0332481EA8401614002F0E034FE
:1003880002F0103502F00F3242EA540242EAC50286
:1003980082EA920404F0332482EA8402624003F081
:1003A800E03403F0103503F00F3343EA540343EA13
:1003B800C50383EA930404F0332483EA8403634087
:1003C80081EA324787EA134581EA354690EA06040E
:1003D80084EA034B82EA1B4280EA044484EA054427
:1003E80083EA144A85EA14448BEA044B84EA3744C6
:1003F80081EA0B4181EA164104EA0A00454082EA93
:1004080004082BEA080041408AEA0B0602EA0600C3
:1004180084EA34438AEA3A4603EA060778404540C4
:10042800414088EA38478BEA3B4007EA000985EAF9
:10043800090583EA0709464006EA0906714085EA84
:10044800010005EA3546464006EA314181EA304175
:1004580081EA364606EA304686EA3546344008EAF6
:10046800010886EA01052A4086EA364003405A40D8
:1004780081EA31431F407C4080EA030709EA070903
:1004880088EA0908544088EA020806EA0A0601EAE6
:100498000B018AEA0B0215408AEA3A4210404540AD
:1004A8008BEA3B4003405E404240174079404D4054
:1004B8004E40E443F64386EA18435D4085EA05402A
:1004C80083EA134386EA034183EA384284EA114304
:1004D80083EA04435FEA3343BEF1010E3FF6F2AE0E
:1004E8001ED4BCE8F0006040694072407B4020BCEC
:1004F800FFF784FE28606960AA60EB60BDE8F08FB2
:100508002DE9E0414FF2F00280EA1031114080EA13
:100518000130484041088208C3084FF0000E4FE7F9
:1005280000F0113001F0113102F0113203F01133F3
:1005380040EA410040EA820040EAC3004FF2F0027C
:1005480080EA1031114080EA01304840BDE8E0817E
:100558002DE9F04F02F11C050646074600EB850819
:1005680051F8040B043A46F8040BF9D14FF0010C8A
:10057800FFF7C6FF5FEA302080EA0C001ECF41403B
:100588004A4053405C401EC62000464517D04FEAFB
:100598004C0C1CF4807F18BFACF1E50C2C2DE7D077
:1005A8003C2D06D1FFF7ACFF06CF41404A4006C6B6
:1005B800100006CF41404A4006C61000D8E736E989
:1005C8000F00FFF7C5FD043D86E80F00F7D1BDE831
:1005D800F08F00BF2DE9F14F03F11C0402EB840CEE
:1005E8004FEA930B8A68CB6808684968FFF7B0FD43
:1005F8003CE9F0006040694072407B400BF1060E18
:100608004EE083EA134480EA134582EA134746BA68
:1006180096EA3444604000F00F1684EA063420F06D
:100628000F1684EA161054BA94EA0106724002F0D2
:100638000F1486EA043622F00F1486EA14124CBA14
:100648006540694001F00F1485EA043521F00F1464
:1006580085EA14115CBA67407B4003F00F1487EAFF
:10066800043723F00F1487EA141344BA44404DBAF0
:100678004D4056BA56405FBA5F4087EA174886EA47
:10068800174B84EA17464FEA38488BEA1B4485EA39
:100698001B4788EA1B4580EA3440694072407B402A
:1006A80000F0703400F0803500F00F3040EA44006C
:1006B80040EAD50080EA900404F0332480EA8400FC
:1006C800604001F0703401F0803501F00F3141EAEB
:1006D800440141EAD50181EA910404F0332481EA16
:1006E8008401614002F0703402F0803502F00F326C
:1006F80042EA440242EAD50282EA920404F0332430
:1007080082EA8402624003F0703403F0803503F01B
:100718000F3343EA440343EAD50383EA930404F01E
:10072800332483EA84036340C943DB4381EA00043A
:1007380083EA044686EA020183EA014382EA3345F2
:1007480083EA14435C4084EA00077FEA040A8AEAE1
:10075800024A8AEA010B87EA11488AEA374A80EA9C
:10076800060181EA1A418AEA030A04EA0A004540B6
:1007780088EA040707EA0B0041408AEA0B0608EA00
:10078800060084EA34428AEA3A4602EA06035840F6
:100798004540414087EA37438BEA3B4003EA00097A
:1007A80085EA090582EA0309464006EA0906714016
:1007B80085EA010005EA3546464006EA314181EA04
:1007C800304181EA364606EA304686EA3546344004
:1007D8000F4086EA010508EA050886EA3640024025
:1007E80088EA020881EA314213405C4080EA020349
:1007F80009EA030987EA0907674088EA040806EA5C
:100808000A0601EA0B018AEA0B0425408AEA3A44FF
:10081800204045408BEA3B4B02EA0B02564084EAF3
:100828000B04234059406E40694087EA364080EA0D
:10083800384080EA060380EA104481EA134585EAD5
:10084800344585EA17427D4082EA354180EA054011
:100858003CE9F0006040694072407B40BEF1010E07
:100868003FF6CFAE20BCFFF7C9FC28606960AA60DC
:10087800EB60BDE8F08F00BFFFF76ABE30B44FF001
:10088800000310F8014B11F8015B013A84EA0504F2
:1008980043EA0403F5D1A3F101034FEAD37030BC56
:1008A800704700BF4FF0000310F8012B013943EAED
:1008B8000203F9D1A3F101034FEAD370704700BFD7
:1008C80030B411F8014B12F8015B6C4000F8014B91
:1008D800013BF6D130BC70472DE9F04F90E8F00F9E
:1008E80000F140004FF0040E59E0F0B4826BC36B86
:1008F80004680525242687593C444FEA724787EA4D
:10090800F24787EA92273C4442684FEAF21787EA9F
:10091800B24787EAD2073C4440F8044B032D08BF8E
:100928006FF01B0687593A444FEA734787EAF34743
:1009380087EA93273A4443684FEAF31787EAB347AD
:1009480087EAD3073A4440F8042B87593B444FEAD7
:10095800744787EAF44787EA94273B4444684FEA98
:10096800F41787EAB44787EAD4073B4440F8043BC6
:10097800013DC0D1A0F13C00076A3C444FEA7247F0
:1009880087EAF24787EA92273C4402684FEAF2175F
:1009980087EAB24787EAD2073C44C463F0BC4FF009
:1009A800020288EA781C8CEAF84C0BEBBC1C8AEA39
:1009B800090303EA080383EA0A039C4450F8043B4A
:1009C8009C4451F8043B9C44674444EA050B0BEAF9
:1009D800060B04EA05034BEA030BE34484EAF42319
:1009E80083EA34530BEBB30B87EA771C8CEAF74C9A
:1009F8000AEBBC1C89EA080303EA070383EA090334
:100A08009C4450F8043B9C4451F8043B9C44664485
:100A18004BEA040A0AEA050A0BEA04034AEA030A4B
:100A2800E2448BEAFB2383EA3B530AEBB30A86EAE8
:100A3800761C8CEAF64C09EBBC1C88EA070303EA2F
:100A4800060383EA08039C4450F8043B9C4451F88D
:100A5800043B9C4465444AEA0B0909EA04090AEA8A
:100A68000B0349EA0309E1448AEAFA2383EA3A5381
:100A780009EBB30985EA751C8CEAF54C08EBBC1C3C
:100A880087EA060303EA050383EA07039C4450F850
:100A9800043B9C4451F8043B9C44644449EA0A08DA
:100AA80008EA0B0809EA0A0348EA0308E04489EA65
:100AB800F92383EA395308EBB30884EA741C8CEAF7
:100AC800F44C07EBBC1C86EA050303EA040383EA3B
:100AD80006039C4450F8043B9C4451F8043B9C4456
:100AE800E34448EA090707EA0A0708EA090347EA64
:100AF8000307674488EAF82383EA385307EBB30708
:100B08008BEA7B1C8CEAFB4C06EBBC1C85EA0403D5
:100B180003EA0B0383EA05039C4450F8043B9C4416
:100B280051F8043B9C44E24447EA080606EA0906F1
:100B380007EA080346EA0306664487EAF72383EAD6
:100B4800375306EBB3068AEA7A1C8CEAFA4C05EBB3
:100B5800BC1C84EA0B0303EA0A0383EA04039C44EB
:100B680050F8043B9C4451F8043B9C44E14446EA59
:100B7800070505EA080506EA070345EA030565448B
:100B880086EAF62383EA365305EBB30589EA791C2E
:100B98008CEAF94C04EBBC1C8BEA0A0303EA090350
:100BA80083EA0B039C4450F8043B9C4451F8043BF3
:100BB8009C44E04445EA060404EA070405EA0603FF
:100BC80044EA0304644485EAF52383EA355304EBD5
:100BD800B304013A7FF4E5AEA0F14000BEF1010E86
:100BE8007FF483AEA0F1400C9CE80F00001949196E
:100BF8009219DB19ACE80F009CE80F004044494407
:100C080052445B44ACE80F00BDE8F08F81F000412E
:100C180002E000BF83F0004330B54FEA41044FEAD9
:100C2800430594EA050F08BF90EA020F1FBF54EA74
:100C3800000C55EA020C7FEA645C7FEA655C00F010
:100C4800E2804FEA5454D4EB5555B8BF6D420CDDE1
:100C58002C4480EA020281EA030382EA000083EA64
:100C6800010180EA020281EA0303362D88BF30BD04
:100C780011F0004F4FEA01314FF4801C4CEA11315A
:100C880002D0404261EB410113F0004F4FEA0333B9
:100C98004CEA133302D0524263EB430394EA050F44
:100CA80000F0A780A4F10104D5F1200E0DDB02FAB3
:100CB8000EFC22FA05F2801841F1000103FA0EF247
:100CC800801843FA05F359410EE0A5F120050EF10D
:100CD800200E012A03FA0EFC28BF4CF0020C43FA3E
:100CE80005F3C01851EBE37101F0004507D54FF04B
:100CF800000EDCF1000C7EEB00006EEB0101B1F59B
:100D0800801F1BD3B1F5001F0CD349085FEA3000E0
:100D18004FEA3C0C04F101044FEA445212F5800FEB
:100D280080F09A80BCF1004F08BF5FEA500C50F188
:100D3800000041EB045141EA050130BD5FEA4C0C6B
:100D4800404141EB0101013C28BFB1F5801FE9D2C8
:100D580091F0000F04BF01460020B1FA81F308BFEB
:100D68002033A3F10B03B3F120020CDA0C3208DDB7
:100D780002F1140CC2F10C0201FA0CF021FA02F192
:100D88000CE002F11402D8BFC2F1200C01FA02F102
:100D980020FA0CFCDCBF41EA0C019040E41AA2BF27
:100DA80001EB0451294330BD6FEA04041F3C1CDAEF
:100DB8000C340EDC04F11404C4F1200220FA04F00F
:100DC80001FA02F340EA030021FA04F345EA0301B9
:100DD80030BDC4F10C04C4F1200220FA02F001FA7B
:100DE80004F340EA0300294630BD21FA04F02946FD
:100DF80030BD94F0000F83F4801306BF81F4801196
:100E08000134013D4EE77FEA645C18BF7FEA655C08
:100E180029D094EA050F08BF90EA020F05D054EADA
:100E2800000C04BF1946104630BD91EA030F1EBFDF
:100E38000021002030BD5FEA545C05D140004941E3
:100E480028BF41F0004130BD14F580043CBF01F5D6
:100E5800801130BD01F0004545F0FE4141F47001BC
:100E68004FF0000030BD7FEA645C1ABF1946104697
:100E78007FEA655C1CBF0B46024650EA013406BF98
:100E880052EA033591EA030F41F4002130BD00BF57
:100E980090F0000F04BF0021704730B54FF4806414
:100EA80004F132044FF000054FF0000150E700BF95
:100EB80090F0000F04BF0021704730B54FF48064F4
:100EC80004F1320410F0004548BF40424FF00001E1
:100ED8003EE700BF42004FEAE2014FEA31014FEA24
:100EE80002701FBF12F07F4393F07F4F81F0605173
:100EF800704732F07F4208BF704793F07F4F04BFBE
:100F080041F40021704730B54FF4607401F000459A
:100F180021F000411CE700BF50EA010208BF7047FA
:100F280030B54FF000050AE050EA010208BF7047EB
:100F380030B511F0004502D5404261EB41014FF454
:100F4800806404F132045FEA915C3FF4D8AE4FF05C
:100F580003025FEADC0C18BF03325FEADC0C18BF3F
:100F6800033202EBDC02C2F1200300FA03FC20FA90
:100F780002F001FA03FE40EA0E0021FA02F11444DD
:100F8800BDE600BF70B54FF0FF0C4CF4E06C1CEAF6
:100F980011541DBF1CEA135594EA0C0F95EA0C0F67
:100FA80000F0DEF82C4481EA030621EA4C5123EADA
:100FB8004C5350EA013518BF52EA033541F4801109
:100FC80043F4801338D0A0FB02CE4FF00005E1FBBC
:100FD80002E506F00042E0FB03E54FF00006E1FB06
:100FE80003569CF0000F18BF4EF0010EA4F1FF0449
:100FF800B6F5007F64F5407404D25FEA4E0E6D4189
:1010080046EB060642EAC62141EA55514FEAC52099
:1010180040EA5E504FEACE2EB4F1FD0C88BFBCF515
:10102800E06F1ED8BEF1004F08BF5FEA500E50F1C6
:10103800000041EB045170BD06F0004646EA01018C
:1010480040EA020081EA0301B4EB5C04C2BFD4EBBE
:101058000C0541EA045170BD41F480114FF0000EB7
:10106800013C00F3AB8014F1360FDEBF002001F025
:10107800004170BDC4F10004203C35DA0C341BDC9F
:1010880004F11404C4F1200500FA05F320FA04F071
:1010980001FA05F240EA020001F0004221F00041A5
:1010A80010EBD37021FA04F642EB06015EEA430E18
:1010B80008BF20EAD37070BDC4F10C04C4F1200548
:1010C80000FA04F320FA05F001FA04F240EA0200FB
:1010D80001F0004110EBD37041F100015EEA430ECC
:1010E80008BF20EAD37070BDC4F1200500FA05F2EC
:1010F8004EEA020E20FA04F301FA05F243EA02036B
:1011080021FA04F001F0004121FA04F220EA020079
:1011180000EBD3705EEA430E08BF20EAD37070BDBF
:1011280094F0000F0FD101F00046400041EB01019F
:1011380011F4801F08BF013CF7D041EA060195F081
:10114800000F18BF704703F00046520043EB03033B
:1011580013F4801F08BF013DF7D043EA0603704728
:1011680094EA0C0F0CEA135518BF95EA0C0F0CD033
:1011780050EA410618BF52EA4306D1D181EA030179
:1011880001F000414FF0000070BD50EA410606BF73
:101198001046194652EA430619D094EA0C0F02D1B8
:1011A80050EA013613D195EA0C0F05D152EA0336FD
:1011B8001CBF104619460AD181EA030101F000411B
:1011C80041F0FE4141F470014FF0000070BD41F064
:1011D800FE4141F4780170BD70B54FF0FF0C4CF43E
:1011E800E06C1CEA11541DBF1CEA135594EA0C0F5D
:1011F80095EA0C0F00F0A7F8A4EB050481EA030EAA
:1012080052EA03354FEA013100F088804FEA033390
:101218004FF0805545EA131343EA12634FEA02225E
:1012280045EA111545EA10654FEA00260EF000411F
:101238009D4208BF964244F1FD0404F5407402D271
:101248005B084FEA3202B61A65EB03055B084FEA02
:1012580032024FF480104FF4002CB6EB020E75EBFF
:10126800030E22BFB61A754640EA0C005B084FEA27
:101278003202B6EB020E75EB030E22BFB61A7546A4
:1012880040EA5C005B084FEA3202B6EB020E75EBEF
:10129800030E22BFB61A754640EA9C005B084FEA67
:1012A8003202B6EB020E75EB030E22BFB61A754674
:1012B80040EADC0055EA060E18D04FEA051545EA63
:1012C80016754FEA06164FEAC30343EA52734FEA0C
:1012D800C2025FEA1C1CC0D111F4801F0BD141EA85
:1012E80000014FF000004FF0004CB6E711F4801FEA
:1012F80004BF01430020B4F1FD0C88BFBCF5E06FCA
:101308003FF6AFAEB5EB030C04BFB6EB020C5FEAD9
:10131800500C50F1000041EB045170BD0EF0004E2E
:101328004EEA113114EB5C04C2BFD4EB0C0541EA60
:10133800045170BD41F480114FF0000E013C90E65D
:1013480045EA060E8DE60CEA135594EA0C0F08BF21
:1013580095EA0C0F3FF43BAF94EA0C0F0AD150EA20
:1013680001347FF434AF95EA0C0F7FF425AF1046B3
:1013780019462CE795EA0C0F06D152EA03353FF4DB
:10138800FDAE1046194622E750EA410618BF52EA58
:1013980043067FF4C5AE50EA41047FF40DAF52EA2C
:1013A80043057FF4EBAE12E74FF0FF3C06E000BFC9
:1013B8004FF0010C02E000BF4FF0010C4DF804CDD6
:1013C8004FEA410C7FEA6C5C4FEA430C18BF7FEA96
:1013D8006C5C1BD001B050EA410C0CBF52EA430CC4
:1013E80091EA030F02BF90EA020F0020704710F144
:1013F800000F91EA030F58BF994208BF90422CBFD3
:10140800D8176FEAE37040F0010070474FEA410CCB
:101418007FEA6C5C02D150EA013C07D14FEA430CE9
:101428007FEA6C5CD6D152EA033CD3D05DF8040B5A
:10143800704700BF8446104662468C46194663468C
:1014480000E000BF01B5FFF7B7FF002848BF10F163
:10145800000F01BD4DF808EDFFF7F4FF0CBF0120A8
:1014680000205DF808FB00BF4DF808EDFFF7EAFF24
:1014780034BF012000205DF808FB00BF4DF808EDDF
:10148800FFF7E0FF94BF012000205DF808FB00BFD4
:101498004DF808EDFFF7CEFF94BF012000205DF85E
:1014A80008FB00BF4DF808EDFFF7C4FF34BF01206B
:1014B80000205DF808FB00BF4FEA410212F5001258
:1014C80015D211D56FF47873B3EB625212D94FEA83
:1014D800C12343F0004343EA505311F0004F23FA6D
:1014E80002F018BF404270474FF00000704750EAC2
:1014F800013005D111F0004008BF6FF0004070477F
:101508004FF00000704700BF4A0011D212F50012D8
:1015180011D20DD56FF47873B3EB62520ED44FEA43
:10152800C12343F0004343EA505323FA02F07047C3
:101538004FF00000704750EA013002D14FF0FF3001
:1015480070474FF00000704780F0004002E000BF95
:1015580081F0004142001FBF5FEA410392EA030F96
:101568007FEA226C7FEA236C6AD04FEA1262D2EBE0
:101578001363C1BFD218414048404140B8BF5B42E5
:10158800192B88BF704710F0004F40F4000020F07E
:101598007F4018BF404211F0004F41F4000121F094
:1015A8007F4118BF494292EA030F3FD0A2F10102DE
:1015B80041FA03FC10EB0C00C3F1200301FA03F11C
:1015C80000F0004302D5494260EB4000B0F5000F3F
:1015D80013D3B0F1807F06D340084FEA310102F1FE
:1015E8000102FE2A51D2B1F1004F40EBC25008BFB0
:1015F80020F0010040EA03007047490040EB00007A
:10160800013A28BFB0F5000FEDD2B0FA80FCACF17A
:10161800080CB2EB0C0200FA0CF0AABF00EBC250A7
:1016280052421843BCBFD0401843704792F0000F95
:1016380081F4000106BF80F400000132013BB5E7E8
:101648004FEA41037FEA226C18BF7FEA236C21D05E
:1016580092EA030F04D092F0000F08BF08467047C3
:1016680090EA010F1CBF0020704712F07F4F04D191
:10167800400028BF40F00040704712F100723CBFA4
:1016880000F50000704700F0004343F0FE4040F4CE
:10169800000070477FEA226216BF08467FEA23638C
:1016A8000146420206BF5FEA412390EA010F40F477
:1016B800800070474FF0000304E000BF10F00043C3
:1016C80048BF40425FEA000C08BF704743F09643AA
:1016D80001464FF000001CE050EA010208BF7047C5
:1016E8004FF000030AE000BF50EA010208BF70474C
:1016F80011F0004302D5404261EB41015FEA010C61
:1017080002BF84460146002043F0B64308BFA3F158
:101718008053A3F50003BCFA8CF2083AA3EBC2533A
:1017280010DB01FA02FC634400FA02FCC2F1200259
:10173800BCF1004F20FA02F243EB020008BF20F090
:101748000100704702F1200201FA02FCC2F12002F6
:1017580050EA4C0021FA02F243EB020008BF20EAEB
:10176800DC7070474FF0FF0C1CEAD0521EBF1CEA19
:10177800D15392EA0C0F93EA0C0F6FD01A4480EA07
:10178800010C400218BF5FEA41211ED04FF00063F0
:1017980043EA501043EA5111A0FB01310CF000401C
:1017A800B1F5000F3EBF490041EAD3715B0040EA42
:1017B800010062F17F02FD2A1DD8B3F1004F40EB12
:1017C800C25008BF20F00100704790F0000F0CF0E5
:1017D800004C08BF49024CEA502040EA51207F3AA9
:1017E800C2BFD2F1FF0340EAC250704740F4000084
:1017F8004FF00003013A5DDC12F1190FDCBF00F075
:1018080000407047C2F10002410021FA02F1C2F122
:10181800200200FA02FC5FEA310040F1000053EABE
:101828004C0308BF20EADC70704792F0000F00F00C
:10183800004C02BF400010F4000F013AF9D040EA12
:101848000C0093F0000F01F0004C02BF490011F4A6
:10185800000F013BF9D041EA0C018FE70CEAD153A4
:1018680092EA0C0F18BF93EA0C0F0AD030F0004C24
:1018780018BF31F0004CD8D180EA010000F00040D8
:10188800704790F0000F17BF90F0004F084691F096
:10189800000F91F0004F14D092EA0C0F01D14202D0
:1018A8000FD193EA0C0F03D14B0218BF084608D199
:1018B80080EA010000F0004040F0FE4040F40000E3
:1018C800704740F0FE4040F4400070474FF0FF0C76
:1018D8001CEAD0521EBF1CEAD15392EA0C0F93EABD
:1018E8000C0F69D0A2EB030280EA010C49024FEA0F
:1018F800402037D04FF0805343EA111143EA1013C8
:101908000CF000408B4238BF5B0042F17D024FF47F
:10191800000C8B4224BF5B1A40EA0C00B3EB510F5A
:1019280024BFA3EB510340EA5C00B3EB910F24BF43
:10193800A3EB910340EA9C00B3EBD10F24BFA3EBC8
:10194800D10340EADC001B0118BF5FEA1C1CE0D190
:10195800FD2A3FF650AF8B4240EBC25008BF20F043
:10196800010070470CF0004C4CEA50207F32C2BF97
:10197800D2F1FF0340EAC250704740F400004FF034
:101988000003013A37E792F0000F00F0004C02BF65
:10199800400010F4000F013AF9D040EA0C0093F02F
:1019A800000F01F0004C02BF490011F4000F013B89
:1019B800F9D041EA0C0195E70CEAD15392EA0C0FF1
:1019C80008D142027FF47DAF93EA0C0F7FF470AF29
:1019D800084676E793EA0C0F04D14B023FF44CAF6C
:1019E80008466EE730F0004C18BF31F0004CCAD101
:1019F80030F000427FF45CAF31F000437FF43CAF3D
:101A08005FE700BF4FF0FF3C06E000BF4FF0010C5E
:101A180002E000BF4FF0010C4DF804CD4FEA400240
:101A28004FEA41037FEA226C18BF7FEA236C11D08A
:101A380001B052EA530C18BF90EA010F58BFB2EB3D
:101A4800030088BFC81738BF6FEAE17018BF40F0BD
:101A5800010070477FEA226C02D15FEA402C05D171
:101A68007FEA236CE4D15FEA412CE1D05DF8040BF6
:101A7800704700BF844608466146FFE70FB5FFF789
:101A8800C9FF002848BF10F1000F0FBD4DF808ED41
:101A9800FFF7F4FF0CBF012000205DF808FB00BF32
:101AA8004DF808EDFFF7EAFF34BF012000205DF88C
:101AB80008FB00BF4DF808EDFFF7E0FF94BF0120D9
:101AC80000205DF808FB00BF4DF808EDFFF7D2FFD6
:101AD80094BF012000205DF808FB00BF4DF808ED19
:101AE800FFF7C8FF34BF012000205DF808FB00BFE6
:101AF8007BB972B90029BEBF00204FF0004106E053
:101B080008BF00281CBF6FF000414FF0FF3000F005
:101B180095B8ADF1080C6DE904CE002909DB002B5E
:101B28001ADB00F0D1F8DDF804E0DDE9022304B0A7
:101B38007047404261EB4101002B1BDB00F0C4F809
:101B4800DDF804E0DDE9022304B0404261EB410125
:101B5800524263EB43037047524263EB430300F086
:101B6800B3F8DDF804E0DDE9022304B0404261EB9C
:101B780041017047524263EB430300F0A5F8DDF8DA
:101B880004E0DDE9022304B0524263EB43037047EB
:101B980053B94AB9002908BF00281CBF4FF0FF31CC
:101BA8004FF0FF3000F04AB8ADF1080C6DE904CEF3
:101BB80000F08AF8DDF804E0DDE9022304B070479C
:101BC800D0B5FFF787F900220B4B06460F46FFF703
:101BD800D9F9FFF799FC0446FFF75AF90022074B99
:101BE800FFF7D0F902460B4630463946FFF712F8A0
:101BF800FFF78AFC2146D0BD0000F03D0000F0410F
:101C0800D0B500220B4B06460F46FFF7BBF9FFF78E
:101C18007BFC0446FFF73CF90022074BFFF7B2F9BB
:101C280002460B4630463946FEF7F4FFFFF76CFCD8
:101C38002146D0BD0000F03D0000F041704700BFD4
:101C480010F8012B11F8013B012A28BF9A42F7D05E
:101C5800D01A7047034611F8012B03F8012B002A0C
:101C6800F9D17047034613F8012B002AFBD1181A43
:101C78000138704710B500210446FFF711FF20B95D
:101C88002046BDE81040FFF79BBF04F10040FFF776
:101C980097FF404261EB410110BD38B50022002397
:101CA80004460D46FFF7E0FB28B920462946BDE863
:101CB8003840FFF7A5BF204605F10041FFF7A0FF18
:101CC800404261EB410138BD2DE9F04786468C461C
:101CD8000846089E154674461946002B40F0C180F8
:101CE8008542B2FA82F245D94AB1C2F1200300FA1C
:101CF80002FC954094402EFA03F343EA0C0C4FEA99
:101D0800154EA8B2230CBCFBFEF80EFB18CC08FB42
:101D180000F943EA0C43994528D9EB1808F1FF3735
:101D280004D2994502D9A8F102072B44A3EB090371
:101D3800A4B2B3FBFEFC0EFB1C330CFB00F044EA20
:101D48000344A04214D92C190CF1FF3304D2A04249
:101D580002D9ACF102032C44241A43EA07401EB10D
:101D6800D440002334607360BDE8F0874746DDE760
:101D78006346F1E792BB431B01214FEA154EAFB210
:101D8800200CB3FBFEFC0EFB1C330CFB07F840EAEF
:101D98000343984561D9EB180CF1FF3004D29845FC
:101DA80002D9ACF102002B44A3EB0803A4B2B3FBA5
:101DB800FEFC0EFB1C330CFB07F744EA0344A74266
:101DC8004DD92C190CF1FF3304D2A74202D9ACF13A
:101DD80002032C44E41B43EA0040C0E7C2F120039D
:101DE8009540944020FA03F12EFA03F34FEA154E7A
:101DF8009040AFB20343B1FBFEFC0EFB1C10190C64
:101E08000CFB07F841EA0041884522D969180CF112
:101E1800FF3004D2884502D9ACF102002944A1EB75
:101E280008019BB2B1FBFEFC0EFB1C110CFB07F773
:101E380043EA01439F420ED9EB180CF1FF3104D25B
:101E48009F4202D9ACF102012B44DB1B41EA00415D
:101E580093E76046E3E76146F7E76046A4E7634631
:101E6800B8E7834206D916B9002108467CE7C6E9D7
:101E780000E0F9E7B3FA83F78FB9834201D37245DB
:101E880008D8BEEB020460EB030301209C461EB990
:101E9800002169E73846FAE7C6E9004CF8E7C7F1D8
:101EA800200CBB400EFA07F522FA0CF42EFA0CF1BE
:101EB800BA401C4320FA0CF3B8404FEA14490143D6
:101EC8001FFA84FEB3FBF9F809FB18300B0C08FB6A
:101ED8000EFA43EA00439A4540D9E31808F1FF3067
:101EE80004D29A4502D9A8F102002344A3EB0A03BD
:101EF80089B2B3FBF9F809FB183308FB0EFE41EA77
:101F080003418E452CD9611808F1FF3304D28E4560
:101F180002D9A8F10203214443EA0040A1EB0E01D3
:101F2800A0FB02984145CE46434602D306D14D4513
:101F380004D20138B9EB020E68EB0403002EA7D0D7
:101F4800B5EB0E0261EB030101FA0CFC22FA07F370
:101F5800F9404CEA0303C6E9003199E74046C5E772
:101F68004346D9E70000000000220023C0E900230F
:101F780003A3D3E90023C0E90223002303747047B5
:101F88000000000000AA8F4010B50446194610460C
:101F9800174B0022FEF7F6FF237CBBB90EA3D3E94B
:101FA8000023FFF719F90EA3D3E9002300F014FF6B
:101FB80002460B4600200F49FEF72CFE0AA3D3E980
:101FC8000023FEF7DFFFC4E9000110BDD4E90223B6
:101FD800E7E700BFAFF300800000000000AA8F40D1
:101FE8006C45D9CC955BC83F0000000040A5E54092
:101FF800000024400000F03F2DE9F84F04464868EF
:102008000D46FEF755FF38A3D3E90023FFF7E4F8A0
:10201800064628680F46FEF74BFF02460B46304639
:102028003946FEF7F9FDD4E90823FEF7F3FD8046AB
:10203800E8688946FEF73CFF2BA3D3E90023FFF7A6
:10204800CBF80646A8680F46FEF732FF02460B4655
:1020580030463946FEF7E0FDD4E90A23FEF7DAFDFB
:10206800064668690F46FEF723FF1FA3D3E900233E
:10207800FFF7B2F8824628698B46FEF719FF024639
:102088000B4650465946FEF7C7FDD4E90C23FEF728
:10209800C1FDC4E90467C4E9060142464B4630461F
:1020A8003946C4E9028900F097FD0022124BFEF779
:1020B80069FF0FA3D3E90023FFF78EF8002200235E
:1020C80006460F46FFF7D0F938B1304639460022A8
:1020D8000A4BFEF7A1FD06460F46C4E90067BDE8B6
:1020E800F88F00BFAFF300800000000080842E410D
:1020F800182D4454FB21094000806640008076403A
:10210800D0B504464068FEF7D3FE09A3D3E90023FF
:10211800FFF762F8064620680F46FEF7C9FE02463A
:102128000B4630463946FEF777FDD0BDAFF3008049
:102138000000000080842E412DE9F04FC3B034A880
:1021480017F000FA0AA8FFF70FFF27A802F010F807
:10215800002840F0178116A801F0F0FF002840F091
:1021680011811DA801F0C6FF002840F00B8104A8CA
:1021780017F05FFA01F01AFF10B1894815F034FF23
:102188004FF000080024DFF81C92874D874815F0AF
:1021980019FF874815F028FF1DA817F0EAF927A8A6
:1021A80017F02BFA16A817F013FA23A8FFF7A8FFC1
:1021B80002460B460AA8FFF7E7FE1FA8FFF7A0FF95
:1021C800064621A80F46FFF79BFF32463B46CDE95E
:1021D8000001784815F0F6FE23A8FFF791FF0646A0
:1021E80025A80F46FFF78CFF32463B46CDE9000194
:1021F800714815F0E7FE0AA817F0A1F902460B4648
:102208006E4815F0DFFE28A8FFF77AFF82462AA855
:102218008B46FFF775FF06462CA80F46FFF770FFA1
:1022280052465B46CDE90201CDE90067644815F0E6
:10223800C9FE17A8FFF764FF824619A88B46FFF767
:102248005FFF06461BA80F46FFF75AFF52465B463C
:10225800CDE90201CDE900675A4815F0B3FE17A988
:1022680034A8FFF7C9FE34A817F07DF902460B46DB
:10227800554815F0A7FE28A904A800F0B1F804A84D
:1022880017F0E3F9DDE908230146504815F09AFEF6
:102298001FA8FFF735FF42464B46FEF773FEFFF7D0
:1022A8000BF9ADF8400021A8FFF72AFF42464B463C
:1022B800FEF768FEFFF728F9ADF8420023A8FFF7FC
:1022C8001FFF35A3D3E90023FEF75CFEFFF71CF9D7
:1022D800119028A8FFF714FF22462B46FEF752FE5E
:1022E800FFF7EAF8ADF848002AA8FFF709FF2246E9
:1022F8002B46FEF747FEFFF7DFF8ADF84A002CA89B
:10230800FFF7FEFE22462B46FEF73CFEFFF7D4F809
:10231800ADF84C0017A8FFF7F3FE22462B46FEF750
:1023280031FEFFF7C9F8ADF84E0019A8FFF7E8FE2F
:1023380022462B46FEF726FEFFF7BEF8ADF8500002
:102348001BA8FFF7DDFE22462B46FEF71BFEFFF714
:10235800B3F8ADF8520004A817F077F9159010A853
:1023680001F06AFE01F060FE194A1A49002808BF08
:102378001146194815F026FE002141F69A101CF066
:1023880006FF03E7154815F02FFE4FF0FF3043B066
:10239800BDE8F08FAFF30080000000000088C34064
:1023A8006C1D02000000594000408F40891D02004A
:1023B800901D0200B01D0200D51D0200FE1D020086
:1023C800111E0200391E0200611E0200731E020067
:1023D800381D02002F1D0200951E0200461D020036
:1023E8002DE9F84F044648680D46FEF761FD52A3F3
:1023F800D3E90023FEF7F0FE064628680F46FEF7ED
:1024080057FD02460B4630463946FEF705FC0646A0
:10241800E8680F46FEF74CFD47A3D3E90023FEF713
:10242800DBFE8046A8688946FEF742FD02460B4659
:1024380040464946FEF7F0FB824668698B46FEF740
:1024480037FD3DA3D3E90023FEF7C6FE8046286981
:102458008946FEF72DFD02460B4640464946FEF7E3
:10246800DBFB3246804689463B4630463946FEF716
:1024780089FD524606460F465B4650465946FEF7CA
:1024880081FD02460B4630463946FEF7C5FB4246FB
:1024980006460F464B4640464946FEF773FD024640
:1024A8000B4630463946FEF7B7FB16F0D9FE24A393
:1024B800D3E90023FEF790FE06460F46C4E90467F9
:1024C8001CF0F2FE2379054688461BB1012B0DD07E
:1024D800BDE8F88F4FF03332304639461C4BFEF7D3
:1024E800E1FF0028F4D001232371F1E7304616A359
:1024F800D3E900233946FEF7B7FF0028E8D04FF4A8
:102508007A72A5FB023102FB0811D4E90202DB0B47
:1025180043EA4143181A4FEAD13161EB0202FA2823
:1025280072F10002A2BF2268C4E9023101324FF001
:102538000003A8BF2260D7E70000000080842E4176
:102548001F85EB51B89E23409A9999999999E93F2B
:102558003333F33F000000000B1EB8BFFF3310B544
:1025680004461812A0FB0201DB1702FB0311FEF759
:10257800DBFC07A3D3E90023FEF704FDFFF78DFB7F
:102588000023054AFFF7B4FAC4E9000210BD00BFF2
:1025980005A3923A019D234040420F00000000002D
:1025A8000329F8B505460C4661D1002A3ED0072A12
:1025B80054D15A681E6813463148D117C6FB0031FA
:1025C800012B71F1000244DB00F56E1000F65D701E
:1025D800181841F1000128A3D3E90023FFF788FA6E
:1025E80002282E6914D0042814D0082814D01028E2
:1025F8002FD1E7B23946686818F081FA00280DDB58
:10260800204B777403EBC4035B68F3600020F8BDCC
:102618000024EEE70124ECE70224EAE71A4A1B4803
:10262800012118F0C8F86FF00400F0E71988184B7A
:1026380033F8020B814209D8D4B2214668682E6962
:1026480018F042FA002807DA124AE8E701320A2AA3
:10265800EED16FF01500DAE73474D7E70B4813466C
:1026680002210D4A18F0B0F86FF08500CFE7084650
:10267800BDE8F8400BF09EBB3AA3950000000000AF
:1026880040420F00E4140200AD4B02009007020024
:10269800E01A0200D84B0200F042020000000000DD
:1026A800B0B50329044600AF42D852B3072A2CD14B
:1026B8005A681D6813462848D117C5FB0031012BFD
:1026C80071F1000215DB00F56E1000F65D70181848
:1026D80041F100011EA3D3E90023FFF709FAB0FA7C
:1026E80080F0C0F11E01C9B220461BF066F8BD4655
:1026F800B0BD1A48181861F1000115A3D3E90023E9
:10270800EBE719880BF068FDF1E76C4688B06A467C
:10271800134B4FF4C8515361124B9361032342F892
:10272800103F11481BF05BF86FF08500A546DEE707
:102738006C4688B06A460D4B53610D4BC2E90631B1
:1027480004234FF4045142F8103FEAE7AFF3008046
:102758003AA395000000000040420F00632EB5FF29
:10276800764402006246020098070200964402007E
:10277800724602000000000070B514460646CD17E8
:10278800A1FB0201002304FB05110A22FFF7B0F99F
:102798000FA3D3E900230C4D80FB054520462946AD
:1027A800FFF7A6F906A3D3E900233060294620469F
:1027B800FFF79EF90023054AFFF79AF9726070BD8A
:1027C80080A8120100000000D8EF2F0040420F003F
:1027D80000209BF35E1000002DE9F84305460C46E7
:1027E80000AF00296CD0072940F089805368106831
:1027F8004F4AD917C0FB0231012B71F1000277DB78
:10280800D5F804804B4898F81A4018184FEAD414A1
:1028180045A3D3E9002341F1000164B2FFF768F949
:10282800002C14BF04230223834298F91A6028D08D
:10283800002C14BF20231023984224D0002C14BF4E
:1028480008230423984220D0002C14BF1023082307
:1028580098424DD103245FFA84F9494640462D69D0
:1028680018F099FD002812DB334B002E4FF03D0283
:1028780033F8143085F81E901EDBA3FB02325B0888
:102888001BE00024E7E70124E5E70224E3E76C46C0
:1028980088B06A46294B5361294B93610323294821
:1028A8004FF4C85142F8103F1BF02BF86FF00400AA
:1028B800A546BD46BDE8F8835343EB600020F8E722
:1028C800214B1288984633F8021B8A420DD8686853
:1028D800E1B22E6918F0F1FE00280CDA6C4688B0D7
:1028E8006A461A4B53611A4BD7E701340B2CEAD1CD
:1028F8006FF01500DDE738F81430B383DEE76C4677
:1029080088B06A46134B0F485361134B4FF4C851B4
:102918009361032342F8103F1AF0F3FF6FF085002C
:10292800A546C6E7AFF300803AA395000000000073
:1029380040420F009DD14A00201B0200A94B020013
:102948009B4E0200B0070200281B0200D44B020075
:10295800854E0200024C0200B34E02000000000047
:10296800F8B50D46032D114604461A4600AF07D0A8
:10297800072D09D00221464A464817F01CFF7EE081
:10298800FFF72AFFBD46F8BD002951D0072966D1B7
:1029980059681D680A46404BC817C5FB0320B42573
:1029A800A2FB0531012A05FB001170F1000028DBAC
:1029B8003A48181841F1000133A3D3E90023002550
:1029C800FFF796F8364B33F8022B904221D1606816
:1029D800E9B2266918F0F6FC002820DA6C4688B0BF
:1029E8006A46304B5361304B9361032329484FF4B7
:1029F800C85142F8103F1AF084FF6FF00400A54652
:102A0800C0E72A48181861F100011FA3D3E9002381
:102A1800D5E70135072DD6D16FF01500B2E741F2A1
:102A28001712234B33F815305343B3610020A9E73D
:102A38001A88204B33F8020B82420CD86068C9B25E
:102A480018F0A9FE0028F1DA6C4688B06A461A4BDD
:102A580053611A4BC8E701310B29EBD1DCE76C460F
:102A680088B06A46164B4FF4C8515361154B094854
:102A78009361032342F8103F1AF043FFA5466FF015
:102A880085007FE7AFF30080D8EF2F00000000003B
:102A98007B4A0200B007020040420F00ECF7170023
:102AA800121B0200254C02005A4E02001408E8FFCF
:102AB800041B0200281B02004C4C0200454E020079
:102AC800764C0200714E02002DE9F74F0329144697
:102AD800066905D90B1F032B53D96FF0850023E036
:102AE8000229F7683A4D22D0032923D0012914BFBF
:102AF800B6F90460B6F90660A6FB076732A3D3E906
:102B0800002386FB056530462946FEF7F1FF0023C2
:102B1800304A206029463046FEF7EAFF00232D4A56
:102B2800FEF7E6FF6260002003B0BDE8F08FB6F95B
:102B38000860E1E74FF0000B02F11803DFF894A0FA
:102B48000236019336F9028FA8FB07831EA3D3E947
:102B5800002388FB059848464146FEF7C9FF5246C0
:102B680044F8080B5B4648464146FEF7C1FF52460B
:102B78005B46FEF7BDFF019B44F8042C9C42E1D163
:102B8800D1E70629B5690CD007290ED02A460529B0
:102B980014BFB6F91010B6F912102046FFF7ECFD75
:102BA800C1E72A46B6F91410F7E70E3602F11807FE
:102BB80020462A4636F9021F0834FFF7DDFDA742F2
:102BC800F6D1B0E7AFF300800010A5D4E80000000C
:102BD8003AA3950040420F002DE9F84F174690465A
:102BE800994623F000427B42DFF8E4A104460D46F3
:102BF8003B4342EAD373534509D8464221F0004388
:102C08008E468346064343EAD676564508D9424659
:102C18004B4620462946FDF7FFFF04460D4616E0C1
:102C280009F1404606F580163E4303D1BDE8F84F4A
:102C380000F062BE4FEAA97653EA0B0B06F00206D3
:102C480046EAD17617D1022E05D0032E0AD02046A7
:102C58002946BDE8F88F48A3D3E9002348A1D1E964
:102C68000001D8E744A3D3E9002347A1D1E9000133
:102C7800FDF7D0FFD1E717430DD1BEF1000F3EA3FA
:102C8800D3E9002303DA42A1D1E90001F0E742A128
:102C9800D1E90001BFE7524524D1934218D1022E51
:102CA80035A3D3E900230BD0032E0DD0012E03D07A
:102CB8003BA1D1E90001AEE73BA1D1E90001D7E78B
:102CC8003BA1D1E90001A6E73BA1D1E90001CFE78B
:102CD800022EC0D0032EC5D0012E4FF0000448D0DC
:102CE8000025B4E75345C8D09B1AB3F1747F4FEA67
:102CF80023521ADB32A3D3E9002327A1D1E900012B
:102D0800FDF78AFF04460D46012E21D0022E23D05E
:102D1800002E9CD0204629462BA3D3E90023FDF79B
:102D280079FF17A3D3E90023A2E7B9F1000F01DA6D
:102D38003C320ADB42464B4620462946FEF74CFA0F
:102D480021F0004100F0D8FDDCE700240025DBE796
:102D580005F100431D467AE71BA3D3E9002320466B
:102D68002946FDF757FF02460B4605A1D1E90001A8
:102D78007EE74FF000456AE759F3F8C21F6EA501D8
:102D8800182D4454FB210940182D4454FB2109C037
:102D9800182D4454FB21F9BF182D4454FB21F93F49
:102DA800182D4454FB21E93F182D4454FB21E9BF59
:102DB800D221337F7CD90240D221337F7CD902C013
:102DC800075C143326A6913C075C143326A6A13C65
:102DD8000000F07F000000002DE9F04F91B00D4693
:102DE8000446CDE90023DDE9007B2BF0004252EADE
:102DF800070111D1031885F4002252419942864BEC
:102E0800934180F0D18020462946DDE90023FDF773
:102E180003FF04460D4618E025F000487F4BA946FD
:102E2800844698451DD815D10028ECD14245EAD8EA
:102E380026D1002FE7D17A4B984540F2B880BBF1F4
:102E4800000FC0F21E85DDE900452046294611B075
:102E5800BDE8F08F9A4204D8C64612D1002F00F080
:102E68009C8009F1404909F5801959EA0C09CAD131
:102E7800FA198BF400235B419145674A9A41C0E7F0
:102E8800C646B9F1000F2BDA664B9A422DD9002FAE
:102E980000F0BA800226204625F00041BCF1000F60
:102EA80000F0A9824FEAD97303F1FF3A5AEA060CF7
:102EB80000F0BB82B2F1844F40F2CF805A4CA2425C
:102EC800574A40F2D682904500F2C982BBF1000F02
:102ED80080F2C982002011B0BDE8F04F16F0F8BAB0
:102EE800002F00F081800026D5E74D4B9A421AD872
:102EF800002FF8D1BBF1804F7DD04C4B3E469B450F
:102F0800C9D1204625F00041BCF1000F40F09D805A
:102F1800424B984540F0B984012E04460D4694D1A1
:102F280001F1004591E71315A3F2FF33142B1DDDC2
:102F3800C3F1340327FA03F606FA03F3BB4228D198
:102F480006F00106C6F10206002FA4D1BBF1804F9E
:102F5800A1D1374B98459ED8364B98456ED9224615
:102F68002B4620462946FEF70DF852E7002F40F081
:102F78003B82C3F1140342FA03F606FA03F39342C1
:102F88002D4B1DD19A421DD006F00106C6F102064E
:102F9800DCE7002FA7D13E46D8E708F1404303F508
:102FA800801303437FF447AF0024234D4DE7BBF163
:102FB800000F80F26684DDE9004303F1004544E731
:102FC8009A42E8D1BBF1000FBFF63FAF00220023C1
:102FD80020462946FEF73EFA78B14FEAD97011B07B
:102FE800BDE8F04F16F080BA134B9A42EAD0BBF115
:102FF800804F40F0EF813E46ABE722462B4600204B
:103008000D49FEF7E9F804E7BBF1804F02D0074B02
:10301800022674E702269CE70000F0FF0000F07F1C
:10302800FFFFEF3FFFFF3F430000F0430000E03F9A
:10303800FFFFEF5F0000501E0000F03F5CEA080C45
:10304800204625F0004100F028844FEAD97303F1A7
:10305800FF3A56EA0A0300F0E881C74B002209EA62
:1030680003032BB9C54BFDF78DFF6FF034028E4675
:103078004FEA2E53CEF3130EA3F2FF334EF07F55D3
:10308800134445F440150C93BD4B9E4508DDBD4BDC
:103098009E4540F3A8820C9BA5F5801501330C933F
:1030A8000024E30029466D100D93B74B45F00055F9
:1030B80003EBC40305F50025D3E90023CDE90A0194
:1030C800CDE90823FDF7A6FD80468946DDE90A23F8
:1030D800DDE90801FDF7A0FD02460B460020AB49DB
:1030E800FEF77AF802460B46CDE90E0140464946FE
:1030F800FDF748FFCDE90601DDE90623CDE9042304
:1031080000230493DDE90423CDE9022305EB84437E
:1031180000221D46144629462046DDE90223FDF714
:1031280031FF02460B4640464946FDF773FD80468F
:10313800894620462946DDE90823FDF76BFD02464E
:103148000B46DDE90A01FDF765FDDDE90223FDF720
:1031580019FF02460B4640464946FDF75BFDDDE98F
:103168000E23FDF70FFFDDE90623CDE90801104620
:103178001946FDF707FF804689466DA3D3E900236A
:10318800FDF700FF6CA3D3E90023FDF745FD424698
:103198004B46FDF7F7FE6AA3D3E90023FDF73CFD94
:1031A80042464B46FDF7EEFE67A3D3E90023FDF741
:1031B80033FD42464B46FDF7E5FE65A3D3E9002300
:1031C800FDF72AFD42464B46FDF7DCFE62A3D3E934
:1031D8000023FDF721FD04460D4642464B46404676
:1031E8004946FDF7CFFE02460B4620462946FDF725
:1031F800C9FE04460D46DDE90223DDE90601FDF7B7
:103208000BFDDDE90823FDF7BDFE22462B46FDF741
:1032180003FD04460D46DDE9022310461946FDF775
:10322800B1FE02460B46CDE90A230022584BFDF7B2
:10323800F3FC22462B46FDF7EFFC0020894680462A
:10324800DDE90223FDF79EFE0022514BCDE9020184
:1032580040464946FDF7DEFCDDE90A23FDF7DAFCC6
:1032680002460B4620462946FDF7D4FCDDE9062335
:10327800FDF788FE04460D4640464946DDE9082329
:10328800FDF780FE02460B4620462946FDF7C4FCA2
:1032980004460D4602460B46DDE90201FDF7BCFC7B
:1032A8000020894680462EA3D3E90023FDF76AFE55
:1032B800DDE90223CDE9060140464946FDF7AAFCAF
:1032C80002460B4620462946FDF7A4FC26A3D3E96F
:1032D8000023FDF757FE04460D464046494624A301
:1032E800D3E90023FDF74EFE02460B462046294649
:1032F800FDF792FC0D9A274B1344D3E90023FDF701
:103308008BFCCDE908010C98FDF7D2FD0D9A224BF4
:1033180004460D461344D3E90023DDE90601CDE94F
:103328000223DDE90823FDF777FC37E0AFF30080DF
:10333800EF4E454A287ECA3F65DBC9934A86CD3F92
:1033480001411DA96074D13F4D268F515555D53F78
:10335800FFAB6FDBB66DDB3F033333333333E33F10
:10336800000000E009C7EE3FFD033ADC09C7EE3F65
:10337800F5015B14E02F3EBE0000F07F00004043E3
:103388008E98030079B60B00380C02000000F03F5D
:1033980000000840180C0200280C0200DDE9022396
:1033A800FDF73AFC22462B46FDF736FC0020224664
:1033B8002B4680468946FDF72DFCDDE90223FDF703
:1033C80029FCDDE90623FDF725FC02460B46DDE96D
:1033D8000801B9E0B04B9B452ED12046294611B0D3
:1033E800BDE8F04F15F03CBFBCF1000F1DD12046E1
:1033F80025F00041664629F0404CA84B9C451DD15C
:10340800BBF1000F05DA02460B460020A349FDF781
:10341800E3FEB9F1000FBFF6FCAC08F1404808F52F
:10342800801858EA06087FF477AD2046294611B07F
:10343800BDE8F04F16F064B83E462CE5B8F1000F31
:103448007FF430ADBBF1000F80F22782B9F1000F95
:1034580003DA731E58425841C1E54046BFE5BBF147
:10346800000F3FF737AD002011B0BDE8F04F1CF05A
:1034780054BD904505D2BBF1000F03EA0600F3DA0C
:1034880029E5864A904506D9BBF1000F03EA0600F4
:103498003FF721ADE8E70022804BFDF7BBFB044670
:1034A8000D4673A3D3E90023FDF76CFD72A3D3E99E
:1034B8000023CDE9020120462946FDF763FD0022DD
:1034C800774BCDE9040120462946FDF75BFD02460E
:1034D8000B466BA1D1E90001FDF79CFB22462B4668
:1034E800FDF750FD02460B4600206B49FDF792FBA5
:1034F8008046894622462B4620462946FDF742FD4E
:1035080002460B4640464946FDF73CFD5EA3D3E91B
:103518000023FDF737FD02460B46DDE90401FDF700
:1035280079FB02460B4604460D46DDE90201FDF72C
:1035380073FB002089468046DDE90223FDF76AFB1C
:1035480002460B4620462946013EFDF763FB002252
:10355800044656EA0A064FF000060D4618BF4F4BC0
:10356800B24608BF4F4BDDE90001CDE902235B46B7
:103578003246FDF74FFB42464B46FDF703FDDDE9BA
:103588000023CDE9040120462946FDF7FBFC02464D
:103598000B46DDE90401FDF73FFB5B463246CDE90A
:1035A800000140464946FDF7EDFC0B4602468046C1
:1035B8008946DDE90001FDF72FFB3B4B04460D462C
:1035C80099428B4631DD01F13F4303F5E0030343A4
:1035D8000BD000220023DDE90201FDF745FF801B27
:1035E80018BF012077E401245BE529A3D3E9002370
:1035F800DDE90001FDF710FB06460F4642464B4643
:1036080020462946FDF706FB02460B46304639465A
:10361800FDF748FF30B300220023DDE90201FDF782
:1036280023FF003818BF012055E421F000431F4C48
:10363800A3423FD91E4B0B44034309D00022002369
:10364800DDE90201FDF710FF003818BF01200BE784
:1036580042464B46FDF7DEFADDE90023FDF718FF89
:103668000028EBD140F2094328E000BFAFF3008007
:10367800000000604715F73F44DF5DF80BAE543E8D
:10368800555555555555D53FFE822B654715F73F7E
:10369800FE822B654715973C0000E03F0000F03F95
:1036A8000000D03F0000F0BFFFFF8F40FFCB9040ED
:1036B80000346F3F8C4A934225D91B15A3F2FE3381
:1036C8004FF4801A8948BBF1000F4AFA03FA4FF009
:1036D8000002DA44CAF30A51A1F2FF3140FA01F0BC
:1036E800C1F1140100EA0A03CAF3130A40464AF476
:1036F800801A4AFA01FA4946B8BFCAF1000AFDF72A
:1037080089FA80468946002440464946DDE9002377
:10371800FDF782FA0D46204663A3D3E90023FDF79F
:1037280031FC424606460F464B4620462946FDF7E1
:1037380071FA02460B46DDE90001FDF76BFA5CA35E
:10374800D3E90023FDF71EFC80468946204629461A
:1037580059A3D3E90023FDF715FC02460B46404662
:103768004946FDF759FA04460D4602460B463046CF
:103778003946FDF751FA3246804689463B46FDF701
:1037880049FA02460B4620462946FDF743FA4246C7
:1037980006460F464B4640464946FDF7F3FB0446AE
:1037A8000D4647A3D3E90023FDF7ECFB46A3D3E975
:1037B8000023FDF72FFA22462B46FDF7E3FB44A32F
:1037C800D3E90023FDF728FA22462B46FDF7DAFB5A
:1037D80041A3D3E90023FDF71DFA22462B46FDF746
:1037E800D1FB3FA3D3E90023FDF716FA22462B4667
:1037F800FDF7C8FB02460B4640464946FDF70AFA64
:1038080004460D4602460B4640464946FDF7BAFBBC
:1038180000224FF08043CDE9000120462946FDF7FC
:10382800F9F902460B46DDE90001FDF7D5FC324601
:1038380004460D463B4640464946FDF7A3FB324643
:103848003B46FDF7E9F902460B4620462946FDF7B7
:10385800E1F942464B46FDF7DDF902460B460020EA
:103868002349FDF7D7F901EB0A54B4F5801F06DAAE
:10387800524615F0AFFDDDE90223FFF774BB214680
:10388800F9E700240025FFF7E0BA194B98453FF403
:10389800C4ADB8F1000F7FF4D8AB012E7FF4B9AAFC
:1038A800FFF7D3BAAFF3008000000000432EE63FD5
:1038B800EF39FAFE422EE63F396CA80C615C20BE57
:1038C800D0A4BE726937663EF16BD2C541BDBB3E1E
:1038D8002CDE25AF6A56113F93BDBE166CC1663FFC
:1038E8003E5555555555C53F0000E03F0000F0FFD7
:1038F8000000F03F000000002DE9F84FC04A21F019
:10390800004304460D4693428B4620D9BD4A934254
:1039180001D80CD158B122462B4620462946FDF73E
:103928007BF904460D4620462946BDE8F88FBBF1D1
:10393800000F95A3D3E9002303DD95A1D1E9000188
:10394800EDE795A1D1E90001FDF764F9E9E7AE4A91
:10395800934211D8A2F1DE7293420AD890A3D3E918
:103968000023FDF759F90022A84BFDF79BFD00281D
:10397800D9D14FF0FF3A27E0A54A064621F0004783
:10398800934200F2B880A2F55022934200F29B8045
:1039980002463B4639464FF0000AFDF73DF9002242
:1039A8009A4BFDF737F904460D4600224FF0804345
:1039B80030463946FDF730F902460B46204629467F
:1039C800FDF70AFC04460D4622462B4620462946AA
:1039D800FDF7D8FA02460B4680468946FDF7D2FA2B
:1039E80006460F4670A3D3E90023FDF7CBFA70A370
:1039F800D3E90023FDF710F932463B46FDF7C2FA3A
:103A08006DA3D3E90023FDF707F932463B46FDF7DE
:103A1800B9FA6BA3D3E90023FDF7FEF832463B461B
:103A2800FDF7B0FA68A3D3E90023FDF7F5F83246AD
:103A38003B46FDF7A7FA66A3D3E90023FDF7ECF8A8
:103A480042464B46FDF79EFA80468946304639463F
:103A580061A3D3E90023FDF795FA61A3D3E9002315
:103A6800FDF7D8F832463B46FDF78CFA5EA3D3E95A
:103A78000023FDF7CFF832463B46FDF783FA5CA3F7
:103A8800D3E90023FDF7C6F832463B46FDF77AFA3C
:103A980059A3D3E90023FDF7BDF832463B46FDF7AD
:103AA80071FA02460B4640464946FDF7B5F82246EC
:103AB8002B46FDF767FABAF1FF3F02460B4644D1A1
:103AC8002046294640E70022504B39464FF0010A6C
:103AD800FDF7A0F804460D4600224C4B3046394607
:103AE800FDF79AF802460B4620462946FDF774FB77
:103AF80004460D4668E7474A93421BD20022464BCC
:103B080039464FF0020AFDF785F8002204460D46B3
:103B1800414B30463946FDF735FA00223B4BFDF75D
:103B28007BF802460B4620462946FDF755FB04461E
:103B38000D4649E702463B4600203849FDF74CFB55
:103B48004FF0030A04460D463EE7354B354E03EB6E
:103B5800CA0306EBCA06D3E90023FDF75BF8224641
:103B68002B46FDF757F802460B46D6E90001FDF74C
:103B780051F8BBF1000F04460D46BFBF024601F1E4
:103B8800004314461D46CEE6075C143326A6913C36
:103B9800182D4454FB21F93F182D4454FB21F9BF3B
:103BA8009C7500883CE4377E11DA22E33AAD903FF9
:103BB800EB0D76244B7BA93F513DD0A0660DB13F5C
:103BC8006E204CC5CD45B73FFF8300922449C23FC4
:103BD8000D5555555555D53F2F6C6A2C44B4A2BF89
:103BE8009AFDDE522DDEAD3F6D9A74AFF2B0B33F51
:103BF800711623FEC671BC3FC4EB98999999C93FC9
:103C0800FFFF0F440000F07FFFFFDB3F0000F03FA5
:103C1800FFFFF23F008003400000F83F0000F0BFC4
:103C2800480C0200680C02001FB504240294044CDE
:103C38000194BDF81840009419F060FA04B010BD62
:103C4800B82600201FB502240294044C0194BDF844
:103C58001840009419F052FA04B010BDB62600209E
:103C68001FB502240294044C0194BDF81840009436
:103C780019F044FA04B010BDB42600201FB504247E
:103C88000294044C0194BDF81840009419F036FAD7
:103C980004B010BDC82600201FB506240294044CA9
:103CA8000194BDF81840009419F028FA04B010BD2A
:103CB800C22600201FB506240294044C0194BDF8C6
:103CC8001840009419F01AFA04B010BDBC26002060
:103CD8000B4610B5064C07480321074A16F074FD39
:103CE800206818B105F0BCFF0023236010BD00BF99
:103CF800B0260020C80702004E1B020001290CBF95
:103D08000122002280B50D4B00AF1A700C4A88B012
:103D18000C4B08BF13466A460B49C2E905134FF41A
:103D280000739383094B42F8103F00234FF4E65188
:103D3800074801F055FDBD4680BD00BF94420020F4
:103D48006B1B02006E1B0200721B020003000001C5
:103D5800C807020001290CBF0122002280B50D4BC3
:103D680000AF1A700C4A88B00C4B08BF13466A465D
:103D78000B49C2E905134FF400739383094B42F8CA
:103D8800103F00234FF4E651074801F029FDBD46D6
:103D980080BD00BF954200206B1B02006E1B020015
:103DA800891B020003000001C807020001290CBF9B
:103DB8000122002280B50D4B00AF1A700C4A88B062
:103DC8000C4B08BF13466A460B49C2E905134FF46A
:103DD80000739383094B42F8103F00234FF4E651D8
:103DE800074801F0FDFCBD4680BD00BF964200209B
:103DF8006B1B02006E1B0200A31B020003000001E4
:103E0800C807020001290CBF0122002280B50D4B12
:103E180000AF1A700C4A88B00C4B08BF13466A46AC
:103E28000B49C2E905134FF400739383094B42F819
:103E3800103F00234FF4E651074801F0D1FCBD467E
:103E480080BD00BF974200206B1B02006E1B020062
:103E5800BD1B020003000001C807020001290CBFB6
:103E68000122002280B50D4B00AF1A700C4A88B0B1
:103E78000C4B08BF13466A460B49C2E905134FF4B9
:103E880000739383094B42F8103F00234FF4E65127
:103E9800074801F0A5FCBD4680BD00BF9242002046
:103EA8006B1B02006E1B0200D31B02000300000103
:103EB800C807020001290CBF0122002280B50D4B62
:103EC80000AF1A700C4A88B00C4B08BF13466A46FC
:103ED8000B49C2E905134FF400739383094B42F869
:103EE800103F00234FF4E651074801F079FCBD4626
:103EF80080BD00BF934200206B1B02006E1B0200B6
:103F0800EA1B020003000001C8070200F0B50646DC
:103F18000D46144687B0E3B10F4B1F68CFB1182286
:103F2800002168461BF098FE69463846CDE90165D0
:103F3800ADF80C4008F072FC034650B110F1800F48
:103F480007D00221054A064807B0BDE8F04016F040
:103F58003BBC07B0F0BD00BFB0260020001C02002B
:103F6800C807020003460121014A024816F02CBC8A
:103F7800171C0200C807020010B50446084619B10C
:103F8800BDE81040FFF7EEBF0321054A054816F0CB
:103F980012FC204618F0A5F9034B186010BD00BFAD
:103FA800321C0200C8070200B026002030B50020ED
:103FB80089B004F07FFC044640B10346124A01214F
:103FC800124816F001FC204609B030BD104D0321FF
:103FD800104A0E4803AC16F0EEFB0FCD0FC42B6849
:103FE8000125236002220C4B0C49009503A805F01B
:103FF800BFFA044610B10A4A0346E0E70321094A1A
:10400800024816F0D8FBDEE7401C0200C807020091
:10401800100902005F1C0200880C0200900C0200CC
:10402800751C02009A1C0200024B1868003818BF61
:1040380001207047B0260020034670B51B4C00F1E4
:104048001805224618685968083303C2AB4214465B
:10405800F7D1174B02221B7814491648FFF756FF71
:10406800154B02221B7815491548FFF74FFF154BD2
:1040780004221B7814491548FFF748FF144B062201
:104088001B7814491448FFF741FF144B06221B788C
:1040980013491448FFF73AFFBDE87040124B042259
:1040A8001B7812491248FFF731BF00BFB426002021
:1040B80097420020CC0D020096420020B626002030
:1040C800080E020095420020B8260020440E020087
:1040D80094420020BC260020C80C02009342002015
:1040E800C2260020180D020092420020C826002097
:1040F800680D020013B504460E4B0F48636020603C
:104108001AF0F7FC18B94FF0FF3002B010BD606824
:104118001AF0EFFC0028F6D0012300226068CDE9F0
:10412800003283681C6814B16B464021A047002008
:10413800EBE700BF44030200C402020013B50446C3
:104148000A4820601AF0D5FC68B10A2300222068CA
:10415800CDE9003283681C6814B16B464021A04742
:10416800002002B010BD4FF0FF30FAE72403020030
:1041780013B504460A4820601AF0BBFC68B1D02386
:1041880000222068CDE9003283681C6814B16B46B0
:104198000321A047002002B010BD4FF0FF30FAE71E
:1041A800640302002DE9F04F91B0009302F004037C
:1041B8000293C2F3C2030133840705460E46DDF8B5
:1041C80068800392059340F0BB81041D30B1072934
:1041D80009D86FF01B0011B0BDE8F08F01F0070699
:1041E8003444C6F10806009B4FF000094FF0040A5A
:1041F800591E4FF0FF334F460193CB465346CDF837
:1042080010900DB1009A22600598002800F3E8800C
:104218009848009A824203D397488242C0F0E080CF
:10422800039AA4EB050E92074FEA9E0000F1038162
:104238000F2F00F2B180002D00F0058107F1400238
:104248000DEB020C019A0CF8200C0CF8102C0498B9
:1042580001300490E7E07A285DD84B280ED847282B
:1042680059D829282DD8252852D054D820287AD092
:104278002338D0F1000B4BEB000B74E04C382E28A0
:1042880049D8DFE800F07048484848484848484856
:1042980048484B484848484848484859484B4B596B
:1042A8005959704B6D487048184B184848827F4BD5
:1042B80048484B487F0000204FF0000B4FF0040A9D
:1042C80038E001222A38C0B202FA00F010EA0E0FD4
:1042D80049D110F0625C2FD110EA020B43D060463E
:1042E800013C5444B4FBFAF40AFB04F4002D61D0F9
:1042F800A3EB050CA444B4453FF66BAF002868D186
:10430800042B47D158F8043B2360042304342AE0E3
:10431800019A013A01924FF0000B24E011F8010CC8
:104328006C2834D1002011F8023C83466C2BC5D18F
:104338004FF0080A5346D3E708F1070828F00708A2
:10434800073424F00704F8E802AB35B10698204496
:10435800B0423FF63EAFC4E900AB4FF0000B083463
:104368004FF0080A534611F8010F002878D0BBF126
:10437800000F7FF470AF2528F5D14FF0010B019B9A
:10438800013301934FF0040AECE7584694E7002004
:104398008346A5E7082B02D06FF015001BE708F14C
:1043A800070828F00708F8E80223C4E900230823CF
:1043B8000834D8E768B9042B02D108F10408A4E747
:1043C800082BE9D108F1070828F0070808F10808C0
:1043D800EDE7059A013A059258F8042B009210E788
:1043E800039A900720D54FF0010CA4EB050E4FEA75
:1043F8009E00BEF5007FCFD20F2FCDD8F5B107F1C3
:1044080040020DEB020E019AC0B20EF8200C0EF815
:10441800102CBCF1000F3FF41AAF60F07F000EF8CB
:10442800200C09F101090137C5F108024FF6DA7EBF
:104438000434069297E74FF0000CDAE7BCF1000F5E
:1044480001D00136EFE7029802360028EBD1009838
:10445800CDE90631FDF706FCDDE906310644E2E761
:10446800631BB3F5806F97D245B9A6F10804E0182D
:10447800B1E600BF8400020004530200029A9B08C0
:1044880028602B709DF81030C2B1EB7085F802904F
:10449800B9F1000F05D0002208A8C5F1010C974218
:1044A8000ED14FF0000AC5F101030DF12008019368
:1044B8000DF1300B574512D1601B8CE66B70E5E7A8
:1044C80010F8013B190608D50CEB040EB64503F0AD
:1044D8007F033FF67EAE04F8013B0132DFE7B9F116
:1044E800000F03D098F90020002A17DB029BD3B1F4
:1044F8001AF80B2004F8012B0022019B181910440C
:10450800B0423FF666AE98F80000009904F8010B37
:10451800204603921BF079FB039A14440AF1010A1E
:1045280008F10108C6E798F8002055F822300093F2
:10453800029B009845F82230FDF794FB421CDCE70B
:104548006FF00D0047E600BF2DE9F04F97B000AFC0
:10455800D7F880B03B62CBF3C0030446894690F895
:1045680002A0FA62BB6141B9457800780AEB800085
:1045780020444D4517D8A0EB0409E378FB61BAF154
:10458800000F02D01BF0010F16D1FB6953BBFB6A69
:104598001BB1494620463A6A98474D4628465C373B
:1045A800BD46BDE8F08F461C3046FDF75BFB013089
:1045B800304409F10109DCE7626823787A62FA6A13
:1045C8009900796104EB8301002A40F001810E46CD
:1045D8004FF000084D4601EB0A094E454CD101EB5E
:1045E8000A0610E01BF0020FD1D023789A007A61F6
:1045F800626804EB83017A62FA6A002A77D14D4631
:10460800904601EB0A061BF0050F0CBF022301239D
:10461800FB62FB6906EB430A0BF00203BB625645DB
:10462800BCD016F8021B16F8013C54F82390994B9D
:10463800994502D3984B994536D3BB69002B40D096
:10464800786A15F071FA00283BD0E9468AB06A46C4
:10465800924B53617B6AC2E906314FF400731384AD
:104668008F4B42F8103F00234FF412518D4801F050
:10467800B7F8023DCD46D2E716F8013BF96254F887
:104688002300FDF7EFFAD7F88430F96A01304BB10F
:10469800D7F8883098453EBFD7F8843023F81800FB
:1046A80008F10108054498E7BB6923B1786A15F059
:1046B8003BFA0028C9D11BF0010F05D1FB6AED1A9E
:1046C800ADE7BB6A002BAAD04846FDF7CBFAD7F86E
:1046D800843053B1D7F8883098453FBFD7F8842045
:1046E800431C22F8183008F10108054497E7BAF18D
:1046F800000F73D01BF0040673D0D046002607F1D4
:10470800480052463B61B9621BF07FFAB96A3B69BF
:1047180001EB0A02BA62FA69F9695200FA60BA6AE8
:1047280002EB41023A610BF00202BA603A69B96AD7
:104738008A4258D162781BF0020F18BF00217A62B2
:1047480008BF4FEA5801B2181BF0010FD2B240F06F
:104758009F801BF0040F14BF40460020BB616270AD
:10476800A070E17020463A6A7969FB6A9847051E8D
:10477800FFF614AFBB69414623707B6A3A6A6370DF
:10478800FB6984F802A0E37007F14800FB6A9847C8
:10479800B0F10008C0F2BA807B69A9EB0A01C91A16
:1047A800FB683A6AC91AD7E90A0398470028C0F291
:1047B800AF804FF0000BA84408EB000507F1380A5A
:1047C800B34571D300213A6A0846FB6A9847E5E683
:1047D80056464FF0000807F1380092E75646D04693
:1047E80096E7B04694E7BA6A12F8021B12F8015C21
:1047F800BA6254F82500274A904202D3264A9042CA
:104808001ED3BA6932B1786A7B6015F08DF97B687E
:1048180000288BD1BA6802BB08F1280207F1300CD6
:1048280008F10100944407F1580208F1020852FA0D
:1048380080F00CF8101C5FFA88F800F8105C75E737
:10484800BA693AB1786A7B6015F06EF97B6800281E
:104858007FF46CAF1BF0010F09D006F1280207F1B5
:104868003000711C161806F8205CCEB25EE71BF00B
:10487800040F3FF45BAF08F1280207F1300008F19C
:10488800010102EB000808F8105C5FFA81F84DE7B7
:10489800002063E784000200045302009E1E020009
:1048A80004000001400802001BF80A3054F8239065
:1048B80087F83730D7F884302BB3D7F888309B4542
:1048C80021D2D7F8843033F81B8001213A6AFB6A79
:1048D80007F13700984700281ADB0544B8F1000FA4
:1048E80006D14846FDF7BEF900F101081FFA88F81D
:1048F800414648463A6AFB6A9847002808DB05445F
:104908000BF1010B5CE74FF00008DEE7454645E692
:10491800054643E6014B1860704700BF7802002047
:1049280080B505460E46174698460EF0AFFB03467F
:104938001BF09AFB0446DFF81890424649F800300D
:1049480039463046A84754F8090001F08BFE00BFED
:10495800080000002DE9F047058B0446280790461B
:1049680011D4022905F0070540F0CC80204615F047
:104978008AFB78B10138218B042811D8DFE800F0D0
:10498800C2106D85950001290CBF45F0100545F052
:104998002005258388F31188BFF36F8FBDE8F08762
:1049A80001F0070AAA4500F0A5800027B9463E464F
:1049B800A368002B00F0BC8041F00801218388F334
:1049C8001188BFF36F8FA168002900F0BA800D68C5
:1049D800002900F0B680334652462046D1F80480BC
:1049E800C047002D76D02B6829461D46F0E701F018
:1049F80007035A1F012A1BD8002221F00701062BA2
:104A0800276889B2C4E9002209D13B4603E0628BDA
:104A1800013262831B68002BF9D141F00201204664
:104A2800218315F030FB00287AD041F0200176E090
:104A3800042B0AD121F0070189B22046218315F001
:104A480022FB10B141F020012183218B01F0070ADC
:104A5800AA454FD00027B946AAE7236921F00701E4
:104A680041F00601062DD3F8009021832DD1B9F12C
:104A7800000F3FD041F00801218388F31188BFF36C
:104A88006F8F20463949C84729E021F0070123697B
:104A980041F0040189B2042DD3F804902183E6D0B3
:104AA80000274FF0040A3E4682E721F007012369F8
:104AB80041F0050189B2052DD3F808902183D6D09D
:104AC80000274FF0050A3E4672E700274FF0060A16
:104AD8003E466DE72B4687E7B9F1000FD1D1EFF3DA
:104AE8001188202383F31288BFF36F8F238B23F061
:104AF80008032383258BEA062ED525F0100323838C
:104B080005F007056669218B002EBFF670AF0023FC
:104B18002768C4E9003321F0070141F0010121832E
:104B2800218B4FF0000901F0070AAA457FF440AF36
:104B3800002F9CD041F00801218388F31188BFF32E
:104B48006F8F002FC8D03D683946334652462046FD
:104B580015F0C5FA2F46F4E7AB067FF51BAF25F035
:104B68002003238305F0070500E700BF13A1010018
:104B780010B530B90B480C4915F090FB6FF01500D3
:104B880010BD836833B90748084915F087FB6FF0F3
:104B98000400F5E71B6813B1BDE810401847184634
:104BA800EEE700BF60080200521F0200631F020008
:104BB80010B530B90B480C4915F070FB6FF01500B3
:104BC80010BD836833B90748084915F067FB6FF0D3
:104BD8000400F5E75B6813B1BDE8104018471846B4
:104BE800EEE700BF60080200521F0200631F0200C8
:104BF80070B508B101B132B90B480C4915F04EFB3C
:104C08006FF0150070BD84680CB1E56835B90648C9
:104C1800074915F043FB6FF00400F3E741F8040B74
:104C2800E368BDE87040184760080200811F020071
:104C3800631F020010B5044630B91048104915F03A
:104C48002DFB6FF0150010BD006830B90B480D49F9
:104C580015F024FB6FF00100F5E783680BB11B69C1
:104C680033B90648084915F019FB6FF00400EAE764
:104C7800616898470028E6D12060E4E760080200F0
:104C8800AD1F0200BE1F0200631F020070B513466D
:104C9800044630B91048114915F000FB6FF01500B3
:104CA80070BD006830B90C480D4915F0F7FA6FF07F
:104CB8000100F5E782680AB1956835B906480949DF
:104CC80015F0ECFA6FF00400EAE70A46AC466168B2
:104CD800BDE87040604700BF60080200AD1F0200D9
:104CE800BE1F0200631F0200034A13680BB9526813
:104CF80013600020704700BF7C02002030B50C46CE
:104D08000E4985B00291D0F8D4110546CDE900319D
:104D180000F1F0014FF0FF3320460CF043FE50B98C
:104D2800012384F86C30D5F8D03123B1204605B082
:104D3800BDE83040184705B030BD00BF9DA3010055
:104D480038B50C461146054615F026FB034638B91A
:104D58002846044915F020FB03460020236038BD8F
:104D68000120FBE7101E02002DE9F04F01238146C8
:104D7800056946688FB005F56B77D7E8EF2F002AED
:104D880003D1C7E8E13F0029F7D10CBF1A4600223A
:104D980040F0BB80B368B16A05F5F8781C1F10466F
:104DA80015F081FB844279D8013A00F0A880B2FA64
:104DB80082F24FF00044D44072682046073222F055
:104DC8000302C5F83C22B16A15F06DFBC5F8400234
:104DD800B36A40466343033323F0030302EB430201
:104DE800230103EB4403093323F0030303EBC40358
:104DF800C5F834221A440832C5F830227368C5F859
:104E08003842C5F82C32424BC5E9AD63316800F031
:104E1800F1F9044600283FD1D9F810B0D9F804A018
:104E2800D9F800300BF53479059004934846DAE94F
:104E38000734012B08BF103C1AF0A0F8DAF8240058
:104E4800344904AB009301EB8021234648464FF4D4
:104E580080620DF0FFFC2021DAF824302E4A06A8E3
:104E680013F0E2F806A948460DF0D4FD2B490BF5DE
:104E780030701AF03CF8DAE9050183685C684CB1D7
:104E88005B46274AA047044630B9DAE9050183683A
:104E98001B692BB96FF05704002129E001327EE726
:104EA8000122984704460028F6D11E4B2846C5F82B
:104EB800D0311D4BC5F8D4311C4B0393D5F8403283
:104EC8000293D5F83C32CDE9008305F51173B26A37
:104ED800D5F8A81300F056F904460028DCD105F1EE
:104EE800F0000CF005FE0028C5F8B0030ADB02212B
:104EF800384615F085FA20460FB0BDE8F08F6FF000
:104F08000B04C9E76FF01504C6E76FF07704F2E702
:104F1800F3A3010058450020E31F0200D9A30100B4
:104F2800CDA30100394F000085A5010039A4010077
:104F380013B5044640B100230122CDE90032074BE6
:104F4800D0E909120CF002FD236F1B6823B1606FD2
:104F580002B0BDE81040184702B010BD101E020094
:104F680013B504460846216901F56B71D1E8AF1FF6
:104F7800022910D193B1A0B10121CDE90031134626
:104F8800D0E909120CF0E2FC074B984208BF6FF019
:104F98000B0002B010BD6FF00F00FAE76FF04C0085
:104FA800F7E76FF00100F4E72EF8FFFF2DE9F3476C
:104FB80089461546066906F56B73D3E8AF3F022BA1
:104FC80064D1136823B96FF0150002B0BDE8F0870B
:104FD8001B78002BF7D0D6F8A8A3BAF1000F36D16A
:104FE80006F5EC774FF0FF324FF0FF3338460DF0FF
:104FF8005FF930462A6801A9FFF7A2FE019C8046A6
:105008001CB9384615F0FAF9DDE705F108032367FE
:10501800AB6984F86CA06367646460B1384615F0C6
:10502800EDF921463046A36E2A68FFF767FE002097
:10503800C9F80040C9E71F22296804F148001AF09E
:1050480035FE384684F8678015F0D8F9EFE7304622
:10505800104915F0A1F904460028B4D0002705F13D
:1050680008030367AB6980F86C70436740641F22CC
:10507800296848301AF01AFE22460121304684F881
:10508800677000F061F80028D1D09CE76FF00F003E
:105098009BE700BF101E020010B50C46006900F522
:1050A8006B73D3E8AF3F022B0FD189B10A4900F5E2
:1050B800307019F048FF204619F045FA782200218F
:1050C80020461AF0C9FD002010BD6FF00F00FBE765
:1050D8006FF00100F8E700BFCC2600202DE9F04F63
:1050E80005460E4690460027D0F8C4A085B0AAF51C
:1050F800BE7421463046FCF7A3FDE0B9114BA4F17C
:10510800480B0293DAF810303246CDE9008329467D
:105118004FF0FF335846AAF5E2790CF043FC60B92A
:105128007823012203FB079383F86C20DAF80C300C
:105138000BB158469847783417B105B0BDE8F08FE1
:105148000127D6E7B3A501001FB5144690B18AB16F
:10515800012912D10A4B00F1F0010293D0F8D431A1
:10516800483201934FF0FF33204600930CF01AFCAD
:1051780004B010BD6FF01500FAE70020F8E700BF93
:10518800B3A501002DE9F04387B00E46DDE90E8195
:105198001446DDE910251F4630B329B3DFF850C0A7
:1051A80000F1F009002D08BF65469EB9CDE903441A
:1051B80000F5E2742046059619F05DFC03ABCDE9D5
:1051C80000432A463B46414648460CF00BFD07B0D3
:1051D800BDE8F083002241460E9248462A4607B0B1
:1051E800BDE8F0430CF04EBE6FF01500EFE700BFCE
:1051F800E5500000F0B504462B4A87B004AB0E46D4
:1052080092E8030083E80300002C49D018460CF00C
:10521800A3FA0546B0B94FF0FF33E16C04F1540727
:10522800A163CDE9010000933846236D04F13802EB
:1052380018F03BFEA06C15F0E7F9C4F8BC0020B9E3
:105248006FF00B05284607B0F0BDA06C15F0DCF92F
:10525800C4F8C0000028F3D0236CD4F8BC10C4F8FC
:1052680090300423C4F89430C4F8AC300223E362CD
:105278000E4BB4F84820C4F88C10616C236204F11A
:105288008C03C4F8A070A4F89820C4F8B870C4F8C7
:10529800A810A4F8B020C4F8A400A6612363D1E73D
:1052A8006FF01505CEE700BF24090200980E020032
:1052B8002DE9F047044607464FF00109DFF8508012
:1052C80014B93846BDE8F08794FAA4F5B5FA85F51F
:1052D80009FA05F32E0108EB05156FEA030A24EA1B
:1052E80003042B7B002BEBD058F806301B694BB915
:1052F8004644736804222846196807EA0A0715F025
:10530800EBF9DDE7284698470028D9D1F0E700BF38
:10531800B808020030B5002289B00F490F481AF0CA
:105328000AF8002200230024CDE906230E230C4DA1
:10533800CDE903344FF440722846CDE90144094BC6
:10534800094900940DF0DCFB084928460DF062FB82
:10535800204609B030BD00BF79530000F810002086
:10536800380C00208D56000058490020EF1F02001D
:1053780001480DF097B800BFD80600202DE9F04786
:10538800804621480F4615F08BF90646002833D091
:1053980000252846BDE8F087237B83B12368DB68B6
:1053A8000BB120469847636883F8069023681B6909
:1053B800D3B9636804222046196815F08DF90136BF
:1053C80010345445E8D3B8F1000FE2D0002DDFD0F7
:1053D8002846FFF76DFF0546002FF7D000214FF450
:1053E800A47019F0D4FEF1E7204698470028E0D0D1
:1053F80009FA06F31D43E2E705464FF00109034C9D
:10540800DFF80CA0DDE700BF04270020B808020081
:10541800C8080200014B53F820007047D80E02005C
:1054280008B5034608462BB1044A136000F06EFC29
:10543800002008BD6FF01500FBE700BFA8020020A0
:1054480010B5044C237813B903480DF02BF8012349
:10545800237010BD98420020D806002010B50446DD
:10546800094815F01DF93CB1084BD3E8EF1F013985
:10547800C3E8E21F002AF8D1054819F068FFBDE823
:10548800104004480DF00EB8FC260020002700202C
:10549800F8100020D806002000200146034BD3E86E
:1054A800EF0FC3E8E21F002AF9D17047FC2600205D
:1054B80070B5FFF7F1FF0546074C084EB44200D31C
:1054C80070BD63685B792BB123685B6813B12946AB
:1054D800204698471034F1E7B8080200C8080200CF
:1054E80010B5044C0449204614F066FC034B1C60BC
:1054F80010BD00BFA0050020C40E0200F426002045
:1055080000230D4A10B513700C4A4FF40041136084
:105518000B4A0C481360FFF783FFFFF7E1FF0A4BC4
:105528000A4918468B4200D310BD1A1A5C6812113A
:10553800013222711033F5E799420020FC26002041
:1055480000270020A5A60100B8080200C80802002C
:10555800014600220023014814F04FBCA00500209A
:10556800014814F0E8BC00BFA0050020024B01462A
:10557800186814F034BD00BFF4260020014814F068
:1055880069BD00BFA005002070B5274B187800281A
:1055980049D0FFF7E5FF0546002841D1234B244CAD
:1055A8001B68002B19DD19F07FFE4FF47A72A0FBFF
:1055B800020302FB0131C30B43EA4143D4E9002053
:1055C8009B1A40F2E9324FEAD13161EB0001934274
:1055D80071F1000101D3FFF76BFFD4E9003213F535
:1055E8007A7342F10002C4E90032BDE87040FFF767
:1055F800C5BF63685B7923B12368294620461B68C9
:1056080098471034B442F4D32846FFF7AFFF094B4C
:10561800D3E8EF1F0139C3E8E21F002ABED0F7E73D
:10562800054C064EEEE770BD98420020FC2600208F
:10563800F010002000270020B8080200C808020067
:1056480070B50D4D297861B90120FFF797FE0B4C15
:105658000B4EB44206D3FFF797FF0028FBD1012376
:105668002B7070BD63685B791BB1236820469B680B
:1056780098471034EDE700BF99420020B8080200AF
:10568800C808020000212DE9F0470846FFF776FE1A
:10569800044658B340F267684FF000091AF0E4FC7A
:1056A8001B4B1C4A1B58136033B11B4B1B68092B3F
:1056B80002DD1A480CF0F6FE0025194FDFF85CA051
:1056C80044B12046FFF7F4FD044618B94FF0FF38FF
:1056D8004FF0FF39FFF758FF064628B9B5B94246DB
:1056E8004B4650460CF018FF3546E9E74FF0FF38B7
:1056F8004FF0FF39D2E72B689B691BB1002228467F
:10570800114698471035BD42F5D3E8E7054DFAE74D
:1057180008000000F826002000270020D8060020F6
:10572800C8080200B808020013B5184814F0B8FFFA
:10573800174B1B7873B1EFF31184202383F312887E
:10574800BFF36F8FFFF720FF84F31188BFF36F8FCC
:1057580002B010BD0F4B1B68002BF9D050B90022C6
:1057680000230D48CDE900234FF4004200230DF03B
:10577800ABFFEDE70928EBD1074819F0E8FD07482A
:1057880002B0BDE810400CF08DBE00BF002700201D
:1057980099420020F8260020F8100020D8060020A2
:1057A80010B5064B04461B6898472146A06004487C
:1057B80014F0A2FBBDE81040FFF7B6BFA802002016
:1057C800A0050020044A054B9B1AB1EBD30F34BF48
:1057D80052F831000020704788070200B80802001C
:1057E8002DE9F04F8FB0C1F34A2804AF0D4691461A
:1057F800B8607B600C0DB8F1000F63D000264FF045
:10580800040B4FF00A0A07F11403C7F80C80C7E924
:1058180007667E620193CDF808B0CDF800A007F1C5
:105828001C0332464846F968FEF78EFEB0F5006F55
:1058380003461CD36C468AB0D9F8041004AB26483A
:105848001A46C3E9050140F2FF71D9614FF40071AE
:105858001984224B42F8103F4FF412513346204826
:10586800FFF7BEFFA5462C37BD46BDE8F08FC0F355
:105878000A0804F11700184420F0070080083B606C
:10588800FFF766FE68F35325044690B13B6800F1C4
:105898001001C7E9083607F11403F961CDE900A33F
:1058A800CDF808B048460F4AF96807F11C03FEF71F
:1058B8004BFE68F353252A4620467B68B96814F0E6
:1058C8002AFFD0E704F1170020F007008008FFF74F
:1058D8003FFE0446EDE700BF04200200040000017B
:1058E80068080200F3A601002DE9F04F87B00446CE
:1058F800DDE9105ADDE91279934698460391BFB164
:105908003B46524610210020CDF80090CDF8149067
:10591800FEF748FCB0F5006F06460AD340F2FF7365
:105928000221174A174807B0BDE8F04F14F04CBFE2
:105938003E4605F11700304420F007008008FFF7C5
:1059480007FE04F007040BF0070BE40044EA8B148D
:1059580044EA462444EA0554054640B13FB13B4673
:1059680052463146CDF800901030FEF71BFC4346F6
:1059780022462846039907B0BDE8F04F14F0CBBE85
:105988004320020068080200406820B1034BC01A97
:1059980040F3CF0070474FF0FF3070478807020090
:1059A8000EB403B503AB53F8042B01460448019326
:1059B80001F08CF902B05DF804EB03B0704700BF4A
:1059C80033A80100CA0605D48B064CBF0249034917
:1059D800FFF7E6BF704700BF0F1E0200B351020079
:1059E8002DE9F04F89B09B46149B9DF84CA0069377
:1059F800159B04460593169B0D469046179E0493E7
:105A0800BAF1000F00F09D8006F48073079314F03C
:105A180061FE06F00209024600283ED02046914960
:105A2800FFF7BEFF0746B9F1000F08D016F0440F84
:105A380035D12A4620468C49FFF7B2FF074406F0C5
:105A4800010353B1894B204653F82A20884B8949D2
:105A5800002A08BF1A46FFF7A3FF06F48073002B3D
:105A680049D006F00803002B63D1B8F1000F66D0C7
:105A7800424620468049FFF793FF0546069B3D4472
:105A8800002B6DD1049B002B73D1F30700F1E48048
:105A980031462046FFF796FFD8E00746C3E7774B25
:105AA80018680028CAD0764B4FF47A791B684FF0F3
:105AB8003C0CB5FBF3F5B5FBF0F14FF4616300FB6B
:105AC800115509FB05F5B1FBF3F2B5FBF0FE03FB3D
